:020000040800F2
:1000000090A10020C102000811F6000841C30008B9
:10001000E5EA0008B92A0008D581010800000000BF
:1000200000000000000000000000000001210108A5
:10003000753500080000000091030108492D0108F2
:10004000DB02000841020108DB020008DB020008B5
:10005000DB020008DB020008DB020008DB0200080C
:10006000DB020008DB020008DB0200089D2C000810
:10007000AD2C0008BD2C0008DB020008CD2C0008C8
:10008000DB020008DB02000861080008DB02000850
:100090009980010889350008DB020008DB020008AE
:1000A000DB020008DB020008DB020008DB020008BC
:1000B000DB020008DB020008DB020008DB020008AC
:1000C000DB020008DB020008DB020008DB0200089C
:1000D000DB020008DB020008DB020008C14801085F
:1000E000DB020008DB020008DB020008DB0200087C
:1000F000DB020008DB020008DB020008DB0200086C
:10010000DB020008DB020008DB020008DB0200085B
:10011000DB020008DB020008DB020008DB0200084B
:10012000DB020008DB020008DB020008DB0200083B
:10013000DB020008DB020008DB020008DB0200082B
:10014000DB020008DB020008DB0200080000000000
:10015000000000000000000000000000000000009F
:10016000000000000000000000000000DB020008AA
:10017000DB020008DB020008192E0108DB02000880
:10018000DB020008DB020008DB020008DB020008DB
:10019000DB0200080000000099350008DB020008BF
:1001A000DB020008DB020008DB020008DB020008BB
:1001B000DB020008DB020008DB020008DB020008AB
:1001C000DB020008DB020008DB020008DB0200089B
:1001D000DB020008DB02000800F002F800F060F823
:1001E0000AA090E8000C82448344AAF10107DA4592
:1001F00001D100F055F8AFF2090EBAE80F0013F084
:10020000010F18BFFB1A43F001031847DCB40100CB
:10021000FCB401000A444FF0000C10F8013B13F04D
:10022000070408BF10F8014B1D1108BF10F8015B4F
:10023000641E05D010F8016B641E01F8016BF9D142
:1002400013F0080F1EBF10F8014BAD1C0C1B09D199
:100250006D1E58BF01F801CBFAD505E014F8016B0B
:1002600001F8016B6D1EF9D59142D6D3704700009D
:100270000023002400250026103A28BF78C1FBD8AF
:10028000520728BF30C148BF0B6070471FB51BF035
:1002900038F99DE8030000F0CFF91FBD10B510BD7F
:1002A00000F05CFA1146FFF7F1FF18F089FD00F04D
:1002B0007AFA03B4FFF7F2FF03BC00F0ABFA0000D8
:1002C0000948804709480047FEE7FEE7FEE7FEE7EA
:1002D000FEE7FEE7FEE7FEE7FEE7FEE70448054926
:1002E000054A064B70470000052E0108D901000899
:1002F0009071002090A1002090810020908100202A
:1003000070B5064600F07CF9056806F10B0020F098
:100310000704B4429CBF002070BD2B466A68BAB186
:100320001068A04210D304F1080188423CBF506815
:10033000586007D35168101941601168091B0160AA
:1003400058601460101D70BD13465268002AE7D132
:100350002146284600F05CF90028DED170BD53EA42
:10036000020C00F069802DE9F04B4FF00006002BE5
:100370001FBFB3FA83F503FA05F424FA05F65E40CD
:1003800012BF1643B2FA82F502FA05F4C5F1200550
:100390001EBF22FA05FC44EA0C04203556EA044C40
:1003A0004FEA144418BF641C4FF000084FF00009D6
:1003B000904271EB030C39D3002919BFB1FA81F7D0
:1003C00001FA07F6B0FA80F700FA07F6C7F120073E
:1003D0001EBF20FA07FC46EA0C062037B6FBF4FCE9
:1003E000A7EB0507103F07F01F0BCBF120062CFAF7
:1003F00006F60CFA0BFB44BFB3460026202FA4BF21
:100400005E464FF0000B5BEA060C08BF4FF0010B95
:1004100019EB0B0948EB0608ABFB027C06FB02CC90
:100420000BFB03CCC01B71EB0C01C1E70B46024672
:1004300041464846BDE8F08B13B5084318BF4FF05E
:10044000FF300146AFF30080BDE81C407047002834
:1004500000DA4042704740EA010310B59B070FD114
:10046000042A0DD310C808C9121F9C42F8D020BA24
:1004700019BA884201D9012010BD4FF0FF3010BDDC
:100480001AB1D30703D0521C07E0002010BD10F8AA
:10049000013B11F8014B1B1B07D110F8013B11F870
:1004A000014B1B1B01D1921EF1D1184610BD032A2E
:1004B00040F2308010F0030C00F0158011F8013B81
:1004C000BCF1020F624498BF11F801CB00F8013B68
:1004D00038BF11F8013BA2F1040298BF00F801CB2C
:1004E00038BF00F8013B11F0030300F02580083A03
:1004F000C0F0088051F8043B083A51F804CBA0E85A
:100500000810F5E7121D5CBF51F8043B40F8043BAE
:10051000AFF30080D20724BF11F8013B11F801CBE3
:1005200048BF11F8012B24BF00F8013B00F801CBB4
:1005300048BF00F8012B704710B5203AC0F00B807F
:10054000B1E81850A0E81850B1E81850A0E81850C9
:10055000203ABFF4F5AF5FEA027C24BFB1E818503F
:10056000A0E8185044BF18C918C0BDE810405FEAA1
:10057000827C24BF51F8043B40F8043B08BF70471D
:10058000D20728BF31F8023B48BF11F8012B28BF22
:1005900020F8023B48BF00F8012B704702F0FF0330
:1005A00043EA032242EA024200F002B84FF000029E
:1005B00000B5134694469646203922BFA0E80C5059
:1005C000A0E80C50B1F12001BFF4F7AF090728BF34
:1005D000A0E80C5048BF0CC05DF804EB890028BFB0
:1005E00040F8042B08BF704748BF20F8022B11F0D9
:1005F000804F18BF00F8012B704770477047704755
:1006000000487047000500207047704770477047EA
:1006100038B504460A4600206946AFF3008000283A
:1006200008BF38BD02460099204600F075F8012049
:1006300038BD012000F08AB8F8B5AFF30080054658
:1006400000200C46102000BF0646A819A0420DD974
:10065000324669460020AFF30080070008BF00F073
:1006600075F80098A04218BF0546C419FFF7C8FFE7
:1006700005600746F01D20F007004619284600F0E7
:100680000AF8B44208BFF8BDA21B31463868BDE87D
:10069000F84000F041B800210160C0E90110704746
:1006A0001020704770B50446051FFFF7A9FF0068CA
:1006B000002C14BF446870BD002C18BFAC423CBF76
:1006C00020466468F8D301680A18AA4218BF45603A
:1006D00003D12A6805461144016028684119A142E6
:1006E0001CBF6C6070BD6168696021680844286047
:1006F00070BD10B500F00CF8006810BD10B50446D0
:1007000000F006F8046010BD00487047F8040020AF
:1007100000487047F8040020034640688C460028D3
:1007200018BF88423CBF03464068F8D31868184495
:10073000884207D00CF1030020F00700001D411A89
:10074000521A0146081D0A60FFF7ACBF10B500F051
:1007500039F8BDE8104000F02FB870477546FFF734
:10076000D3FFAE4605006946534620F00700854694
:1007700018B020B5FFF7B2FDBDE820404FF00006ED
:100780004FF000074FF000084FF0000BAC46ACE80C
:10079000C009ACE8C009ACE8C009ACE8C00921F068
:1007A00007018D46704710B50446AFF30080204620
:1007B000BDE81040FFF77DBD002801D000F02AB849
:1007C0007047000010B5012805D0002103A000F0FB
:1007D00027F8012010BD09A1F8E70000534947524E
:1007E000544D454D3A204F7574206F662068656101
:1007F00070206D656D6F7279000000003A204865C9
:100800006170206D656D6F727920636F72727570A3
:100810007465640001491820ABBEFEE726000200A3
:1008200070B505460C460A2000E06D1C00F011F87A
:1008300035B128780028F8D102E0641C00F009F8EE
:1008400014B120780028F8D1BDE870400A20AFF339
:10085000008008B569468DF800000320ABBE08BDD6
:1008600080B542F65810C2F2000004F06BFA80BD69
:1008700080B582B001900198806A00900098C06DA8
:1008800010F0500F4BD1FFE70099C86D40F4007095
:10089000C8650098006800680007002821D5FFE7B8
:1008A000009800680DF066FAD0B1FFE70098006884
:1008B000C0688004002812D4FFE70099C86D20F4B6
:1008C0008070C8650098C06DC004002806D4FFE79A
:1008D0000099C86D40F00100C865FFE7FFE7FFE73A
:1008E00019E000980068C0688007002812D4FFE76C
:1008F0000099C86D20F48070C8650098C06DC00470
:10090000002806D4FFE70099C86D40F00100C865D3
:10091000FFE7FFE7FFE7009804F008FA10E000980F
:10092000C06DC006002804D5FFE7009804F006FA61
:1009300005E00098406D416B01988847FFE7FFE7AD
:1009400002B080BD80B582B001900198806A0090AD
:100950000099C86D40F04000C8650099086E40F0ED
:1009600004000866009804F0E9F902B080BD0000B8
:1009700080B582B001900198806A0090009804F0E0
:10098000D9F902B080BD000040F25850C2F2000018
:1009900090ED000AB8EE400A9FED091A80EE010AB8
:1009A000B2EE061A20EE010A9FED061A20EE010AA9
:1009B00040F2D050C2F2000080ED000A704700BF44
:1009C00000FF7F479A99394080B584B00290029821
:1009D00000680DF0AFF90090029800680DF0B2F9D0
:1009E00000284BD0FFE70098002847D1FFE7029886
:1009F0000068806800F00D00012809D1FFE7029827
:100A000000680DF013F902980168032008600DE0FA
:100A10000299C86D40F01000C8650299086E40F058
:100A20000100086601208DF80F002BE006F0C0FBE6
:100A30000190FFE7029800688068C007E8B1FFE70F
:100A400006F0B6FB0199401A032815D3FFE7029878
:100A500000688068C00770B1FFE70299C86D40F078
:100A60001000C8650299086E40F001000866012078
:100A70008DF80F0006E0FFE7DCE7FFE700208DF8C8
:100A80000F00FFE79DF80F0004B080BD80B584B073
:100A90000290029800680DF055F900284ED1FFE74A
:100AA0000298006880683F21C8F2000108420ED019
:100AB000FFE70299C86D40F01000C8650299086E02
:100AC00040F00100086601208DF80F003AE002981E
:100AD00000680DF0C5F806F06BFB0190FFE7029887
:100AE00000680068C00740BBFFE7029800680DF08F
:100AF00029F928B9FFE7029800680DF0B1F8FFE77F
:100B000006F056FB0199401A032815D3FFE7029817
:100B100000680068C00770B9FFE70299C86D40F02F
:100B20001000C8650299086E40F0010008660120B7
:100B30008DF80F0006E0FFE7D1E7FFE700208DF812
:100B40000F00FFE79DF80F0004B080BD80B582B0B4
:100B500042F65810C2F2000001907F2103F0E6FB3C
:100B60000A2005F0D1F9019840F25851C2F2000173
:100B7000012204F03DFE02B080BD000040F2D850DA
:100B8000C2F200007047000080B582B0FFF7F6FFA8
:100B9000019006F00DFB0090009801994969401AF8
:100BA00000EE100AB8EE400A9FED111AB4EE410AA9
:100BB000F1EE10FA04DCFFE701990120887014E0DF
:100BC000009801994969401A00EE100AB8EE400AEF
:100BD0009FED071AB4EE410AF1EE10FA04DBFFE7CD
:100BE000019900208870FFE7FFE702B080BD00BFD9
:100BF0000000C84280B584B08DF80F00FFF7BEFF3B
:100C000002900EF01DF801909DF80F0002990870F7
:100C10009DF80F000199887004B080BD80B584B044
:100C2000FFF7ACFF03900EF00BF8029003F01EFAF2
:100C3000019001980078002800F05681FFE70398A2
:100C40004078002840F0A680FFE740F20000C2F2A2
:100C50000000006840F66401C2F20001086040F242
:100C60000400C2F20000006840F66801C2F2000110
:100C700008600298B0F9160000EE100AB8EEC00A3B
:100C8000B1EE400A9FEDA41A80EE010A039880EDB0
:100C9000010A0298B0F9180000EE100AB8EEC00A76
:100CA000B1EE400A80EE010A039880ED020A039833
:100CB00090ED020A40F27C00C2F2000090ED001AB2
:100CC000B4EE410AF1EE10FA08DDFFE740F27C00D5
:100CD000C2F2000000680399886017E0039890ED65
:100CE000020A40F27800C2F2000090ED001AB4EE61
:100CF000410AF1EE10FA08DAFFE740F27800C2F29A
:100D00000000006803998860FFE7FFE7FFE70398AA
:100D100090ED010A9FED811AB4EE410AF1EE10FA4E
:100D20000ADBFFE7039890ED010A9FED7F1A30EE92
:100D3000010A80ED010AEAE7FFE7039890ED010A56
:100D40009FED771AB4EE410AF1EE10FA0ADCFFE7E4
:100D5000039890ED010A9FED731A30EE010A80EDC1
:100D6000010AEAE7029890F82800022811D1FFE76B
:100D70000298C07868B1FFE70DF09AFF48B9FFE725
:100D80000398806801990861039840680199C860D8
:100D9000FFE7A8E003984078012840F0A380FFE730
:100DA00040F22000C2F20000006840F66401C2F286
:100DB0000001086040F22400C2F20000006840F622
:100DC0006801C2F200010860029890ED020AB1EEDB
:100DD000400A9FED511A80EE010A039880ED030A44
:100DE000029890ED030AB1EE400A80EE010A0398E2
:100DF00080ED040A039890ED040A40F27C00C2F2F0
:100E0000000090ED001AB4EE410AF1EE10FA08DD90
:100E1000FFE740F27C00C2F200000068039908611D
:100E200017E0039890ED040A40F27800C2F2000047
:100E300090ED001AB4EE410AF1EE10FA08DAFFE77D
:100E400040F27800C2F20000006803990861FFE7F1
:100E5000FFE7FFE7039890ED030A9FED301AB4EE29
:100E6000410AF1EE10FA0ADBFFE7039890ED030A5E
:100E70009FED2D1A30EE010A80ED030AEAE7FFE745
:100E8000039890ED030A9FED261AB4EE410AF1EEA5
:100E900010FA0ADCFFE7039890ED030A9FED211A90
:100EA00030EE010A80ED030AEAE7029890F8280084
:100EB000092816D1FFE70298C07890B1FFE70DF03E
:100EC000F7FE70B9FFE703988078012809D1FFE7A2
:100ED00003980069019908610398C0680199C86086
:100EE000FFE7FFE7FFE714E040F20000C2F2000076
:100EF000006840F66401C2F20001086040F204009C
:100F0000C2F20000006840F66801C2F20001086009
:100F1000FFE704B080BD00BF0000C84200003443BA
:100F2000000034C30000B4430000B4C380B588B0EF
:100F30000DF086FE079011F0FDFB0690FFF71EFEF8
:100F4000059001F0C5FC04904FF47A70ADF80E00E6
:100F500040F2C440C2F200000078012815D1FFE73A
:100F60000498808F00EE100AB8EEC01AB2EE040AA0
:100F700080EE010A9FED9D1A20EE010A40F210005A
:100F8000C2F2000080ED000A11E040F2C440C2F25B
:100F900000000078022809D1FFE740F21001C2F2F8
:100FA00000010020C4F248300860FFE7FFE7059821
:100FB000007868B9FFE740F21000C2F2000090ED3F
:100FC000000ABDEEC00A10EE100AADF80E001BE0DC
:100FD00005980078022808D1FFE740F20E00C2F21F
:100FE00000000088ADF80E000DE00598007801289B
:100FF00008D1FFE740F20C00C2F200000088ADF813
:101000000E00FFE7FFE7FFE70598407E012840F06C
:10101000EA80FFE705984078002873D1FFE706983B
:1010200090ED041A90ED050A30EE410AB3EE0E1A67
:10103000B4EE410AF1EE10FA04DCFFE7002011F0F3
:101040002BFBD0E046F69C61C2F20001088801301B
:1010500008800798C078012853D1FFE707980079E6
:1010600001284ED1FFE70598407E012849D1FFE7CE
:1010700046F69C60C2F200000088BDF80E1088425F
:101080003FDBFFE7069890ED041A90ED050A30EE7D
:10109000410A9FED571AB4EE410AF1EE10FA30DB27
:1010A000FFE740F60850C2F2000090ED010AB3EEEF
:1010B000041AB4EE410AF1EE10FA22DDFFE740F621
:1010C0006050C2F2000090ED010AB3EE041AB4EED3
:1010D000410AF1EE10FA14DDFFE70120029011F051
:1010E000DBFA0299069A002082F8200042F6C41228
:1010F000C2F20002117046F69C61C2F20001088043
:10110000FFE76FE00598407801286AD1FFE707986C
:10111000C078012851D1FFE70798007901284CD108
:10112000FFE742F6C410C2F200000078002844D164
:10113000FFE7069890ED041A90ED050A30EE410A9B
:101140009FED2B1AB4EE410AF1EE10FA35DBFFE702
:1011500040F60850C2F2000090ED010AB3EE041A06
:10116000B4EE410AF1EE10FA27DDFFE740F66050D9
:10117000C2F2000090ED010AB3EE041AB4EE410A87
:10118000F1EE10FA19DDFFE741F20400CEF20000A3
:10119000006842F24461C2F200010860012001903F
:1011A00011F06CFA0198069A002182F8201042F69C
:1011B000C411C2F20001087012E00798007970B9FA
:1011C000FFE70020009011F067FA0098069981F877
:1011D000200042F6C411C2F200010870FFE7FFE7E9
:1011E000FFE7FFE7FFE708B080BD00BF00007A44DB
:1011F0000000A04280B582B00190FFE7FFF7C4FC79
:10120000FFF70CFD0DF0CCFE0DF064FD012017F092
:1012100013FEF3E780B582B0FFF7B0FC01900DF04C
:101220000FFD00900098C07808B9FFE704E005F0D2
:10123000BFFF01994861FFE702B080BD80B58AB069
:10124000089000208DF81F000898806802F0C0FE0A
:10125000089840688021039110F0F8FD08984068D4
:101260005521049110F0F2FD04990898406810F09F
:10127000EDFD8DF81F000898806802F0B9FEB0EE11
:10128000000A8DED050A01F017FE0898806802F04B
:101290009FFE03990898406810F0D8FD04990898BB
:1012A000406810F0D3FD04990898406810F0CEFD16
:1012B0008DF81F000898806802F09AFE9DED050ADF
:1012C00001F0FAFD0898806802F082FE08984068F4
:1012D0007E2110F0BBFD08984068B62110F0B6FDE5
:1012E0000898806802F084FE9FED5D0A01F0E4FD3D
:1012F0000898806802F06CFE03990898406810F026
:10130000A5FD04990898406810F0A0FD049908987C
:10131000406810F09BFD8DF81F000898806802F06F
:1013200067FE9DED050A01F0C7FD0898806802F090
:101330004FFE03990898406810F088FD04990898BA
:10134000406810F083FD04990898406810F07EFD15
:101350008DF81F000898806802F04AFE9DED050A8E
:1013600001F0AAFD9DF81F001E2804D0FFE7FF2012
:101370008DF827006FE000200690FFE7069805280B
:1013800065DCFFE70898806802F022FE0898406854
:10139000069901EB410240F2D441C2F200010291F0
:1013A000895C10F053FD029908984068069A02EB98
:1013B00042021144497810F049FD0898806802F013
:1013C00017FEB0EE000A8DED010A01F075FD0898D8
:1013D000806802F0FDFD029908984068069A02EBC9
:1013E0004202895C41F0800110F030FD08984068AD
:1013F0005521009110F02AFD00990898406810F0DE
:1014000025FD8DF81F000898806802F0F1FD9DED24
:10141000010A01F051FD02999DF81F00069A02EBA6
:1014200042021144497888420CD0FFE7069800EB4D
:10143000400140F2D440C2F20000084480788DF8A8
:10144000270008E0FFE706980130069096E70020A5
:101450008DF82700FFE79DF827000AB080BD00BF88
:101460000000A04280B59AB0189000208DF85F006F
:10147000169015901490ADF84C0012901898806852
:1014800002F0A6FD1898406880210D9110F0DEFC56
:101490001898406855210E9110F0D8FC0E991898B4
:1014A000406810F0D3FC8DF85F001898806802F057
:1014B0009FFDB0EE000A8DED0F0A01F0FDFC1898BB
:1014C000806802F085FD0D991898406810F0BEFC08
:1014D0000E991898406810F0B9FC0E991898406859
:1014E00010F0B4FC8DF85F001898806802F080FD61
:1014F0009DED0F0A01F0E0FC1898806802F068FD8D
:10150000189840687E2110F0A1FC18984068B62118
:1015100010F09CFC1898806802F06AFD9FEDED0ABF
:1015200001F0CAFC1898806802F052FD0D991898D5
:10153000406810F08BFC0E991898406810F086FCFB
:101540000E991898406810F081FC8DF85F0018988B
:10155000806802F04DFD9DED0F0A01F0ADFC18987A
:10156000806802F035FD0D991898406810F06EFC07
:101570000E991898406810F069FC0E991898406808
:1015800010F064FC8DF85F001898806802F030FD60
:101590009DED0F0A01F090FC9DF85F001E2804D01D
:1015A000FFE7FF208DF86700D8E100201190FFE7EA
:1015B0001198032869DCFFE71898806802F008FD9D
:1015C00018984068119901EB41024BF2D561C0F6C1
:1015D00001010C91895C10F039FC0C991898406855
:1015E000119A02EB42021144497810F02FFC18982E
:1015F000806802F0FDFCB0EE000A8DED0B0A01F0F0
:101600005BFC1898806802F0E3FC0C99189840681D
:10161000119A02EB4202895C41F0800110F016FC45
:101620001898406855210A9110F010FC0A991898F2
:10163000406810F00BFC8DF85F001898806802F08D
:10164000D7FC9DED0B0A01F037FC0C999DF85F006B
:10165000119A02EB42021144497888420CD0FFE70C
:10166000119800EB40014BF2D560C0F60100084430
:1016700080788DF8670071E19FEDBA0A01F01CFCDB
:10168000FFE711980130119092E700201090FFE7DA
:101690001098012800F3A980FFE71898806802F0ED
:1016A00097FC18984068109901EB41014BF2D56204
:1016B000C0F6010209921144097B10F0C7FB099A98
:1016C00018984068109901EB41011144497B10F0D2
:1016D000BDFB1898806802F08BFCB0EE000A8DED1F
:1016E000080A01F0E9FB1898806802F071FC099A79
:1016F00018984068109901EB41011144097B41F0B1
:10170000800110F0A3FB189840685521079110F054
:101710009DFB07991898406810F098FB8DF85F00C2
:101720001898806802F064FC9DED080A01F0C4FB83
:10173000099A9DF85F00109901EB41011144497B22
:1017400088420CD0FFE7109800EB40004BF2D561C7
:10175000C0F601010844807B8DF86700FEE09FED34
:10176000810A01F0A9FB1898806802F031FC1898F2
:1017700040689221069110F069FB0699189840681C
:1017800010F064FB1898406812A9062210F042FB82
:101790001898806802F02CFC9DF848009DF84910CC
:1017A00040EA0120109901EB410214A921F812002E
:1017B0009DF84A009DF84B2040EA0220109A02EB67
:1017C000420201EB420250809DF84C009DF84D20F2
:1017D00040EA0220109A02EB420201EB42018880AB
:1017E000FFE710980130109052E71898806802F0D7
:1017F000EFFB189840686D2110F028FB189840689E
:10180000002110F023FB1898806802F0F1FBB0EE85
:10181000000A8DED050A01F04FFB1898806802F070
:10182000D7FB18984068ED2110F010FB189840681D
:101830005521049110F00AFB04991898406810F0A3
:1018400005FB8DF85F001898806802F0D1FB9DEDD4
:10185000050A01F031FB9DF85F0020B1FFE704208D
:101860008DF867007AE01898806802F0B1FB18984C
:1018700040687E2110F0EAFA18984068B62110F00E
:10188000E5FA1898806802F0B3FB9FED360A01F084
:1018900013FBBDF95000BDF95610401A40F25551E6
:1018A000884213DBFFE7BDF95200BDF95810401A1A
:1018B00040F25551884209DBFFE7BDF95400BDF9FC
:1018C0005A10401AB0F52A7F06DAFFE780208DF81B
:1018D000670043E00000A0421898806802F078FB9F
:1018E000189840688021019110F0B0FA189840686B
:1018F0005521029110F0AAFA02991898406810F048
:10190000A5FA8DF85F001898806802F071FBB0EEC0
:10191000000A8DED030A01F0CFFA1898806802F0F2
:1019200057FB01991898406810F090FA029918989E
:10193000406810F08BFA02991898406810F086FA07
:101940008DF85F001898806802F052FB9DED030A45
:1019500001F0B2FA00208DF86700FFE79DF86700FC
:101960001AB080BD0000A04280B588B0079000206A
:1019700006900590ADF812000799042008700798AA
:101980007C3001F0CDFA079880ED1E0A0798806838
:1019900002F01EFB079840689221029110F056FA5F
:1019A00002990798406810F051FA0798406805A915
:1019B0000391062210F02EFA0798806802F018FBB7
:1019C0009DF814109DF81500000200B2084400EEC6
:1019D000100AB8EEC00A079890ED171A90ED1B2A6E
:1019E00020EE020A20EE010A80ED040A9DF816108E
:1019F0009DF81700000200B2084400EE100AB8EE8D
:101A0000C00A079890ED171A90ED1B2A20EE020AE3
:101A100020EE010A80ED050A9DF818109DF81900C6
:101A2000000200B2084400EE100AB8EEC00A07989F
:101A300090ED171A90ED1B2A20EE020A20EE010A03
:101A400080ED060A0798C06802F0C2FA079840685D
:101A5000802110F0FBF9039907984068082210F0E4
:101A6000D9F90798C06802F0C3FA9DF814000F284E
:101A700040F08280FFE7079890F86800002843D084
:101A8000FFE79DF816109DF81700000200B2084409
:101A900000EE100AB8EEC00A079890ED101A90ED0B
:101AA0001C2A20EE020A30EE410A80ED080A9DF859
:101AB00018109DF81900000200B2084400EE100A48
:101AC000B8EEC00A079890ED111A90ED1C2A20EE8E
:101AD000020A30EE410A80ED090A9DF81A109DF8BD
:101AE0001B00000200B2084400EE100AB8EEC00A63
:101AF000079890ED121A90ED1C2A20EE020A30EEA3
:101B0000410A80ED070A36E09DF816109DF817008F
:101B1000000200B2084400EE100AB8EEC00A0798AE
:101B200090ED1C1A20EE010A80ED080A9DF81810AD
:101B30009DF81900000200B2084400EE100AB8EE49
:101B4000C00A079890ED1C1A20EE010A80ED090AE0
:101B50009DF81A109DF81B00000200B2084400EE28
:101B6000100AB8EEC00A079890ED1C1A20EE010A80
:101B700080ED070AFFE7FFE70798806802F028FA80
:101B800007984068A221019110F060F90199079827
:101B9000406810F05BF90798406805A9022210F030
:101BA00039F90798806802F023FA9DF814009DF82F
:101BB0001510C00040EA5110ADF81200BDF9120036
:101BC000B0F5806F07DBFFE7BDF81200A0F50060FD
:101BD000ADF81200FFE7BDF9120000EE100AB8EEF2
:101BE000C00AB4EE001A20EE010AB3EE071A30EE76
:101BF000010A079880ED190A07990120087008B0BA
:101C000080BD000081B00090009943F6AC00C3F69F
:101C100022300864009941F2B060C3F6CE104864E7
:101C200000998864009941F23F60C4F21B108865F6
:101C3000009890ED161A9FED040A80EE010A80EDDF
:101C4000170A01B0704700BFC3F51C4180B58AB0C8
:101C5000089000208DF81F000898C06802F0B8F9BD
:101C6000089840688021039110F0F0F808984068C7
:101C70005521049110F0EAF88DF81F000898C0680B
:101C800002F0B6F9B0EE000A8DED050A01F014F984
:101C90000898C06802F09CF903990898406810F011
:101CA000D5F804990898406810F0D0F88DF81F0016
:101CB0000898C06802F09CF99DED050A01F0FCF857
:101CC0000898C06802F084F908984068142110F060
:101CD000BDF808984068B62110F0B8F80898C068B8
:101CE00002F086F99FED550A01F0E6F80898C06801
:101CF00002F06EF903990898406810F0A7F804996B
:101D00000898406810F0A2F88DF81F000898C06885
:101D100002F06EF99DED050A01F0CEF80898C06852
:101D200002F056F903990898406810F08FF804996A
:101D30000898406810F08AF88DF81F000898C0686D
:101D400002F056F99DED050A01F0B6F89DF81F0066
:101D50000F2804D0FFE7FF208DF8270069E000205E
:101D60000690FFE7069805285FDCFFE70898C06843
:101D700002F02EF908984068069901EB410240F202
:101D8000E641C2F200010291895C10F05FF802990D
:101D900008984068069A02EB42021144497810F014
:101DA00055F80898C06802F023F9B0EE000A8DEDEE
:101DB000010A01F081F80898C06802F009F9029957
:101DC00008984068069A02EB4202895C41F0800163
:101DD00010F03CF808984068552110F037F88DF85D
:101DE0001F000898C06802F003F99DED010A01F098
:101DF00063F802999DF81F00069A02EB4202114413
:101E0000497888420CD0FFE7069800EB400140F289
:101E1000E640C2F20000084480788DF8270008E010
:101E2000FFE70698013006909CE700208DF8270018
:101E3000FFE79DF827000AB080BD00BF0000A04268
:101E400080B588B0069000208DF817008DF8160038
:101E50000698C06802F0BCF806984068802101919D
:101E60000FF0F4FF06984068552102910FF0EEFF45
:101E70008DF817000698C06802F0BAF8B0EE000AB4
:101E80008DED030A01F018F80698C06802F0A0F87A
:101E90000199069840680FF0D9FF029906984068AA
:101EA0000FF0D4FF8DF817000698C06802F0A0F874
:101EB0009DED030A01F000F80698C06802F088F86A
:101EC0000698406814210FF0C1FF06984068B621BB
:101ED0000FF0BCFF0698C06802F08AF89FED4D0A2B
:101EE0008DED040A00F0E8FF0698C06802F070F873
:101EF0000199069840680FF0A9FF0299069840687A
:101F00000FF0A4FF8DF817000698C06802F070F873
:101F10009DED030A00F0D0FF0698C06802F058F863
:101F20000199069840680FF091FF02990698406861
:101F30000FF08CFF8DF817000698C06802F058F873
:101F40009DED030A00F0B8FF0698C06802F040F863
:101F5000069840683C210FF079FF069840680121FF
:101F60000FF074FF0698C06802F042F89DED040A75
:101F700000F0A2FFFFE70698C06802F029F8069873
:101F80004068BC210FF062FF0698406855210FF0B1
:101F90005DFF8DF817000698C06802F029F8B0EED2
:101FA000000A00F089FF9DF8160001308DF8160038
:101FB000FFE79DF81710002089070029009008D43A
:101FC000FFE79DF8161000200A29B8BF01200090F5
:101FD000FFE70098C0070028CDD1FFE79DF8160065
:101FE0000A2804D1FFE740208DF81F000DE09DF87E
:101FF00017004007002804D5FFE740208DF81F0098
:1020000003E000208DF81F00FFE79DF81F0008B0D7
:1020100080BD00BF0000A04280B588B00790069147
:102020000592049306980799486005980799886077
:1020300004980799C860079800F04CF807990020A9
:1020400081F87400079A43F23331C3F6EB21D1666D
:10205000079A4AF25801C3F68B2111678DF80F00D9
:102060000798FFF7FFF918B1FFE78020029004E01E
:102070000798FFF7E3F80290FFE702988DF80F004A
:102080000798FFF7DDFE18B1FFE74020019004E05C
:102090000798FFF7DBFD0190FFE701988DF80F002F
:1020A000079890F87400012804D1FFE7079800F022
:1020B0002DF803E00798FFF7A5FDFFE79DF80F1047
:1020C0000120002918BF0220079908709DF80F0011
:1020D00008B080BD81B0009000990020086100998F
:1020E00048610099886100990862009948620099E6
:1020F000C86100994866009A012182F86810009929
:1021000088670099C86701B07047000080B598B033
:102110001790002004901690159014901390129030
:10212000119010900F900E900D900C900B900A90C3
:1021300009900890ADF81E0000F03CFF8DED060AF6
:10214000FFE700F037FF9DED061A30EE410AB2EED0
:10215000041AB4EE410AF1EE10FA15DDFFE7179903
:1021600043F6AC00C3F622300864179941F2B06020
:10217000C3F6CE10486417998864179941F23F60FE
:10218000C4F21B10886598E29FEDE20A00F066FE3B
:10219000179900208865179908641799486417995A
:1021A0008864ADF81600FFE7BDF8160040F218018C
:1021B000C2F200010988884280F2CE81FFE71798B9
:1021C000806801F005FF17984068922102910FF096
:1021D0003DFE0299179840680FF038FE1798406846
:1021E00008A9039106220FF015FE1798806801F0E8
:1021F000FFFE9DF820109DF82100000200B2084467
:1022000000EE100AB8EEC00A179890ED1B1A20EEE7
:10221000010A80ED040A9DF822109DF823000002B7
:1022200000B2084400EE100AB8EEC00A179890ED0C
:102230001B1A20EE010A80ED050A9DF824109DF876
:102240002500000200B2084400EE100AB8EEC00AF1
:10225000179890ED1B1A20EE010A80ED060A1798D8
:1022600090ED041A90ED052A90ED060A22EE022A5E
:1022700021EE011A31EE021A20EE000A30EE010AB8
:1022800018F028FB8DED0D0A9DED0D1A179890EDB5
:10229000160A30EE010A80ED160A1798C06801F0A0
:1022A00097FE1798406880210FF0D0FD039917988A
:1022B000406808220FF0AEFD1798C06801F098FE44
:1022C0009DF820000F2852D1FFE79DF822109DF8BD
:1022D0002300000200B2084400EE100AB8EEC00A63
:1022E000179890ED1C1A20EE010A80ED080A9DF85F
:1022F00024109DF82500000200B2084400EE100AE8
:10230000B8EEC00A179890ED1C1A20EE010A80ED75
:10231000090A9DF826109DF82700000200B2084423
:1023200000EE100AB8EEC00A179890ED1C1A20EEC5
:10233000010A80ED070A179890ED081A90ED100A2F
:1023400030EE010A80ED100A179890ED091A90ED11
:10235000110A30EE010A80ED110A179890ED071A64
:1023600090ED120A30EE010A80ED120AFFE7BDF887
:102370001600B8B9FFE70D980C900D980B901798C0
:10238000006A14901798006A11901798406A159087
:102390001798406A12901798C06916901798C069EC
:1023A000139078E09DED0D0A9DED0C1AB4EE410AF4
:1023B000F1EE10FA03DBFFE70D980C900DE09DEDB8
:1023C0000D0A9DED0B1AB4EE410AF1EE10FA03DC92
:1023D000FFE70D980B90FFE7FFE7179890ED080ACD
:1023E0009DED141AB4EE410AF1EE10FA04DBFFE79A
:1023F0001798006A14900FE0179890ED080A9DED69
:10240000111AB4EE410AF1EE10FA04DCFFE7179856
:10241000006A1190FFE7FFE7179890ED090A9DED1C
:10242000151AB4EE410AF1EE10FA04DBFFE7179833
:10243000406A15900FE0179890ED090A9DED121A69
:10244000B4EE410AF1EE10FA04DCFFE71798406A97
:102450001290FFE7FFE7179890ED070A9DED161A17
:10246000B4EE410AF1EE10FA04DBFFE71798C069F9
:1024700016900FE0179890ED070A9DED131AB4EE31
:10248000410AF1EE10FA04DCFFE71798C0691390D7
:10249000FFE7FFE7FFE79DED0C0A9DED0B1A30EE1D
:1024A000410A8DED0A0A00208DF81500FFE79DF81E
:1024B000150002281ADCFFE79DF8151014A800EBA0
:1024C000810090ED000A11A800EB810090ED001A48
:1024D00030EE410A0EA800EB810080ED000AFFE714
:1024E0009DF8150001308DF81500E0E79DED0A0A12
:1024F0009FED771AB4EE410AF1EE10FA20DCFFE707
:102500009DED0E0A9FED731AB4EE410AF1EE10FA3A
:1025100016DC01E00AD7A33B9DED0F0A9FED6D1A73
:10252000B4EE410AF1EE10FA0ADCFFE79DED100A65
:102530009FED681AB4EE410AF1EE10FA01DDFFE7F3
:102540000AE09FED650A00F089FCFFE7BDF8160080
:102550000130ADF8160027E640F21800C2F2000084
:10256000008800EE100AB8EE401A179890ED160A8F
:1025700080EE010A80ED160A00208DF81400FFE7B6
:102580009DF8140002281BDCFFE740F21800C2F29D
:102590000000008800EE100AB8EE401A17989DF867
:1025A000141000EB810090ED100A80EE010A80ED1E
:1025B000100AFFE79DF8140001308DF81400DFE7E2
:1025C000BDF81E000130ADF81E00FFE79DED0A0AC0
:1025D00001209FED3F1AB4EE410AF1EE10FA01908E
:1025E00065DCFFE7179890ED160A9FED3C1A30EE78
:1025F000010AB0EEC00A0120B6EE001AB4EE410A9C
:10260000F1EE10FA019052DCFFE79DED0E0A012079
:102610009FED301AB4EE410AF1EE10FA019046DC5B
:10262000FFE79DED0F0A01209FED2A1AB4EE410A43
:10263000F1EE10FA01903ADCFFE79DED100A01205F
:102640009FED241AB4EE410AF1EE10FA01902EDC4F
:10265000FFE7179890ED100AB0EEC00A01209FED39
:10266000201AB4EE410AF1EE10FA01901FDCFFE7E8
:10267000179890ED110AB0EEC00A01209FED181ACC
:10268000B4EE410AF1EE10FA019010DCFFE7179862
:1026900090ED120AB0EEC00A9FED111A0020B4EEC0
:1026A000410AF1EE10FAC8BF01200190FFE701983E
:1026B000C00700287FF445ADFFE7179890ED161A84
:1026C0009FED080A80EE010A80ED170A18B080BD60
:1026D0003333333F9A99193E6F12033ACDCC1CC164
:1026E0000AD7233CC3F51C4180B584B000F044F9FF
:1026F00000F0EEF803900399042008700020029087
:10270000FFE70298012843DCFFE7029940F29000BE
:10271000C2F2000050F82100A8B3FFE740F21C000D
:10272000C2F200000068006E8005002812D5FFE7A5
:1027300040F21C00C2F200000190006804F0CAFAE6
:10274000019801680A680321C2F8C410006804F007
:102750009BFAFFE740F21C00C2F20000006803F0A1
:10276000BFFE42F24C61C2F200010860029940F2E1
:102770009000C2F2000050F8211040F2FC60C2F25A
:1027800000008847FFE7FFE7029801300290B8E7B2
:1027900003990120087004B080BD000080B584B0AA
:1027A00000F0EAF800F094F8039003990420087010
:1027B00000200290FFE70298012843DCFFE702991E
:1027C00040F29800C2F2000050F82100A8B3FFE7E1
:1027D00040F21C00C2F200000068006E8005002874
:1027E00012D5FFE740F21C00C2F200000190006821
:1027F00004F070FA019801680A680321C2F8C41055
:10280000006804F041FAFFE740F21C00C2F2000049
:10281000006803F065FE42F25061C2F200010860F8
:10282000029940F29800C2F2000050F8211040F2E4
:10283000FC60C2F200008847FFE7FFE70298013022
:102840000290B8E703990120087004B080BD000031
:1028500080B586B005900491ADF80E2000F038F8F0
:1028600002900599BDF80E2040F2BC60C2F2000053
:10287000FDF71DFE00200190FFE70198012825DCEF
:10288000FFE70498019A40F28001C2F2000151F87A
:102890003210884215D1FFE7019940F28000C2F260
:1028A000000000EBC100406858B1FFE7019940F219
:1028B0008000C2F2000000EBC10041680598884723
:1028C00004E0FFE7019801300190D6E706B080BD33
:1028D00040F27860C2F200007047000080B541F21B
:1028E0008C10C2F2000040F2012100F02DFF41F2F5
:1028F000B010C2F2000040F2022100F025FF41F2C8
:102900006810C2F2000040F2032100F01DFF41F206
:10291000D410C2F200004FF4017100F015FF80BD29
:1029200080B582B00190FFE740F2BC40C2F20000E7
:10293000007801280CD1FFE7FFF7D6FE40F2BC413A
:10294000C2F2000102200870012016F075FAFFE7BC
:1029500040F2BC40C2F20000007802280BD1FFE731
:10296000FFF71CFF40F2BC41C2F2000101200870D9
:1029700016F062FAFFE7D7E780B588B0FFF7A8FF47
:10298000079001F073FB06900FF0D4FE05900EF057
:10299000D7FF0490FEF7F2F803900CF051F9029083
:1029A00009F0FCFD01900698807807990872069856
:1029B000C068079948610198C068079988610198C3
:1029C00080690799C861019890ED010AB1EE400A4B
:1029D000079880ED0A0A029890ED070A9FED351AD4
:1029E00080EE010A079880ED0C0A40F6C260C2F240
:1029F00000000078079981F82C00059890ED1F0AD7
:102A00000020B2EE041AB4EE410AF1EE10FA009082
:102A10000EDDFFE7059890ED3F0AB2EE041A0020A4
:102A2000B4EE410AF1EE10FAC8BF01200090FFE7B2
:102A3000009800F00100079981F82D000398407E6E
:102A4000079981F82E00079890ED0E0A40F2A840F1
:102A5000C2F2000090ED001AB4EE410AF1EE10FA55
:102A600017D0FFE741F20400CEF20000016842F205
:102A70004060C2F200000160006842F24461C2F2AC
:102A800000010968401A42F23C61C2F2000108608C
:102A9000FFE740F2A841C2F20001C86808618868F7
:102AA000C86048688860086848600798806B08605C
:102AB00008B080BD33336542FFE7FEE784B08DF890
:102AC0000F000291ADF806209DF80F00014600911D
:102AD00023281DD80099DFE801F012131415161BE6
:102AE0001B1B1B1B1B1B1B1B1B1B1B1B1B1B1B1B36
:102AF0001B1B1B1B1B1B1B1B1B1B1718191A08E07E
:102B000007E006E005E004E003E002E001E000E0A9
:102B1000FFE7002004B070470020704780B582B006
:102B200042F28860C2F20000009041F61C61C2F2DD
:102B300000010022019212F097F9009841F21C6105
:102B4000C2F2000112F076F9019802B080BD0000D7
:102B500080B584B0039002910398029909880CF023
:102B60003DF8FEF757FB039942F28860C2F200007D
:102B7000019012F05FF9019812F006F9002004B0FC
:102B800080BD000083B0029001918DF803200020E9
:102B90008DF802009DF9020003B0704780B586B041
:102BA0000490ADF80E1000208DF80D0042F2886000
:102BB000C2F20000D0F8BC0202900298D0F81402D1
:102BC00020B1FFE701208DF8170013E00499BDF84C
:102BD0000E2042F28860C2F20000019012F044F927
:102BE000019812F02FFA8DF80D009DF80D008DF868
:102BF0001700FFE79DF8170006B080BD81B0ADF863
:102C00000200BDF80200A0F5806000B201B070477C
:102C100080B584B000F0FAF943F26822C2F20002F3
:102C2000019213685268C01A914118F0F4FB00EE4B
:102C3000100A9FED181A80EE010A43F26020C2F2DA
:102C40000000029080ED000A00F0E0F9019A0346CE
:102C5000029803930B4603995360116090ED000AAC
:102C60009FED0D1AB4EE410AF1EE10FA08DAFFE713
:102C700043F25821C2F2000108680130086007E001
:102C800042F23861C2F20001086801300860FFE7D3
:102C900004B080BD00007A446666663F80B542F6A7
:102CA0002820C2F2000002F059FF80BD80B542F634
:102CB0008820C2F2000002F051FF80BD80B542F6CC
:102CC000C810C2F2000002F049FF80BD80B542F694
:102CD000E820C2F2000002F041FF80BD84B0039002
:102CE0000398006840F20741C4F20201884206D806
:102CF000FFE740F60000C4F20200009005E040F655
:102D00002000C4F202000090FFE7009802900398B0
:102D1000007808384CF6CD41CCF6CC41A0FB011030
:102D200000090190029803994A6C22F003021044B2
:102D30008864039940F68000C4F20200C8640198D8
:102D400000F01F01012088400399086504B0704716
:102D500082B00190019800790090009940F6FC0043
:102D6000C4F2020000EB810001994865019940F628
:102D70004010C4F2020088650098013800F01F017D
:102D8000012088400199C86502B0704784B0039063
:102D90000291019200930398C16C006D4860039802
:102DA000406D28B1FFE70398816DC06D4860FFE773
:102DB0000398016C406C00F01F02012090404860B5
:102DC000009803990968486003988068102809D121
:102DD000FFE70198039909688860029803990968D8
:102DE000C86008E00298039909688860019803990F
:102DF0000968C860FFE704B07047000080B582B082
:102E000000F088F8019040F27070C2F20000007883
:102E100008BBFFE740F27071C2F2000101200870A8
:102E200041F20400CEF20000006800900098019981
:102E3000096A884205D2FFE70199C8690130C86173
:102E4000FFE700980199086240F27071C2F2000138
:102E500000200870FFE702B080BD000080B584B09C
:102E60008DED030A00F056F8029041F20400CEF214
:102E700000000068019003980090FFE741F2040011
:102E8000CEF2000000680199401A00EE100AB8EE78
:102E9000400A9DED001A029890ED042AB8EE422AED
:102EA00021EE021AB4EE410AF1EE10FA01DAFFE760
:102EB000E4E704B080BD000080B584B08DED030A66
:102EC00000F028F8029041F20400CEF20000006801
:102ED000019003980090FFE741F20400CEF2000059
:102EE00000680199401A00EE100AB8EE400A9DED04
:102EF000001A029890ED052AB8EE422A21EE021A35
:102F0000B4EE410AF1EE10FA01DAFFE7E4E704B0AB
:102F100080BD000040F24070C2F200007047000027
:102F200080B584B00390FFF7F5FF029041F20400F2
:102F3000CEF2000000680190019803990968401AD8
:102F400000EE100AB8EE400A029890ED041AB8EEAE
:102F5000411A80EE010A8DED000A0198039908607C
:102F60009DED000A04B080BD80B582B0FFF7D2FFAE
:102F7000019000F0A5F80198016843684FF47A7257
:102F800001FB023100EE101AB8EE401A008900EE83
:102F9000100AB8EEC00A9FED062A20EE020A30EEB3
:102FA000010A8DED000A9DED000A02B080BD00BF50
:102FB0006F12833A80B582B0FFF7ACFF019000F04A
:102FC0007FF8019890ED001A90ED010AB8EE411AD1
:102FD000B8EE400A9FED0B2A20EE020A30EE011AED
:102FE000008900EE100AB8EEC00A9FED072A20EE15
:102FF000020A30EE010A8DED000A9DED000A02B0D2
:1030000080BD00BF6F12833ABD37863580B584B06E
:10301000FFF780FF039000F053F803990A684868AF
:1030200043F609535A434FF47A73584300EB821026
:10303000098908440021019100900098019904B089
:1030400080BD000080B582B00190FFF763FF009063
:103050004EF6FC51CEF20001086840F08070086026
:1030600041F20401CEF200010020086041F20002AA
:10307000CEF20002116841F001011160019944F2A1
:103080004022C0F20F025143009A1161009A116967
:1030900044F6D353C1F26203A1FB033189095161A4
:1030A000009A11694DF68363C4F21B33A1FB03310F
:1030B000890C91610099C8610099086202B080BDD5
:1030C00010B58CB0FFF726FF0B9041F20400CEF252
:1030D000000000680A900020029009900890079074
:1030E000069005900490FFF789FE029B0B98C1693A
:1030F0000A984FF0FF3C1A46E1FB0C020B99CA629A
:1031000088620B990A69886AC96AFDF728F9029BE7
:10311000099108900B98D0F810E0816AC06ADDF838
:1031200020C0099AACFB0EC402FB0E42B1EB0C01AD
:1031300090410691079008980B99086006980799A6
:103140000B9A01925269FDF70AF90199029B4860B6
:1031500006990798DDF82CC0DCF80420DCF814C0D0
:1031600002FB0CF2891A60F10000049105900498AA
:1031700005990B9A03929269FDF7F1F8039908817A
:103180000B9908684B684FF47A7200FB0230C860F4
:103190000CB010BD8BB00A900991089207938DED89
:1031A000060ACDED050A9DED060A089890ED002A65
:1031B00090ED011A30EE000A30EE410A30EE420A7C
:1031C000B0EE083A20EE030A31EE421A80EE010A10
:1031D0008DED040A9DED060A079890ED002A90ED0A
:1031E000011A30EE000A30EE410A30EE420A20EEBB
:1031F000030A31EE421A80EE010A8DED030A0498AB
:1032000040F6CC51C2F200010860039840F6D0515C
:10321000C2F20001086000208DF80B008DF80A0052
:103220008DF809008DF80800019000909DED040ACA
:10323000B8EE081AB4EE410AF1EE10FA07DAFFE729
:1032400000208DF80B008DF80A0001909BE09DEDA9
:10325000040AB8EE001AB4EE410AF1EE10FA0FDAE1
:10326000FFE700208DF80B0001208DF80A009DED8E
:10327000040AB0EE081A30EE010A8DED010A81E071
:103280009DED040ABFEE001AB4EE410AF1EE10FA09
:103290000FDAFFE701208DF80B0002208DF80A00FD
:1032A0009DED040AB0EE001A30EE010A8DED010A20
:1032B00067E09DED040AB5EE400AF1EE10FA0FDA70
:1032C000FFE702208DF80B0003208DF80A009DED2A
:1032D000040AB7EE001A30EE010A8DED010A4FE044
:1032E0009DED040AB7EE001AB4EE410AF1EE10FAB1
:1032F00009DAFFE703208DF80B0004208DF80A009F
:10330000049801903BE09DED040AB0EE001AB4EE83
:10331000410AF1EE10FA0FDAFFE704208DF80B00F6
:1033200005208DF80A009DED040ABFEE001A30EE6C
:10333000010A8DED010A21E09DED040AB0EE081AA4
:10334000B4EE410AF1EE10FA0FDAFFE705208DF82E
:103350000B0006208DF80A009DED040AB8EE001A55
:1033600030EE010A8DED010A07E006208DF80B0012
:103370008DF80A0000200190FFE7FFE7FFE7FFE775
:10338000FFE7FFE7FFE79DED030AB8EE081AB4EE8A
:10339000410AF1EE10FA07DAFFE700208DF8090084
:1033A0008DF8080000909BE09DED030AB8EE001A2E
:1033B000B4EE410AF1EE10FA0FDAFFE700208DF8C3
:1033C000090001208DF808009DED030AB0EE081AEF
:1033D00030EE010A8DED000A81E09DED030ABFEE9B
:1033E000001AB4EE410AF1EE10FA0FDAFFE70120FD
:1033F0008DF8090002208DF808009DED030AB0EE5B
:10340000001A30EE010A8DED000A67E09DED030A17
:10341000B5EE400AF1EE10FA0FDAFFE702208DF860
:10342000090003208DF808009DED030AB7EE001A8D
:1034300030EE010A8DED000A4FE09DED030AB7EE74
:10344000001AB4EE410AF1EE10FA09DAFFE70320A0
:103450008DF8090004208DF80800039800903BE0E7
:103460009DED030AB0EE001AB4EE410AF1EE10FA37
:103470000FDAFFE704208DF8090005208DF8080019
:103480009DED030ABFEE001A30EE010A8DED000A31
:1034900021E09DED030AB0EE081AB4EE410AF1EE08
:1034A00010FA0FDAFFE705208DF8090006208DF8E5
:1034B00008009DED030AB8EE001A30EE010A8DED0A
:1034C000000A07E006208DF809008DF808000020AA
:1034D0000090FFE7FFE7FFE7FFE7FFE7FFE7FFE712
:1034E00009980A999DF80B20C2EBC20201EB020C6D
:1034F0009DF809301CF8032000EB820292ED000ACF
:103500009DED013AB7EE001A31EE435A20EE050A5E
:103510009DED002A31EE424A9DF808201CF802C0B9
:1035200000EB8C0C9CED001A21EE051A21EE021A1C
:1035300020EE040A30EE011A9DF80AC0CCEBCC0C48
:103540006144CB5C00EB830393ED000A20EE030A99
:1035500020EE040A30EE011A895C00EB810090ED48
:10356000000A20EE030A20EE020A30EE010A0BB038
:10357000704700007047000081B0EFF3108072B612
:103580000090FFE7FEE7000080B542F64C30C2F243
:10359000000002F0B5FF80BD80B542F6B030C2F247
:1035A000000002F0ADFF80BD83B002904AF20040FF
:1035B000C4F2000000900298006846F60001C4F2D0
:1035C0000001884205D1FFE7009800F55470009093
:1035D000FFE70298006846F60041C4F20001884205
:1035E00005D1FFE7009800F5D4600090FFE7009850
:1035F0000299086402980068D0F8800020F4F8105E
:10360000029A1168526B40EA0240C1F880000098AB
:1036100070300299486402980068D0F8800020F069
:103620007060029A1168926B40EA0260C1F88000F3
:103630000098B03002998864009800F5C47002992F
:10364000C864009800F5187002990865009800F5A4
:103650001E700299486500980190FFE70198009953
:1036600001F55471884208D2FFE7019900200860F3
:10367000FFE7019804300190F0E703B070470000C5
:1036800088B007900691059204930698406848B95F
:10369000FFE70698016882680069104340EA8140AC
:1036A000039009E0069801688268006910430843A6
:1036B00040F080400390FFE70698D0F820C0C16832
:1036C00042698369C06940EA0C60184310430843AB
:1036D00002900798406D049901EBC10100EBC10015
:1036E00001900398019908600198043001900298B4
:1036F0000199086001980430019000200090FFE7D4
:1037000000980699CA894BF22861C0F60101895CCC
:1037100088420DD2FFE7059800994058019908604A
:10372000019804300190FFE7009804300090E7E72B
:1037300008B0704781B0009040F23C71C2F20001C5
:103740000120087001B0704782B00190009100988C
:10375000019908600098B0F5006F05D3FFE7019963
:103760004FF08040486003E0019900204860FFE787
:10377000019900208860019A4FF40021D1600199DD
:10378000086101994861019988610199C8610199AD
:10379000086202B07047000080B58AB0099000202E
:1037A0000390049002210591012106914FF480615C
:1037B00007910890099803A902F01CFD20B1FFE7CA
:1037C0000298FFF7B7FFFFE70998694600230B60EF
:1037D0000222114602F06AFD20B1FFE70298FFF7CE
:1037E000A9FFFFE7099803F04FFA20B1FFE702981D
:1037F000FFF7A0FFFFE709980121002202F0A6FBD6
:1038000020B1FFE70298FFF795FFFFE709984FF413
:103810000021002202F09AFB20B1FFE70298FFF797
:1038200089FFFFE70AB080BD80B584B003900291A4
:10383000019203980299019A02F08EFCB8B1FFE759
:103840000398006E800500280CD5FFE7039803F06D
:1038500041FA039801680320C1F8C400039803F0FB
:1038600013FA03E00098FFF765FFFFE7FFE704B0F6
:1038700080BD00000000000080B588B08DED060A14
:10388000059003F095FC00EE100AB8EE400A05988A
:1038900090ED021A30EE410ABCEEC00A8DED040A2A
:1038A00003F086FC00EE100AB8EE400A059880EDA1
:1038B000020A05980390006817F058FD41EC100BC0
:1038C0009FED331B53EC112B51EC100B17F062FBE7
:1038D00041EC100B9FED301B53EC112B51EC100BF6
:1038E0000291019017F07CF8024601980B4602996C
:1038F00043EC102B53EC102B17F026F941EC100B76
:1039000051EC100B17F03AF803994860059890EDC8
:10391000010AB5EE400AF1EE10FA30DDFFE7059836
:1039200090ED010AB7EE001AB4EE410AF1EE10FA7A
:1039300025DCFFE705989DED062A90ED010A90ED44
:10394000053AB7EE001A31EE401A21EE031A20EEC6
:10395000020A30EE010A80ED040A059908694861FF
:103960009DED040AB8EE401A9FED0D0A80EE010AA3
:10397000059880ED030A05980069079002E0069813
:103980000790FFE79DED070A08B080BD00BF00BFAC
:10399000FCA9F1D24D62503F000000000000F03F52
:1039A00000007A440000000080B586B08DED050A65
:1039B000049005980499086004980390006817F033
:1039C000D5FC41EC100B9FED161B53EC112B51EC69
:1039D000100B17F0DFFA41EC100B9FED131B53ECAB
:1039E000112B51EC100B0291019016F0F9FF0246D9
:1039F00001980B46029943EC102B53EC102B17F057
:103A0000A3F841EC100B51EC100B16F0B7FF039923
:103A1000486004990020886006B080BD00BF00BFE8
:103A2000FCA9F1D24D62503F000000000000F03FC1
:103A300080B586B00DF084FF0590FDF79FF80490E7
:103A4000059880780146039104284DD80399DFE852
:103A500001F0033D301A030000200290FDF7CAF880
:103A60000298049948700598407820B1FFE701203A
:103A700000F01CFB03E0002000F018FBFFE7012032
:103A80000DF016FE31E00320FDF7B4F80499002094
:103A900048700598407820B1FFE7012000F006FB50
:103AA00003E0002000F002FBFFE701200DF000FE24
:103AB0001BE00220FDF79EF80499012048700320C6
:103AC00000F0F4FA00200DF0F3FD0EE0012001906B
:103AD000FDF790F8019804994870022000F0E6FA8A
:103AE00000200DF0E5FD00E0FFE706B080BD00001E
:103AF00080B590B00F9000200E900F9890ED1D0AA9
:103B000090ED1E1A30EE410A8DED0E0A0F99D1F894
:103B10008C00C1F890000E980F99C1F88C000F9896
:103B20008C30012102910AF07BFF02990F9880ED01
:103B3000210A0F9AD2F89400C2F898000F9A506F99
:103B4000C2F894000F9894300AF06AFF0F9880ED45
:103B5000220ADDF83CC0DCF81C00DCF828100CF16F
:103B600034020CF13C039DED0E0ADCED210AFFF757
:103B700011FB0F9880ED000ADDF83CC0DCF8200056
:103B8000DCF82C100CF134020CF13C039DED0E0A14
:103B9000DCED210AFFF7FEFA0F9880ED010ADDF84F
:103BA0003CC0DCF82400DCF830100CF134020CF1DD
:103BB0003C039DED0E0ADCED210AFFF7EBFA0F98AE
:103BC00080ED020A0F980D90C06F17F0CFFB0A46E8
:103BD0000D9942EC100B8DED0A0B486809690691AE
:103BE00017F0C4FB41EC100B9FED6D1B53EC112B38
:103BF00051EC100B17F0CEF902460D9803920A46CD
:103C0000039942EC101B8DED040B90ED230A90ED0F
:103C1000241A30EE010A10EE100A17F0A7FB9DEDF2
:103C2000040B41EC110B53EC112B51EC100B17F062
:103C3000B1F90246069807920A46079942EC101B12
:103C40008DED080B17F092FB9DED081B41EC100B5E
:103C500051EC110B53EC102B17F09CF99DED0A0B56
:103C600041EC110B51EC110B53EC102B16F0B8FE7C
:103C700041EC100B51EC100B16F080FE0D99C8674B
:103C80000F9890ED051A90ED1F0AB4EE410AF1EE7F
:103C900010FA04DDFFE70F994869C86715E00F982F
:103CA00090ED051A90ED1F0AB1EE411AB4EE410AEB
:103CB000F1EE10FA08DAFFE70F9890ED050AB1EE81
:103CC000400A80ED1F0AFFE7FFE70F9890ED030A17
:103CD00090ED221A20EE010A5C30FFF7CDFD0F981F
:103CE00080ED270A0F989DED0E3A90ED000A90EDB9
:103CF000021A8DED011A90ED041A90ED1F2A20EEA4
:103D0000030A30EE020A8DED000A90ED210A80EEE2
:103D1000010A4430FFF7B0FD9DED001AB0EE402AD5
:103D20009DED010A20EE020A30EE010A0F9880EDA7
:103D3000200A0F9890ED200A90ED271A30EE010A24
:103D400080ED200A0F9890ED061A90ED200AB4EE4F
:103D5000410AF1EE10FA05DDFFE70F998869C1F815
:103D6000800015E00F9890ED061A90ED200AB1EE54
:103D7000411AB4EE410AF1EE10FA08DAFFE70F98A3
:103D800090ED060AB1EE400A80ED200AFFE7FFE75A
:103D90000F9890ED200A10B080BD00BF00BF00BF9B
:103DA000000000000000E03F81B00090009900207A
:103DB000C8670099C1F89C000099C1F8800001B063
:103DC0007047000080B58AB0DDF834C0DDF830C03F
:103DD00009900891079206938DED050ACDED040A2E
:103DE0008DED031ACDED021A8DED012A099940F2ED
:103DF0001110C2F20000C861099940F2E000C2F25D
:103E000000000862099940F2A000C2F20000486276
:103E100008980999886207980999C86206980999CB
:103E2000086309990C9A106852688A634863099973
:103E30000D9A106852680A64C863099941F26F20AC
:103E4000C3F68320086105980999C8600498099908
:103E500048610398099988619DED020A09984430E8
:103E6000FFF7A2FD9DED010A09985C30FFF79CFD6C
:103E70000AB080BD82B001908DED000A00980199D2
:103E8000886702B07047000082B001908DED000A93
:103E900000980199486702B07047000080B584B06F
:103EA00003900291039991ED010ABDEEC00A10EE54
:103EB000100A488202980178407840EA012000B256
:103EC00000EE100AB8EEC00A039880ED010A0298CD
:103ED0008178C07840EA012000B200EE100AB8EE06
:103EE000C00A039880ED020A02980179407940EAFD
:103EF000012000B200EE100AB8EEC00A039880ED6F
:103F0000030A0298807903990874039890ED010AD6
:103F1000B0F9120001EE100AB8EEC11A30EE410AF3
:103F2000BDEEC00A8DED010A01984EF68321CFF651
:103F3000FF71884205DCFFE7039948690130486159
:103F40000BE0019841F27D51884205DBFFE70399C0
:103F5000486901384861FFE7FFE7039890ED011ACF
:103F600090ED050AB8EEC00A9FED0E2A81EE023AE6
:103F70009FED0D1A23EE013A20EE010A30EE030AFE
:103F800080ED070A039890ED010A80EE020A20EE08
:103F9000010A80ED060A03F00BF90399086204B0E8
:103FA00080BD00BF000000460000B44380B582B071
:103FB000019003F0FDF80199C860019948680989EA
:103FC00003F0C8F8019908700198007802B080BD2C
:103FD00080B582B00190019948680989002203F0F8
:103FE000D1F80198FFF7E2FF0199087002B080BD97
:103FF00080B582B00190019948680989012203F0D7
:10400000C1F80198FFF7D2FF0199087002B080BD96
:1040100080B584B047F29050C1F6FF7000680390FD
:1040200047F29450C1F6FF700068029047F2985032
:10403000C1F6FF700068019001990398084403904D
:10404000039888B1FFE7039840F28841C2F200016B
:1040500000910231082208F0FBFC0099029812310D
:10406000042208F0F5FCFFE704B080BD40F67000C4
:10407000C2F200007047000080B582B0FFF7F6FF83
:10408000019001990020C870019948700199087049
:104090000199887040F69441C2F200010020C4F2F8
:1040A0007A50486000F01CF802B080BD80B582B044
:1040B0008DF80700FFF7DAFF009000990878487044
:1040C0009DF80700009908700098017840788842B0
:1040D00004D0FFE700990120C870FFE702B080BD5F
:1040E00080B584B0FFF7C2FF03900398143040F20C
:1040F0009C11C2F200016A46516040F2A411C2F262
:104100000001116040F2E411C2F2000140F2C81255
:10411000C2F2000240F2AC13C2F200039FED1A0A91
:10412000DFED1A0A9FED1A1ADFED1A1A9FED1A2A0F
:104130008DED022AFFF746FE9DED022A0398B4306A
:1041400040F25411C2F200016A46516040F25C1123
:10415000C2F20001116040F28011C2F2000140F28F
:104160006412C2F2000240F6D453C2F200039FED83
:104170000B0ADFED0B0AB2EE0E1AF0EE421AFFF751
:1041800021FE04B080BD00BF00409C460000FA45FF
:104190000050C34620BCBE4CA9271F4300000000AE
:1041A0009A99193E0000000080B584B0FFF75EFFC9
:1041B000039008F0F3F902900398C078012814D115
:1041C000FFE703981430FFF7EFFD0398B430FFF7D3
:1041D000EBFD03994868C1F8880003998868C1F825
:1041E000280103990020C870FFE70398B43043F218
:1041F0006421C2F2000191ED000AB1EE400AFFF71E
:1042000043FE0398B43000900298406817F0AEF86F
:1042100041EC100B9FED261B53EC112B51EC100BB6
:1042200016F0B8FE41EC100B51EC100B9FED220B79
:1042300053EC102B16F088FC41EC100B51EC100BDA
:1042400016F09CFB0146009800EE101AFFF712FED4
:10425000039800F114010191B430FFF749FC019873
:10426000FFF712FE03981430029991ED040AB1EEA3
:10427000400AFFF7FFFD03981430FFF739FC40F6C2
:104280009440C2F200000BF0ADF940F6C040C2F21B
:1042900000000AF0EFFF0399D1F888004860039905
:1042A000D1F82801886004B080BD00BF00BF00BF06
:1042B0004AD8124DFB21094000000000008066C072
:1042C00080B582B00190FFE740F69440C2F2000052
:1042D0000BF086F8FFF768FF00F006F8FEF798FC91
:1042E000012014F0A9FDEFE780B582B0FFF7BEFE14
:1042F00001900198007801460091032814D8009994
:10430000DFE801F002060A0E0199002088700BE038
:1043100001990120887007E001990220887003E06C
:10432000019903208870FFE702B080BD80B586B098
:104330000490039100200190FFE7049890F8580042
:10434000012804D1FFE702208DF817005AE00499F4
:10435000012081F85800FFE7FFE70498FCF734FBE1
:104360008DF80B009DF80B00D8BBFFE70498C06DDB
:1043700040F0020020F488500499C8650498006851
:10438000039909F0F3FDFFE70498006809F0C2FC07
:10439000F0B1FFE701980130019001984DF60261FC
:1043A000C0F20401884212D3FFE70498C06D40F0C8
:1043B000100020F002000499C865FFE7049900206E
:1043C00081F85800FFE701208DF817001AE0DBE7BD
:1043D0000498C06D40F0010020F002000499C86507
:1043E00005E00499C86D40F01000C865FFE7FFE7DD
:1043F0000499002081F85800FFE79DF80B008DF824
:104400001700FFE79DF8170006B080BD81B000904F
:1044100001B0704781B0009001B0704781B000904A
:1044200001B0704781B0009001B0704781B000903A
:1044300001B0704780B5C4B02490239100208DF85E
:104440008B001F902398C0680021C4F27F0188422E
:1044500001D0FFE700E0FFE7FFE7249890F858005D
:10446000012805D1FFE702208DF8970000F059BC24
:104470002499012081F85800FFE7FFE7249800689D
:1044800009F070FC002840F03884FFE724980068A9
:1044900023990A68496809F079FC2498006809F0B2
:1044A00061FC1E902498006809F020FC1D901E9865
:1044B000002840F0B881FFE71D98002840F0B38144
:1044C000FFE723988068B0F1004F0ED1FFE72498F2
:1044D000006823990968002209F084FC2498006888
:1044E0004FF0004109F034FD0CE024980068239A55
:1044F0001168926809F076FC24980068002109F0A0
:1045000027FDFFE72398406924990968C96801F0ED
:1045100018018908884021902398006904281CD03C
:10452000FFE72498006823990A680969219B09F02C
:10453000B5FC24980068239A1169926909F0E0FC9F
:1045400024980068239A1169127F013AB2FA82F224
:104550005209520609F0C0FC64E124980068002169
:1045600009F0B4FB400348B9FFE724980068002134
:1045700009F0ACFBC0F384601C9018E0249800683C
:10458000002109F0A3FB90FAA0F04290429820B9D4
:10459000FFE720208DF80F0105E04298B0FA80F087
:1045A0008DF80F01FFE79DF80F011C90FFE71C98A5
:1045B0001B9023980068400330B9FFE723980068F8
:1045C000C0F384601A9015E02398006890FAA0F078
:1045D0004090409820B9FFE720208DF8070105E0C2
:1045E0004098B0FA80F08DF80701FFE79DF80701C9
:1045F0001A90FFE71B981A99884207D1FFE7249881
:1046000000680022114609F08FFCFFE7249800683B
:10461000012109F05BFB400348B9FFE724980068DB
:10462000012109F053FBC0F38460199018E024982D
:104630000068012109F04AFB90FAA0F03E903E98F4
:1046400020B9FFE720208DF8FF0005E03E98B0FA82
:1046500080F08DF8FF00FFE79DF8FF001990FFE75D
:104660001998189023980068400330B9FFE7239801
:104670000068C0F38460179015E02398006890FAF2
:10468000A0F03C903C9820B9FFE720208DF8F7007F
:1046900005E03C98B0FA80F08DF8F700FFE79DF850
:1046A000F7001790FFE718981799884207D1FFE79E
:1046B000249800680121002209F036FCFFE72498C5
:1046C0000068022109F002FB400348B9FFE7249883
:1046D0000068022109F0FAFAC0F38460169018E02D
:1046E00024980068022109F0F1FA90FAA0F03A90BB
:1046F0003A9820B9FFE720208DF8EF0005E03A98BE
:10470000B0FA80F08DF8EF00FFE79DF8EF0016900B
:10471000FFE71698159023980068400330B9FFE72B
:1047200023980068C0F38460149015E02398006813
:1047300090FAA0F03890389820B9FFE720208DF843
:10474000E70005E03898B0FA80F08DF8E700FFE761
:104750009DF8E7001490FFE715981499884207D157
:10476000FFE7249800680221002209F0DDFBFFE743
:1047700024980068032109F0A9FA400348B9FFE72B
:1047800024980068032109F0A1FAC0F38460139013
:1047900018E024980068032109F098FA90FAA0F034
:1047A0003690369820B9FFE720208DF8DF0005E02D
:1047B0003698B0FA80F08DF8DF00FFE79DF8DF0053
:1047C0001390FFE71398129023980068400330B9C4
:1047D000FFE723980068C0F38460119015E02398E8
:1047E000006890FAA0F03490349820B9FFE72020B8
:1047F0008DF8D70005E03498B0FA80F08DF8D70036
:10480000FFE79DF8D7001190FFE7129811998842B1
:1048100007D1FFE7249800680321002209F084FBF8
:10482000FFE7FFE7FFE72498006809F08BFA00280C
:1048300040F04481FFE724980068239A1168D26809
:1048400009F0ECFA2398C0680021C4F27F01884285
:1048500040F03381FFE724980068109023980068A7
:10486000400330B9FFE723980068C0F384600F90DD
:1048700015E02398006890FAA0F03290329820B9A1
:10488000FFE720208DF8CF0005E03298B0FA80F0E5
:104890008DF8CF00FFE79DF8CF000F90FFE70F984E
:1048A000013000F01F0009287DD8FFE72398006839
:1048B000400330B9FFE723980068C0F384600E908E
:1048C00015E02398006890FAA0F03090309820B955
:1048D000FFE720208DF8C70005E03098B0FA80F09F
:1048E0008DF8C700FFE79DF8C7000E90FFE70E9810
:1048F000013000F01F0080060D90239800684003EF
:1049000030B9FFE723980068C0F384600C9015E08D
:104910002398006890FAA0F02E902E9820B9FFE717
:1049200020208DF8BF0005E02E98B0FA80F08DF8B9
:10493000BF00FFE79DF8BF000C90FFE70D980C99B2
:10494000013101F01F020121914008430B9023988F
:104950000068400330B9FFE723980068C0F3846023
:104960000A9015E02398006890FAA0F02C902C98FB
:1049700020B9FFE720208DF8B70005E02C98B0FAA9
:1049800080F08DF8B700FFE79DF8B7000A90FFE7C9
:104990000B980A99013101F01F0101EB410140EA36
:1049A0000150099082E023980068400330B9FFE786
:1049B00023980068C0F38460089015E0239800688D
:1049C00090FAA0F02A902A9820B9FFE720208DF8CD
:1049D000AF0005E02A98B0FA80F08DF8AF00FFE74D
:1049E0009DF8AF000890FFE70898013000F01F0025
:1049F0008006079023980068400330B9FFE72398AA
:104A00000068C0F38460069015E02398006890FA6F
:104A1000A0F02890289820B9FFE720208DF8A70063
:104A200005E02898B0FA80F08DF8A700FFE79DF820
:104A3000A7000690FFE707980699013101F01F02D1
:104A4000012191400843059023980068400330B944
:104A5000FFE723980068C0F38460049015E0239872
:104A6000006890FAA0F02690269820B9FFE7202051
:104A70008DF89F0005E02698B0FA80F08DF89F0031
:104A8000FFE79DF89F000490FFE705990498013027
:104A900000F01F0000EB40020020CFF6206000EB8A
:104AA0000250084340F000700990FFE71098099900
:104AB000239A926809F096F9FFE7FFE72398408868
:104AC00048F20801084200F01781FFE724980168C6
:104AD0000120B1F1A04F03900CD0FFE724980068AB
:104AE0004FF60071CAF6FF710844B0FA80F0400931
:104AF0000390FFE70398C10740F20070C5F2000081
:104B000000291CBF40F20030C5F2000009F0C6F8D1
:104B100020902398006840F20001CCF221318842B5
:104B200008D0FFE7239800681021C9F2C00188422D
:104B30005AD1FFE79DF882000006002854D4FFE711
:104B400024980068B0F1A04F09D0FFE724980068CE
:104B500040F20061C5F20001884244D1FFE7249889
:104B600001680120B1F1A04F02900CD0FFE724981A
:104B700000684FF60071CAF6FF710844B0FA80F081
:104B800040090290FFE70298C10740F20070C5F2A9
:104B9000000000291CBF40F20030C5F2000020993F
:104BA00041F4000109F06CF940F23430C2F2000027
:104BB00000684FEA901042F66351C0F23E51A0FBEC
:104BC00001104FEA901000EB40014FF00C0000EB99
:104BD00081001F90FFE71F9820B1FFE71F98013861
:104BE0001F90F8E7FFE786E0239800680021CCF2E9
:104BF000527188423ED1FFE79DF88300C007C8BBD1
:104C0000FFE72498006840F20011C5F200018842D5
:104C100009D1FFE72498006840F20051C5F2000175
:104C2000884226D0FFE7249801680120B1F1A04F07
:104C300001900CD0FFE7249800684FF60071CAF687
:104C4000FF710844B0FA80F040090190FFE7019835
:104C5000C10740F20070C5F2000000291CBF40F2FD
:104C60000030C5F20000209941F0807109F008F988
:104C7000FFE73FE0239800680021CCF684318842AA
:104C800036D1FFE79DF882004006002830D4FFE7C8
:104C90002498006840F20011C5F20001884226D035
:104CA000FFE7249801680120B1F1A04F00900CD0DB
:104CB000FFE7249800684FF60071CAF6FF710844B8
:104CC000B0FA80F040090090FFE70098C10740F279
:104CD0000070C5F2000000291CBF40F20030C5F290
:104CE0000000209941F4800109F0CAF8FFE700E0D4
:104CF000FFE7FFE7FFE7FFE708E02499C86D40F012
:104D00002000C86501208DF88B00FFE7FFE724999C
:104D1000002081F85800FFE79DF88B008DF8970080
:104D2000FFE79DF8970044B080BD000081B000907F
:104D300001B0704781B0009001B0704781B0009021
:104D400001B0704780B594B0139000201290139872
:104D500000680068119013980068406810901398DC
:104D600001680120B1F1A04F0A900CD0FFE7139821
:104D700000684FF60071CAF6FF710844B0FA80F07F
:104D800040090A90FFE70A98C10740F20070C5F297
:104D9000000000291CBF40F20030C5F2000008F0FE
:104DA0008DFF0B909DF844004FEA807000281AD5C3
:104DB000FFE79DF840008007002814D5FFE713980F
:104DC000C06DC006002806D4FFE71399C86D40F4F3
:104DD0000060C865FFE71398FFF718FB1398016898
:104DE00002200860FFE79DF844004007002806D530
:104DF000FFE7109800F0040004280ED0FFE79DF8AC
:104E000044000007002840F1C080FFE79DF8400003
:104E10000007002840F1B980FFE71398C06DC00675
:104E2000002806D4FFE71399C86D40F40070C865E8
:104E3000FFE71398006808F09DFF002800F09D80B0
:104E4000FFE71398006840F20011C5F200018842A4
:104E500004D1FFE74FF0A040099015E013980068D7
:104E600040F20051C5F20001884206D1FFE740F24E
:104E70000040C5F20000089003E013980068089015
:104E8000FFE708980990FFE7099813990968884295
:104E90000BD0FFE70B9840B1FFE70B98052804D033
:104EA000FFE70B98092805D1FFE713980068C06851
:104EB0000D9028E01398006840F20011C5F200013F
:104EC000884204D1FFE74FF0A040079015E0139807
:104ED000006840F20051C5F20001884206D1FFE7A8
:104EE00040F20040C5F20000069003E0139800680D
:104EF0000690FFE706980790FFE707980C900C983C
:104F0000C0680D90FFE70D9800F40050B0F5005F09
:104F100032D0FFE7139800680068000700282AD500
:104F2000FFE71398006808F01DFFC0B9FFE713986A
:104F30000168486820F00C0048601399C86D20F49F
:104F40008070C8651398C06DC004002806D4FFE7C0
:104F50001399C86D40F00100C865FFE70AE0139996
:104F6000C86D40F01000C8651399086E40F001004C
:104F70000866FFE7FFE7FFE7FFE71398FFF7D6FEB6
:104F8000139801680C200860FFE79DF84400800634
:104F9000002806D5FFE7109800F0200020280ED04A
:104FA000FFE79DF844004006002840F1D680FFE767
:104FB0009DF840004006002840F1CF80FFE713989D
:104FC000C06DC006002806D4FFE71399C86D40F4F1
:104FD0000050C865FFE71398006808F08FFE0F9037
:104FE0001398006808F0C6FE0E901398006840F20F
:104FF0000011C5F20001884204D1FFE74FF0A04044
:10500000059015E01398006840F20051C5F20001C8
:10501000884206D1FFE740F20040C5F2000004904C
:1050200003E0139800680490FFE704980590FFE7F9
:1050300005981399096888420BD0FFE70B9840B197
:10504000FFE70B98062804D0FFE70B98072805D147
:10505000FFE713980068C0680D9028E01398006877
:1050600040F20011C5F20001884204D1FFE74FF081
:10507000A040039015E01398006840F20051C5F27B
:105080000001884206D1FFE740F20040C5F200006F
:10509000029003E0139800680290FFE702980390E3
:1050A000FFE703980C900C98C0680D90FFE70F98ED
:1050B00000284AD0FFE79DF83700800700280AD56E
:1050C000FFE70E9800283FD0FFE79DF835008006E7
:1050D000002839D4FFE713980068006840060028CC
:1050E00031D5FFE79DF83600800600282AD4FFE777
:1050F0001398006808F0FAFDC0B9FFE7139801683B
:10510000486820F0600048601399C86D20F4805012
:10511000C8651398C06DC005002806D4FFE7139931
:10512000C86D40F00100C865FFE70AE01399C86D3B
:1051300040F01000C8651399086E40F00100086641
:10514000FFE7FFE7FFE7FFE7FFE71398FFF762F9E5
:105150001398016860200860FFE79DF8440000068E
:10516000002813D5FFE79DF84000000600280DD564
:10517000FFE71399C86D40F48030C865139800F0BC
:10518000ADFA1398016880200860FFE79DF845009C
:10519000C00798B1FFE79DF84100C00770B1FFE775
:1051A0001399C86D40F40030C8651398FFF73AF9B9
:1051B000139801684FF480700860FFE79DF8450080
:1051C0008007002814D5FFE79DF8410080070028DC
:1051D0000ED5FFE71399C86D40F48020C865139879
:1051E000FFF724F9139801684FF400700860FFE797
:1051F0009DF84400C00600285AD5FFE79DF84000FE
:10520000C006002854D5FFE71398C06B18B9FFE714
:105210000120129035E00B9840B3FFE71398016826
:105220000120B1F1A04F01900CD0FFE71398006866
:105230004FF60071CAF6FF710844B0FA80F04009D9
:105240000190FFE70198C10740F20070C5F200002D
:1052500000291CBF40F20030C5F2000008F026FD16
:1052600018B1FFE701201290FFE709E013980068EA
:10527000C068C00718B1FFE701201290FFE7FFE701
:10528000FFE7129801280ED1FFE71399C86D40F48B
:105290008060C8651399086E40F002000866139894
:1052A000FFF74CFDFFE71398016810200860FFE747
:1052B0009DF845004007002819D5FFE79DF84100FB
:1052C0004007002813D5FFE71399C86D40F48040CC
:1052D000C8651399086E40F00800086613980168C5
:1052E0004FF4806008601398FFF798F8FFE714B058
:1052F00080BD000080B58EB00C9000208DF82F008E
:1053000008900C9820B9FFE701208DF83700E1E103
:105310000C98406940B1FFE70C9890F824000128F0
:1053200001D1FFE7FFE7FFE70C98C06D50B9FFE739
:105330000C9800F0D7F90C99002008660C9981F8B8
:105340005800FFE70C98006808F0ECFC28B1FFE774
:105350000C98006808F078FCFFE70C98006808F0EB
:10536000F9FCF0B9FFE70C98006808F087FC40F200
:105370003430C2F200000068800942F66351C0F286
:105380003E51A0FB01108109022000EB4100089072
:10539000FFE7089820B1FFE7089801380890F8E780
:1053A000FFE70C98006808F0D5FC70B9FFE70C998E
:1053B000C86D40F01000C8650C99086E40F00100FF
:1053C000086601208DF82F00FFE70C98006808F0B0
:1053D000C9FC09900C98C06DC006002800F16C81D2
:1053E000FFE70998002840F06781FFE70C98C06D3F
:1053F00040F0020020F480700C99C8650C98006899
:1054000008F0A0FC00287CD1FFE70C98016801207F
:10541000B1F1A04F05900CD0FFE70C9800684FF653
:105420000071CAF6FF710844B0FA80F04009059097
:10543000FFE70598C10740F20070C5F2000000299F
:105440001CBF40F20030C5F2000040F20031C5F24E
:105450000001884210D1FFE74FF0A04008F072FC35
:10546000039040F20010C5F2000008F06BFC01460A
:105470000398084304901BE040F20040C5F200008E
:1054800008F060FC019040F20050C5F2000008F006
:1054900059FC014601980843029040F20060C5F2B1
:1054A000000008F04FFC0146029808430490FFE713
:1054B000049828BBFFE70C9801680120B1F1A04FC8
:1054C00000900CD0FFE70C9800684FF60071CAF608
:1054D000FF710844B0FA80F040090090FFE700989F
:1054E000C10740F20070C5F2000000291CBF40F265
:1054F0000030C5F200000C99496808F0B3FCFFE7E2
:10550000FFE70C994A7FC86B40EA42308A68CB6853
:105510001843104391F8241040EA01400A900C9877
:1055200090F8240001280BD1FFE70C98816A002035
:10553000CFF6FE7000EB41410A9808430A90FFE75E
:105540000C98C06A50B1FFE70C99C86A096B00F467
:10555000787001430A9808430A90FFE70C980068A6
:10556000C06844F20701CFF6F07108400A99084379
:105570000C990968C8600C980068006920F04060C8
:105580000C9A1168526B104308610C98006808F07F
:10559000E9FB07900C98006808F0A8FB06900798B4
:1055A000002868D1FFE70698002864D1FFE70C992E
:1055B000087F91F83810800340EA41000A900C9867
:1055C0000068C06844F2020188430A9908430C99B4
:1055D0000968C8600C980069A0B1FFE70C980168E1
:1055E000086940F4803008610C980068D0F8C00069
:1055F00043F6FF7188430C9A116812691043C1F891
:10560000C00011E00C980168086920F4803008613E
:105610000C980068D0F8C00043F6FF7188430C99DD
:105620000968C1F8C000FFE70C9890F84000012815
:1056300019D1FFE70C980068006940F2FD7120EA7B
:1056400001020C9B1968586CD3F848E0D3F84CC0A1
:1056500040EA0E0040EA0C001B6D1843104340F076
:105660000100086106E00C980168086920F001005B
:105670000861FFE7FFE70C98406901280CD1FFE7BC
:105680000C980068006B20F00F000C9A1168126AE9
:10569000013A1043086306E00C980168086B20F09B
:1056A0000F000863FFE70C98C06D40F0010020F088
:1056B00002000C99C86508E00C99C86D40F0100014
:1056C000C86501208DF82F00FFE79DF82F008DF8A9
:1056D0003700FFE79DF837000EB080BD81B0009025
:1056E00001B0704780B5A0B01F9000201E901D90A3
:1056F0001C901B901A9005A85421FAF757FF1F9889
:10570000006840F20011C5F2000188426ED1FFE747
:105710004FF4004005904FF00050169005A803F09C
:10572000DDF918B1FFE7FDF727FFFFE7FFE741F2DB
:105730004C00C4F20200016841F4005101600068AD
:1057400000F4005004900498FFE7FFE741F24C009A
:10575000C4F20200016841F002010160006800F03B
:10576000020003900398FFE704201A9003201B9087
:10577000002001901C9040F20040C4F600001AA9DD
:1057800001F034FB019942F6C810C2F20000029009
:105790003022C4F202020260242242608160C160B1
:1057A000802202614FF4007242614FF40062826114
:1057B0002022C261016200F07DFA18B1FFE7FDF717
:1057C000DBFEFFE7FFE71F9842F6C811C2F20001B7
:1057D00041651F988862FFE7122000900521002292
:1057E00001F0C2FD009801F0B5FDFFE720B080BDDB
:1057F00080B58AB008900791069208980168012048
:10580000B1F1A04F03900CD0FFE7089800684FF665
:105810000071CAF6FF710844B0FA80F040090390A5
:10582000FFE70398C10740F20070C5F200000029AD
:105830001CBF40F20030C5F2000008F03FFA0490AF
:105840000898006808F08EFA002840F0CA80FFE748
:10585000FFE7089890F85800012804D1FFE70220DC
:105860008DF82700C6E00899012081F85800FFE76D
:10587000FFE70898006840F20061C5F20001884225
:105880000CD0FFE7049848B1FFE70498052805D03D
:10589000FFE70498092840F09980FFE70898FBF794
:1058A000F5F88DF817009DF81700002840F0868065
:1058B000FFE70898C06D40F4807040F601618843AE
:1058C0000899C8650898006840F20011C5F2000107
:1058D000884204D1FFE74FF0A040029015E00898FD
:1058E000006840F20051C5F20001884206D1FFE78E
:1058F00040F20040C5F20000019003E00898006803
:105900000190FFE701980290FFE702980899096863
:10591000884203D0FFE7049830B9FFE70899C86DC3
:1059200020F48010C865FFE70898C06DC004002807
:1059300006D5FFE70899086E20F00600086603E028
:10594000089900200866FFE70898416D40F671004D
:10595000C0F60000C8620898416D40F67110C0F6AC
:10596000000008630898416D40F64510C0F600003D
:105970004863089801681C200860FFE70899002028
:1059800081F85800FFE708980168486840F0100067
:10599000486008980168C86840F00100C86008982D
:1059A0000168406D4031079A069B00F02FFA8DF890
:1059B00017000898006808F007FA06E0FFE7089962
:1059C000002081F85800FFE7FFE709E001208DF88B
:1059D0001700FFE70899002081F85800FFE7FFE76C
:1059E00003E002208DF81700FFE79DF817008DF8FF
:1059F0002700FFE79DF827000AB080BD82B0019024
:105A000000208DF80300019890F82500022807D0A7
:105A1000FFE701990420C86301208DF803002DE001
:105A200001980168086820F00E0008600198816CF8
:105A3000086820F48070086001980168086820F008
:105A4000010008600198016C406C00F01F02012009
:105A5000904048600198C16C006D48600198406DAD
:105A600058B1FFE70198416D086820F48070086024
:105A70000198816DC06D4860FFE7FFE70199012043
:105A800081F82500FFE70199002081F82400FFE755
:105A90009DF8030002B0704780B582B001900020ED
:105AA0008DF80300019890F82500022811D0FFE737
:105AB00001990420C8630199012081F82500FFE7BE
:105AC0000199002081F82400FFE701208DF80300F0
:105AD0003FE001980168086820F00E000860019816
