:020000040800F2
:10000000F8A00020C102000849EE0008F5BB000876
:1000100035E40008D5260008A1780108000000009A
:10002000000000000000000000000000711801083E
:100030005131000800000000D1FB00081524010820
:10004000DB02000879FA0008DB020008DB02000886
:10005000DB020008DB020008DB020008DB0200080C
:10006000DB020008DB020008DB0200087928000838
:100070008928000899280008DB020008A928000840
:10008000DB020008DB02000861080008DB02000850
:100090006577010865310008DB020008DB02000813
:1000A000DB020008DB020008DB020008DB020008BC
:1000B000DB020008DB020008DB020008DB020008AC
:1000C000DB020008DB020008DB020008DB0200089C
:1000D000DB020008DB020008DB0200088D3F01089C
:1000E000DB020008DB020008DB020008DB0200087C
:1000F000DB020008DB020008DB020008DB0200086C
:10010000DB020008DB020008DB020008DB0200085B
:10011000DB020008DB020008DB020008DB0200084B
:10012000DB020008DB020008DB020008DB0200083B
:10013000DB020008DB020008DB020008DB0200082B
:10014000DB020008DB020008DB0200080000000000
:10015000000000000000000000000000000000009F
:10016000000000000000000000000000DB020008AA
:10017000DB020008DB020008E5240108DB020008BE
:10018000DB020008DB020008DB020008DB020008DB
:10019000DB0200080000000075310008DB020008E7
:1001A000DB020008DB020008DB020008DB020008BB
:1001B000DB020008DB020008DB020008DB020008AB
:1001C000DB020008DB020008DB020008DB0200089B
:1001D000DB020008DB02000800F002F800F060F823
:1001E0000AA090E8000C82448344AAF10107DA4592
:1001F00001D100F055F8AFF2090EBAE80F0013F084
:10020000010F18BFFB1A43F001031847B8AB0100F8
:10021000D8AB01000A444FF0000C10F8013B13F07A
:10022000070408BF10F8014B1D1108BF10F8015B4F
:10023000641E05D010F8016B641E01F8016BF9D142
:1002400013F0080F1EBF10F8014BAD1C0C1B09D199
:100250006D1E58BF01F801CBFAD505E014F8016B0B
:1002600001F8016B6D1EF9D59142D6D3704700009D
:100270000023002400250026103A28BF78C1FBD8AF
:10028000520728BF30C148BF0B6070471FB51AF036
:10029000A6FC9DE8030000F0CFF91FBD10B510BD0E
:1002A00000F05CFA1146FFF7F1FF18F0F7F800F0E4
:1002B0007AFA03B4FFF7F2FF03BC00F0ABFA0000D8
:1002C0000948804709480047FEE7FEE7FEE7FEE7EA
:1002D000FEE7FEE7FEE7FEE7FEE7FEE70448054926
:1002E000054A064B70470000D1240108D9010008D7
:1002F000F8700020F8A00020F8800020F88000208E
:1003000070B5064600F07CF9056806F10B0020F098
:100310000704B4429CBF002070BD2B466A68BAB186
:100320001068A04210D304F1080188423CBF506815
:10033000586007D35168101941601168091B0160AA
:1003400058601460101D70BD13465268002AE7D132
:100350002146284600F05CF90028DED170BD53EA42
:10036000020C00F069802DE9F04B4FF00006002BE5
:100370001FBFB3FA83F503FA05F424FA05F65E40CD
:1003800012BF1643B2FA82F502FA05F4C5F1200550
:100390001EBF22FA05FC44EA0C04203556EA044C40
:1003A0004FEA144418BF641C4FF000084FF00009D6
:1003B000904271EB030C39D3002919BFB1FA81F7D0
:1003C00001FA07F6B0FA80F700FA07F6C7F120073E
:1003D0001EBF20FA07FC46EA0C062037B6FBF4FCE9
:1003E000A7EB0507103F07F01F0BCBF120062CFAF7
:1003F00006F60CFA0BFB44BFB3460026202FA4BF21
:100400005E464FF0000B5BEA060C08BF4FF0010B95
:1004100019EB0B0948EB0608ABFB027C06FB02CC90
:100420000BFB03CCC01B71EB0C01C1E70B46024672
:1004300041464846BDE8F08B13B5084318BF4FF05E
:10044000FF300146AFF30080BDE81C407047002834
:1004500000DA4042704740EA010310B59B070FD114
:10046000042A0DD310C808C9121F9C42F8D020BA24
:1004700019BA884201D9012010BD4FF0FF3010BDDC
:100480001AB1D30703D0521C07E0002010BD10F8AA
:10049000013B11F8014B1B1B07D110F8013B11F870
:1004A000014B1B1B01D1921EF1D1184610BD032A2E
:1004B00040F2308010F0030C00F0158011F8013B81
:1004C000BCF1020F624498BF11F801CB00F8013B68
:1004D00038BF11F8013BA2F1040298BF00F801CB2C
:1004E00038BF00F8013B11F0030300F02580083A03
:1004F000C0F0088051F8043B083A51F804CBA0E85A
:100500000810F5E7121D5CBF51F8043B40F8043BAE
:10051000AFF30080D20724BF11F8013B11F801CBE3
:1005200048BF11F8012B24BF00F8013B00F801CBB4
:1005300048BF00F8012B704710B5203AC0F00B807F
:10054000B1E81850A0E81850B1E81850A0E81850C9
:10055000203ABFF4F5AF5FEA027C24BFB1E818503F
:10056000A0E8185044BF18C918C0BDE810405FEAA1
:10057000827C24BF51F8043B40F8043B08BF70471D
:10058000D20728BF31F8023B48BF11F8012B28BF22
:1005900020F8023B48BF00F8012B704702F0FF0330
:1005A00043EA032242EA024200F002B84FF000029E
:1005B00000B5134694469646203922BFA0E80C5059
:1005C000A0E80C50B1F12001BFF4F7AF090728BF34
:1005D000A0E80C5048BF0CC05DF804EB890028BFB0
:1005E00040F8042B08BF704748BF20F8022B11F0D9
:1005F000804F18BF00F8012B704770477047704755
:1006000000487047C004002070477047704770472B
:1006100038B504460A4600206946AFF3008000283A
:1006200008BF38BD02460099204600F075F8012049
:1006300038BD012000F08AB8F8B5AFF30080054658
:1006400000200C46102000BF0646A819A0420DD974
:10065000324669460020AFF30080070008BF00F073
:1006600075F80098A04218BF0546C419FFF7C8FFE7
:1006700005600746F01D20F007004619284600F0E7
:100680000AF8B44208BFF8BDA21B31463868BDE87D
:10069000F84000F041B800210160C0E90110704746
:1006A0001020704770B50446051FFFF7A9FF0068CA
:1006B000002C14BF446870BD002C18BFAC423CBF76
:1006C00020466468F8D301680A18AA4218BF45603A
:1006D00003D12A6805461144016028684119A142E6
:1006E0001CBF6C6070BD6168696021680844286047
:1006F00070BD10B500F00CF8006810BD10B50446D0
:1007000000F006F8046010BD00487047B8040020EF
:1007100000487047B8040020034640688C46002813
:1007200018BF88423CBF03464068F8D31868184495
:10073000884207D00CF1030020F00700001D411A89
:10074000521A0146081D0A60FFF7ACBF10B500F051
:1007500039F8BDE8104000F02FB870477546FFF734
:10076000D3FFAE4605006946534620F00700854694
:1007700018B020B5FFF7B2FDBDE820404FF00006ED
:100780004FF000074FF000084FF0000BAC46ACE80C
:10079000C009ACE8C009ACE8C009ACE8C00921F068
:1007A00007018D46704710B50446AFF30080204620
:1007B000BDE81040FFF77DBD002801D000F02AB849
:1007C0007047000010B5012805D0002103A000F0FB
:1007D00027F8012010BD09A1F8E70000534947524E
:1007E000544D454D3A204F7574206F662068656101
:1007F00070206D656D6F7279000000003A204865C9
:100800006170206D656D6F727920636F72727570A3
:100810007465640001491820ABBEFEE726000200A3
:1008200070B505460C460A2000E06D1C00F011F87A
:1008300035B128780028F8D102E0641C00F009F8EE
:1008400014B120780028F8D1BDE870400A20AFF339
:10085000008008B569468DF800000320ABBE08BDD6
:1008600080B542F6E800C2F2000003F0CBFF80BD85
:1008700040F21C50C2F200007047000080B582B008
:10088000FFF7F6FF019040F20000C2F2000000689E
:100890000199C86140F20400C2F2000000680199A9
:1008A000086240F21C00C2F2000000680199486230
:1008B00002B080BD80B582B0FFF7DAFF019006F08C
:1008C000D1F80090009801994968401A00EE100A8A
:1008D000B8EE400A9FED111AB4EE410AF1EE10FA9B
:1008E00004DCFFE701990120887014E00098019969
:1008F0004968401A00EE100AB8EE400A9FED071A48
:10090000B4EE410AF1EE10FA04DBFFE70199002092
:100910008870FFE7FFE702B080BD00BF0000C8425B
:1009200080B584B08DF80F00FFF7A2FF02900DF0A4
:1009300011FE01909DF80F00029908709DF80F00BC
:100940000199887304B080BD80B584B0FFF790FF33
:1009500003900DF0FFFD029003F074F9019011F087
:10096000DDFA009001980078002800F02481FFE76C
:1009700003984078002840F08D80FFE70398C06915
:10098000009988630398006A0099C8630298B0F9D7
:10099000220000EE100AB8EEC00AB1EE400A9FED48
:1009A0008B1A80EE010A039880ED030A0298B0F9D1
:1009B000240000EE100AB8EEC00AB1EE400A80EE44
:1009C000010A039880ED040A039890ED040A019847
:1009D00090ED051AB4EE410AF1EE10FA05DDFFE7DD
:1009E000019840690399086111E0039890ED040AA9
:1009F000019890ED061AB4EE410AF1EE10FA05DA0C
:100A0000FFE70198806903990861FFE7FFE7FFE7C7
:100A1000039890ED030A9FED6E1AB4EE410AF1EED1
:100A200010FA0ADBFFE7039890ED030A9FED6B1ABB
:100A300030EE010A80ED030AEAE7FFE7039890ED44
:100A4000030A9FED641AB4EE410AF1EE10FA0ADCD3
:100A5000FFE7039890ED030A9FED5F1A30EE010A5D
:100A600080ED030AEAE70298007F022811D1FFE730
:100A70000298407F68B1FFE70DF0E2FD48B9FFE75B
:100A800003980069019908610398C0680199C860DA
:100A9000FFE78FE003984078012840F08A80FFE765
:100AA0000398406A009988630398406A0099C86374
:100AB000029890ED0B0AB1EE400A9FED441A80EEC9
:100AC000010A039880ED050A029890ED0C0AB1EE38
:100AD000400A80EE010A039880ED060A039890ED23
:100AE000060A019890ED051AB4EE410AF1EE10FAEB
:100AF00005DDFFE7019840690399886111E00398DB
:100B000090ED060A019890ED061AB4EE410AF1EE56
:100B100010FA05DAFFE70198806903998861FFE719
:100B2000FFE7FFE7039890ED050A9FED291AB4EE61
:100B3000410AF1EE10FA0ADBFFE7039890ED050A8F
:100B40009FED261A30EE010A80ED050AEAE7FFE77D
:100B5000039890ED050A9FED1F1AB4EE410AF1EEDD
:100B600010FA0ADCFFE7039890ED050A9FED1A1AC8
:100B700030EE010A80ED050AEAE70298007F0928B5
:100B800016D1FFE70298407F90B1FFE70DF058FDC6
:100B900070B9FFE703988078012809D1FFE703982F
:100BA000806901990861039840690199C860FFE76D
:100BB000FFE7FFE708E00398C0690099886303989E
:100BC000006A0099C863FFE704B080BD0000C84216
:100BD00000003443000034C30000B4430000B4C339
:100BE00080B58AB010F0AEFA09900DF0B3FC089011
:100BF00011F094F90790FFF73BFE069001F0A8FC76
:100C000005904FF47A70ADF81200079890F84C00F8
:100C1000012812D1FFE70598808F00EE100AB8EE88
:100C2000C01AB2EE040A80EE010A9FED901A20EE7F
:100C3000010A079880ED140A0CE0079890F84C0020
:100C4000022806D1FFE707990020C4F24830086562
:100C5000FFE7FFE70698007850B9FFE7079890EDA7
:100C6000140ABDEEC00A10EE100AADF8120017E02B
:100C700006980078022806D1FFE70798B0F85400DC
:100C8000ADF812000BE006980078012806D1FFE7C6
:100C90000798B0F85400ADF81200FFE7FFE7FFE750
:100CA0000998007A002800F0DF80FFE70698407876
:100CB000002873D1FFE7079890ED101A90ED120A03
:100CC00030EE410AB2EE0E1AB4EE410AF1EE10FA1D
:100CD00004DCFFE7002010F0FDFFC5E046F60461EC
:100CE000C2F200010888013008800898407F01287E
:100CF00053D1FFE70898807F01284ED1FFE709987C
:100D0000007A012849D1FFE746F60460C2F20000EC
:100D10000088BDF8121088423FDBFFE7079890ED8E
:100D2000101A90ED120A30EE410AB2EE0E1AB4EE2D
:100D3000410AF1EE10FA30DBFFE740F64840C2F21C
:100D4000000090ED010AB3EE041AB4EE410AF1EE90
:100D500010FA22DDFFE740F6A040C2F2000090ED5D
:100D6000010AB3EE041AB4EE410AF1EE10FA14DDF2
:100D7000FFE70120039010F0ADFF0399079A0020D0
:100D800082F84E0042F65412C2F20002117046F68A
:100D90000461C2F200010880FFE764E00698407831
:100DA00001285FD1FFE70898407F012846D1FFE77F
:100DB0000898807F012841D1FFE742F65410C2F223
:100DC00000000078D0BBFFE7079890ED101A90ED77
:100DD000120A30EE410AB2EE0E1AB4EE410AF1EEFA
:100DE00010FA2BDBFFE740F64840C2F2000090ED1E
:100DF000010AB3EE041AB4EE410AF1EE10FA1DDD59
:100E0000FFE740F6A040C2F2000090ED010AB3EE09
:100E1000041AB4EE410AF1EE10FA0FDDFFE70120EB
:100E2000029010F049FF0298079A002182F84E10B4
:100E300042F65411C2F20001087012E00898807F57
:100E400070B9FFE70020019010F044FF0198079966
:100E500081F84E0042F65411C2F200010870FFE71B
:100E6000FFE7FFE7FFE7FFE70AB080BD00007A4435
:100E700080B582B00190FFE7FFF71CFDFFF764FD2E
:100E80000DF0F0FB012017F045FBF5E780B582B0CF
:100E9000FFF7EEFC01900DF05DFB00900098407FA5
:100EA00008B9FFE704E005F0DDFD01994860FFE7C0
:100EB00002B080BD80B58AB0089000208DF81F0078
:100EC0000898806802F070FE0898406880210391BD
:100ED00010F074FB089840685521049110F06EFBE7
:100EE00004990898406810F069FB8DF81F00089875
:100EF000806802F069FEB0EE000A8DED050A01F08F
:100F0000C9FD0898806802F04FFE03990898406870
:100F100010F054FB04990898406810F04FFB0499B6
:100F20000898406810F04AFB8DF81F000898806808
:100F300002F04AFE9DED050A01F0ACFD08988068BC
:100F400002F032FE089840687E2110F037FB0898C6
:100F50004068B62110F032FB0898806802F034FE39
:100F60009FED5D0A01F096FD0898806802F01CFE76
:100F700003990898406810F021FB0499089840688C
:100F800010F01CFB04990898406810F017FB8DF8CE
:100F90001F000898806802F017FE9DED050A01F019
:100FA00079FD0898806802F0FFFD03990898406871
:100FB00010F004FB04990898406810F0FFFA0499B7
:100FC0000898406810F0FAFA8DF81F0008988068B9
:100FD00002F0FAFD9DED050A01F05CFD9DF81F0091
:100FE0001E2804D0FFE7FF208DF827006FE00020C7
:100FF0000690FFE70698052865DCFFE708988068FB
:1010000002F0D2FD08984068069901EB410240F2D7
:101010009041C2F200010291895C10F0CFFA02996E
:1010200008984068069A02EB42021144497810F091
:10103000C5FA0898806802F0C7FDB0EE000A8DED91
:10104000010A01F027FD0898806802F0ADFD0299C1
:1010500008984068069A02EB4202895C41F08001E0
:1010600010F0ACFA089840685521009110F0A6FAEB
:1010700000990898406810F0A1FA8DF81F000898B0
:10108000806802F0A1FD9DED010A01F003FD0299C7
:101090009DF81F00069A02EB4202114449788842EB
:1010A0000CD0FFE7069800EB400140F29040C2F2FE
:1010B0000000084480788DF8270008E0FFE70698D4
:1010C0000130069096E700208DF82700FFE79DF895
:1010D00027000AB080BD00BF0000A04280B59AB0D2
:1010E000189000208DF85F00169015901490ADF8C0
:1010F0004C0012901898806802F056FD18984068CD
:1011000080210D9110F05AFA1898406855210E91DF
:1011100010F054FA0E991898406810F04FFA8DF8B4
:101120005F001898806802F04FFDB0EE000A8DED68
:101130000F0A01F0AFFC1898806802F035FD0D9998
:101140001898406810F03AFA0E991898406810F014
:1011500035FA0E991898406810F030FA8DF85F0053
:101160001898806802F030FD9DED0F0A01F092FCA6
:101170001898806802F018FD189840687E2110F0D9
:101180001DFA18984068B62110F018FA189880686F
:1011900002F01AFD9FEDED0A01F07CFC18988068C2
:1011A00002F002FD0D991898406810F007FA0E99A8
:1011B0001898406810F002FA0E991898406810F0DC
:1011C000FDF98DF85F001898806802F0FDFC9DED38
:1011D0000F0A01F05FFC1898806802F0E5FC0D9999
:1011E0001898406810F0EAF90E991898406810F0C5
:1011F000E5F90E991898406810F0E0F98DF85F0055
:101200001898806802F0E0FC9DED0F0A01F042FCA6
:101210009DF85F001E2804D0FFE7FF208DF86700CF
:10122000D8E100201190FFE71198032869DCFFE75F
:101230001898806802F0B8FC18984068119901EB82
:1012400041024AF6B151C0F601010C91895C10F0DF
:10125000B5F90C9918984068119A02EB42021144B2
:10126000497810F0ABF91898806802F0ADFCB0EE48
:10127000000A8DED0B0A01F00DFC1898806802F051
:1012800093FC0C9918984068119A02EB4202895C11
:1012900041F0800110F092F91898406855210A91A8
:1012A00010F08CF90A991898406810F087F98DF8B9
:1012B0005F001898806802F087FC9DED0B0A01F032
:1012C000E9FB0C999DF85F00119A02EB4202114470
:1012D000497888420CD0FFE7119800EB40014AF6AC
:1012E000B150C0F60100084480788DF8670071E1C4
:1012F0009FEDBA0A01F0CEFBFFE711980130119083
:1013000092E700201090FFE71098012800F3A980D1
:10131000FFE71898806802F047FC18984068109919
:1013200001EB41014AF6B152C0F6010209921144A3
:10133000097B10F043F9099A18984068109901EB5D
:1013400041011144497B10F039F91898806802F086
:101350003BFCB0EE000A8DED080A01F09BFB1898EB
:10136000806802F021FC099A18984068109901EBF6
:1013700041011144097B41F0800110F01FF91898D8
:1013800040685521079110F019F90799189840689D
:1013900010F014F98DF85F001898806802F014FCC2
:1013A0009DED080A01F076FB099A9DF85F001099FF
:1013B00001EB41011144497B88420CD0FFE71098B2
:1013C00000EB40004AF6B151C0F601010844807BB1
:1013D0008DF86700FEE09FED810A01F05BFB189835
:1013E000806802F0E1FB189840689221069110F0A5
:1013F000E5F806991898406810F0E0F818984068E9
:1014000012A9062210F0BEF81898806802F0DCFBE2
:101410009DF848009DF8491040EA0120109901EB21
:10142000410214A921F812009DF84A009DF84B20B2
:1014300040EA0220109A02EB420201EB4202508085
:101440009DF84C009DF84D2040EA0220109A02EBD6
:10145000420201EB42018880FFE7109801301090B2
:1014600052E71898806802F09FFB189840686D2139
:1014700010F0A4F818984068002110F09FF8189810
:10148000806802F0A1FBB0EE000A8DED050A01F0C4
:1014900001FB1898806802F087FB18984068ED21DE
:1014A00010F08CF8189840685521049110F086F8D7
:1014B00004991898406810F081F88DF85F0018982A
:1014C000806802F081FB9DED050A01F0E3FA9DF8CA
:1014D0005F0020B1FFE704208DF867007AE01898DC
:1014E000806802F061FB189840687E2110F066F871
:1014F00018984068B62110F061F81898806802F0DA
:1015000063FB9FED360A01F0C5FABDF95000BDF945
:101510005610401A40F25551884213DBFFE7BDF9DF
:101520005200BDF95810401A40F25551884209DB6B
:10153000FFE7BDF95400BDF95A10401AB0F52A7FF3
:1015400006DAFFE780208DF8670043E00000A04244
:101550001898806802F028FB189840688021019153
:1015600010F02CF8189840685521029110F026F8D8
:1015700002991898406810F021F88DF85F001898CB
:10158000806802F021FBB0EE000A8DED030A01F045
:1015900081FA1898806802F007FB01991898406852
:1015A00010F00CF802991898406810F007F80299AA
:1015B0001898406810F002F88DF85F00189880685D
:1015C00002F002FB9DED030A01F064FA00208DF8A1
:1015D0006700FFE79DF867001AB080BD0000A042D9
:1015E00080B588B00790002006900590ADF81200F5
:1015F00007990420087007987C3001F07FFA07985B
:1016000080ED1E0A0798806802F0CEFA07984068BD
:10161000922102910FF0D2FF0299079840680FF0D3
:10162000CDFF0798406805A9039106220FF0AAFF95
:101630000798806802F0C8FA9DF814109DF815000C
:10164000000200B2084400EE100AB8EEC00A079883
:1016500090ED171A90ED1B2A20EE020A20EE010AE7
:1016600080ED040A9DF816109DF81700000200B2E4
:10167000084400EE100AB8EEC00A079890ED171A59
:1016800090ED1B2A20EE020A20EE010A80ED050AE9
:101690009DF818109DF81900000200B2084400EEF1
:1016A000100AB8EEC00A079890ED171A90ED1B2AA1
:1016B00020EE020A20EE010A80ED060A0798C068B3
:1016C00002F072FA0798406880210FF077FF0399C3
:1016D0000798406808220FF055FF0798C06802F08D
:1016E00073FA9DF814000F2840F08280FFE70798F6
:1016F00090F86800002843D0FFE79DF816109DF889
:101700001700000200B2084400EE100AB8EEC00A4A
:10171000079890ED101A90ED1C2A20EE020A30EE88
:10172000410A80ED080A9DF818109DF81900000282
:1017300000B2084400EE100AB8EEC00A079890ED17
:10174000111A90ED1C2A20EE020A30EE410A80EDBB
:10175000090A9DF81A109DF81B00000200B2084407
:1017600000EE100AB8EEC00A079890ED121A90ED3C
:101770001C2A20EE020A30EE410A80ED070A36E00C
:101780009DF816109DF81700000200B2084400EE04
:10179000100AB8EEC00A079890ED1C1A20EE010A54
:1017A00080ED080A9DF818109DF81900000200B29B
:1017B000084400EE100AB8EEC00A079890ED1C1A13
:1017C00020EE010A80ED090A9DF81A109DF81B0011
:1017D000000200B2084400EE100AB8EEC00A0798F2
:1017E00090ED1C1A20EE010A80ED070AFFE7FFE7E3
:1017F0000798806802F0D8F907984068A221019103
:101800000FF0DCFE0199079840680FF0D7FE0798AB
:10181000406805A902220FF0B5FE0798806802F023
:10182000D3F99DF814009DF81510C00040EA51103E
:10183000ADF81200BDF91200B0F5806F07DBFFE7CD
:10184000BDF81200A0F50060ADF81200FFE7BDF989
:10185000120000EE100AB8EEC00AB4EE001A20EE34
:10186000010AB3EE071A30EE010A079880ED190A53
:1018700007990120087008B080BD000081B0009079
:10188000009949F2BF30C3F62C20086400994EF24B
:101890006660CBF6BA304864009941F6A360CBF697
:1018A00022308864009941F23F60C4F21B108865C1
:1018B000009890ED161A9FED040A80EE010A80ED63
:1018C000170A01B0704700BFC3F51C4180B58AB04C
:1018D000089000208DF81F000898C06802F064F995
:1018E00008984068802103910FF068FE08984068CE
:1018F000552104910FF062FE8DF81F000898C06812
:1019000002F062F9B0EE000A8DED050A01F0C2F8AE
:101910000898C06802F048F90399089840680FF0E9
:101920004DFE0499089840680FF048FE8DF81F009E
:101930000898C06802F048F99DED050A01F0AAF880
:101940000898C06802F030F90898406814210FF038
:1019500035FE08984068B6210FF030FE0898C06840
:1019600002F032F99FED550A01F094F80898C0682A
:1019700002F01AF90399089840680FF01FFE0499C5
:10198000089840680FF01AFE8DF81F000898C0688C
:1019900002F01AF99DED050A01F07CF80898C0687C
:1019A00002F002F90399089840680FF007FE0499C5
:1019B000089840680FF002FE8DF81F000898C06874
:1019C00002F002F99DED050A01F064F89DF81F0090
:1019D0000F2804D0FFE7FF208DF8270069E00020E2
:1019E0000690FFE7069805285FDCFFE70898C068C7
:1019F00002F0DAF808984068069901EB410240F2DB
:101A0000A241C2F200010291895C0FF0D7FD029958
:101A100008984068069A02EB4202114449780FF098
:101A2000CDFD0898C06802F0CFF8B0EE000A8DED49
:101A3000010A01F02FF80898C06802F0B5F8029981
:101A400008984068069A02EB4202895C41F08001E6
:101A50000FF0B4FD0898406855210FF0AFFD8DF8E8
:101A60001F000898C06802F0AFF89DED010A01F070
:101A700011F802999DF81F00069A02EB42021144E8
:101A8000497888420CD0FFE7069800EB400140F20D
:101A9000A240C2F20000084480788DF8270008E0D8
:101AA000FFE70698013006909CE700208DF827009C
:101AB000FFE79DF827000AB080BD00BF0000A042EC
:101AC00080B588B0069000208DF817008DF81600BC
:101AD0000698C06802F068F8069840688021019175
:101AE0000FF06CFD06984068552102910FF066FDDD
:101AF0008DF817000698C06802F066F8B0EE000A8C
:101B00008DED030A00F0C6FF0698C06802F04CF89D
:101B10000199069840680FF051FD029906984068B7
:101B20000FF04CFD8DF817000698C06802F04CF8D5
:101B30009DED030A00F0AEFF0698C06802F034F88D
:101B40000698406814210FF039FD06984068B621C8
:101B50000FF034FD0698C06802F036F89FED4D0A8C
:101B60008DED040A00F096FF0698C06802F01CF89C
:101B70000199069840680FF021FD02990698406887
:101B80000FF01CFD8DF817000698C06802F01CF8D5
:101B90009DED030A00F07EFF0698C06802F004F88D
:101BA0000199069840680FF009FD0299069840686F
:101BB0000FF004FD8DF817000698C06802F004F8D5
:101BC0009DED030A00F066FF0698C06801F0ECFF87
:101BD000069840683C210FF0F1FC0698406801210E
:101BE0000FF0ECFC0698C06801F0EEFF9DED040AD2
:101BF00000F050FFFFE70698C06801F0D5FF069897
:101C00004068BC210FF0DAFC0698406855210FF0BF
:101C1000D5FC8DF817000698C06801F0D5FFB0EE2E
:101C2000000A00F037FF9DF8160001308DF816000D
:101C3000FFE79DF81710002089070029009008D4BD
:101C4000FFE79DF8161000200A29B8BF0120009078
:101C5000FFE70098C0070028CDD1FFE79DF81600E8
:101C60000A2804D1FFE740208DF81F000DE09DF801
:101C700017004007002804D5FFE740208DF81F001B
:101C800003E000208DF81F00FFE79DF81F0008B05B
:101C900080BD00BF0000A04280B588B007900691CB
:101CA00005920493069807994860059807998860FB
:101CB00004980799C860079800F04CF8079900202D
:101CC00081F87400079A43F23331C3F6EB21D166F1
:101CD000079A4AF25801C3F68B2111678DF80F005D
:101CE0000798FFF7FBF918B1FFE78020029004E0A6
:101CF0000798FFF7DFF80290FFE702988DF80F00D2
:101D00000798FFF7DDFE18B1FFE74020019004E0DF
:101D10000798FFF7DBFD0190FFE701988DF80F00B2
:101D2000079890F87400012804D1FFE7079800F0A5
:101D30002DF803E00798FFF7A1FDFFE79DF80F10CE
:101D40000120002918BF0220079908709DF80F0094
:101D500008B080BD81B00090009900200861009912
:101D60004861009988610099086200994862009969
:101D7000C86100994866009A012182F868100099AC
:101D800088670099C86701B07047000080B598B0B7
:101D900017900020049016901590149013901290B4
:101DA000119010900F900E900D900C900B900A9047
:101DB00009900890ADF81E0000F0EAFE8DED060ACD
:101DC000FFE700F0E5FE9DED061A30EE410AB2EEA7
:101DD000041AB4EE410AF1EE10FA15DDFFE7179987
:101DE00043F6AC00C3F622300864179941F2B060A4
:101DF000C3F6CE10486417998864179941F23F6082
:101E0000C4F21B10886598E29FEDE20A00F014FE10
:101E100017990020886517990864179948641799DD
:101E20008864ADF81600FFE7BDF8160040F2140113
:101E3000C2F200010988884280F2CE81FFE717983C
:101E4000806801F0B1FE17984068922102910FF06E
:101E5000B5FB0299179840680FF0B0FB17984068DF
:101E600008A9039106220FF08DFB1798806801F0F6
:101E7000ABFE9DF820109DF82100000200B208443E
:101E800000EE100AB8EEC00A179890ED1B1A20EE6B
:101E9000010A80ED040A9DF822109DF8230000023B
:101EA00000B2084400EE100AB8EEC00A179890ED90
:101EB0001B1A20EE010A80ED050A9DF824109DF8FA
:101EC0002500000200B2084400EE100AB8EEC00A75
:101ED000179890ED1B1A20EE010A80ED060A17985C
:101EE00090ED041A90ED052A90ED060A22EE022AE2
:101EF00021EE011A31EE021A20EE000A30EE010A3C
:101F000018F056F88DED0D0A9DED0D1A179890ED0D
:101F1000160A30EE010A80ED160A1798C06801F023
:101F200043FE1798406880210FF048FB03991798EB
:101F3000406808220FF026FB1798C06801F044FEA5
:101F40009DF820000F2852D1FFE79DF822109DF840
:101F50002300000200B2084400EE100AB8EEC00AE6
:101F6000179890ED1C1A20EE010A80ED080A9DF8E2
:101F700024109DF82500000200B2084400EE100A6B
:101F8000B8EEC00A179890ED1C1A20EE010A80EDF9
:101F9000090A9DF826109DF82700000200B20844A7
:101FA00000EE100AB8EEC00A179890ED1C1A20EE49
:101FB000010A80ED070A179890ED081A90ED100AB3
:101FC00030EE010A80ED100A179890ED091A90ED95
:101FD000110A30EE010A80ED110A179890ED071AE8
:101FE00090ED120A30EE010A80ED120AFFE7BDF80B
:101FF0001600B8B9FFE70D980C900D980B90179844
:10200000006A14901798006A11901798406A15900A
:102010001798406A12901798C06916901798C0696F
:10202000139078E09DED0D0A9DED0C1AB4EE410A77
:10203000F1EE10FA03DBFFE70D980C900DE09DED3B
:102040000D0A9DED0B1AB4EE410AF1EE10FA03DC15
:10205000FFE70D980B90FFE7FFE7179890ED080A50
:102060009DED141AB4EE410AF1EE10FA04DBFFE71D
:102070001798006A14900FE0179890ED080A9DEDEC
:10208000111AB4EE410AF1EE10FA04DCFFE71798DA
:10209000006A1190FFE7FFE7179890ED090A9DEDA0
:1020A000151AB4EE410AF1EE10FA04DBFFE71798B7
:1020B000406A15900FE0179890ED090A9DED121AED
:1020C000B4EE410AF1EE10FA04DCFFE71798406A1B
:1020D0001290FFE7FFE7179890ED070A9DED161A9B
:1020E000B4EE410AF1EE10FA04DBFFE71798C0697D
:1020F00016900FE0179890ED070A9DED131AB4EEB5
:10210000410AF1EE10FA04DCFFE71798C06913905A
:10211000FFE7FFE7FFE79DED0C0A9DED0B1A30EEA0
:10212000410A8DED0A0A00208DF81500FFE79DF8A1
:10213000150002281ADCFFE79DF8151014A800EB23
:10214000810090ED000A11A800EB810090ED001ACB
:1021500030EE410A0EA800EB810080ED000AFFE797
:102160009DF8150001308DF81500E0E79DED0A0A95
:102170009FED771AB4EE410AF1EE10FA20DCFFE78A
:102180009DED0E0A9FED731AB4EE410AF1EE10FABE
:1021900016DC01E00AD7A33B9DED0F0A9FED6D1AF7
:1021A000B4EE410AF1EE10FA0ADCFFE79DED100AE9
:1021B0009FED681AB4EE410AF1EE10FA01DDFFE777
:1021C0000AE09FED650A00F037FCFFE7BDF8160056
:1021D0000130ADF8160027E640F21400C2F200000C
:1021E000008800EE100AB8EE401A179890ED160A13
:1021F00080EE010A80ED160A00208DF81400FFE73A
:102200009DF8140002281BDCFFE740F21400C2F224
:102210000000008800EE100AB8EE401A17989DF8EA
:10222000141000EB810090ED100A80EE010A80EDA1
:10223000100AFFE79DF8140001308DF81400DFE765
:10224000BDF81E000130ADF81E00FFE79DED0A0A43
:1022500001209FED3F1AB4EE410AF1EE10FA019011
:1022600065DCFFE7179890ED160A9FED3C1A30EEFB
:10227000010AB0EEC00A0120B6EE001AB4EE410A1F
:10228000F1EE10FA019052DCFFE79DED0E0A0120FD
:102290009FED301AB4EE410AF1EE10FA019046DCDF
:1022A000FFE79DED0F0A01209FED2A1AB4EE410AC7
:1022B000F1EE10FA01903ADCFFE79DED100A0120E3
:1022C0009FED241AB4EE410AF1EE10FA01902EDCD3
:1022D000FFE7179890ED100AB0EEC00A01209FEDBD
:1022E000201AB4EE410AF1EE10FA01901FDCFFE76C
:1022F000179890ED110AB0EEC00A01209FED181A50
:10230000B4EE410AF1EE10FA019010DCFFE71798E5
:1023100090ED120AB0EEC00A9FED111A0020B4EE43
:10232000410AF1EE10FAC8BF01200190FFE70198C1
:10233000C00700287FF445ADFFE7179890ED161A07
:102340009FED080A80EE010A80ED170A18B080BDE3
:102350003333333F9A99193E6F12033ACDCC1CC1E7
:102360000AD7233CC3F51C4180B584B000F044F982
:1023700000F0EEF80390039904200870002002900A
:10238000FFE70298012843DCFFE7029940F288004A
:10239000C2F2000050F82100A8B3FFE740F2180095
:1023A000C2F200000068006E8005002812D5FFE729
:1023B00040F21800C2F200000190006804F0E4F856
:1023C000019801680A680321C2F8C410006804F08B
:1023D000B5F8FFE740F21800C2F20000006803F011
:1023E000D9FC42F2F051C2F200010860029940F2B9
:1023F0008800C2F2000050F8211040F24C60C2F296
:1024000000008847FFE7FFE7029801300290B8E735
:1024100003990120087004B080BD000080B584B02D
:1024200000F0EAF800F094F8039003990420087093
:1024300000200290FFE70298012843DCFFE70299A1
:1024400040F29000C2F2000050F82100A8B3FFE76C
:1024500040F21800C2F200000068006E80050028FB
:1024600012D5FFE740F21800C2F2000001900068A8
:1024700004F08AF8019801680A680321C2F8C410C0
:10248000006804F05BF8FFE740F21800C2F20000B9
:10249000006803F07FFC42F2F451C2F200010860D0
:1024A000029940F29000C2F2000050F8211040F270
:1024B0004C60C2F200008847FFE7FFE70298013056
:1024C0000290B8E703990120087004B080BD0000B5
:1024D00080B586B005900491ADF80E2000F038F874
:1024E00002900599BDF80E2040F20C60C2F2000087
:1024F000FDF7DDFF00200190FFE70198012825DCB2
:10250000FFE70498019A40F27801C2F2000151F805
:102510003210884215D1FFE7019940F27800C2F2EB
:10252000000000EBC100406858B1FFE7019940F29C
:102530007800C2F2000000EBC100416805988847AE
:1025400004E0FFE7019801300190D6E706B080BDB6
:1025500040F2C850C2F200007047000080B541F25E
:102560004410C2F2000040F2012100F0DBFE41F213
:102570006810C2F2000040F2022100F0D3FE41F2E6
:102580002010C2F2000040F2032100F0CBFE41F225
:102590008C10C2F200004FF4017100F0C3FE80BD48
:1025A00080B582B00190FFE740F27E40C2F20000A9
:1025B000007801280CD1FFE7FFF7D6FE40F27E41FC
:1025C000C2F2000102200870012015F0A3FFFFE70E
:1025D00040F27E40C2F20000007802280BD1FFE7F3
:1025E000FFF71CFF40F27E41C2F20001012008709B
:1025F00015F090FFFFE7D7E780B588B0FFF7A8FF99
:10260000079001F01FFB06900FF088FC05900EF07C
:1026100099FD0490FEF72CF903900BF09BFF0290BC
:1026200009F04AFC0190069880780799087206988C
:10263000C068079948610198C06807998861019846
:1026400080690799C861019890ED010AB1EE400ACE
:10265000079880ED0A0A029890ED0A0A9FED1B1A6E
:1026600080EE010A9FED1A1A80EE010A079880EDAC
:102670000C0A0498C078079981F82C00059890ED11
:102680002B0A0020B2EE041AB4EE410AF1EE10FA61
:1026900000900EDDFFE7059890ED4B0AB2EE041AAC
:1026A0000020B4EE410AF1EE10FAC8BF01200090FC
:1026B000FFE7009800F00100079981F82D000498C9
:1026C000007A079981F82E0008B080BD0000C8424A
:1026D00033336542FFE7FEE784B08DF80F000291C7
:1026E000ADF806209DF80F000146009123281DD863
:1026F0000099DFE801F012131415161B1B1B1B1B9E
:102700001B1B1B1B1B1B1B1B1B1B1B1B1B1B1B1B19
:102710001B1B1B1B1B1B1718191A08E007E006E000
:1027200005E004E003E002E001E000E0FFE7002054
:1027300004B070470020704780B582B042F2186044
:10274000C2F20000009041F6D451C2F20001002212
:10275000019211F0EFFE009841F2D451C2F2000153
:1027600011F0CEFE019802B080BD000080B584B0AB
:10277000039002910398029909880BF0B9FEFEF7C5
:1027800085FB039942F21860C2F20000019011F03B
:10279000B7FE019811F05EFE002004B080BD00007D
:1027A00083B0029001918DF8032000208DF8020083
:1027B0009DF9020003B0704780B586B00490ADF873
:1027C0000E1000208DF80D0042F21860C2F20000D9
:1027D000D0F8BC0202900298D0F8140220B1FFE7B2
:1027E00001208DF8170013E00499BDF80E2042F285
:1027F0001860C2F20000019011F09CFE019811F0E7
:1028000087FF8DF80D009DF80D008DF81700FFE78C
:102810009DF8170006B080BD81B0ADF80200BDF88C
:102820000200A0F5806000B201B0704780B582B0B0
:1028300000F0DAF943F2D012C2F2000201921368FA
:102840005268C01A914118F054F900EE100A9FED39
:10285000091A80EE010A43F2C810C2F2000080EDAE
:10286000000A00F0C1F90A4601994A60086002B006
:1028700080BD00BF00007A4480B542F6B810C2F2B5
:10288000000002F0C5FD80BD80B542F61820C2F2FE
:10289000000002F0BDFD80BD80B542F65810C2F2C6
:1028A000000002F0B5FD80BD80B542F67820C2F28E
:1028B000000002F0ADFD80BD84B003900398006875
:1028C00040F20741C4F20201884206D8FFE740F611
:1028D0000000C4F20200009005E040F62000C4F2BF
:1028E00002000090FFE700980290039800780838F3
:1028F0004CF6CD41CCF6CC41A0FB01100009019073
:10290000029803994A6C22F00302104488640399E8
:1029100040F68000C4F20200C864019800F01F0174
:10292000012088400399086504B0704782B0019087
:10293000019800790090009940F6FC00C4F2020072
:1029400000EB810001994865019940F64010C4F2FE
:10295000020088650098013800F01F0101208840BE
:102960000199C86502B0704784B00390029101924A
:1029700000930398C16C006D48600398406D28B1C6
:10298000FFE70398816DC06D4860FFE70398016C15
:10299000406C00F01F0201209040486000980399AD
:1029A0000968486003988068102809D1FFE70198FA
:1029B000039909688860029803990968C86008E06B
:1029C0000298039909688860019803990968C860AA
:1029D000FFE704B07047000080B582B000F088F8CF
:1029E000019040F2C060C2F20000007808BBFFE72F
:1029F00040F2C061C2F200010120087041F20400FF
:102A0000CEF200000068009000980199096A88429F
:102A100005D2FFE70199C8690130C861FFE7009856
:102A20000199086240F2C061C2F200010020087002
:102A3000FFE702B080BD000080B584B08DED030AD1
:102A400000F056F8029041F20400CEF20000006857
:102A5000019003980090FFE741F20400CEF20000DD
:102A600000680199401A00EE100AB8EE400A9DED88
:102A7000001A029890ED042AB8EE422A21EE021ABA
:102A8000B4EE410AF1EE10FA01DAFFE7E4E704B030
:102A900080BD000080B584B08DED030A00F028F8F9
:102AA000029041F20400CEF2000000680190039809
:102AB0000090FFE741F20400CEF2000000680199A7
:102AC000401A00EE100AB8EE400A9DED001A029876
:102AD00090ED052AB8EE422A21EE021AB4EE410A20
:102AE000F1EE10FA01DAFFE7E4E704B080BD000080
:102AF00040F29060C2F200007047000080B584B0E0
:102B00000390FFF7F5FF029041F20400CEF20000BF
:102B100000680190019803990968401A00EE100AB4
:102B2000B8EE400A029890ED041AB8EE411A80EE11
:102B3000010A8DED000A0198039908609DED000AD5
:102B400004B080BD80B582B0FFF7D2FF019000F0E5
:102B5000A5F80198016843684FF47A7201FB0231CD
:102B600000EE101AB8EE401A008900EE100AB8EE16
:102B7000C00A9FED062A20EE020A30EE010A8DED12
:102B8000000A9DED000A02B080BD00BF6F12833ABB
:102B900080B582B0FFF7ACFF019000F07FF801989C
:102BA00090ED001A90ED010AB8EE411AB8EE400A15
:102BB0009FED0B2A20EE020A30EE011A008900EE8A
:102BC000100AB8EEC00A9FED072A20EE020A30EE86
:102BD000010A8DED000A9DED000A02B080BD00BF24
:102BE0006F12833ABD37863580B584B0FFF780FF1A
:102BF000039000F053F803990A68486843F60953B4
:102C00005A434FF47A73584300EB82100989084401
:102C10000021019100900098019904B080BD00004E
:102C200080B582B00190FFF763FF00904EF6FC5133
:102C3000CEF20001086840F08070086041F20401A3
:102C4000CEF200010020086041F20002CEF2000244
:102C5000116841F001011160019944F24022C0F273
:102C60000F025143009A1161009A116944F6D3533F
:102C7000C1F26203A1FB033189095161009A116914
:102C80004DF68363C4F21B33A1FB0331890C9161C0
:102C90000099C8610099086202B080BD10B58CB07F
:102CA000FFF726FF0B9041F20400CEF2000000680F
:102CB0000A900020029009900890079006900590D5
:102CC0000490FFF789FE029B0B98C1690A984FF0A8
:102CD000FF3C1A46E1FB0C020B99CA6288620B9911
:102CE0000A69886AC96AFDF73AFB029B0991089054
:102CF0000B98D0F810E0816AC06ADDF820C0099A0C
:102D0000ACFB0EC402FB0E42B1EB0C0190410691EC
:102D1000079008980B990860069807990B9A0192FA
:102D20005269FDF71CFB0199029B486006990798C0
:102D3000DDF82CC0DCF80420DCF814C002FB0CF237
:102D4000891A60F1000004910590049805990B9A86
:102D500003929269FDF703FB039908810B990868B8
:102D60004B684FF47A7200FB0230C8600CB010BDA3
:102D70008BB00A900991089207938DED060ACDED6C
:102D8000050A9DED060A089890ED002A90ED011ABB
:102D900030EE000A30EE410A30EE420AB0EE083A58
:102DA00020EE030A31EE421A80EE010A8DED040A8C
:102DB0009DED060A079890ED002A90ED011A30EE7D
:102DC000000A30EE410A30EE420A20EE030A31EEEC
:102DD000421A80EE010A8DED030A049840F60C5168
:102DE000C2F200010860039840F61051C2F20001DF
:102DF000086000208DF80B008DF80A008DF809009E
:102E00008DF80800019000909DED040AB8EE081AB4
:102E1000B4EE410AF1EE10FA07DAFFE700208DF870
:102E20000B008DF80A0001909BE09DED040AB8EEBE
:102E3000001AB4EE410AF1EE10FA0FDAFFE70020B3
:102E40008DF80B0001208DF80A009DED040AB0EE0C
:102E5000081A30EE010A8DED010A81E09DED040AA9
:102E6000BFEE001AB4EE410AF1EE10FA0FDAFFE7F6
:102E700001208DF80B0002208DF80A009DED040A58
:102E8000B0EE001A30EE010A8DED010A67E09DED0B
:102E9000040AB5EE400AF1EE10FA0FDAFFE702205D
:102EA0008DF80B0003208DF80A009DED040AB7EEA3
:102EB000001A30EE010A8DED010A4FE09DED040A83
:102EC000B7EE001AB4EE410AF1EE10FA09DAFFE7A4
:102ED00003208DF80B0004208DF80A00049801905F
:102EE0003BE09DED040AB0EE001AB4EE410AF1EEAB
:102EF00010FA0FDAFFE704208DF80B0005208DF89B
:102F00000A009DED040ABFEE001A30EE010A8DEDB5
:102F1000010A21E09DED040AB0EE081AB4EE410A60
:102F2000F1EE10FA0FDAFFE705208DF80B0006200E
:102F30008DF80A009DED040AB8EE001A30EE010A81
:102F40008DED010A07E006208DF80B008DF80A00D0
:102F500000200190FFE7FFE7FFE7FFE7FFE7FFE75C
:102F6000FFE79DED030AB8EE081AB4EE410AF1EE50
:102F700010FA07DAFFE700208DF809008DF8080045
:102F800000909BE09DED030AB8EE001AB4EE410AF2
:102F9000F1EE10FA0FDAFFE700208DF809000120AA
:102FA0008DF808009DED030AB0EE081A30EE010A14
:102FB0008DED000A81E09DED030ABFEE001AB4EE2C
:102FC000410AF1EE10FA0FDAFFE701208DF809004F
:102FD00002208DF808009DED030AB0EE001A30EED5
:102FE000010A8DED000A67E09DED030AB5EE400A87
:102FF000F1EE10FA0FDAFFE702208DF80900032046
:103000008DF808009DED030AB7EE001A30EE010AB4
:103010008DED000A4FE09DED030AB7EE001AB4EE05
:10302000410AF1EE10FA09DAFFE703208DF80900F2
:1030300004208DF80800039800903BE09DED030A02
:10304000B0EE001AB4EE410AF1EE10FA0FDAFFE723
:1030500004208DF8090005208DF808009DED030A75
:10306000BFEE001A30EE010A8DED000A21E09DED61
:10307000030AB0EE081AB4EE410AF1EE10FA0FDAC4
:10308000FFE705208DF8090006208DF808009DED6A
:10309000030AB8EE001A30EE010A8DED000A07E0CF
:1030A00006208DF809008DF8080000200090FFE749
:1030B000FFE7FFE7FFE7FFE7FFE7FFE709980A9968
:1030C0009DF80B20C2EBC20201EB020C9DF8093007
:1030D0001CF8032000EB820292ED000A9DED013AFC
:1030E000B7EE001A31EE435A20EE050A9DED002A94
:1030F00031EE424A9DF808201CF802C000EB8C0C0F
:103100009CED001A21EE051A21EE021A20EE040AA7
:1031100030EE011A9DF80AC0CCEBCC0C6144CB5CBC
:1031200000EB830393ED000A20EE030A20EE040A6D
:1031300030EE011A895C00EB810090ED000A20EE70
:10314000030A20EE020A30EE010A0BB070470000BD
:103150007047000081B0EFF3108072B60090FFE777
:10316000FEE7000080B542F6D820C2F2000002F06F
:1031700021FE80BD80B542F63C30C2F2000002F074
:1031800019FE80BD83B002904AF20040C4F20000F4
:1031900000900298006846F60001C4F200018842DF
:1031A00005D1FFE7009800F554700090FFE7029802
:1031B000006846F60041C4F20001884205D1FFE7ED
:1031C000009800F5D4600090FFE700980299086429
:1031D00002980068D0F8800020F4F810029A116874
:1031E000526B40EA0240C1F88000009870300299AA
:1031F000486402980068D0F8800020F07060029A5D
:103200001168926B40EA0260C1F880000098B0300B
:1032100002998864009800F5C4700299C864009807
:1032200000F5187002990865009800F51E70029963
:10323000486500980190FFE70198009901F55471E5
:10324000884208D2FFE7019900200860FFE7019853
:1032500004300190F0E703B07047000088B0079099
:103260000691059204930698406848B9FFE70698CE
:10327000016882680069104340EA8140039009E0D8
:1032800006980168826800691043084340F0804056
:103290000390FFE70698D0F820C0C16842698369AF
:1032A000C06940EA0C601843104308430290079835
:1032B000406D049901EBC10100EBC100019003983E
:1032C0000199086001980430019002980199086002
:1032D00001980430019000200090FFE700980699C3
:1032E000CA894AF60451C0F60101895C88420DD2B0
:1032F000FFE705980099405801990860019804304B
:103300000190FFE7009804300090E7E708B07047AD
:1033100081B0009040F28C61C2F20001012008707F
:1033200001B0704782B00190009100980199086047
:103330000098B0F5006F05D3FFE701994FF080408A
:10334000486003E0019900204860FFE701990020F0
:103350008860019A4FF40021D160019908610199B8
:103360004861019988610199C8610199086202B0B8
:103370007047000080B58AB0099000200390049047
:1033800002210591012106914FF480610791089077
:10339000099803A902F088FB20B1FFE70298FFF724
:1033A000B7FFFFE70998694600230B600222114628
:1033B00002F0D6FB20B1FFE70298FFF7A9FFFFE775
:1033C000099803F0BBF820B1FFE70298FFF7A0FFD0
:1033D000FFE709980121002202F012FA20B1FFE76D
:1033E0000298FFF795FFFFE709984FF400210022AC
:1033F00002F006FA20B1FFE70298FFF789FFFFE726
:103400000AB080BD80B584B0039002910192039808
:103410000299019A02F0FAFAB8B1FFE70398006E38
:10342000800500280CD5FFE7039803F0ADF803985A
:1034300001680320C1F8C400039803F07FF803E09B
:103440000098FFF765FFFFE7FFE704B080BD0000CD
:1034500080B588B08DED060A059003F003FB00EE01
:10346000100AB8EE400A059890ED021A30EE410AB3
:10347000BCEEC00A8DED040A03F0F4FA00EE100A67
:10348000B8EE400A059880ED020A0598039000689E
:1034900017F0DAFA41EC100B9FED331B53EC112BB4
:1034A00051EC100B17F0E4F841EC100B9FED301BC2
:1034B00053EC112B51EC100B0291019016F0FEFD14
:1034C000024601980B46029943EC102B53EC102B4B
:1034D00016F0A8FE41EC100B51EC100B16F0BCFDE1
:1034E00003994860059890ED010AB5EE400AF1EEA7
:1034F00010FA30DDFFE7059890ED010AB7EE001AEB
:10350000B4EE410AF1EE10FA25DCFFE705989DEDD7
:10351000062A90ED010A90ED053AB7EE001A31EE59
:10352000401A21EE031A20EE020A30EE010A80ED65
:10353000040A0599086948619DED040AB8EE401A2D
:103540009FED0D0A80EE010A059880ED030A0598AB
:103550000069079002E006980790FFE79DED070AD3
:1035600008B080BD00BF00BFFCA9F1D24D62503F42
:10357000000000000000F03F00007A44000000005E
:1035800080B586B08DED050A049005980499086011
:1035900004980390006817F057FA41EC100B9FED68
:1035A000161B53EC112B51EC100B17F061F841EC8A
:1035B000100B9FED131B53EC112B51EC100B0291D0
:1035C000019016F07BFD024601980B46029943ECF0
:1035D000102B53EC102B16F025FE41EC100B51EC88
:1035E000100B16F039FD039948600499002088609B
:1035F00006B080BD00BF00BFFCA9F1D24D62503FB4
:10360000000000000000F03F80B586B00DF09AFD8C
:103610000590FDF72DF90490059800780146039177
:1036200004284DD80399DFE801F0033D301A030068
:1036300000200290FDF774F90298049948700598EB
:10364000807820B1FFE7012000F01CFB03E00020A0
:1036500000F018FBFFE7012009F042FC31E00320F5
:10366000FDF75EF90499002048700598807820B134
:10367000FFE7012000F006FB03E0002000F002FB62
:10368000FFE7012009F02CFC1BE00220FDF748F9C0
:10369000049901204870032000F0F4FA002009F09A
:1036A0001FFC0EE001200190FDF73AF90198049902
:1036B0004870022000F0E6FA002009F011FC00E05A
:1036C000FFE706B080BD000080B590B00F900020ED
:1036D0000E900F9890ED1D0A90ED1E1A30EE410AE3
:1036E0008DED0E0A0F99D1F88C00C1F890000E985C
:1036F0000F99C1F88C000F988C30012102910AF0CB
:1037000037FE02990F9880ED210A0F9AD2F89400A3
:10371000C2F898000F9A506FC2F894000F98943036
:103720000AF026FE0F9880ED220ADDF83CC0DCF896
:103730001C00DCF828100CF134020CF13C039DED68
:103740000E0ADCED210AFFF713FB0F9880ED000A4B
:10375000DDF83CC0DCF82000DCF82C100CF1340261
:103760000CF13C039DED0E0ADCED210AFFF700FB96
:103770000F9880ED010ADDF83CC0DCF82400DCF88D
:1037800030100CF134020CF13C039DED0E0ADCED1F
:10379000210AFFF7EDFA0F9880ED020A0F980D90BD
:1037A000C06F17F051F90A460D9942EC100B8DEDE0
:1037B0000A0B48680969069117F046F941EC100BAD
:1037C0009FED6D1B53EC112B51EC100B16F050FFBD
:1037D00002460D9803920A46039942EC101B8DEDA8
:1037E000040B90ED230A90ED241A30EE010A10EE3E
:1037F000100A17F029F99DED040B41EC110B53EC65
:10380000112B51EC100B16F033FF0246069807926D
:103810000A46079942EC101B8DED080B17F014F9BE
:103820009DED081B41EC100B51EC110B53EC102BD0
:1038300016F01EFF9DED0A0B41EC110B51EC110B24
:1038400053EC102B16F03AFC41EC100B51EC100B22
:1038500016F002FC0D99C8670F9890ED051A90EDCF
:103860001F0AB4EE410AF1EE10FA04DDFFE70F99EA
:103870004869C86715E00F9890ED051A90ED1F0A8A
:10388000B1EE411AB4EE410AF1EE10FA08DAFFE7A0
:103890000F9890ED050AB1EE400A80ED1F0AFFE790
:1038A000FFE70F9890ED030A90ED221A20EE010A2F
:1038B0005C30FFF7CDFD0F9880ED270A0F989DED46
:1038C0000E3A90ED000A90ED021A8DED011A90ED7E
:1038D000041A90ED1F2A20EE030A30EE020A8DED45
:1038E000000A90ED210A80EE010A4430FFF7B0FD96
:1038F0009DED001AB0EE402A9DED010A20EE020A6D
:1039000030EE010A0F9880ED200A0F9890ED200A02
:1039100090ED271A30EE010A80ED200A0F9890ED05
:10392000061A90ED200AB4EE410AF1EE10FA05DD18
:10393000FFE70F998869C1F8800015E00F9890EDB6
:10394000061A90ED200AB1EE411AB4EE410AF1EEEA
:1039500010FA08DAFFE70F9890ED060AB1EE400A78
:1039600080ED200AFFE7FFE70F9890ED200A10B0E6
:1039700080BD00BF00BF00BF000000000000E03FAE
:1039800081B0009000990020C8670099C1F89C00A0
:103990000099C1F8800001B07047000080B58AB07E
:1039A000DDF834C0DDF830C0099008910792069325
:1039B0008DED050ACDED040A8DED031ACDED021A49
:1039C0008DED012A099940F20910C2F20000C86188
:1039D000099940F2D800C2F200000862099940F249
:1039E0009800C2F200004862089809998862079816
:1039F0000999C86206980999086309990C9A106890
:103A000052688A63486309990D9A106852680A647B
:103A1000C863099941F26F20C3F6832008610598B5
:103A20000999C860049809994861039809998861BF
:103A30009DED020A09984430FFF7A2FD9DED010AB1
:103A400009985C30FFF79CFD0AB080BD82B0019000
:103A50008DED000A00980199886702B07047000058
:103A600082B001908DED000A00980199486702B07C
:103A70007047000080B584B003900291039991EDE6
:103A8000010ABDEEC00A10EE100A488202980178C1
:103A9000407840EA012000B200EE100AB8EEC00AF9
:103AA000039880ED010A02988178C07840EA0120ED
:103AB00000B200EE100AB8EEC00A039880ED020AC8
:103AC00002980179407940EA012000B200EE100A24
:103AD000B8EEC00A039880ED030A02988079039932
:103AE0000874039890ED010AB0F9120001EE100A73
:103AF000B8EEC11A30EE410ABDEEC00A8DED010AE2
:103B000001984EF68321CFF6FF71884205DCFFE76E
:103B100003994869013048610BE0019841F27D51F9
:103B2000884205DBFFE70399486901384861FFE7F0
:103B3000FFE7039890ED011A90ED050AB8EEC00A70
:103B40009FED0E2A81EE023A9FED0D1A23EE013A07
:103B500020EE010A30EE030A80ED070A039890ED8B
:103B6000010A80EE020A20EE010A80ED060A02F048
:103B700079FF0399086204B080BD00BF00000046D1
:103B80000000B44380B582B0019002F06BFF019950
:103B9000C86001994868098902F036FF01990870E8
:103BA0000198007802B080BD80B582B00190019983
:103BB00048680989002202F03FFF0198FFF7E2FF01
:103BC0000199087002B080BD80B582B00190019962
:103BD00048680989012202F02FFF0198FFF7D2FF00
:103BE0000199087002B080BD80B584B047F2905052
:103BF000C1F6FF700068039047F29450C1F6FF7061
:103C00000068029047F29850C1F6FF70006801907A
:103C10000199039808440390039888B1FFE703983B
:103C200040F26441C2F2000100910231082208F022
:103C3000ADFB009902981231042208F0A7FBFFE7C0
:103C400004B080BD40F2B870C2F2000070470000BE
:103C500080B582B0FFF7F6FF019001990020C8708F
:103C600001994870019908700199887040F6D43123
:103C7000C2F200010020C4F27A50486000F01CF843
:103C800002B080BD80B582B08DF80700FFF7DAFF83
:103C900000900099087848709DF807000099087016
:103CA000009801784078884204D0FFE7009901200D
:103CB000C870FFE702B080BD80B586B0FFF7C2FFD5
:103CC000059040F27000C2F200000068059948615A
:103CD00040F26C00C2F20000006805998861059806
:103CE0001C3040F29411C2F200016A46516040F269
:103CF0009C11C2F20001116040F2C011C2F2000139
:103D000040F2A412C2F2000240F63053C2F20003A5
:103D10009FED1B0A8DED030ADFED1A0A9FED1A1ABB
:103D2000DFED1A1A9FED1A2A8DED042AFFF736FEF1
:103D30009DED030A9DED042A0598BC3040F24C111C
:103D4000C2F200016A46516040F25411C2F2000111
:103D5000116040F27811C2F2000140F25C12C2F22E
:103D6000000240F61453C2F20003DFED0A0AB2EE7D
:103D70000E1AF0EE421AFFF711FE06B080BD00BF2A
:103D8000000000000000FA450050C34620BCBE4CB5
:103D9000A9271F439A99193E80B586B0FFF752FFB5
:103DA000059008F089F804900598C078012814D18E
:103DB000FFE705981C30FFF7E3FD0598BC30FFF7DF
:103DC000DFFD05994868C1F8900005998868C1F839
:103DD000300105990020C870FFE7059800F1BC018B
:103DE000019190ED040AB1EE400A0AF0ADFA019893
:103DF000FFF736FE0598BC300290049890ED010A5A
:103E0000B1EE400A0AF0A0FA0298FFF71FFE0598EB
:103E100000F11C010391BC30FFF756FC0398FFF73B
:103E20001FFE05981C30049991ED040AB1EE400A7A
:103E3000FFF70CFE05981C30FFF746FC40F6D43027
:103E4000C2F200000AF0EAFF40F60040C2F20000B1
:103E50000AF042FE0599D1F8900048600599D1F822
:103E60003001886006B080BD80B582B00190FFE768
:103E700040F6D430C2F200000AF0E4FEFFF78CFFF7
:103E800000F006F8FEF7D2FC012014F043FBEFE748
:103E900080B582B0FFF7D6FE019001980078014608
:103EA0000091032814D80099DFE801F002060A0EF9
:103EB0000199002088700BE001990120887007E0CB
:103EC00001990220887003E0019903208870FFE7C0
:103ED00002B080BD81B0009001B0704781B0009009
:103EE00001B0704781B0009001B0704781B0009080
:103EF00001B0704781B0009001B0704780B5C4B088
:103F00002490239100208DF88B001F902398C06887
:103F10000021C4F27F01884201D0FFE700E0FFE703
:103F2000FFE7249890F85800012805D1FFE7022008
:103F30008DF8970000F059BC2499012081F85800B1
:103F4000FFE7FFE72498006809F0C2FB002840F073
:103F50003884FFE72498006823990A68496809F0C3
:103F6000CBFB2498006809F0B3FB1E9024980068EE
:103F700009F082FB1D901E98002840F0B881FFE7F1
:103F80001D98002840F0B381FFE723988068B0F1C6
:103F9000004F0ED1FFE7249800682399096800229A
:103FA00009F0C8FB249800684FF0004109F078FC44
:103FB0000CE024980068239A1168926809F0BAFB13
:103FC00024980068002109F06BFCFFE72398406902
:103FD00024990968C96801F018018908884021906E
:103FE0002398006904281CD0FFE7249800682399CF
:103FF0000A680969219B09F0F9FB24980068239A53
:104000001169926909F024FC24980068239A1169C7
:10401000127F013AB2FA82F25209520609F004FC08
:1040200064E124980068002109F016FB400348B9B8
:10403000FFE724980068002109F00EFBC0F38460BC
:104040001C9018E024980068002109F005FB90FA04
:10405000A0F04290429820B9FFE720208DF80F0190
:1040600005E04298B0FA80F08DF80F01FFE79DF867
:104070000F011C90FFE71C981B90239800684003D9
:1040800030B9FFE723980068C0F384601A9015E008
:104090002398006890FAA0F04090409820B9FFE77C
:1040A00020208DF8070105E04098B0FA80F08DF8E7
:1040B0000701FFE79DF807011A90FFE71B981A997F
:1040C000884207D1FFE7249800680022114609F0D2
:1040D000D3FBFFE724980068012109F0BDFA4003F3
:1040E00048B9FFE724980068012109F0B5FAC0F348
:1040F0008460199018E024980068012109F0ACFA56
:1041000090FAA0F03E903E9820B9FFE720208DF86D
:10411000FF0005E03E98B0FA80F08DF8FF00FFE761
:104120009DF8FF001990FFE71998189023980068F0
:10413000400330B9FFE723980068C0F3846017900C
:1041400015E02398006890FAA0F03C903C9820B9C4
:10415000FFE720208DF8F70005E03C98B0FA80F0EA
:104160008DF8F700FFE79DF8F7001790FFE7189824
:104170001799884207D1FFE724980068012100229F
:1041800009F07AFBFFE724980068022109F064FA3D
:10419000400348B9FFE724980068022109F05CFA5F
:1041A000C0F38460169018E024980068022109F09A
:1041B00053FA90FAA0F03A903A9820B9FFE72020FD
:1041C0008DF8EF0005E03A98B0FA80F08DF8EF0036
:1041D000FFE79DF8EF001690FFE7169815902398DB
:1041E0000068400330B9FFE723980068C0F384609B
:1041F000149015E02398006890FAA0F03890389851
:1042000020B9FFE720208DF8E70005E03898B0FAE4
:1042100080F08DF8E700FFE79DF8E7001490FFE7D6
:1042200015981499884207D1FFE724980068022165
:10423000002209F021FBFFE724980068032109F020
:104240000BFA400348B9FFE724980068032109F0FE
:1042500003FAC0F38460139018E0249800680321E7
:1042600009F0FAF990FAA0F03690369820B9FFE7F5
:1042700020208DF8DF0005E03698B0FA80F08DF848
:10428000DF00FFE79DF8DF001390FFE7139812901F
:1042900023980068400330B9FFE723980068C0F313
:1042A0008460119015E02398006890FAA0F0349093
:1042B000349820B9FFE720208DF8D70005E0349826
:1042C000B0FA80F08DF8D700FFE79DF8D700119085
:1042D000FFE712981199884207D1FFE724980068F8
:1042E0000321002209F0C8FAFFE7FFE7FFE724985F
:1042F000006809F0DDF9002840F04481FFE72498C8
:104300000068239A1168D26809F030FA2398C068CF
:104310000021C4F27F01884240F03381FFE72498F6
:104320000068109023980068400330B9FFE7239895
:104330000068C0F384600F9015E02398006890FA3D
:10434000A0F03290329820B9FFE720208DF8CF00FE
:1043500005E03298B0FA80F08DF8CF00FFE79DF8C5
:10436000CF000F90FFE70F98013000F01F000928E1
:104370007DD8FFE723980068400330B9FFE7239812
:104380000068C0F384600E9015E02398006890FAEE
:10439000A0F03090309820B9FFE720208DF8C700BA
:1043A00005E03098B0FA80F08DF8C700FFE79DF87F
:1043B000C7000E90FFE70E98013000F01F00800646
:1043C0000D9023980068400330B9FFE723980068F8
:1043D000C0F384600C9015E02398006890FAA0F078
:1043E0002E902E9820B9FFE720208DF8BF0005E021
:1043F0002E98B0FA80F08DF8BF00FFE79DF8BF005F
:104400000C90FFE70D980C99013101F01F0201217A
:10441000914008430B9023980068400330B9FFE7B0
:1044200023980068C0F384600A9015E02398006820
:1044300090FAA0F02C902C9820B9FFE720208DF85E
:10444000B70005E02C98B0FA80F08DF8B700FFE7D0
:104450009DF8B7000A90FFE70B980A99013101F027
:104460001F0101EB410140EA0150099082E02398CD
:104470000068400330B9FFE723980068C0F3846008
:10448000089015E02398006890FAA0F02A902A98E6
:1044900020B9FFE720208DF8AF0005E02A98B0FA98
:1044A00080F08DF8AF00FFE79DF8AF000890FFE7C0
:1044B0000898013000F01F008006079023980068DC
:1044C000400330B9FFE723980068C0F3846006908A
:1044D00015E02398006890FAA0F02890289820B959
:1044E000FFE720208DF8A70005E02898B0FA80F0BB
:1044F0008DF8A700FFE79DF8A7000690FFE7079853
:104500000699013101F01F020121914008430590F5
:1045100023980068400330B9FFE723980068C0F390
:104520008460049015E02398006890FAA0F026902B
:10453000269820B9FFE720208DF89F0005E02698F7
:10454000B0FA80F08DF89F00FFE79DF89F0004907F
:10455000FFE705990498013000F01F0000EB4002CE
:104560000020CFF6206000EB0250084340F00070BE
:104570000990FFE710980999239A926809F0DAF8F0
:10458000FFE7FFE72398408848F20801084200F05F
:104590001781FFE7249801680120B1F1A04F039033
:1045A0000CD0FFE7249800684FF60071CAF6FF713F
:1045B0000844B0FA80F040090390FFE70398C10770
:1045C00040F20070C5F2000000291CBF40F200302C
:1045D000C5F2000009F028F820902398006840F206
:1045E0000001CCF22131884208D0FFE7239800680F
:1045F0001021C9F2C00188425AD1FFE79DF882001C
:104600000006002854D4FFE724980068B0F1A04FBA
:1046100009D0FFE72498006840F20061C5F200016C
:10462000884244D1FFE7249801680120B1F1A04FEE
:1046300002900CD0FFE7249800684FF60071CAF68C
:10464000FF710844B0FA80F040090290FFE7029839
:10465000C10740F20070C5F2000000291CBF40F203
:104660000030C5F20000209941F4000109F0B0F8D3
:1046700040F21030C2F2000000684FEA901042F69B
:104680006351C0F23E51A0FB01104FEA901000EBC5
:1046900040014FF00C0000EB81001F90FFE71F98D6
:1046A00020B1FFE71F9801381F90F8E7FFE786E089
:1046B000239800680021CCF2527188423ED1FFE776
:1046C0009DF88300C007C8BBFFE72498006840F24C
:1046D0000011C5F20001884209D1FFE72498006863
:1046E00040F20051C5F20001884226D0FFE724982D
:1046F00001680120B1F1A04F01900CD0FFE7249890
:1047000000684FF60071CAF6FF710844B0FA80F0F5
:1047100040090190FFE70198C10740F20070C5F21F
:10472000000000291CBF40F20030C5F200002099B3
:1047300041F0807109F04CF8FFE73FE023980068F2
:104740000021CCF68431884236D1FFE79DF8820003
:104750004006002830D4FFE72498006840F200119A
:10476000C5F20001884226D0FFE7249801680120A5
:10477000B1F1A04F00900CD0FFE7249800684FF6ED
:104780000071CAF6FF710844B0FA80F04009009049
:10479000FFE70098C10740F20070C5F20000002951
:1047A0001CBF40F20030C5F20000209941F48001A6
:1047B00009F00EF8FFE700E0FFE7FFE7FFE7FFE79C
:1047C00008E02499C86D40F02000C86501208DF8EC
:1047D0008B00FFE7FFE72499002081F85800FFE7EE
:1047E0009DF88B008DF89700FFE79DF8970044B087
:1047F00080BD000081B0009001B0704781B0009092
:1048000001B0704780B594B01390002012901398B7
:104810000068006811901398006840681090139821
:1048200001680120B1F1A04F0A900CD0FFE7139866
:1048300000684FF60071CAF6FF710844B0FA80F0C4
:1048400040090A90FFE70A98C10740F20070C5F2DC
:10485000000000291CBF40F20030C5F2000008F043
:10486000F3FE0B909DF844004FEA807000281AD5A3
:10487000FFE79DF840008007002814D5FFE7139854
:10488000C06DC006002806D4FFE71399C86D40F438
:104890000060C865FFE71398FFF71CFB13980168D9
:1048A00002200860FFE79DF844004007002806D575
:1048B000FFE7109800F0040004280ED0FFE79DF8F1
:1048C00044000007002840F1C080FFE79DF8400049
:1048D0000007002840F1B980FFE71398C06DC006BB
:1048E000002806D4FFE71399C86D40F40070C8652E
:1048F000FFE71398006808F0F3FE002800F09D80A1
:10490000FFE71398006840F20011C5F200018842E9
:1049100004D1FFE74FF0A040099015E0139800681C
:1049200040F20051C5F20001884206D1FFE740F293
:104930000040C5F20000089003E01398006808905A
:10494000FFE708980990FFE70998139909688842DA
:104950000BD0FFE70B9840B1FFE70B98052804D078
:10496000FFE70B98092805D1FFE713980068C06896
:104970000D9028E01398006840F20011C5F2000184
:10498000884204D1FFE74FF0A040079015E013984C
:10499000006840F20051C5F20001884206D1FFE7ED
:1049A00040F20040C5F20000069003E01398006852
:1049B0000690FFE706980790FFE707980C900C9881
:1049C000C0680D90FFE70D9800F40050B0F5005F4F
:1049D00032D0FFE7139800680068000700282AD546
:1049E000FFE71398006808F073FEC0B9FFE713985B
:1049F0000168486820F00C0048601399C86D20F4E5
:104A00008070C8651398C06DC004002806D4FFE705
:104A10001399C86D40F00100C865FFE70AE01399DB
:104A2000C86D40F01000C8651399086E40F0010091
:104A30000866FFE7FFE7FFE7FFE71398FFF7DAFEF7
:104A4000139801680C200860FFE79DF84400800679
:104A5000002806D5FFE7109800F0200020280ED08F
:104A6000FFE79DF844004006002840F1D680FFE7AC
:104A70009DF840004006002840F1CF80FFE71398E2
:104A8000C06DC006002806D4FFE71399C86D40F436
:104A90000050C865FFE71398006808F0F5FD0F9017
:104AA0001398006808F01CFE0E901398006840F2FE
:104AB0000011C5F20001884204D1FFE74FF0A04089
:104AC000059015E01398006840F20051C5F200010E
:104AD000884206D1FFE740F20040C5F20000049092
:104AE00003E0139800680490FFE704980590FFE73F
:104AF00005981399096888420BD0FFE70B9840B1DD
:104B0000FFE70B98062804D0FFE70B98072805D18C
:104B1000FFE713980068C0680D9028E013980068BC
:104B200040F20011C5F20001884204D1FFE74FF0C6
:104B3000A040039015E01398006840F20051C5F2C0
:104B40000001884206D1FFE740F20040C5F20000B4
:104B5000029003E0139800680290FFE70298039028
:104B6000FFE703980C900C98C0680D90FFE70F9832
:104B700000284AD0FFE79DF83700800700280AD5B3
:104B8000FFE70E9800283FD0FFE79DF8350080062C
:104B9000002839D4FFE71398006800684006002811
:104BA00031D5FFE79DF83600800600282AD4FFE7BC
:104BB0001398006808F060FDC0B9FFE7139801681A
:104BC000486820F0600048601399C86D20F4805058
:104BD000C8651398C06DC005002806D4FFE7139977
:104BE000C86D40F00100C865FFE70AE01399C86D81
:104BF00040F01000C8651399086E40F00100086687
:104C0000FFE7FFE7FFE7FFE7FFE71398FFF766F926
:104C10001398016860200860FFE79DF844000006D3
:104C2000002813D5FFE79DF84000000600280DD5A9
:104C3000FFE71399C86D40F48030C865139800F001
:104C4000ADFA1398016880200860FFE79DF84500E1
:104C5000C00798B1FFE79DF84100C00770B1FFE7BA
:104C60001399C86D40F40030C8651398FFF73EF9FA
:104C7000139801684FF480700860FFE79DF84500C5
:104C80008007002814D5FFE79DF841008007002821
:104C90000ED5FFE71399C86D40F48020C8651398BE
:104CA000FFF728F9139801684FF400700860FFE7D8
:104CB0009DF84400C00600285AD5FFE79DF8400043
:104CC000C006002854D5FFE71398C06B18B9FFE75A
:104CD0000120129035E00B9840B3FFE7139801686C
:104CE0000120B1F1A04F01900CD0FFE713980068AC
:104CF0004FF60071CAF6FF710844B0FA80F040091F
:104D00000190FFE70198C10740F20070C5F2000072
:104D100000291CBF40F20030C5F2000008F08CFCF6
:104D200018B1FFE701201290FFE709E0139800682F
:104D3000C068C00718B1FFE701201290FFE7FFE746
:104D4000FFE7129801280ED1FFE71399C86D40F4D0
:104D50008060C8651399086E40F0020008661398D9
:104D6000FFF74CFDFFE71398016810200860FFE78C
:104D70009DF845004007002819D5FFE79DF8410040
:104D80004007002813D5FFE71399C86D40F4804011
:104D9000C8651399086E40F008000866139801680A
:104DA0004FF4806008601398FFF79CF8FFE714B099
:104DB00080BD000080B58EB00C9000208DF82F00D3
:104DC00008900C9820B9FFE701208DF83700E1E149
:104DD0000C98406940B1FFE70C9890F82400012836
:104DE00001D1FFE7FFE7FFE70C98C06D50B9FFE77F
:104DF0000C9800F0D7F90C99002008660C9981F8FE
:104E00005800FFE70C98006808F04AFC28B1FFE75B
:104E10000C98006808F0ECFBFFE70C98006808F0BD
:104E20004FFCF0B9FFE70C98006808F0EDFB40F28A
:104E30001030C2F200000068800942F66351C0F2EF
:104E40003E51A0FB01108109022000EB41000890B7
:104E5000FFE7089820B1FFE7089801380890F8E7C5
:104E6000FFE70C98006808F02BFC70B9FFE70C997D
:104E7000C86D40F01000C8650C99086E40F0010044
:104E8000086601208DF82F00FFE70C98006808F0F5
:104E90001FFC09900C98C06DC006002800F16C81C1
:104EA000FFE70998002840F06781FFE70C98C06D84
:104EB00040F0020020F480700C99C8650C980068DE
:104EC00008F0F6FB00287CD1FFE70C980168012070
:104ED000B1F1A04F05900CD0FFE70C9800684FF699
:104EE0000071CAF6FF710844B0FA80F040090590DD
:104EF000FFE70598C10740F20070C5F200000029E5
:104F00001CBF40F20030C5F2000040F20031C5F293
:104F10000001884210D1FFE74FF0A04008F0C8FB25
:104F2000039040F20010C5F2000008F0C1FB0146FA
:104F30000398084304901BE040F20040C5F20000D3
:104F400008F0B6FB019040F20050C5F2000008F0F6
:104F5000AFFB014601980843029040F20060C5F2A1
:104F6000000008F0A5FB0146029808430490FFE703
:104F7000049828BBFFE70C9801680120B1F1A04F0D
:104F800000900CD0FFE70C9800684FF60071CAF64D
:104F9000FF710844B0FA80F040090090FFE70098E4
:104FA000C10740F20070C5F2000000291CBF40F2AA
:104FB0000030C5F200000C99496808F0FBFBFFE7E0
:104FC000FFE70C994A7FC86B40EA42308A68CB6899
:104FD0001843104391F8241040EA01400A900C98BD
:104FE00090F8240001280BD1FFE70C98816A00207B
:104FF000CFF6FE7000EB41410A9808430A90FFE7A4
:105000000C98C06A50B1FFE70C99C86A096B00F4AC
:10501000787001430A9808430A90FFE70C980068EB
:10502000C06844F20701CFF6F07108400A990843BE
:105030000C990968C8600C980068006920F040600D
:105040000C9A1168526B104308610C98006808F0C4
:105050003FFB07900C98006808F00EFB069007983D
:10506000002868D1FFE70698002864D1FFE70C9973
:10507000087F91F83810800340EA41000A900C98AC
:105080000068C06844F2020188430A9908430C99F9
:105090000968C8600C980069A0B1FFE70C98016826
:1050A000086940F4803008610C980068D0F8C000AE
:1050B00043F6FF7188430C9A116812691043C1F8D6
:1050C000C00011E00C980168086920F48030086184
:1050D0000C980068D0F8C00043F6FF7188430C9923
:1050E0000968C1F8C000FFE70C9890F8400001285B
:1050F00019D1FFE70C980068006940F2FD7120EAC1
:1051000001020C9B1968586CD3F848E0D3F84CC0E6
:1051100040EA0E0040EA0C001B6D1843104340F0BB
:105120000100086106E00C980168086920F00100A0
:105130000861FFE7FFE70C98406901280CD1FFE701
:105140000C980068006B20F00F000C9A1168126A2E
:10515000013A1043086306E00C980168086B20F0E0
:105160000F000863FFE70C98C06D40F0010020F0CD
:1051700002000C99C86508E00C99C86D40F0100059
:10518000C86501208DF82F00FFE79DF82F008DF8EE
:105190003700FFE79DF837000EB080BD81B000906A
:1051A00001B0704780B5A0B01F9000201E901D90E8
:1051B0001C901B901A9005A85421FBF7F7F91F9833
:1051C000006840F20011C5F2000188426ED1FFE78D
:1051D0004FF4004005904FF00050169005A803F0E2
:1051E000D7F818B1FFE7FDF7B5FFFFE7FFE741F29A
:1051F0004C00C4F20200016841F4005101600068F3
:1052000000F4005004900498FFE7FFE741F24C00DF
:10521000C4F20200016841F002010160006800F080
:10522000020003900398FFE704201A9003201B90CC
:10523000002001901C9040F20040C4F600001AA922
:1052400001F02EFA019942F65810C2F200000290C5
:105250003022C4F202020260242242608160C160F6
:10526000802202614FF4007242614FF40062826159
:105270002022C261016200F077F918B1FFE7FDF763
:1052800069FFFFE7FFE71F9842F65811C2F20001DD
:1052900041651F988862FFE71220009005210022D7
:1052A00001F0BCFC009801F0AFFCFFE720B080BD2E
:1052B00082B0019000208DF80300019890F825003D
:1052C000022807D0FFE701990420C86301208DF868
:1052D00003002DE001980168086820F00E000860C6
:1052E0000198816C086820F480700860019801685A
:1052F000086820F0010008600198016C406C00F023
:105300001F020120904048600198C16C006D486008
:105310000198406D58B1FFE70198416D086820F48D
:10532000807008600198816DC06D4860FFE7FFE7FD
:105330000199012081F82500FFE70199002081F8FB
:105340002400FFE79DF8030002B0704780B582B0EB
:10535000019000208DF80300019890F825000228A4
:1053600011D0FFE701990420C8630199012081F859
:105370002500FFE70199002081F82400FFE70120C4
:105380008DF803003FE001980168086820F00E00E6
:10539000086001980168086820F001000860019821
:1053A000816C086820F4807008600198016C406C82
:1053B00000F01F020120904048600198C16C006D10
:1053C00048600198406D58B1FFE70198416D086849
:1053D00020F4807008600198816DC06D4860FFE71F
:1053E0000199012081F82500FFE70199002081F84B
:1053F0002400FFE70198806B20B1FFE70198816BE3
:105400008847FFE7FFE79DF8030002B080BD00007A
:1054100080B584B003900398006C006802900398F4
:1054200000680068019002980399496C01F01F011F
:10543000C8404007002825D5FFE79DF80400400735
:1054400000281FD5FFE70398006800688006002841
:1054500007D4FFE703980168086820F0040008609B
:10546000FFE70398016C406C00F01F02042090409D
:1054700048600398006B20B1FFE70398016B8847F1
:10548000FFE76EE002980399496C01F01F01C840E4
:10549000800700282FD5FFE79DF80400800700282B
:1054A00029D5FFE7039800680068800600280BD420
:1054B000FFE703980168086820F00A000860039974
:1054C000012081F82500FFE70398016C406C00F093
:1054D0001F02022090404860FFE70399002081F8F6
:1054E0002400FFE70398C06A20B1FFE70398C16A70
:1054F0008847FFE734E002980399496C01F01F01E7
:10550000C8400007002829D5FFE79DF804000007E0
:10551000002823D5FFE703980168086820F00E00F3
:1055200008600398026C406C00F01F01012000FA33
:1055300001F151600399C863039981F82500FFE7E1
:105540000399002081F82400FFE70398406B20B105
:10555000FFE70398416B8847FFE700E0FFE7FFE7BD
:10556000FFE704B080BD000080B584B002900298CF
:1055700020B9FFE701208DF80F009CE00298006839
:1055800040F20741C4F20201884218D8FFE70299AD
:1055900008684FF6F872CBF6FD7210444CF6CD4217
:1055A000CCF6CC42A0FB02026FF0030000EA9200AE
:1055B000486402990020C4F20200086418E00299CD
:1055C00008684FF6F832CBF6FD7210444CF6CD4227
:1055D000CCF6CC42A0FB02026FF0030000EA92007E
:1055E0004864029940F20040C4F202000864FFE7F8
:1055F0000299022081F82500029800680068019055
:10560000019847F6F0718843019002998868D1F8B3
:105610000CC00B694A6940EA0C00184310438A69C0
:105620001043CA691043096A014301980843019075
:1056300001980299096808600298FDF73DF90298FF
:105640008068B0F5804F04D1FFE7029900204860E0
:10565000FFE702990879896C08600298C16C006DB7
:1056600048600298406888B1FFE7029840680428C3
:105670000CD8FFE70298FDF759F90298416D002018
:1056800008600298816DC06D486007E002990020B3
:105690004865029988650299C865FFE7029900206C
:1056A000C863029A012182F82510029981F824002A
:1056B0008DF80F00FFE79DF80F0004B080BD0000DB
:1056C00080B586B0049003910292019300208DF87A
:1056D0000300FFE7049890F82400012804D1FFE7B5
:1056E00002208DF8170065E00499012081F824005C
:1056F000FFE7FFE7049890F8250001284BD1FFE76A
:105700000499022081F8250004990020C8630498B8
:105710000168086820F00100086004980399029A63
:10572000019BFDF721F90498006B38B1FFE704985D
:105730000168086840F00E0008600CE004980168F9
:10574000086820F00400086004980168086840F0C8
:105750000A000860FFE70498806C0068C003002816
:1057600007D5FFE70498816C086840F480700860F2
:10577000FFE70498406D38B1FFE70498416D086871
:1057800040F480700860FFE704980168086840F002
:105790000100086009E0FFE70499002081F8240077
:1057A000FFE702208DF80300FFE79DF803008DF866
:1057B0001700FFE79DF8170006B080BD80B584B0E4
:1057C000039001F04FF90290039801900198013085
:1057D00048B1FFE740F28440C2F20000016801983E
:1057E00008440190FFE7FFE701F03CF90299401AF5
:1057F0000199884201D2FFE7F6E704B080BD0000BE
:1058000086B0049003910292049890F85C008DF8A1
:105810000700BDF80C0010F4C07F01D0FFE7FFE7E0
:105820009DF80700012806D0FFE79DF80700022831
:1058300040F0DE80FFE704980068806D00909DF8DE
:105840000C00400730B1FFE79DF80000C0070028BA
:1058500047D0FFE79DF80C0010F0380F06D0FFE7A7
:105860009DF80000800700283BD5FFE7BDF80C003D
:1058700010F4E07F06D0FFE79DF800004007002805
:105880002FD5FFE79DF80D0010F01E0F06D0FFE7A3
:105890009DF800000007002823D5FFE79DF80D00C4
:1058A00010F0E00F06D0FFE79DF80000C0060028CA
:1058B00017D5FFE79DF80E00800730B1FFE79DF890
:1058C0000000800600280CD5FFE79DF80E0010F0C0
:1058D000FC0F0DD0FFE79DF800004006002807D41C
:1058E000FFE704980168C86D40F00100C865FFE754
:1058F0009DF80C00400730B1FFE79DF80000C0079D
:10590000002847D1FFE79DF80C0010F0380F06D0B3
:10591000FFE79DF80000800700283BD4FFE7BDF8B3
:105920000C0010F4E07F06D0FFE79DF80000400770
:1059300000282FD4FFE79DF80D0010F01E0F06D0B1
:10594000FFE79DF800000007002823D4FFE79DF83B
:105950000D0010F0E00F06D0FFE79DF80000C00634
:10596000002817D4FFE79DF80E00800730B1FFE74D
:105970009DF80000800600280CD4FFE79DF80E007B
:1059800010F0FC0F0DD0FFE79DF800004006002846
:1059900007D5FFE704980168C86D40F00200C865AC
:1059A000FFE79DF80C000006002809D5FFE7029AE2
:1059B00004980168D1F8DC001043C1F8DC00FFE76F
:1059C0009DF80D00C00748B1FFE7029A04980168EE
:1059D000D1F8E0001043C1F8E000FFE7039A049813
:1059E0000168486D1043486500208DF8170008E0F5
:1059F0000499086E40F00200086601208DF8170037
:105A0000FFE79DF8170006B07047000080B586B02C
:105A10000490039102920398406808B9FFE700E000
:105A2000FFE7049890F85C0002282FD1FFE7049864
:105A30000068D0F8C4008002002809D5FFE7049967
:105A4000086E40F40070086601208DF8170026E00B
:105A500004980068D0F8C400C0F301400190049895
:105A60000399029A019BFDF7F9FB0199012000FAC5
:105A700001F1049A1268C2F8CC1001998840049987
:105A80008865FFE700208DF8170008E00499086E8C
:105A900040F00800086601208DF81700FFE79DF828
:105AA000170006B080BD000087B0059004910598EE
:105AB00090F85C008DF803009DF80300012805D0E4
:105AC000FFE79DF8030002283CD1FFE70498006837
:105AD000B8B9FFE704998868CB680A694969800703
