:020000040800F2
:1000000068A10020ED01000865E60008DDB70008E2
:100010000DDC0008C9290008017301080000000078
:10002000000000000000000000000000B111010805
:10003000892F00080000000061F40008751E010807
:100040000702000811F30008070200080702000871
:10005000070200080702000807020008070200085C
:10006000070200080702000807020008212B000809
:10007000312B0008412B000807020008512B000813
:100080000702000807020008B1070008070200087D
:10009000C57101089D2F000807020008070200082B
:1000A000070200080702000807020008070200080C
:1000B00007020008070200080702000807020008FC
:1000C00007020008070200080702000807020008EC
:1000D000070200080702000807020008ED390108BE
:1000E00007020008070200080702000807020008CC
:1000F00007020008070200080702000807020008BC
:1001000007020008070200080702000807020008AB
:10011000070200080702000807020008070200089B
:10012000070200080702000807020008070200088B
:10013000070200080702000807020008070200087B
:10014000070200080702000807020008000000007C
:10015000000000000000000000000000000000009F
:10016000000000000000000000000000070200087E
:100170000702000807020008451F010807020008DF
:10018000070200080702000807020008070200082B
:100190000702000800000000AD2F00080702000859
:1001A000070200080702000807020008070200080B
:1001B00007020008070200080702000807020008FB
:1001C00007020008070200080702000807020008EB
:1001D0000702000807020008DFF80CD000F0AAFAB6
:1001E000004800473182010868A100200648804786
:1001F00006480047FEE7FEE7FEE7FEE7FEE7FEE70C
:10020000FEE7FEE7FEE7FEE7311F0108D90100081F
:100210002DE9F05F0546002092469B46884606463B
:10022000814640241BE0284641464746224600F0CE
:10023000DDF953465A46C01A914110D3114618466B
:10024000224600F0C4F92D1A67EB01084F462246FA
:100250000120002100F0BBF917EB00094E41201EE0
:10026000A4F10104DFDC484631462A464346BDE896
:10027000F09F002800DA4042704740EA01039B07E4
:1002800003D009E008C9121F08C0042AFAD203E00B
:1002900011F8013B00F8013B521EF9D27047D2B26F
:1002A00001E000F8012B491EFBD270470022F6E75F
:1002B00010B513460A4604461946FFF7F0FF2046DC
:1002C00010BD421C10F8011B0029FBD1801A704799
:1002D00030B504460020034600E05B1C934203D285
:1002E000E05CCD5C401BF8D030BD2DE9FE4F81EACB
:1002F000030404F0004421F0004100944FF0000B8F
:1003000023F0004350EA01045ED052EA03045BD0BC
:10031000C3F30A54C1F30A552C44A4F2F3340194F4
:10032000A0FB0254C1F3130141F48011C3F3130382
:1003300043F4801301FB024400FB034E840A970A36
:1003400044EA815447EA8357A4FB076802958D0A63
:1003500005FB07854FEA932C04FB0C542705029DEF
:100360004FEA065847EA1637B5EB08056EEB070C5F
:10037000870E920E47EA811742EA8312A7FB020119
:10038000B6EB0B0164EB00042B0D43EA0C335E1853
:1003900044EB1C50DA465146E7FB0201C5F3130457
:1003A0004FEA0B3343EA14534FEA0432019C43EA09
:1003B0000603A4F10C040294009CCDE900B400F003
:1003C0006BF903B0BDE8F08F00200146F9E72DE995
:1003D000F04D81EA030404F0004B21F0004514467F
:1003E0004FF0000A23F0004150EA050220D054EA01
:1003F00001021DD0C5F30A570246C5F31303C1F32A
:100400001300C1F30A5640F4801543F48013A7EBA0
:100410000608101BD64608F2FD3873EB050002D320
:1004200008F1010801E092185B41B8F1000F03DA0E
:1004300000200146BDE8F08D00204FF480110646F3
:1004400084460EE0171B73EB050705D3121B63EB05
:10045000050306434CEA010C49084FEA30009218A4
:100460005B4150EA0107EDD152EA030012D082EA63
:10047000040083EA0501084305D0101BAB4106D2F6
:100480000122002306E000224FF0004302E06FF05B
:10049000010253101AEB06004CEB085110EB0A0056
:1004A00041EB0B01BDE8F04D00F0E7B830B5041E9C
:1004B00071F1000404DB4FF00044404264EB0101A1
:1004C000141E73F1000405DB1C464FF0004352423A
:1004D00063EB0403801A994101D3012030BD002051
:1004E00030BD30B5041E71F1000404DB4FF0004450
:1004F000404264EB0101141E73F1000405DB1C464D
:100500004FF00043524263EB0403101A8B4101D2B7
:10051000012030BD002030BD30B5041E71F1000453
:1005200004DB4FF00044404264EB0101141E73F100
:10053000000405DB1C464FF00043524263EB04030A
:10054000801A994101D2012030BD002030BD0EB586
:10055000C10F80EAE0700844CA07002140F233432B
:100560008DE80E000A460B4600F096F803B000BD79
:1005700000F0004230F000400AD0C10D01F560717A
:10058000C0F3160042EA0151C20840071143704708
:1005900000200146704701F0004330B421F00041D3
:1005A00050EA010206D00A0DA2F56072C1F31301F0
:1005B000002A02DC30BC00207047440F44EAC1042A
:1005C000C100E01830BC00EBC25000F01FB8202A78
:1005D00004DB203A00FA02F1002070479140C2F19A
:1005E000200320FA03F3194390407047202A04DBCC
:1005F000203A21FA02F00021704721FA02F3D0409C
:10060000C2F1200291400843194670470029A8BF53
:100610007047401C490008BF20F00100704710B42B
:10062000B0FA80FC00FA0CF050EA010404BF10BCE0
:10063000704749B1CCF1200421FA04F411FA0CF10D
:1006400018BF012121430843A3EB0C01CB1D4FEA46
:1006500000614FEA102042BF002010BC704700EB41
:10066000C35010440029A4BF10BC7047401C49006F
:1006700008BF20F0010010BC704710B5141E73F1C4
:10068000000408DA401C41F1000192185B411A4352
:1006900001D120F0010010BD2DE9F04D92469B469E
:1006A00011B1B1FA81F202E0B0FA80F22032904644
:1006B000FFF78DFF04460F4640EA0A0041EA0B01AE
:1006C00053465A46084313D0114653EA010019D045
:1006D000C8F140025046FFF789FF05460E465046D6
:1006E00059464246FFF773FF084305D0012004E056
:1006F00020463946BDE8F08D0020054346EAE07605
:100700002C4337430A986305E40AA0EB0800002253
:10071000FD0A44EA47540A3002D500200146E9E7C1
:10072000010510196941DDE9084500196941BDE875
:10073000F04DA2E7064C074D06E0E06840F00103EB
:1007400094E8070098471034AC42F6D3FFF748FD11
:100750009CA30108BCA3010870B58C1810F8015BBC
:1007600015F0070301D110F8013B2A1106D110F84A
:10077000012B03E010F8016B01F8016B5B1EF9D14E
:100780002B0705D40023521E0DD401F8013BFAE7D4
:1007900010F8013BCB1A921C03E013F8015B01F83F
:1007A000015B521EF9D5A142D8D3002070BD0000D4
:1007B00080B542F62810C2F2000003F065FD80BD4E
:1007C00080B582B001900198806A00900098C06D59
:1007D00010F0500F4BD1FFE70099C86D40F4007046
:1007E000C8650098006800680007002821D5FFE769
:1007F000009800680CF06CFBD0B1FFE7009800682F
:10080000C0688004002812D4FFE70099C86D20F466
:100810008070C8650098C06DC004002806D4FFE74A
:100820000099C86D40F00100C865FFE7FFE7FFE7EA
:1008300019E000980068C0688007002812D4FFE71C
:100840000099C86D20F48070C8650098C06DC00420
:10085000002806D4FFE70099C86D40F00100C86584
:10086000FFE7FFE7FFE7009803F002FD10E00098C4
:10087000C06DC006002804D5FFE7009803F000FD16
:1008800005E00098406D416B01988847FFE7FFE75E
:1008900002B080BD80B582B001900198806A00905E
:1008A0000099C86D40F04000C8650099086E40F09E
:1008B00004000866009803F0E3FC02B080BD00006D
:1008C00080B582B001900198806A0090009803F092
:1008D000D3FC02B080BD000040F2F830C2F200004C
:1008E00090ED000AB8EE400A9FED091A80EE010A69
:1008F000B2EE061A20EE010A9FED061A20EE010A5A
:1009000040F27040C2F2000080ED000A704700BF64
:1009100000FF7F479A99394080B584B002900298D1
:1009200000680CF0B5FA0090029800680CF0B8FA74
:1009300000284BD0FFE70098002847D1FFE7029836
:100940000068806800F00D00012809D1FFE70298D7
:1009500000680CF019FA02980168032008600DE0A5
:100960000299C86D40F01000C8650299086E40F009
:100970000100086601208DF80F002BE005F0BAFE9B
:100980000190FFE7029800688068C007E8B1FFE7C0
:1009900005F0B0FE0199401A032815D3FFE702982D
:1009A00000688068C00770B1FFE70299C86D40F029
:1009B0001000C8650299086E40F001000866012029
:1009C0008DF80F0006E0FFE7DCE7FFE700208DF879
:1009D0000F00FFE79DF80F0004B080BD80B584B024
:1009E0000290029800680CF05BFA00284ED1FFE7F5
:1009F0000298006880683F21C8F2000108420ED0CA
:100A0000FFE70299C86D40F01000C8650299086EB2
:100A100040F00100086601208DF80F003AE00298CE
:100A200000680CF0CBF905F065FE0190FFE7029835
:100A300000680068C00740BBFFE7029800680CF040
:100A40002FFA28B9FFE7029800680CF0B7F9FFE722
:100A500005F050FE0199401A032815D3FFE70298CC
:100A600000680068C00770B9FFE70299C86D40F0E0
:100A70001000C8650299086E40F001000866012068
:100A80008DF80F0006E0FFE7D1E7FFE700208DF8C3
:100A90000F00FFE79DF80F0004B080BD80B582B065
:100AA00042F62810C2F2000001907F2102F0E0FE21
:100AB0000A2004F0CBFC019840F2F831C2F20001A8
:100AC000012204F037F902B080BD000040F2784006
:100AD000C2F200007047000080B582B0FFF7F6FF59
:100AE000019001990020C87502B080BD80B582B028
:100AF000FFF7ECFF019005F0FDFD009000980199D3
:100B00000969401A00EE100AB8EE400A9FED111A6A
:100B1000B4EE410AF1EE10FA04DCFFE7019901207E
:100B2000087614E0009801990969401A00EE100A4D
:100B3000B8EE400A9FED071AB4EE410AF1EE10FA42
:100B400004DBFFE7019900200876FFE7FFE702B02A
:100B500080BD00BF0000C84280B584B08DF80F0092
:100B6000FFF7B4FF02900DF0EDF801909DF80F0033
:100B7000029988759DF80F000199887004B080BDB6
:100B800080B584B0FFF7A2FF03900DF0DBF8029070
:100B900002F046FD019001980078002800F0548191
:100BA000FFE70398C07D002840F0A580FFE740F2F2
:100BB0000C00C2F20000006840F61C01C2F2000105
:100BC000086040F21000C2F20000006840F6200108
:100BD000C2F2000108600298B0F9160000EE100A97
:100BE000B8EEC00AB1EE400A9FEDA31A80EE010AEA
:100BF000039880ED000A0298B0F9180000EE100A80
:100C0000B8EEC00AB1EE400A80EE010A039880ED0A
:100C1000010A039890ED010A40F2B800C2F2000008
:100C200090ED001AB4EE410AF1EE10FA08DDFFE78C
:100C300040F2B800C2F2000000680399486017E073
:100C4000039890ED010A40F2B400C2F2000090ED6A
:100C5000001AB4EE410AF1EE10FA08DAFFE740F2AA
:100C6000B400C2F20000006803994860FFE7FFE7A4
:100C7000FFE7039890ED000A9FED801AB4EE410A59
:100C8000F1EE10FA0ADBFFE7039890ED000A9FED02
:100C90007E1A30EE010A80ED000AEAE7FFE70398CA
:100CA00090ED000A9FED761AB4EE410AF1EE10FACB
:100CB0000ADCFFE7039890ED000A9FED721A30EE10
:100CC000010A80ED000AEAE7029890F8200088B156
:100CD000FFE70298C07868B1FFE70DF05FF848B908
:100CE000FFE70398406801998860039800680199BC
:100CF0004860FFE7A7E00398C07D012840F0A2808C
:100D0000FFE740F22800C2F20000006840F61C0134
:100D1000C2F20001086040F22C00C2F2000000683C
:100D200040F62001C2F200010860029890ED020A2C
:100D3000B1EE400A9FED501A80EE010A039880ED53
:100D4000020A029890ED030AB1EE400A80EE010A11
:100D5000039880ED030A039890ED030A40F2B8006F
:100D6000C2F2000090ED001AB4EE410AF1EE10FA62
:100D700008DDFFE740F2B800C2F200000068039906
:100D8000C86017E0039890ED030A40F2B400C2F285
:100D9000000090ED001AB4EE410AF1EE10FA08DA04
:100DA000FFE740F2B400C2F2000000680399C86097
:100DB000FFE7FFE7FFE7039890ED020A9FED2F1A88
:100DC000B4EE410AF1EE10FA0ADBFFE7039890ED6A
:100DD000020A9FED2D1A30EE010A80ED020AEAE7C1
:100DE000FFE7039890ED020A9FED251AB4EE410A41
:100DF000F1EE10FA0ADCFFE7039890ED020A9FED8E
:100E0000211A30EE010A80ED020AEAE7029890F812
:100E10002000B0B1FFE70298C07890B1FFE70CF076
:100E2000BDFF70B9FFE70398007E012809D1FFE7F5
:100E30000398C068019988600398806801994860A8
:100E4000FFE7FFE7FFE714E040F20C00C2F200000A
:100E5000006840F61C01C2F20001086040F2100078
:100E6000C2F20000006840F62001C2F200010860F2
:100E7000FFE704B080BD00BF0000C842000034435B
:100E8000000034C30000B4430000B4C380B588B090
:100E90000FF0B4FD07900CF055FF069010F0CEFC5B
:100EA0000590FFF713FE049002F0BAFB03904FF495
:100EB0007A70ADF80A000498807D68B9FFE740F2C7
:100EC0001800C2F2000090ED000ABDEEC00A10EE5C
:100ED000100AADF80A001BE00498807D022808D1B2
:100EE000FFE740F21600C2F200000088ADF80A00E9
:100EF0000DE00498807D012808D1FFE740F214003E
:100F0000C2F200000088ADF80A00FFE7FFE7FFE744
:100F10000498C07D00285ED1FFE746F67461C2F2F6
:100F200000010888013008800698C078012851D156
:100F3000FFE70698007901284CD1FFE70498407D2F
:100F4000012805D0FFE70798C07C022842D1FFE7BF
:100F500046F67460C2F200000088BDF80A108842AC
:100F600038DBFFE7059890ED041A90ED050A30EEA6
:100F7000410AB3EE041AB4EE410AF1EE10FA29DB8D
:100F8000FFE740F6E840C2F2000090ED010AB3EE40
:100F9000041AB4EE410AF1EE10FA1BDDFFE740F649
:100FA0003C50C2F2000090ED010AB3EE041AB4EE18
:100FB000410AF1EE10FA0DDDFFE7012010F0E4FB2D
:100FC00046F67461C2F2000100200880059981F89C
:100FD0002000FFE760E00498C07D01285BD1FFE7B7
:100FE0000698C078012842D1FFE7069800790128C9
:100FF0003DD1FFE742F69410C2F200000078B0BB8A
:10100000FFE7059890ED041A90ED050A30EE410ACD
:10101000B3EE041AB4EE410AF1EE10FA27DBFFE753
:1010200040F6E840C2F2000090ED010AB3EE041A67
:10103000B4EE410AF1EE10FA19DDFFE740F63C503C
:10104000C2F2000090ED010AB3EE041AB4EE410AB8
:10105000F1EE10FA0BDDFFE70120019010F094FB98
:10106000019842F69411C2F20001087012E006984D
:10107000007970B9FFE70020009010F093FB009812
:10108000059981F8200042F69411C2F2000108701F
:10109000FFE7FFE7FFE7FFE708B080BD80B582B05C
:1010A0000190FFE7FFE740F62400C2F2000000686D
:1010B00020B9FFE7012017F0F5F8F4E7FFF716FD78
:1010C000FFF75EFD0CF0C4FF0CF07AFE012017F074
:1010D000E9F8E7E780B582B0FFF7F8FC01900CF083
:1010E00031FE00900098C07808B9FFE704E005F0F1
:1010F00001FB01990861FFE702B080BD80B58AB0AD
:10110000089000208DF81F000898806802F03AFAD5
:1011100008984068802103910FF0ECFE0898406821
:10112000552104910FF0E6FE0499089840680FF0ED
:10113000E1FE8DF81F000898806802F033FAB0EEE7
:10114000000A8DED050A01F0F9FD0898806802F0AB
:1011500019FA0399089840680FF0CCFE0499089892
:1011600040680FF0C7FE0499089840680FF0C2FE6F
:101170008DF81F000898806802F014FA9DED050AAA
:1011800001F0DCFD0898806802F0FCF908984068DE
:101190007E210FF0AFFE08984068B6210FF0AAFE3E
:1011A0000898806802F0FEF99FED5D0A01F0C6FD27
:1011B0000898806802F0E6F90399089840680FF0F3
:1011C00099FE0499089840680FF094FE04990898D5
:1011D00040680FF08FFE8DF81F000898806802F0BD
:1011E000E1F99DED050A01F0A9FD0898806802F07B
:1011F000C9F90399089840680FF07CFE0499089893
:1012000040680FF077FE0499089840680FF072FE6E
:101210008DF81F000898806802F0C4F99DED050A5A
:1012200001F08CFD9DF81F001E2804D0FFE7FF2071
:101230008DF827006FE000200690FFE7069805284C
:1012400065DCFFE70898806802F09CF90898406820
:10125000069901EB410240F2D431C2F20001029141
:10126000895C0FF047FE029908984068069A02EBE5
:101270004202114449780FF03DFE0898806802F060
:1012800091F9B0EE000A8DED010A01F057FD0898C2
:10129000806802F077F9029908984068069A02EB94
:1012A0004202895C41F080010FF024FE08984068FA
:1012B000552100910FF01EFE0099089840680FF02C
:1012C00019FE8DF81F000898806802F06BF99DEDFB
:1012D000010A01F033FD02999DF81F00069A02EB06
:1012E00042021144497888420CD0FFE7069800EB8F
:1012F000400140F2D430C2F20000084480788DF8FA
:10130000270008E0FFE706980130069096E70020E6
:101310008DF82700FFE79DF827000AB080BD00BFC9
:101320000000A04280B598B0169000208DF85700BC
:10133000ADF8480011901698806802F023F91698CD
:10134000406880210C910FF0D5FD1698406855211A
:101350000D910FF0CFFD0D99169840680FF0CAFD62
:101360008DF857001698806802F01CF9B0EE000A5C
:101370008DED0E0A01F0E2FC1698806802F002F989
:101380000C99169840680FF0B5FD0D9916984068B5
:101390000FF0B0FD0D99169840680FF0ABFD8DF879
:1013A00057001698806802F0FDF89DED0E0A01F0D6
:1013B000C5FC1698806802F0E5F8169840687E2112
:1013C0000FF098FD16984068B6210FF093FD16981F
:1013D000806802F0E7F89FEDEE0A01F0AFFC169886
:1013E000806802F0CFF80C99169840680FF082FDE3
:1013F0000D99169840680FF07DFD0D99169840687C
:101400000FF078FD8DF857001698806802F0CAF842
:101410009DED0E0A01F092FC1698806802F0B2F879
:101420000C99169840680FF065FD0D991698406864
:101430000FF060FD0D99169840680FF05BFD8DF878
:1014400057001698806802F0ADF89DED0E0A01F085
:1014500075FC9DF857001E2804D0FFE7FF208DF88B
:101460005F00D9E100201090FFE71098032869DCA5
:10147000FFE71698806802F085F816984068109982
:1014800001EB41024AF28931C0F601010B91895CFE
:101490000FF030FD0B9916984068109A02EB42024B
:1014A000114449780FF026FD1698806802F07AF80A
:1014B000B0EE000A8DED0A0A01F040FC1698806833
:1014C00002F060F80B9916984068109A02EB4202FD
:1014D000895C41F080010FF00DFD169840685521A0
:1014E00009910FF007FD0999169840680FF002FD69
:1014F0008DF857001698806802F054F89DED0A0A9E
:1015000001F01CFC0B999DF85700109A02EB420267
:101510001144497888420CD0FFE7109800EB400155
:101520004AF28930C0F60100084480788DF85F00E7
:1015300072E19FEDBB0A01F001FCFFE7109801305A
:10154000109092E700200F90FFE70F98012800F31A
:10155000AA80FFE71698806802F014F81698406891
:101560000F9901EB41014AF28932C0F6010208925B
:101570001144097B0FF0BEFC089A169840680F9939
:1015800001EB41011144497B0FF0B4FC16988068CF
:1015900002F008F8B0EE000A8DED070A01F0CEFB6C
:1015A0001698806801F0EEFF089A169840680F9927
:1015B00001EB41011144097B41F080010FF09AFCDD
:1015C00016984068552106910FF094FC06991698DC
:1015D00040680FF08FFC8DF857001698806801F076
:1015E000E1FF9DED070A01F0A9FB089A9DF857005D
:1015F0000F9901EB41011144497B88420CD0FFE770
:101600000F9800EB40004AF28931C0F6010108440E
:10161000807B8DF85F00FFE09FED810A01F08EFB7B
:101620001698806801F0AEFF1698406892210591E7
:101630000FF060FC0599169840680FF05BFC169857
:10164000406811A906220FF039FC1698806801F055
:10165000A9FF9DF844009DF8451040EA01200F992C
:1016600001EB41020DF14A0121F812009DF84600FC
:101670009DF8472040EA02200F9A02EB420201EB5C
:10168000420250809DF848009DF8492040EA02201F
:101690000F9A02EB420201EB42018880FFE70F98AC
:1016A00001300F9051E71698806801F06BFF169893
:1016B00040686D210FF01EFC1698406800210FF065
:1016C00019FC1698806801F06DFFB0EE000A8DEDF0
:1016D000040A01F033FB1698806801F053FF169856
:1016E0004068ED210FF006FC1698406855210391E3
:1016F0000FF000FC0399169840680FF0FBFB8DF883
:1017000057001698806801F04DFF9DED040A01F026
:1017100015FB9DF8570020B1FFE704208DF85F000E
:101720007AE01698806801F02DFF169840687E21B7
:101730000FF0E0FB16984068B6210FF0DBFB16981F
:10174000806801F02FFF9FED360A01F0F7FABDF92E
:101750004A00BDF95010401A40F25551884213DB3F
:10176000FFE7BDF94C00BDF95210401A40F2555147
:10177000884209DBFFE7BDF94E00BDF95410401A5D
:10178000B0F52A7F06DAFFE780208DF85F0043E09E
:101790000000A0421698806801F0F4FE1698406898
:1017A000802100910FF0A6FB169840685521019109
:1017B0000FF0A0FB0199169840680FF09BFB8DF885
:1017C00057001698806801F0EDFEB0EE000A8DED2E
:1017D000020A01F0B3FA1698806801F0D3FE00996E
:1017E000169840680FF086FB0199169840680FF034
:1017F00081FB0199169840680FF07CFB8DF857002B
:101800001698806801F0CEFE9DED020A01F096FA6E
:1018100000208DF85F00FFE79DF85F0018B080BDE5
:101820000000A04280B588B0079000200690059087
:1018300007990420087007987C3001F0B3FA0798E4
:1018400080ED1E0A0798806801F09CFE07984068AA
:10185000922102910FF04EFB0299079840680FF019
:1018600049FB0798406805A9039106220FF026FB63
:101870000798806801F096FE9DF814109DF81500F9
:10188000000200B2084400EE100AB8EEC00A079841
:1018900090ED171A90ED1B2A20EE020A20EE010AA5
:1018A00080ED040A9DF816109DF81700000200B2A2
:1018B000084400EE100AB8EEC00A079890ED171A17
:1018C00090ED1B2A20EE020A20EE010A80ED050AA7
:1018D0009DF818109DF81900000200B2084400EEAF
:1018E000100AB8EEC00A079890ED171A90ED1B2A5F
:1018F00020EE020A20EE010A80ED060A0798C06871
:1019000001F040FE0798406880210FF0F3FA039938
:101910000798406808220FF0D1FA0798C06801F0D4
:1019200041FE9DF814000F2840F08280FFE70798E1
:1019300090F86800002843D0FFE79DF816109DF846
:101940001700000200B2084400EE100AB8EEC00A08
:10195000079890ED101A90ED1C2A20EE020A30EE46
:10196000410A80ED080A9DF818109DF81900000240
:1019700000B2084400EE100AB8EEC00A079890EDD5
:10198000111A90ED1C2A20EE020A30EE410A80ED79
:10199000090A9DF81A109DF81B00000200B20844C5
:1019A00000EE100AB8EEC00A079890ED121A90EDFA
:1019B0001C2A20EE020A30EE410A80ED070A36E0CA
:1019C0009DF816109DF81700000200B2084400EEC2
:1019D000100AB8EEC00A079890ED1C1A20EE010A12
:1019E00080ED080A9DF818109DF81900000200B259
:1019F000084400EE100AB8EEC00A079890ED1C1AD1
:101A000020EE010A80ED090A9DF81A109DF81B00CE
:101A1000000200B2084400EE100AB8EEC00A0798AF
:101A200090ED1C1A20EE010A80ED070AFFE7FFE7A0
:101A30000798806801F0A6FD07984068A2210191EF
:101A40000FF058FA0199079840680FF053FA079879
:101A5000406805A902220FF031FA0798806801F06A
:101A6000A1FD9DF814009DF81510C00040EA51102A
:101A7000ADF81200BDF91200B0F5806F07DBFFE78B
:101A8000BDF81200A0F50060ADF81200FFE7BDF947
:101A9000120000EE100AB8EEC00AB4EE001A20EEF2
:101AA000010AB3EE071A30EE010A079880ED190A11
:101AB00007990120087008B080BD000081B0009037
:101AC000009943F6AC00C3F622300864009941F255
:101AD000B060C3F6CE10486400998864009941F262
:101AE0003F60C4F21B108865009890ED161A9FEDB8
:101AF000040A80EE010A80ED170A01B0704700BFAA
:101B0000C3F51C4180B58AB0089000208DF81F00F5
:101B10000898C06801F036FD08984068802103915C
:101B20000FF0E8F908984068552104910FF0E2F9A8
:101B30008DF81F000898C06801F034FDB0EE000A6F
:101B40008DED050A01F0FAF80898C06801F01AFD59
:101B50000399089840680FF0CDF9049908984068F7
:101B60000FF0C8F98DF81F000898C06801F01AFD41
:101B70009DED050A01F0E2F80898C06801F002FD49
:101B80000898406814210FF0B5F908984068B6210C
:101B90000FF0B0F90898C06801F004FD9FED550AF8
:101BA00001F0CCF80898C06801F0ECFC03990898A3
:101BB00040680FF09FF90499089840680FF09AF96F
:101BC0008DF81F000898C06801F0ECFC9DED050A37
:101BD00001F0B4F80898C06801F0D4FC03990898A3
:101BE00040680FF087F90499089840680FF082F96F
:101BF0008DF81F000898C06801F0D4FC9DED050A1F
:101C000001F09CF89DF81F000F2804D0FFE7FF208B
:101C10008DF8270069E000200690FFE70698052868
:101C20005FDCFFE70898C06801F0ACFC08984068EA
:101C3000069901EB410240F2E631C2F20001029145
:101C4000895C0FF057F9029908984068069A02EBF0
:101C50004202114449780FF04DF90898C06801F02C
:101C6000A1FCB0EE000A8DED010A01F067F80898BA
:101C7000C06801F087FC029908984068069A02EB58
:101C80004202895C41F080010FF034F90898406805
:101C900055210FF02FF98DF81F000898C06801F04A
:101CA00081FC9DED010A01F049F802999DF81F00A1
:101CB000069A02EB42021144497888420CD0FFE7B1
:101CC000069800EB400140F2E630C2F20000084402
:101CD00080788DF8270008E0FFE70698013006902D
:101CE0009CE700208DF82700FFE79DF827000AB049
:101CF00080BD00BF0000A04280B588B006900020E3
:101D00008DF817008DF816000698C06801F03AFCAF
:101D100006984068802101910FF0ECF80698406821
:101D2000552102910FF0E6F88DF817000698C0686B
:101D300001F038FCB0EE000A8DED030A00F0FEFF62
:101D40000698C06801F01EFC0199069840680FF0E3
:101D5000D1F80299069840680FF0CCF88DF817007A
:101D60000698C06801F01EFC9DED030A00F0E6FF36
:101D70000698C06801F006FC0698406814210FF030
:101D8000B9F806984068B6210FF0B4F80698C06814
:101D900001F008FC9FED4D0A8DED040A00F0CEFF26
:101DA0000698C06801F0EEFB0199069840680FF0B4
:101DB000A1F80299069840680FF09CF88DF817007A
:101DC0000698C06801F0EEFB9DED030A00F0B6FF37
:101DD0000698C06801F0D6FB0199069840680FF09C
:101DE00089F80299069840680FF084F88DF817007A
:101DF0000698C06801F0D6FB9DED030A00F09EFF37
:101E00000698C06801F0BEFB069840683C210FF0C0
:101E100071F80698406801210FF06CF80698C068C8
:101E200001F0C0FB9DED040A00F088FFFFE7069873
:101E3000C06801F0A7FB06984068BC210FF05AF873
:101E40000698406855210FF055F88DF81700069850
:101E5000C06801F0A7FBB0EE000A00F06FFF9DF82C
:101E6000160001308DF81600FFE79DF817100020CE
:101E700089070029009008D4FFE79DF8161000207C
:101E80000A29B8BF01200090FFE70098C00700288A
:101E9000CDD1FFE79DF816000A2804D1FFE74020C6
:101EA0008DF81F000DE09DF817004007002804D5AD
:101EB000FFE740208DF81F0003E000208DF81F0091
:101EC000FFE79DF81F0008B080BD00BF0000A042E2
:101ED00080B588B0079006910592049306980799FB
:101EE000486005980799886004980799C860079822
:101EF00000F04CF80799002081F87400079A43F22B
:101F00003331C3F6EB21D166079A4AF25801C3F682
:101F10008B2111678DF80F000798FFF703FA18B1AE
:101F2000FFE78020029004E00798FFF7E7F80290AF
:101F3000FFE702988DF80F000798FFF7DDFE18B154
:101F4000FFE74020019004E00798FFF7DBFD0190D8
:101F5000FFE701988DF80F00079890F874000128AA
:101F600004D1FFE7079800F02DF803E00798FFF78A
:101F7000A5FDFFE79DF80F100120002918BF0220E2
:101F8000079908709DF80F0008B080BD81B00090DF
:101F900000990020086100994861009988610099C2
:101FA0000862009948620099C86100994866009AE1
:101FB000012182F86810009988670099C86701B00C
:101FC0007047000080B596B01590002007900690ED
:101FD000ADF8160000F00AFF8DED040AFFE700F0EF
:101FE00005FF9DED041A30EE410AB2EE041AB4EE7C
:101FF000410AF1EE10FA15DDFFE7159943F6AC0042
:10200000C3F622300864159941F2B060C3F6CE10D1
:10201000486415998864159941F23F60C4F21B1019
:10202000886598E29FEDE20A00F05AFE15990020BB
:102030008865159908641599486415998864ADF800
:102040000E00FFE7BDF80E0040F22001C2F20001D1
:102050000988884280F2CE81FFE71598806801F0F8
:1020600091FA15984068922101910EF043FF019971
:10207000159840680EF03EFF1598406806A9029139
:1020800006220EF01BFF1598806801F08BFA9DF870
:1020900018109DF81900000200B2084400EE100A62
:1020A000B8EEC00A159890ED1B1A20EE010A80EDDB
:1020B000040A9DF81A109DF81B00000200B20844A3
:1020C00000EE100AB8EEC00A159890ED1B1A20EE2B
:1020D000010A80ED050A9DF81C109DF81D00000204
:1020E00000B2084400EE100AB8EEC00A159890ED50
:1020F0001B1A20EE010A80ED060A159890ED041ACD
:1021000090ED052A90ED060A22EE022A21EE011A30
:1021100031EE021A20EE000A30EE010A17F0BEFF7F
:102120008DED0E0A9DED0E1A159890ED160A30EE03
:10213000010A80ED160A1598C06801F023FA159877
:10214000406880210EF0D6FE02991598406808225A
:102150000EF0B4FE1598C06801F024FA9DF818003E
:102160000F2852D1FFE79DF81A109DF81B000002BE
:1021700000B2084400EE100AB8EEC00A159890EDBF
:102180001C1A20EE010A80ED080A9DF81C109DF82B
:102190001D00000200B2084400EE100AB8EEC00AAA
:1021A000159890ED1C1A20EE010A80ED090A9DF8A1
:1021B0001E109DF81F00000200B2084400EE100A35
:1021C000B8EEC00A159890ED1C1A20EE010A80EDB9
:1021D000070A159890ED081A90ED100A30EE010AE2
:1021E00080ED100A159890ED091A90ED110A30EE65
:1021F000010A80ED110A159890ED071A90ED120A68
:1022000030EE010A80ED120AFFE7BDF80E00B8B902
:10221000FFE70E980D900E980C901598006A12909A
:102220001598006A0F901598406A13901598406AA7
:1022300010901598C06914901598C069119078E0B5
:102240009DED0E0A9DED0D1AB4EE410AF1EE10FA65
:1022500003DBFFE70E980D900DE09DED0E0A9DED5E
:102260000C1AB4EE410AF1EE10FA03DCFFE70E9807
:102270000C90FFE7FFE7159890ED080A9DED121A04
:10228000B4EE410AF1EE10FA04DBFFE71598006A9C
:1022900012900FE0159890ED080A9DED0F1AB4EE1C
:1022A000410AF1EE10FA04DCFFE71598006A0F907E
:1022B000FFE7FFE7159890ED090A9DED131AB4EEBC
:1022C000410AF1EE10FA04DBFFE71598406A13901B
:1022D0000FE0159890ED090A9DED101AB4EE410A31
:1022E000F1EE10FA04DCFFE71598406A1090FFE762
:1022F000FFE7159890ED070A9DED141AB4EE410A18
:10230000F1EE10FA04DBFFE71598C06914900FE0B6
:10231000159890ED070A9DED111AB4EE410AF1EE01
:1023200010FA04DCFFE71598C0691190FFE7FFE79A
:10233000FFE79DED0D0A9DED0C1A30EE410A8DED83
:102340000B0A00208DF80D00FFE79DF80D00022814
:102350001ADCFFE79DF80D1012A800EB810090ED4C
:10236000000A0FA800EB810090ED001A30EE410A40
:1023700008A800EB810080ED000AFFE79DF80D0042
:1023800001308DF80D00E0E79DED0B0A9FED771A07
:10239000B4EE410AF1EE10FA20DCFFE79DED080AE9
:1023A0009FED731AB4EE410AF1EE10FA16DC01E06B
:1023B0000AD7A33B9DED090A9FED6D1AB4EE410AC1
:1023C000F1EE10FA0ADCFFE79DED0A0A9FED681AAC
:1023D000B4EE410AF1EE10FA01DDFFE70AE09FEDED
:1023E000650A00F07DFCFFE7BDF80E000130ADF896
:1023F0000E0027E640F22000C2F20000008800EE46
:10240000100AB8EE401A159890ED160A80EE010AEF
:1024100080ED160A00208DF80C00FFE79DF80C00F7
:1024200002281BDCFFE740F22000C2F20000008817
:1024300000EE100AB8EE401A15989DF80C1000EB4B
:10244000810090ED100A80EE010A80ED100AFFE78E
:102450009DF80C0001308DF80C00DFE7BDF8160088
:102460000130ADF81600FFE79DED0B0A01209FED4E
:102470003F1AB4EE410AF1EE10FA009065DCFFE776
:10248000159890ED160A9FED3C1A30EE010AB0EE59
:10249000C00A0120B6EE001AB4EE410AF1EE10FABD
:1024A000009052DCFFE79DED080A01209FED301AF5
:1024B000B4EE410AF1EE10FA009046DCFFE79DED24
:1024C000090A01209FED2A1AB4EE410AF1EE10FA32
:1024D00000903ADCFFE79DED0A0A01209FED241AE7
:1024E000B4EE410AF1EE10FA00902EDCFFE71598E9
:1024F00090ED100AB0EEC00A01209FED201AB4EE54
:10250000410AF1EE10FA00901FDCFFE7159890EDFC
:10251000110AB0EEC00A01209FED181AB4EE410A6C
:10252000F1EE10FA009010DCFFE7159890ED120A1A
:10253000B0EEC00A9FED111A0020B4EE410AF1EE90
:1025400010FAC8BF01200090FFE70098C0070028DC
:102550007FF445ADFFE7159890ED161A9FED080A38
:1025600080EE010A80ED170A16B080BD3333333F89
:102570009A99193E6F12033ACDCC1CC10AD7233C5D
:10258000C3F51C4180B584B000F0D6F900F00EF917
:10259000039003990420087000200290FFE702983E
:1025A000012845DCFFE7029940F2BC00C2F20000BE
:1025B00000EBC1004068B0B3FFE740F22400C2F274
:1025C00000000068006E8005002812D5FFE740F289
:1025D0002400C2F200000190006803F01DFE019883
:1025E00001680A680321C2F8C410006803F0EEFD18
:1025F000FFE740F22400C2F20000006803F012FA84
:1026000042F20461C2F200010860029940F2BC008B
:10261000C2F2000000EBC100416840F2B860C2F2B3
:1026200000008847FFE7FFE7029801300290B6E715
:1026300003990120087004B080BD000080B584B00B
:1026400000F07AF900F0B2F80390039904200870C2
:1026500000200290FFE70298012845DCFFE702997D
:1026600040F2CC00C2F2000000EBC1004068B0B301
:10267000FFE740F22400C2F200000068006E80050F
:10268000002812D5FFE740F22400C2F200000190BA
:10269000006803F0C1FD019801680A680321C2F8CF
:1026A000C410006803F092FDFFE740F22400C2F27C
:1026B0000000006803F0B6F942F20861C2F20001BE
:1026C0000860029940F2CC00C2F2000000EBC100A9
:1026D000416840F2B860C2F200008847FFE7FFE7B8
:1026E000029801300290B6E703990120087004B007
:1026F00080BD000080B586B005900491ADF80E2035
:1027000000F054F8029042F24C60C2F200000168FE
:10271000013101600068009003F0ECFF0146009871
:10272000B0FBF1F000EE100AB8EE400A42F2506041
:10273000C2F2000080ED000A0599BDF80E2040F2BB
:102740007860C2F20000FDF798FD01200190FFE7DC
:102750000198062828DCFFE70498019A40F27C01E2
:10276000C2F2000151F83210884218D1FFE70199F6
:1027700040F27C00C2F2000000EBC100406870B182
:10278000FFE7019940F27C00C2F2000000EBC100BB
:10279000416840F27860C2F20000884704E0FFE739
:1027A000019801300190D3E706B080BD40F260503F
:1027B000C2F200007047000080B584B000F04EF80F
:1027C000684600230393036040F20C60C2F20000ED
:1027D00040F201214FF40022029200F0B9FC029A6B
:1027E000039B6846036040F23060C2F2000040F292
:1027F000032100F0ADFC029A039B6846036040F29F
:10280000E850C2F200004FF4017100F0A1FC029AFE
:10281000039B6846036040F25460C2F2000040F23D
:10282000052100F095FC029A039B6846036040F284
:102830001850C2F2000040F2062100F089FC029A12
:10284000039B6846036040F23C50C2F2000040F235
:10285000072100F07DFC04B080BD000080B582B08F
:10286000FFF7A4FF01900199002081F84400019A2C
:102870000021C4F220119164019908650199C8648E
:10288000019981F85400019988650199C8650199F9
:1028900081F86000019A012182F86210019981F8A3
:1028A0006100019981F86300019988670199486680
:1028B000019981F86800019981F86900019981F80E
:1028C0006A0002B080BD000080B582B00190FFE7D1
:1028D000FFE740F62400C2F20000006820B9FFE7DD
:1028E000012015F0DFFCF4E740F2C430C2F2000032
:1028F000007801280CD1FFE7FFF744FE40F2C43115
:10290000C2F2000102200870012015F0CBFCFFE7A5
:1029100040F2C430C2F20000007802280BD1FFE779
:10292000FFF78CFE40F2C431C2F2000101200870B2
:1029300015F0B8FCFFE7CBE780B588B0FFF736FFAE
:10294000079000F06DFE06900EF078FF05900EF0F7
:102950004FF80490FEF7BAF803900BF0F3F90290E9
:1029600008F03EFF019006988078079981F84400AE
:1029700006984068079988640198806907990865F6
:102980000198C0680799C864019890ED010AB1EEFA
:10299000400A079880ED190A40F67660C2F20000FE
:1029A0000078079981F868000598017800200029CF
:1029B000C8BF0120079981F869000398407D0799F5
:1029C00081F86A0008B080BDFFE7FEE784B08DF8AB
:1029D0000F000291ADF806209DF80F00014600910E
:1029E00023281DD80099DFE801F012131415161BD7
:1029F0001B1B1B1B1B1B1B1B1B1B1B1B1B1B1B1B27
:102A00001B1B1B1B1B1B1B1B1B1B1718191A08E06E
:102A100007E006E005E004E003E002E001E000E09A
:102A2000FFE7002004B070470020704780B582B0F7
:102A300042F25860C2F20000009041F6EC51C2F23E
:102A400000010022019211F0A5FA009841F2EC5128
:102A5000C2F2000111F084FA019802B080BD0000BA
:102A600080B584B0039002910398029909880BF015
:102A700037F9FEF72FFB039942F25860C2F20000CB
:102A8000019011F06DFA019811F014FA002004B0D1
:102A900080BD000083B0029001918DF803200020DA
:102AA0008DF802009DF9020003B0704780B586B032
:102AB0000490ADF80E1000208DF80D0042F2586021
:102AC000C2F20000D0F8BC0202900298D0F81402C2
:102AD00020B1FFE701208DF8170013E00499BDF83D
:102AE0000E2042F25860C2F20000019011F052FA3A
:102AF000019811F03DFB8DF80D009DF80D008DF84B
:102B00001700FFE79DF8170006B080BD81B0ADF853
:102B10000200BDF80200A0F5806000B201B070476D
:102B200080B542F6F810C2F2000002F0B9FA80BD9A
:102B300080B542F65820C2F2000002F0B1FA80BD22
:102B400080B542F69810C2F2000002F0A9FA80BDEA
:102B500080B542F6B820C2F2000002F0A1FA80BDB2
:102B600084B003900398006840F20741C4F2020168
:102B7000884206D8FFE740F60000C4F20200009049
:102B800005E040F62000C4F202000090FFE7009844
:102B900002900398007808384CF6CD41CCF6CC4131
:102BA000A0FB011000090190029803994A6C22F0E1
:102BB000030210448864039940F68000C4F20200C6
:102BC000C864019800F01F0101208840039908653E
:102BD00004B0704782B0019001980079009000998C
:102BE00040F6FC00C4F2020000EB81000199486548
:102BF000019940F64010C4F202008865009801383F
:102C000000F01F01012088400199C86502B070479B
:102C100084B003900291019200930398C16C006DFF
:102C200048600398406D28B1FFE70398816DC06D3F
:102C30004860FFE70398016C406C00F01F02012020
:102C4000904048600098039909684860039880683C
:102C5000102809D1FFE70198039909688860029854
:102C600003990968C86008E00298039909688860B8
:102C7000019803990968C860FFE704B07047000035
:102C800080B582B000F088F8019040F22870C2F25E
:102C90000000007808BBFFE740F22871C2F2000193
:102CA0000120087041F20400CEF20000006800909C
:102CB00000980199096A884205D2FFE70199C8691D
:102CC0000130C861FFE700980199086240F228715D
:102CD000C2F2000100200870FFE702B080BD0000D2
:102CE00080B584B08DED030A00F056F8029041F2F1
:102CF0000400CEF200000068019003980090FFE706
:102D000041F20400CEF2000000680199401A00EE82
:102D1000100AB8EE400A9DED001A029890ED042AC0
:102D2000B8EE422A21EE021AB4EE410AF1EE10FA90
:102D300001DAFFE7E4E704B080BD000080B584B0AD
:102D40008DED030A00F028F8029041F20400CEF263
:102D500000000068019003980090FFE741F2040032
:102D6000CEF2000000680199401A00EE100AB8EE99
:102D7000400A9DED001A029890ED052AB8EE422A0D
:102D800021EE021AB4EE410AF1EE10FA01DAFFE781
:102D9000E4E704B080BD000040F2F860C2F2000039
:102DA0007047000080B584B00390FFF7F5FF0290F4
:102DB00041F20400CEF200000068019001980399EE
:102DC0000968401A00EE100AB8EE400A029890ED29
:102DD000041AB8EE411A80EE010A8DED000A01983E
:102DE000039908609DED000A04B080BD80B582B0F3
:102DF000FFF7D2FF019000F063F8019890ED001A00
:102E000090ED010AB8EE411AB8EE400A9FED0B2A88
:102E100020EE020A30EE011A008900EE100AB8EE28
:102E2000C00A9FED072A20EE020A30EE010A8DED5E
:102E3000000A9DED000A02B080BD00BF6F12833A08
:102E4000BD37863580B582B00190FFF7A5FF0090B1
:102E50004EF6FC51CEF20001086840F08070086028
:102E600041F20401CEF200010020086041F20002AC
:102E7000CEF20002116841F001011160019944F2A3
:102E80004022C0F20F025143009A1161009A116969
:102E900044F6D353C1F26203A1FB033189095161A6
:102EA000009A11694DF68363C4F21B33A1FB033111
:102EB000890C91610099C8610099086202B080BDD7
:102EC00010B58CB0FFF768FF0B9041F20400CEF212
:102ED000000000680A90FFF7D3FE0B98C1690A98BA
:102EE000002302934FF0FF3C1A46E1FB0C020B99C2
:102EF000CA6288620B990A69886AC96AFDF788F90B
:102F0000029B099108900B98D0F810E0816AC06A82
:102F1000DDF820C0099AACFB0EC402FB0E42B1EBF7
:102F20000C0190410691079008980B99086006984B
:102F300007990B9A01925269FDF76AF90199029B70
:102F4000486006990798DDF82CC0DCF80420DCF80E
:102F500014C002FB0CF2891A60F100000491059084
:102F6000049805990B9A03929269FDF751F9039918
:102F700008810B9908684B684FF47A7200FB0230A5
:102F8000C8600CB010BD00007047000081B0EFF3C6
:102F9000108072B60090FFE7FEE7000080B542F6B1
:102FA0001830C2F2000002F04DFD80BD80B542F63F
:102FB0007C30C2F2000002F045FD80BD83B002907B
:102FC0004AF20040C4F2000000900298006846F601
:102FD0000001C4F20001884205D1FFE7009800F526
:102FE00054700090FFE70298006846F60041C4F272
:102FF0000001884205D1FFE7009800F5D4600090F9
:10300000FFE700980299086402980068D0F88000F1
:1030100020F4F810029A1168526B40EA0240C1F89D
:103020008000009870300299486402980068D0F8D7
:10303000800020F07060029A1168926B40EA026092
:10304000C1F880000098B03002998864009800F5BB
:10305000C4700299C864009800F518700299086558
:10306000009800F51E700299486500980190FFE7EE
:103070000198009901F55471884208D2FFE701993F
:1030800000200860FFE7019804300190F0E703B0EA
:103090007047000088B00790069105920493069847
:1030A000406848B9FFE706980168826800691043E4
:1030B00040EA8140039009E006980168826800694F
:1030C0001043084340F080400390FFE70698D0F893
:1030D00020C0C16842698369C06940EA0C60184336
:1030E0001043084302900798406D049901EBC10119
:1030F00000EBC10001900398019908600198043029
:103100000190029801990860019804300190002014
:103110000090FFE700980699CA894AF2DC21C0F6C0
:103120000101895C88420DD2FFE70598009940585B
:1031300001990860019804300190FFE7009804307D
:103140000090E7E708B0704781B00090FFE7FEE726
:1031500084B0DDF810C003900291019200930298B0
:10316000039908600298B0F5006F05D3FFE7039953
:103170004FF08040486003E0039900204860FFE77B
:103180000399002088600199039AD160039908612E
:103190000099039A51610499039A91610399C86156
:1031A0000399086204B0704780B58AB00990002086
:1031B0000390049002210591012106914FF4806152
:1031C00007910890099803A902F0B6FA20B1FFE729
:1031D0000298FFF7B9FFFFE70998694600230B60E3
:1031E0000222114602F004FB20B1FFE70298FFF72C
:1031F000ABFFFFE7099802F0E9FF20B1FFE7029873
:10320000FFF7A2FFFFE709980121002202F040F931
:1032100020B1FFE70298FFF797FFFFE709984FF407
:103220000021002202F034F920B1FFE70298FFF7F5
:103230008BFFFFE70AB080BD80B584B00390029198
:10324000019203980299019A02F028FAB8B1FFE7B7
:103250000398006E800500280CD5FFE7039802F064
:10326000DBFF039801680320C1F8C400039802F053
:10327000ADFF03E00098FFF767FFFFE7FFE704B04B
:1032800080BD000080B584B08DED020A019003F08E
:1032900031FA00EE100AB8EE400A019890ED021AD9
:1032A00030EE410ABCEEC00A8DED000A03F022FAAE
:1032B00000EE100AB8EE400A019880ED020A01986B
:1032C00090ED010AB5EE400AF1EE10FA47DDFFE796
:1032D000019890ED010AB7EE001AB4EE410AF1EE42
:1032E00010FA3CDCFFE701989DED022A90ED010AFF
:1032F00090ED053AB7EE001A31EE401A21EE031AAE
:1033000020EE020A30EE010A80ED040A01990869F4
:1033100048610098A0B1FFE7019890ED010A9DED8A
:10332000001AB8EE411A9FED112A21EE021A9FED04
:10333000102A21EE021A80EE010A80ED000AFFE752
:103340009DED000AB8EE401A9FED0A0A80EE010AD0
:10335000019880ED030A01980069039002E0029849
:103360000390FFE79DED030A04B080BDDB0FC94069
:103370006F12833A00007A4482B08DED010A00900A
:1033800001980099486000990020886002B0704759
:1033900080B586B00DF02CFB0590FDF797FB0490EF
:1033A000059880780146039104284ED80399DFE8F8
:1033B00001F0033E301A030000200290FDF7CCFB21
:1033C00002980499C8750598407820B1FFE701205C
:1033D00000F046F903E0002000F042F9FFE7012089
:1033E0000DF0A4F932E00320FDF7B6FB04990020AC
:1033F000C8750598407820B1FFE7012000F030F94A
:1034000003E0002000F02CF9FFE701200DF08EF919
:103410001CE00220FDF7A0FB049901200190C87573
:10342000032000F01DF901980DF080F90EE0012055
:103430000090FDF791FB00980499C875022000F0F8
:103440000FF900980DF072F900E0FFE706B080BDBB
:1034500080B584B003900291039991ED010ABDEE0D
:10346000C00A10EE100A488202980178407840EABB
:10347000012000B200EE100AB8EEC00A039880EDF9
:10348000010A02988178C07840EA012000B200EE7B
:10349000100AB8EEC00A039880ED020A029801797A
:1034A000407940EA012000B200EE100AB8EEC00AEE
:1034B000039880ED030A02988079039908740398B1
:1034C00090ED010AB0F9120001EE100AB8EEC11A2F
:1034D00030EE410ABDEEC00A8DED010A01984EF6AC
:1034E0008321CFF6FF71884205DCFFE70399486925
:1034F000013048610BE0019841F27D51884205DBC3
:10350000FFE70399486901384861FFE7FFE703983F
:1035100090ED011A90ED050AB8EEC00A9FED0E2A53
:1035200081EE023A9FED0D1A23EE013A20EE010AD8
:1035300030EE030A80ED070A039890ED010A80EE51
:10354000020A20EE010A80ED060A03F0D3F803997F
:10355000086204B080BD00BF000000460000B44314
:1035600080B582B0019003F0C5F80199C860019957
:103570004868098903F090F801990870019800786B
:1035800002B080BD80B582B0019001994868098978
:10359000002203F099F80198FFF7E2FF0199087003
:1035A00002B080BD80B582B0019001994868098958
:1035B000012203F089F80198FFF7D2FF0199087002
:1035C00002B080BD80B584B047F29050C1F6FF7064
:1035D0000068039047F29450C1F6FF7000680290B3
:1035E00047F29850C1F6FF70006801900199039866
:1035F00008440390039888B1FFE7039840F29431A0
:10360000C2F2000100910231082208F0F7FA009995
:1036100002981231042208F0F1FAFFE704B080BDED
:1036200040F62C00C2F200007047000080B582B066
:10363000FFF7F6FF019001990020C87001994870CA
:10364000019908700199887040F67441C2F2000136
:103650000020C4F27A50486000F01CF802B080BD2F
:1036600080B582B08DF80700FFF7DAFF009000996F
:10367000087848709DF80700009908700098017854
:103680004078884204D0FFE700990120C870FFE726
:1036900002B080BD80B586B0FFF7C2FF05900598E7
:1036A0000C30002101919FED1F0AF1EE040ADFEDBD
:1036B0001E2ACDED022A9FED1D3ADFED1D3ACDED1C
:1036C000033AF7EE005ACDED045AB0EE621AF0EE6E
:1036D000621AB0EE622AB0EE654AF0EE654AB0EECC
:1036E000655A0BF0ADFD0199DDED022ADDED033ADF
:1036F000DDED045A0598C4309FED0E0ADFED0E0A89
:103700009FED0E3AB0EE621AF0EE621AB0EE622A47
:10371000B0EE654AF0EE654AB0EE655A0BF090FDEA
:1037200006B080BD00803B460000000000007A44E7
:103730000060EA46CDCC4C3E6F12033A000048438D
:1037400080B584B0FFF76CFF039008F049F8029051
:103750000398C078012804D1FFE703990020C870BE
:10376000FFE7039901F1C40091ED020AB1EE400AAE
:103770000BF0C4FD0398C430029991ED010AB1EE3B
:10378000400A0BF0B1FD039800F10C010191C43027
:103790000BF024FB01980BF0B1FD03980C3002995B
:1037A00091ED040AB1EE400A0BF09EFD03980C3037
:1037B0000BF014FB40F67440C2F200000AF03EFF2A
:1037C00040F6A040C2F200000AF0BEFD039890ED62
:1037D000020AB1EE400A43F25410C2F2000080ED3A
:1037E000000A029890ED010AB1EE400A43F250102F
:1037F000C2F2000080ED000A04B080BD80B582B046
:103800000190FFE7FFE740F62400C2F200000068E5
:1038100020B9FFE7012014F045FDF4E7FFF790FF22
:1038200000F004F8012014F03DFDEBE780B582B014
:10383000FFF7F6FE019001980078014600910328F9
:1038400014D80099DFE801F002060A0E0199002061
:1038500088700BE001990120887007E0019902202F
:10386000887003E0019903208870FFE702B080BDF3
:1038700080B586B00490039100200190FFE7049882
:1038800090F85800012804D1FFE702208DF81700B6
:103890005AE00499012081F85800FFE7FFE70498F7
:1038A000FDF73AF88DF80B009DF80B00D8BBFFE749
:1038B0000498C06D40F0020020F488500499C86557
:1038C00004980068039909F0FFFBFFE7049800687B
:1038D00009F0CEFAF0B1FFE70198013001900198AC
:1038E0004DF60261C0F20401884212D3FFE704984A
:1038F000C06D40F0100020F002000499C865FFE799
:103900000499002081F85800FFE701208DF8170086
:103910001AE0DBE70498C06D40F0010020F00200DF
:103920000499C86505E00499C86D40F01000C865A9
:10393000FFE7FFE70499002081F85800FFE79DF8B2
:103940000B008DF81700FFE79DF8170006B080BD4B
:1039500081B0009001B0704781B0009001B0704715
:1039600081B0009001B0704781B0009001B0704705
:1039700081B0009001B0704780B5C4B0249023910D
:1039800000208DF88B001F902398C0680021C4F29E
:103990007F01884201D0FFE700E0FFE7FFE72498BE
:1039A00090F85800012805D1FFE702208DF8970014
:1039B00000F059BC2499012081F85800FFE7FFE787
:1039C0002498006809F07CFA002840F03884FFE76A
:1039D0002498006823990A68496809F085FA2498B0
:1039E000006809F06DFA1E902498006809F02CFA1E
:1039F0001D901E98002840F0B881FFE71D98002810
:103A000040F0B381FFE723988068B0F1004F0ED1FA
:103A1000FFE72498006823990968002209F090FACA
:103A2000249800684FF0004109F040FB0CE0249816
:103A30000068239A1168926809F082FA2498006855
:103A4000002109F033FBFFE72398406924990968B6
:103A5000C96801F0180189088840219023980069FD
:103A600004281CD0FFE72498006823990A68096994
:103A7000219B09F0C1FA24980068239A1169926980
:103A800009F0ECFA24980068239A1169127F013A30
:103A9000B2FA82F25209520609F0CCFA64E1249893
:103AA0000068002109F0C0F9400348B9FFE72498F5
:103AB0000068002109F0B8F9C0F384601C9018E098
:103AC00024980068002109F0AFF990FAA0F0429024
:103AD000429820B9FFE720208DF80F0105E04298B9
:103AE000B0FA80F08DF80F01FFE79DF80F011C90F0
:103AF000FFE71C981B9023980068400330B9FFE74C
:103B000023980068C0F384601A9015E02398006839
:103B100090FAA0F04090409820B9FFE720208DF85F
:103B2000070105E04098B0FA80F08DF80701FFE743
:103B30009DF807011A90FFE71B981A99884207D150
:103B4000FFE7249800680022114609F09BFAFFE77E
:103B500024980068012109F067F9400348B9FFE79C
:103B600024980068012109F05FF9C0F3846019907E
:103B700018E024980068012109F056F990FAA0F0A5
:103B80003E903E9820B9FFE720208DF8FF0005E029
:103B90003E98B0FA80F08DF8FF00FFE79DF8FF0037
:103BA0001990FFE71998189023980068400330B9DE
:103BB000FFE723980068C0F38460179015E023980E
:103BC000006890FAA0F03C903C9820B9FFE72020D4
:103BD0008DF8F70005E03C98B0FA80F08DF8F7001A
:103BE000FFE79DF8F7001790FFE7189817998842AC
:103BF00007D1FFE7249800680121002209F042FA6A
:103C0000FFE724980068022109F00EF9400348B943
:103C1000FFE724980068022109F006F9C0F38460E8
:103C2000169018E024980068022109F0FDF890FA37
:103C3000A0F03A903A9820B9FFE720208DF8EF00E5
:103C400005E03A98B0FA80F08DF8EF00FFE79DF8B4
:103C5000EF001690FFE71698159023980068400330
:103C600030B9FFE723980068C0F38460149015E032
:103C70002398006890FAA0F03890389820B9FFE7B0
:103C800020208DF8E70005E03898B0FA80F08DF834
:103C9000E700FFE79DF8E7001490FFE715981499F7
:103CA000884207D1FFE7249800680221002209F02A
:103CB000E9F9FFE724980068032109F0B5F840030B
:103CC00048B9FFE724980068032109F0ADF8C0F374
:103CD0008460139018E024980068032109F0A4F888
:103CE00090FAA0F03690369820B9FFE720208DF8A2
:103CF000DF0005E03698B0FA80F08DF8DF00FFE7CE
:103D00009DF8DF001390FFE7139812902398006846
:103D1000400330B9FFE723980068C0F38460119036
:103D200015E02398006890FAA0F03490349820B9F8
:103D3000FFE720208DF8D70005E03498B0FA80F036
:103D40008DF8D700FFE79DF8D7001190FFE7129894
:103D50001199884207D1FFE72498006803210022C7
:103D600009F090F9FFE7FFE7FFE72498006809F002
:103D700097F8002840F04481FFE724980068239AD0
:103D80001168D26809F0F8F82398C0680021C4F2DD
:103D90007F01884240F03381FFE72498006810904B
:103DA00023980068400330B9FFE723980068C0F308
:103DB00084600F9015E02398006890FAA0F032908C
:103DC000329820B9FFE720208DF8CF0005E0329827
:103DD000B0FA80F08DF8CF00FFE79DF8CF000F908C
:103DE000FFE70F98013000F01F0009287DD8FFE79A
:103DF00023980068400330B9FFE723980068C0F3B8
:103E000084600E9015E02398006890FAA0F030903E
:103E1000309820B9FFE720208DF8C70005E03098E2
:103E2000B0FA80F08DF8C700FFE79DF8C7000E904C
:103E3000FFE70E98013000F01F0080060D902398D8
:103E40000068400330B9FFE723980068C0F384603E
:103E50000C9015E02398006890FAA0F02E902E9810
:103E600020B9FFE720208DF8BF0005E02E98B0FABA
:103E700080F08DF8BF00FFE79DF8BF000C90FFE7D2
:103E80000D980C99013101F01F0201219140084366
:103E90000B9023980068400330B9FFE7239800682F
:103EA000C0F384600A9015E02398006890FAA0F0AF
:103EB0002C902C9820B9FFE720208DF8B70005E062
:103EC0002C98B0FA80F08DF8B700FFE79DF8B700A6
:103ED0000A90FFE70B980A99013101F01F0101EBED
:103EE000410140EA0150099082E0239800684003B4
:103EF00030B9FFE723980068C0F38460089015E0AC
:103F00002398006890FAA0F02A902A9820B9FFE739
:103F100020208DF8AF0005E02A98B0FA80F08DF8E7
:103F2000AF00FFE79DF8AF000890FFE70898013069
:103F300000F01F008006079023980068400330B906
:103F4000FFE723980068C0F38460069015E023988B
:103F5000006890FAA0F02890289820B9FFE7202068
:103F60008DF8A70005E02898B0FA80F08DF8A7003A
:103F7000FFE79DF8A7000690FFE707980699013133
:103F800001F01F0201219140084305902398006829
:103F9000400330B9FFE723980068C0F384600490C1
:103FA00015E02398006890FAA0F02690269820B992
:103FB000FFE720208DF89F0005E02698B0FA80F0FA
:103FC0008DF89F00FFE79DF89F000490FFE705999B
:103FD0000498013000F01F0000EB40020020CFF6F3
:103FE000206000EB0250084340F000700990FFE7AA
:103FF00010980999239A926808F0A2FFFFE7FFE75B
:104000002398408848F20801084200F01781FFE732
:10401000249801680120B1F1A04F03900CD0FFE774
:10402000249800684FF60071CAF6FF710844B0FA90
:1040300080F040090390FFE70398C10740F2007049
:10404000C5F2000000291CBF40F20030C5F200009C
:1040500008F0D2FE20902398006840F20001CCF2D4
:104060002131884208D0FFE7239800681021C9F267
:10407000C00188425AD1FFE79DF88200000600285F
:1040800054D4FFE724980068B0F1A04F09D0FFE7AF
:104090002498006840F20061C5F20001884244D1D2
:1040A000FFE7249801680120B1F1A04F02900CD0E5
:1040B000FFE7249800684FF60071CAF6FF710844C4
:1040C000B0FA80F040090290FFE70298C10740F281
:1040D0000070C5F2000000291CBF40F20030C5F29C
:1040E0000000209941F4000108F078FF40F24020E0
:1040F000C2F2000000684FEA901042F66351C0F22D
:104100003E51A0FB01104FEA901000EB40014FF030
:104110000C0000EB81001F90FFE71F9820B1FFE724
:104120001F9801381F90F8E7FFE786E023980068A2
:104130000021CCF2527188423ED1FFE79DF8830006
:10414000C007C8BBFFE72498006840F20011C5F221
:104150000001884209D1FFE72498006840F200512D
:10416000C5F20001884226D0FFE7249801680120AB
:10417000B1F1A04F01900CD0FFE7249800684FF6F2
:104180000071CAF6FF710844B0FA80F0400901904E
:10419000FFE70198C10740F20070C5F20000002956
:1041A0001CBF40F20030C5F20000209941F0807140
:1041B00008F014FFFFE73FE0239800680021CCF6E9
:1041C0008431884236D1FFE79DF8820040060028FE
:1041D00030D4FFE72498006840F20011C5F20001D6
:1041E000884226D0FFE7249801680120B1F1A04F52
:1041F00000900CD0FFE7249800684FF60071CAF6D3
:10420000FF710844B0FA80F040090090FFE7009881
:10421000C10740F20070C5F2000000291CBF40F247
:104220000030C5F20000209941F4800108F0D6FE6C
:10423000FFE700E0FFE7FFE7FFE7FFE708E024997B
:10424000C86D40F02000C86501208DF88B00FFE7A5
:10425000FFE72499002081F85800FFE79DF88B00C4
:104260008DF89700FFE79DF8970044B080BD0000EF
:1042700081B0009001B0704781B0009001B07047EC
:1042800081B0009001B0704780B594B013900020C9
:1042900012901398006800681190139800684068A5
:1042A0001090139801680120B1F1A04F0A900CD032
:1042B000FFE7139800684FF60071CAF6FF710844D3
:1042C000B0FA80F040090A90FFE70A98C10740F26F
:1042D0000070C5F2000000291CBF40F20030C5F29A
:1042E000000008F099FD0B909DF844004FEA8070A3
:1042F00000281AD5FFE79DF840008007002814D554
:10430000FFE71398C06DC006002806D4FFE7139995
:10431000C86D40F40060C865FFE71398FFF718FB0D
:104320001398016802200860FFE79DF844004007E9
:10433000002806D5FFE7109800F0040004280ED0EE
:10434000FFE79DF844000007002840F1C080FFE728
:104350009DF840000007002840F1B980FFE713985E
:10436000C06DC006002806D4FFE71399C86D40F45D
:104370000070C865FFE71398006808F0A9FD0028E1
:1043800000F09D80FFE71398006840F20011C5F22D
:104390000001884204D1FFE74FF0A040099015E0EA
:1043A0001398006840F20051C5F20001884206D11E
:1043B000FFE740F20040C5F20000089003E01398C8
:1043C00000680890FFE708980990FFE7099813999B
:1043D000096888420BD0FFE70B9840B1FFE70B98C4
:1043E000052804D0FFE70B98092805D1FFE71398AB
:1043F0000068C0680D9028E01398006840F2001132
:10440000C5F20001884204D1FFE74FF0A0400790B9
:1044100015E01398006840F20051C5F2000188428F
:1044200006D1FFE740F20040C5F20000069003E02D
:10443000139800680690FFE706980790FFE7079833
:104440000C900C98C0680D90FFE70D9800F4005098
:10445000B0F5005F32D0FFE71398006800680007EE
:1044600000282AD5FFE71398006808F029FDC0B995
:10447000FFE713980168486820F00C004860139922
:10448000C86D20F48070C8651398C06DC004002802
:1044900006D4FFE71399C86D40F00100C865FFE737
:1044A0000AE01399C86D40F01000C8651399086EB2
:1044B00040F001000866FFE7FFE7FFE7FFE713981A
:1044C000FFF7D6FE139801680C200860FFE79DF8FF
:1044D00044008006002806D5FFE7109800F0200071
:1044E00020280ED0FFE79DF844004006002840F148
:1044F000D680FFE79DF840004006002840F1CF80BD
:10450000FFE71398C06DC006002806D4FFE7139993
:10451000C86D40F40050C865FFE71398006808F0C4
:104520009BFC0F901398006808F0D2FC0E90139833
:10453000006840F20011C5F20001884204D1FFE793
:104540004FF0A040059015E01398006840F200512C
:10455000C5F20001884206D1FFE740F20040C5F2F3
:104560000000049003E0139800680490FFE70498AB
:104570000590FFE705981399096888420BD0FFE77B
:104580000B9840B1FFE70B98062804D0FFE70B9883
:10459000072805D1FFE713980068C0680D9028E050
:1045A0001398006840F20011C5F20001884204D15E
:1045B000FFE74FF0A040039015E01398006840F229
:1045C0000051C5F20001884206D1FFE740F20040E9
:1045D000C5F20000029003E0139800680290FFE724
:1045E00002980390FFE703980C900C98C0680D9018
:1045F000FFE70F9800284AD0FFE79DF837008007B3
:1046000000280AD5FFE70E9800283FD0FFE79DF865
:1046100035008006002839D4FFE713980068006849
:104620004006002831D5FFE79DF8360080060028B7
:104630002AD4FFE71398006808F006FCC0B9FFE72A
:1046400013980168486820F0600048601399C86DAD
:1046500020F48050C8651398C06DC005002806D4AA
:10466000FFE71399C86D40F00100C865FFE70AE055
:104670001399C86D40F01000C8651399086E40F09A
:1046800001000866FFE7FFE7FFE7FFE7FFE7139892
:10469000FFF762F91398016860200860FFE79DF852
:1046A00044000006002813D5FFE79DF840000006EF
:1046B00000280DD5FFE71399C86D40F48030C86518
:1046C000139800F0ADFA1398016880200860FFE7A6
:1046D0009DF84500C00798B1FFE79DF84100C0076D
:1046E00070B1FFE71399C86D40F40030C8651398A6
:1046F000FFF73AF9139801684FF480700860FFE7FC
:104700009DF845008007002814D5FFE79DF841007B
:10471000800700280ED5FFE71399C86D40F480206C
:10472000C8651398FFF724F9139801684FF40070D7
:104730000860FFE79DF84400C00600285AD5FFE74F
:104740009DF84000C006002854D5FFE71398C06BC1
:1047500018B9FFE70120129035E00B9840B3FFE74E
:10476000139801680120B1F1A04F01900CD0FFE730
:10477000139800684FF60071CAF6FF710844B0FA4A
:1047800080F040090190FFE70198C10740F20070F6
:10479000C5F2000000291CBF40F20030C5F2000045
:1047A00008F032FB18B1FFE701201290FFE709E0A3
:1047B00013980068C068C00718B1FFE70120129085
:1047C000FFE7FFE7FFE7129801280ED1FFE71399F3
:1047D000C86D40F48060C8651399086E40F002000F
:1047E00008661398FFF74CFDFFE713980168102047
:1047F0000860FFE79DF845004007002819D5FFE74E
:104800009DF841004007002813D5FFE71399C86DB4
:1048100040F48040C8651399086E40F008000866AF
:10482000139801684FF4806008601398FFF798F8B8
:10483000FFE714B080BD000080B58EB00C90002062
:104840008DF82F0008900C9820B9FFE701208DF813
:104850003700E1E10C98406940B1FFE70C9890F80F
:104860002400012801D1FFE7FFE7FFE70C98C06DA6
:1048700050B9FFE70C9800F0D7F90C9900200866B2
:104880000C9981F85800FFE70C98006808F0F8FAD6
:1048900028B1FFE70C98006808F084FAFFE70C984D
:1048A000006808F005FBF0B9FFE70C98006808F015
:1048B00093FA40F24020C2F200000068800942F6FC
:1048C0006351C0F23E51A0FB01108109022000EBB0
:1048D00041000890FFE7089820B1FFE708980138E9
:1048E0000890F8E7FFE70C98006808F0E1FA70B963
:1048F000FFE70C99C86D40F01000C8650C99086E70
:1049000040F00100086601208DF82F00FFE70C98A9
:10491000006808F0D5FA09900C98C06DC006002810
:1049200000F16C81FFE70998002840F06781FFE7FC
:104930000C98C06D40F0020020F480700C99C8659E
:104940000C98006808F0ACFA00287CD1FFE70C98BE
:1049500001680120B1F1A04F05900CD0FFE70C9841
:1049600000684FF60071CAF6FF710844B0FA80F093
:1049700040090590FFE70598C10740F20070C5F2B5
:10498000000000291CBF40F20030C5F2000040F2D8
:104990000031C5F20001884210D1FFE74FF0A0407E
:1049A00008F07EFA039040F20010C5F2000008F013
:1049B00077FA01460398084304901BE040F2004058
:1049C000C5F2000008F06CFA019040F20050C5F208
:1049D000000008F065FA014601980843029040F291
:1049E0000060C5F2000008F05BFA01460298084337
:1049F0000490FFE7049828BBFFE70C9801680120AA
:104A0000B1F1A04F00900CD0FFE70C9800684FF672
:104A10000071CAF6FF710844B0FA80F040090090B6
:104A2000FFE70098C10740F20070C5F200000029BE
:104A30001CBF40F20030C5F200000C99496808F034
:104A4000BFFAFFE7FFE70C994A7FC86B40EA4230A4
:104A50008A68CB681843104391F8241040EA01405B
:104A60000A900C9890F8240001280BD1FFE70C98CD
:104A7000816A0020CFF6FE7000EB41410A9808439E
:104A80000A90FFE70C98C06A50B1FFE70C99C86A1A
:104A9000096B00F4787001430A9808430A90FFE715
:104AA0000C980068C06844F20701CFF6F071084026
:104AB0000A9908430C990968C8600C980068006955
:104AC00020F040600C9A1168526B104308610C98FA
:104AD000006808F0F5F907900C98006808F0B4F940
:104AE00006900798002868D1FFE70698002864D14F
:104AF000FFE70C99087F91F83810800340EA4100E5
:104B00000A900C980068C06844F2020188430A9930
:104B100008430C990968C8600C980069A0B1FFE7C8
:104B20000C980168086940F4803008610C980068AE
:104B3000D0F8C00043F6FF7188430C9A11681269DF
:104B40001043C1F8C00011E00C980168086920F416
:104B5000803008610C980068D0F8C00043F6FF71FF
:104B600088430C990968C1F8C000FFE70C9890F8D9
:104B70004000012819D1FFE70C980068006940F255
:104B8000FD7120EA01020C9B1968586CD3F848E0CB
:104B9000D3F84CC040EA0E0040EA0C001B6D1843ED
:104BA000104340F00100086106E00C9801680869B4
:104BB00020F001000861FFE7FFE70C984069012839
:104BC0000CD1FFE70C980068006B20F00F000C9AE6
:104BD0001168126A013A1043086306E00C980168F4
:104BE000086B20F00F000863FFE70C98C06D40F0E1
:104BF000010020F002000C99C86508E00C99C86D0E
:104C000040F01000C86501208DF82F00FFE79DF8E7
:104C10002F008DF83700FFE79DF837000EB080BDFC
:104C200081B0009001B0704780B5A0B01F90002007
:104C30001E901D901C901B901A9005A85421FBF704
:104C400035FB1F98006840F20011C5F20001884250
:104C50006ED1FFE74FF4004005904FF000501690E2
:104C600005A803F0DDF918B1FFE7FEF78FF9FFE7BC
:104C7000FFE741F24C00C4F20200016841F4005128
:104C80000160006800F4005004900498FFE7FFE71B
:104C900041F24C00C4F20200016841F002010160DF
:104CA000006800F0020003900398FFE704201A90C8
:104CB00003201B90002001901C9040F20040C4F69D
:104CC00000001AA901F034FB019942F69810C2F2D3
:104CD000000002903022C4F20202026024224260EC
:104CE0008160C160802202614FF4007242614FF422
:104CF000006282612022C261016200F07DFA18B177
:104D0000FFE7FEF743F9FFE7FFE71F9842F6981128
:104D1000C2F2000141651F988862FFE712200090EF
:104D20000521002201F0C2FD009801F0B5FDFFE76A
:104D300020B080BD80B58AB008900791069208988F
:104D400001680120B1F1A04F03900CD0FFE7089853
:104D500000684FF60071CAF6FF710844B0FA80F09F
:104D600040090390FFE70398C10740F20070C5F2C5
:104D7000000000291CBF40F20030C5F2000008F01E
:104D80004BF804900898006808F09AF8002840F062
:104D9000CA80FFE7FFE7089890F85800012804D17F
:104DA000FFE702208DF82700C6E00899012081F86E
:104DB0005800FFE7FFE70898006840F20061C5F27D
:104DC000000188420CD0FFE7049848B1FFE704983F
:104DD000052805D0FFE70498092840F09980FFE7EF
:104DE0000898FBF7FBFD8DF817009DF817000028C9
:104DF00040F08680FFE70898C06D40F4807040F670
:104E0000016188430899C8650898006840F200115C
:104E1000C5F20001884204D1FFE74FF0A0400290A4
:104E200015E00898006840F20051C5F20001884280
:104E300006D1FFE740F20040C5F20000019003E018
:104E4000089800680190FFE701980290FFE7029838
:104E500008990968884203D0FFE7049830B9FFE752
:104E60000899C86D20F48010C865FFE70898C06DE8
:104E7000C004002806D5FFE70899086E20F0060058
:104E8000086603E0089900200866FFE70898416D6E
:104E900040F2C170C0F60000C8620898416D40F64B
:104EA000C100C0F6000008630898416D40F6950007
:104EB000C0F600004863089801681C200860FFE7FE
:104EC0000899002081F85800FFE7089801684868B1
:104ED00040F01000486008980168C86840F0010080
:104EE000C86008980168406D4031079A069B00F041
:104EF0002FFA8DF817000898006808F013F806E0FC
:104F0000FFE70899002081F85800FFE7FFE709E074
:104F100001208DF81700FFE70899002081F858005C
:104F2000FFE7FFE703E002208DF81700FFE79DF899
:104F300017008DF82700FFE79DF827000AB080BD15
:104F400082B0019000208DF80300019890F82500B0
:104F5000022807D0FFE701990420C86301208DF8DB
:104F600003002DE001980168086820F00E00086039
:104F70000198816C086820F48070086001980168CD
:104F8000086820F0010008600198016C406C00F096
:104F90001F020120904048600198C16C006D48607C
:104FA0000198406D58B1FFE70198416D086820F401
:104FB000807008600198816DC06D4860FFE7FFE771
:104FC0000199012081F82500FFE70199002081F86F
:104FD0002400FFE79DF8030002B0704780B582B05F
:104FE000019000208DF80300019890F82500022818
:104FF00011D0FFE701990420C8630199012081F8CD
:105000002500FFE70199002081F82400FFE7012037
:105010008DF803003FE001980168086820F00E0059
:10502000086001980168086820F001000860019894
:10503000816C086820F4807008600198016C406CF5
:1050400000F01F020120904048600198C16C006D83
:1050500048600198406D58B1FFE70198416D0868BC
:1050600020F4807008600198816DC06D4860FFE792
:105070000199012081F82500FFE70199002081F8BE
:105080002400FFE70198806B20B1FFE70198816B56
:105090008847FFE7FFE79DF8030002B080BD0000EE
:1050A00080B584B003900398006C00680290039868
:1050B00000680068019002980399496C01F01F0193
:1050C000C8404007002825D5FFE79DF804004007A9
:1050D00000281FD5FFE703980068006880060028B5
:1050E00007D4FFE703980168086820F0040008600F
:1050F000FFE70398016C406C00F01F020420904011
:1051000048600398006B20B1FFE70398016B884764
:10511000FFE76EE002980399496C01F01F01C84057
:10512000800700282FD5FFE79DF80400800700289E
:1051300029D5FFE7039800680068800600280BD493
:10514000FFE703980168086820F00A0008600399E7
:10515000012081F82500FFE70398016C406C00F006
:105160001F02022090404860FFE70399002081F869
:105170002400FFE70398C06A20B1FFE70398C16AE3
:105180008847FFE734E002980399496C01F01F015A
:10519000C8400007002829D5FFE79DF80400000754
:1051A000002823D5FFE703980168086820F00E0067
:1051B00008600398026C406C00F01F01012000FAA7
:1051C00001F151600399C863039981F82500FFE755
:1051D0000399002081F82400FFE70398406B20B179
:1051E000FFE70398416B8847FFE700E0FFE7FFE731
:1051F000FFE704B080BD000080B584B00290029843
:1052000020B9FFE701208DF80F009CE002980068AC
:1052100040F20741C4F20201884218D8FFE7029920
:1052200008684FF6F872CBF6FD7210444CF6CD428A
:10523000CCF6CC42A0FB02026FF0030000EA920021
:10524000486402990020C4F20200086418E0029940
:1052500008684FF6F832CBF6FD7210444CF6CD429A
:10526000CCF6CC42A0FB02026FF0030000EA9200F1
:105270004864029940F20040C4F202000864FFE76B
:105280000299022081F825000298006800680190C8
:10529000019847F6F0718843019002998868D1F827
:1052A0000CC00B694A6940EA0C00184310438A6934
:1052B0001043CA691043096A0143019808430190E9
:1052C00001980299096808600298FDF749FC029864
:1052D0008068B0F5804F04D1FFE702990020486054
:1052E000FFE702990879896C08600298C16C006D2B
:1052F00048600298406888B1FFE702984068042837
:105300000CD8FFE70298FDF765FC0298416D00207C
:1053100008600298816DC06D486007E00299002026
:105320004865029988650299C865FFE702990020DF
:10533000C863029A012182F82510029981F824009D
:105340008DF80F00FFE79DF80F0004B080BD00004E
:1053500080B586B0049003910292019300208DF8ED
:105360000300FFE7049890F82400012804D1FFE728
:1053700002208DF8170065E00499012081F82400CF
:10538000FFE7FFE7049890F8250001284BD1FFE7DD
:105390000499022081F8250004990020C86304982C
:1053A0000168086820F00100086004980399029AD7
:1053B000019BFDF72DFC0498006B38B1FFE70498C2
:1053C0000168086840F00E0008600CE0049801686D
:1053D000086820F00400086004980168086840F03C
:1053E0000A000860FFE70498806C0068C00300288A
:1053F00007D5FFE70498816C086840F48070086066
:10540000FFE70498406D38B1FFE70498416D0868E4
:1054100040F480700860FFE704980168086840F075
:105420000100086009E0FFE70499002081F82400EA
:10543000FFE702208DF80300FFE79DF803008DF8D9
:105440001700FFE79DF8170006B080BD80B584B057
:10545000039001F04FF902900398019001980130F8
:1054600048B1FFE740F2C830C2F20000016801987D
:1054700008440190FFE7FFE701F03CF90299401A68
:105480000199884201D2FFE7F6E704B080BD000031
:1054900086B0049003910292049890F85C008DF815
:1054A0000700BDF80C0010F4C07F01D0FFE7FFE754
:1054B0009DF80700012806D0FFE79DF807000228A5
:1054C00040F0DE80FFE704980068806D00909DF852
:1054D0000C00400730B1FFE79DF80000C00700282E
:1054E00047D0FFE79DF80C0010F0380F06D0FFE71B
:1054F0009DF80000800700283BD5FFE7BDF80C00B1
:1055000010F4E07F06D0FFE79DF800004007002878
:105510002FD5FFE79DF80D0010F01E0F06D0FFE716
:105520009DF800000007002823D5FFE79DF80D0037
:1055300010F0E00F06D0FFE79DF80000C00600283D
:1055400017D5FFE79DF80E00800730B1FFE79DF803
:105550000000800600280CD5FFE79DF80E0010F033
:10556000FC0F0DD0FFE79DF800004006002807D48F
:10557000FFE704980168C86D40F00100C865FFE7C7
:105580009DF80C00400730B1FFE79DF80000C00710
:10559000002847D1FFE79DF80C0010F0380F06D027
:1055A000FFE79DF80000800700283BD4FFE7BDF827
:1055B0000C0010F4E07F06D0FFE79DF800004007E4
:1055C00000282FD4FFE79DF80D0010F01E0F06D025
:1055D000FFE79DF800000007002823D4FFE79DF8AF
:1055E0000D0010F0E00F06D0FFE79DF80000C006A8
:1055F000002817D4FFE79DF80E00800730B1FFE7C1
:105600009DF80000800600280CD4FFE79DF80E00EE
:1056100010F0FC0F0DD0FFE79DF8000040060028B9
:1056200007D5FFE704980168C86D40F00200C8651F
:10563000FFE79DF80C000006002809D5FFE7029A55
:1056400004980168D1F8DC001043C1F8DC00FFE7E2
:105650009DF80D00C00748B1FFE7029A0498016861
:10566000D1F8E0001043C1F8E000FFE7039A049886
:105670000168486D1043486500208DF8170008E068
:105680000499086E40F00200086601208DF81700AA
:10569000FFE79DF8170006B07047000080B586B0A0
:1056A0000490039102920398406808B9FFE700E074
:1056B000FFE7049890F85C0002282FD1FFE70498D8
:1056C0000068D0F8C4008002002809D5FFE70499DB
:1056D000086E40F40070086601208DF8170026E07F
:1056E00004980068D0F8C400C0F301400190049809
:1056F0000399029A019BFDF7CDFC0199012000FA64
:1057000001F1049A1268C2F8CC10019988400499FA
:105710008865FFE700208DF8170008E00499086EFF
:1057200040F00800086601208DF81700FFE79DF89B
:10573000170006B080BD000087B005900491059861
:1057400090F85C008DF803009DF80300012805D057
:10575000FFE79DF8030002283CD1FFE704980068AA
:10576000B8B9FFE704998868CB680A694969800776
:1057700040EAC36040EA0240084303900598006C89
:105780000499496800EB8100019003980199086031
:105790001CE00498C168006940EA417003900498D5
:1057A0008168406940EA817002900598406C0499D4
:1057B000496800EBC10001900398019908600198C5
:1057C00004300190029801990860FFE700208DF8ED
:1057D0001B0008E00599086E40F0020008660120F1
:1057E0008DF81B00FFE79DF81B0007B07047000015
:1057F00085B0DDF814C003900291019200930398E4
:1058000090F85C00012819D1FFE703980068D0F8F0
:10581000800020F03F0002990901019A41EA8201CB
:10582000009A41EA4201059A114308430399096825
:10583000C1F8800000208DF8130008E00399086E7D
:1058400040F00400086601208DF81300FFE79DF882
:10585000130005B07047000081B0009001B07047A0
:1058600082B00190009102B0704700008AB00890A9
:10587000079106920593089890F85C008DF8030054
:105880009DF80300022840F0C080FFE707984028F9
:1058900021D1FFE708980068D0F89000000748B9C8
:1058A000FFE70899086E40F48070086601208DF8C3
:1058B0002700B3E008980068D0F89000C0F30120FA
:1058C00001900898806C019901EBC10100EBC100C7
:1058D0000490FFE720E008980068D0F898000007DF
:1058E00048B9FFE70899086E40F480700866012007
:1058F0008DF8270092E008980068D0F89800C0F36F
:10590000012001900898C06C019901EBC10100EBE6
:10591000C1000490FFE7FFE70498006800F08040B2
:10592000069948600698406838B9FFE7049800680F
:10593000C0F38A400699086006E00498006820F0E9
:10594000604006990860FFE70498006800F0005086
:10595000069988600498006800F000400699086184
:10596000049804300490049800880699C86104984B
:10597000006800F470200699C8600498006800F47C
:105980008010069948610498006800F40010069998
:10599000886104980068C0F306600699086204985C
:1059A0000068C00F06994862049804300490049877
:1059B000039000200290FFE702980699CA894AF2F4
:1059C000DC21C0F60101895C88420AD2FFE7039816
:1059D000029A805C05998854FFE702980130029092
:1059E000EAE70798402806D1FFE701980899096877
:1059F000C1F8940005E0019808990968C1F89C0075
:105A0000FFE700208DF8270008E00899086E40F0B5
:105A10000800086601208DF82700FFE79DF82700A1
:105A20000AB0704782B0019001980068D0F8C400B5
:105A300000F007000090009802B0704781B000901D
:105A400001B0704780B588B0079007980068006D76
:105A500000F4E050069007980068416D06980840F1
:105A6000069007980068006D00F007000590079801
:105A70000068416D05980840059007980068006D22
:105A800000F03800049007980068416D04980840C1
:105A9000049007980068006D00F471000390079867
:105AA0000068416D03980840039007980068006DF6
:105AB00000F46020029007980068416D0298084049
:105AC000029007980068006D4006002810D5FFE797
:105AD00007980068406D4006002808D5FFE7079842
