:020000040800F2
:1000000098A10020C1020008ADF40008D1C1000889
:10001000D9E90008A12A00080980010800000000B1
:10002000000000000000000000000000511F010857
:100030007534000800000000210201087D2B010832
:10004000DB020008D1000108DB020008DB02000827
:10005000DB020008DB020008DB020008DB0200080C
:10006000DB020008DB020008DB020008F92B0008B5
:10007000092C0008192C0008DB020008292C0008B4
:10008000DB020008DB020008A1080008DB02000810
:10009000CD7E010889340008DB020008DB0200087D
:1000A000DB020008DB020008DB020008DB020008BC
:1000B000DB020008DB020008DB020008DB020008AC
:1000C000DB020008DB020008DB020008DB0200089C
:1000D000DB020008DB020008DB020008F54601082D
:1000E000DB020008DB020008DB020008DB0200087C
:1000F000DB020008DB020008DB020008DB0200086C
:10010000DB020008DB020008DB020008DB0200085B
:10011000DB020008DB020008DB020008DB0200084B
:10012000DB020008DB020008DB020008DB0200083B
:10013000DB020008DB020008DB020008DB0200082B
:10014000DB020008DB020008DB0200080000000000
:10015000000000000000000000000000000000009F
:10016000000000000000000000000000DB020008AA
:10017000DB020008DB0200084D2C0108DB0200084E
:10018000DB020008DB020008DB020008DB020008DB
:10019000DB0200080000000099340008DB020008C0
:1001A000DB020008DB020008DB020008DB020008BB
:1001B000DB020008DB020008DB020008DB020008AB
:1001C000DB020008DB020008DB020008DB0200089B
:1001D000DB020008DB02000800F002F800F060F823
:1001E0000AA090E8000C82448344AAF10107DA4592
:1001F00001D100F055F8AFF2090EBAE80F0013F084
:10020000010F18BFFB1A43F00103184798B501000E
:10021000B8B501000A444FF0000C10F8013B13F090
:10022000070408BF10F8014B1D1108BF10F8015B4F
:10023000641E05D010F8016B641E01F8016BF9D142
:1002400013F0080F1EBF10F8014BAD1C0C1B09D199
:100250006D1E58BF01F801CBFAD505E014F8016B0B
:1002600001F8016B6D1EF9D59142D6D3704700009D
:100270000023002400250026103A28BF78C1FBD8AF
:10028000520728BF30C148BF0B6070471FB51BF035
:1002900096F99DE8030000F0EFF91FBD10B510BD01
:1002A00000F07CFA1146FFF7F1FF18F06BFC00F04C
:1002B0009AFA03B4FFF7F2FF03BC00F0CBFA000098
:1002C0000948804709480047FEE7FEE7FEE7FEE7EA
:1002D000FEE7FEE7FEE7FEE7FEE7FEE70448054926
:1002E000054A064B70470000392C0108D901000867
:1002F0009871002098A1002098810020988100200A
:1003000070B5064600F09CF9056806F10B0020F078
:100310000704B4429CBF002070BD2B466A68BAB186
:100320001068A04210D304F1080188423CBF506815
:10033000586007D35168101941601168091B0160AA
:1003400058601460101D70BD13465268002AE7D132
:100350002146284600F07CF90028DED170BD53EA22
:10036000020C00F069802DE9F04B4FF00006002BE5
:100370001FBFB3FA83F503FA05F424FA05F65E40CD
:1003800012BF1643B2FA82F502FA05F4C5F1200550
:100390001EBF22FA05FC44EA0C04203556EA044C40
:1003A0004FEA144418BF641C4FF000084FF00009D6
:1003B000904271EB030C39D3002919BFB1FA81F7D0
:1003C00001FA07F6B0FA80F700FA07F6C7F120073E
:1003D0001EBF20FA07FC46EA0C062037B6FBF4FCE9
:1003E000A7EB0507103F07F01F0BCBF120062CFAF7
:1003F00006F60CFA0BFB44BFB3460026202FA4BF21
:100400005E464FF0000B5BEA060C08BF4FF0010B95
:1004100019EB0B0948EB0608ABFB027C06FB02CC90
:100420000BFB03CCC01B71EB0C01C1E70B46024672
:1004300041464846BDE8F08B13B5084318BF4FF05E
:10044000FF300146AFF30080BDE81C407047002834
:1004500000DA4042704740EA010310B59B070FD114
:10046000042A0DD310C808C9121F9C42F8D020BA24
:1004700019BA884201D9012010BD4FF0FF3010BDDC
:100480001AB1D30703D0521C07E0002010BD10F8AA
:10049000013B11F8014B1B1B07D110F8013B11F870
:1004A000014B1B1B01D1921EF1D1184610BD10B596
:1004B000431C02E010F8011B71B18107FAD14FF023
:1004C000013202C88C1A8C4314EAC211F9D0C01A46
:1004D0000A0603D0C01E10BDC01A10BD0A0401D008
:1004E000801E10BD0902FCD0401E10BD032A40F240
:1004F000308010F0030C00F0158011F8013BBCF1C6
:10050000020F624498BF11F801CB00F8013B38BFDD
:1005100011F8013BA2F1040298BF00F801CB38BFEB
:1005200000F8013B11F0030300F02580083AC0F009
:10053000088051F8043B083A51F804CBA0E80810B1
:10054000F5E7121D5CBF51F8043B40F8043BAFF3E4
:100550000080D20724BF11F8013B11F801CB48BF3E
:1005600011F8012B24BF00F8013B00F801CB48BF74
:1005700000F8012B704710B5203AC0F00B80B1E8AD
:100580001850A0E81850B1E81850A0E81850203AC8
:10059000BFF4F5AF5FEA027C24BFB1E81850A0E8D1
:1005A000185044BF18C918C0BDE810405FEA827CEB
:1005B00024BF51F8043B40F8043B08BF7047D20702
:1005C00028BF31F8023B48BF11F8012B28BF20F8A3
:1005D000023B48BF00F8012B704702F0FF0343EADB
:1005E000032242EA024200F002B84FF0000200B5D6
:1005F000134694469646203922BFA0E80C50A0E846
:100600000C50B1F12001BFF4F7AF090728BFA0E8F3
:100610000C5048BF0CC05DF804EB890028BF40F8BF
:10062000042B08BF704748BF20F8022B11F0804F01
:1006300018BF00F8012B70477047704770470000E3
:10064000004870473005002070477047704770477A
:1006500038B504460A4600206946AFF300800028FA
:1006600008BF38BD02460099204600F075F8012009
:1006700038BD012000F08AB8F8B5AFF30080054618
:1006800000200C46102000BF0646A819A0420DD934
:10069000324669460020AFF30080070008BF00F033
:1006A00075F80098A04218BF0546C419FFF7C8FFA7
:1006B00005600746F01D20F007004619284600F0A7
:1006C0000AF8B44208BFF8BDA21B31463868BDE83D
:1006D000F84000F041B800210160C0E90110704706
:1006E0001020704770B50446051FFFF7A9FF00688A
:1006F000002C14BF446870BD002C18BFAC423CBF36
:1007000020466468F8D301680A18AA4218BF4560F9
:1007100003D12A6805461144016028684119A142A5
:100720001CBF6C6070BD6168696021680844286006
:1007300070BD10B500F00CF8006810BD10B504468F
:1007400000F006F8046010BD00487047280500203E
:100750000048704728050020034640688C46002862
:1007600018BF88423CBF03464068F8D31868184455
:10077000884207D00CF1030020F00700001D411A49
:10078000521A0146081D0A60FFF7ACBF10B500F011
:1007900039F8BDE8104000F02FB870477546FFF7F4
:1007A000D3FFAE4605006946534620F00700854654
:1007B00018B020B5FFF792FDBDE820404FF00006CD
:1007C0004FF000074FF000084FF0000BAC46ACE8CC
:1007D000C009ACE8C009ACE8C009ACE8C00921F028
:1007E00007018D46704710B50446AFF300802046E0
:1007F000BDE81040FFF75DBD002801D000F02AB829
:100800007047000010B5012805D0002103A000F0BA
:1008100027F8012010BD09A1F8E70000534947520D
:10082000544D454D3A204F7574206F6620686561C0
:1008300070206D656D6F7279000000003A20486588
:100840006170206D656D6F727920636F7272757063
:100850007465640001491820ABBEFEE72600020063
:1008600070B505460C460A2000E06D1C00F011F83A
:1008700035B128780028F8D102E0641C00F009F8AE
:1008800014B120780028F8D1BDE870400A20AFF3F9
:10089000008008B569468DF800000320ABBE08BD96
:1008A00080B542F68410C2F2000004F0E7F980BD82
:1008B00080B582B001900198806A00900098C06D68
:1008C00010F0500F4BD1FFE70099C86D40F4007055
:1008D000C8650098006800680007002821D5FFE778
:1008E000009800680DF0C4F9D0B1FFE700980068E7
:1008F000C0688004002812D4FFE70099C86D20F476
:100900008070C8650098C06DC004002806D4FFE759
:100910000099C86D40F00100C865FFE7FFE7FFE7F9
:1009200019E000980068C0688007002812D4FFE72B
:100930000099C86D20F48070C8650098C06DC0042F
:10094000002806D4FFE70099C86D40F00100C86593
:10095000FFE7FFE7FFE7009804F084F910E0009854
:10096000C06DC006002804D5FFE7009804F082F9A6
:1009700005E00098406D416B01988847FFE7FFE76D
:1009800002B080BD80B582B001900198806A00906D
:100990000099C86D40F04000C8650099086E40F0AD
:1009A00004000866009804F065F902B080BD0000FC
:1009B00080B582B001900198806A0090009804F0A0
:1009C00055F902B080BD000040F28850C2F200002C
:1009D00090ED000AB8EE400A9FED091A80EE010A78
:1009E000B2EE061A20EE010A9FED061A20EE010A69
:1009F00040F20060C2F2000080ED000A704700BFC4
:100A000000FF7F479A99394080B584B002900298E0
:100A100000680DF00DF90090029800680DF010F9D3
:100A200000284BD0FFE70098002847D1FFE7029845
:100A30000068806800F00D00012809D1FFE70298E6
:100A400000680DF071F802980168032008600DE05D
:100A50000299C86D40F01000C8650299086E40F018
:100A60000100086601208DF80F002BE006F03CFB2A
:100A70000190FFE7029800688068C007E8B1FFE7CF
:100A800006F032FB0199401A032815D3FFE70298BC
:100A900000688068C00770B1FFE70299C86D40F038
:100AA0001000C8650299086E40F001000866012038
:100AB0008DF80F0006E0FFE7DCE7FFE700208DF888
:100AC0000F00FFE79DF80F0004B080BD80B584B033
:100AD0000290029800680DF0B3F800284ED1FFE7AD
:100AE0000298006880683F21C8F2000108420ED0D9
:100AF000FFE70299C86D40F01000C8650299086EC2
:100B000040F00100086601208DF80F003AE00298DD
:100B100000680DF023F806F0E7FA0190FFE702986D
:100B200000680068C00740BBFFE7029800680DF04E
:100B300087F828B9FFE7029800680DF00FF8FFE783
:100B400006F0D2FA0199401A032815D3FFE702985C
:100B500000680068C00770B9FFE70299C86D40F0EF
:100B60001000C8650299086E40F001000866012077
:100B70008DF80F0006E0FFE7D1E7FFE700208DF8D2
:100B80000F00FFE79DF80F0004B080BD80B582B074
:100B900042F68410C2F2000001907F2103F062FB54
:100BA0000A2005F04DF9019840F28851C2F2000187
:100BB000012204F0B9FD02B080BD000040F20860DF
:100BC000C2F200007047000080B582B0FFF7F6FF68
:100BD000019006F089FA0090009801994969401A3D
:100BE00000EE100AB8EE400A9FED111AB4EE410A69
:100BF000F1EE10FA04DCFFE701990120887014E09F
:100C0000009801994969401A00EE100AB8EE400AAE
:100C10009FED071AB4EE410AF1EE10FA04DBFFE78C
:100C2000019900208870FFE7FFE702B080BD00BF98
:100C30000000C84280B584B08DF80F00FFF7BEFFFA
:100C400002900DF077FF01909DF80F000299087057
:100C50009DF80F000199887004B080BD80B584B004
:100C6000FFF7ACFF03900DF065FF029003F07AF9F7
:100C7000019001980078002800F05481FFE7039864
:100C80004078002840F0A580FFE740F20000C2F263
:100C90000000006840F69401C2F20001086040F2D2
:100CA0000400C2F20000006840F69801C2F20001A0
:100CB00008600298B0F9160000EE100AB8EEC00AFB
:100CC000B1EE400A9FEDA31A80EE010A039880ED71
:100CD000010A0298B0F9180000EE100AB8EEC00A36
:100CE000B1EE400A80EE010A039880ED020A0398F3
:100CF00090ED020A40F27C00C2F2000090ED001A72
:100D0000B4EE410AF1EE10FA08DDFFE740F27C0094
:100D1000C2F2000000680399886017E0039890ED24
:100D2000020A40F27800C2F2000090ED001AB4EE20
:100D3000410AF1EE10FA08DAFFE740F27800C2F259
:100D40000000006803998860FFE7FFE7FFE703986A
:100D500090ED010A9FED801AB4EE410AF1EE10FA0F
:100D60000ADBFFE7039890ED010A9FED7E1A30EE53
:100D7000010A80ED010AEAE7FFE7039890ED010A16
:100D80009FED761AB4EE410AF1EE10FA0ADCFFE7A5
:100D9000039890ED010A9FED721A30EE010A80ED82
:100DA000010AEAE7029890F8280088B1FFE7029864
:100DB000C07868B1FFE70DF0F5FE48B9FFE703988A
:100DC000806801990861039840680199C860FFE74D
:100DD000A7E003984078012840F0A280FFE740F2A6
:100DE0002000C2F20000006840F69401C2F2000147
:100DF000086040F22400C2F20000006840F698014A
:100E0000C2F200010860029890ED020AB1EE400AB9
:100E10009FED501A80EE010A039880ED030A0298B4
:100E200090ED030AB1EE400A80EE010A039880EDCE
:100E3000040A039890ED040A40F27C00C2F200001C
:100E400090ED001AB4EE410AF1EE10FA08DDFFE76A
:100E500040F27C00C2F2000000680399086117E0CC
:100E6000039890ED040A40F27800C2F2000090ED81
:100E7000001AB4EE410AF1EE10FA08DAFFE740F288
:100E80007800C2F20000006803990861FFE7FFE7FD
:100E9000FFE7039890ED030A9FED2F1AB4EE410A85
:100EA000F1EE10FA0ADBFFE7039890ED030A9FEDDD
:100EB0002D1A30EE010A80ED030AEAE7FFE70398F6
:100EC00090ED030A9FED251AB4EE410AF1EE10FAF7
:100ED0000ADCFFE7039890ED030A9FED211A30EE3C
:100EE000010A80ED030AEAE7029890F82800B0B101
:100EF000FFE70298C07890B1FFE70DF053FE70B99C
:100F0000FFE703988078012809D1FFE7039800697B
:100F1000019908610398C0680199C860FFE7FFE77D
:100F2000FFE714E040F20000C2F20000006840F663
:100F30009401C2F20001086040F20400C2F2000015
:100F4000006840F69801C2F200010860FFE704B0B3
:100F500080BD00BF0000C84200003443000034C31D
:100F60000000B4430000B4C380B588B00DF0E2FDCA
:100F7000079011F02BFB0690FFF720FE059002F082
:100F8000F1FF04904FF47A70ADF80E0005980078E8
:100F900068B9FFE740F21000C2F2000090ED000ACD
:100FA000BDEEC00A10EE100AADF80E001BE0059869
:100FB0000078022808D1FFE740F20E00C2F20000DC
:100FC0000088ADF80E000DE005980078012808D1E2
:100FD000FFE740F20C00C2F200000088ADF80E00FE
:100FE000FFE7FFE7FFE70598407E012840F0CD804E
:100FF000FFE705984078002856D1FFE746F6A06144
:10100000C2F200010888013008800798C0780128E2
:1010100049D1FFE707980079012844D1FFE70598F7
:10102000407E01283FD1FFE746F6A060C2F20000F3
:101030000088BDF80E10884235DBFFE7069890ED7A
:10104000041A90ED050A30EE410A9FED521AB4EEF3
:10105000410AF1EE10FA26DBFFE740F64050C2F2FB
:10106000000090ED010AB3EE041AB4EE410AF1EE6D
:1010700010FA18DDFFE740F69450C2F2000090ED40
:10108000010AB3EE041AB4EE410AF1EE10FA0ADDD9
:10109000FFE7012011F04CFA46F6A061C2F2000110
:1010A00000200880FFE76FE00598407801286AD1AA
:1010B000FFE70798C078012851D1FFE7079800792A
:1010C00001284CD1FFE742F6F010C2F20000007890
:1010D000002844D1FFE7069890ED041A90ED050A28
:1010E00030EE410A9FED2A1AB4EE410AF1EE10FAF1
:1010F00035DBFFE740F64050C2F2000090ED010AF8
:10110000B3EE041AB4EE410AF1EE10FA27DDFFE760
:1011100040F69450C2F2000090ED010AB3EE041ABA
:10112000B4EE410AF1EE10FA19DDFFE741F20400D6
:10113000CEF20000006842F27061C2F20001086065
:101140000120029011F0E6F90298069A002182F837
:10115000201042F6F011C2F20001087012E0079868
:10116000007970B9FFE70020019011F0E1F90198D2
:10117000069981F8200042F6F011C2F200010870D1
:10118000FFE7FFE7FFE7FFE7FFE708B080BD00BF2D
:101190000000A0420000204280B582B00190FFE72D
:1011A00040F69C00C2F20000006820B9FFE7012071
:1011B00017F022FDF4E7FFE7FFF706FDFFF74EFD0E
:1011C0000DF07EFE0DF000FD012017F015FDF3E798
:1011D00080B582B0FFF7F2FC01900DF0ABFC0090FF
:1011E0000098C07808B9FFE704E005F07DFF019999
:1011F0004861FFE702B080BD80B58AB0089000204A
:101200008DF81F000898806802F05EFE089840681C
:101210008021039110F040FD089840685521049109
:1012200010F03AFD04990898406810F035FD8DF8EB
:101230001F000898806802F057FEB0EE000A8DED9E
:10124000050A01F0E7FD0898806802F03DFE039969
:101250000898406810F020FD04990898406810F044
:101260001BFD04990898406810F016FD8DF81F00CA
:101270000898806802F038FE9DED050A01F0CAFD6D
:101280000898806802F020FE089840687E2110F0DF
:1012900003FD08984068B62110F0FEFC08988068AD
:1012A00002F022FE9FED5D0A01F0B4FD089880680F
:1012B00002F00AFE03990898406810F0EDFC0499CA
:1012C0000898406810F0E8FC04990898406810F00D
:1012D000E3FC8DF81F000898806802F005FE9DED84
:1012E000050A01F097FD0898806802F0EDFD03996A
:1012F0000898406810F0D0FC04990898406810F0F5
:10130000CBFC04990898406810F0C6FC8DF81F00CB
:101310000898806802F0E8FD9DED050A01F07AFD6D
:101320009DF81F001E2804D0FFE7FF208DF827003E
:101330006FE000200690FFE70698052865DCFFE7D0
:101340000898806802F0C0FD08984068069901EB93
:10135000410240F20051C2F200010291895C10F09A
:101360009BFC029908984068069A02EB42021144DD
:10137000497810F091FC0898806802F0B5FDB0EE55
:10138000000A8DED010A01F045FD0898806802F021
:101390009BFD029908984068069A02EB4202895C1C
:1013A00041F0800110F078FC0898406855210091C8
:1013B00010F072FC00990898406810F06DFC8DF8F0
:1013C0001F000898806802F08FFD9DED010A01F072
:1013D00021FD02999DF81F00069A02EB420211447A
:1013E000497888420CD0FFE7069800EB400140F2B4
:1013F0000050C2F20000084480788DF8270008E011
:10140000FFE706980130069096E700208DF8270048
:10141000FFE79DF827000AB080BD00BF0000A04292
:1014200080B598B0169000208DF85700ADF84800B0
:1014300011901698806802F047FD16984068802148
:101440000C9110F029FC1698406855210D9110F070
:1014500023FC0D991698406810F01EFC8DF857007B
:101460001698806802F040FDB0EE000A8DED0E0A7D
:1014700001F0D0FC1698806802F026FD0C991698B1
:10148000406810F009FC0D991698406810F004FCB3
:101490000D991698406810F0FFFB8DF857001698CC
:1014A000806802F021FD9DED0E0A01F0B3FC169854
:1014B000806802F009FD169840687E2110F0ECFB70
:1014C00016984068B62110F0E7FB1698806802F085
:1014D0000BFD9FEDEE0A01F09DFC1698806802F06E
:1014E000F3FC0C991698406810F0D6FB0D991698ED
:1014F000406810F0D1FB0D991698406810F0CCFBB5
:101500008DF857001698806802F0EEFC9DED0E0AEB
:1015100001F080FC1698806802F0D6FC0C991698B1
:10152000406810F0B9FB0D991698406810F0B4FBB4
:101530000D991698406810F0AFFB8DF8570016987B
:10154000806802F0D1FC9DED0E0A01F063FC9DF86D
:1015500057001E2804D0FFE7FF208DF85F00D9E177
:1015600000201090FFE71098032869DCFFE7169829
:10157000806802F0A9FC16984068109901EB4102BE
:101580004BF29171C0F601010B91895C10F084FB64
:101590000B9916984068109A02EB42021144497860
:1015A00010F07AFB1698806802F09EFCB0EE000AFC
:1015B0008DED0A0A01F02EFC1698806802F084FC7A
:1015C0000B9916984068109A02EB4202895C41F030
:1015D000800110F061FB169840685521099110F0C8
:1015E0005BFB09991698406810F056FB8DF8570080
:1015F0001698806802F078FC9DED0A0A01F00AFC5A
:101600000B999DF85700109A02EB42021144497859
:1016100088420CD0FFE7109800EB40014BF291702C
:10162000C0F60100084480788DF85F0072E19FEDFC
:10163000BB0A01F0EFFBFFE710980130109092E732
:1016400000200F90FFE70F98012800F3AA80FFE722
:101650001698806802F038FC169840680F9901EBE4
:1016600041014BF29172C0F6010208921144097BCC
:1016700010F012FB089A169840680F9901EB41018F
:101680001144497B10F008FB1698806802F02CFC8E
:10169000B0EE000A8DED070A01F0BCFB16988068D9
:1016A00002F012FC089A169840680F9901EB41016C
:1016B0001144097B41F0800110F0EEFA1698406861
:1016C0005521069110F0E8FA06991698406810F036
:1016D000E3FA8DF857001698806802F005FC9DED3E
:1016E000070A01F097FB089A9DF857000F9901EB44
:1016F00041011144497B88420CD0FFE70F9800EB71
:1017000040004BF29171C0F601010844807B8DF8D6
:101710005F00FFE09FED810A01F07CFB1698806876
:1017200002F0D2FB169840689221059110F0B4FAAD
:1017300005991698406810F0AFFA1698406811A9FC
:10174000062210F08DFA1698806802F0CDFB9DF805
:1017500044009DF8451040EA01200F9901EB410239
:101760000DF14A0121F812009DF846009DF847202E
:1017700040EA02200F9A02EB420201EB4202508043
:101780009DF848009DF8492040EA02200F9A02EB9C
:10179000420201EB42018880FFE70F9801300F9071
:1017A00051E71698806802F08FFB169840686D210B
:1017B00010F072FA16984068002110F06DFA169831
:1017C000806802F091FBB0EE000A8DED040A01F092
:1017D00021FB1698806802F077FB16984068ED218F
:1017E00010F05AFA169840685521039110F054FAF7
:1017F00003991698406810F04FFA8DF85700169824
:10180000806802F071FB9DED040A01F003FB9DF876
:10181000570020B1FFE704208DF85F007AE01698AA
:10182000806802F051FB169840687E2110F034FA6F
:1018300016984068B62110F02FFA1698806802F0CA
:1018400053FB9FED360A01F0E5FABDF94A00BDF9F8
:101850005010401A40F25551884213DBFFE7BDF9A2
:101860004C00BDF95210401A40F25551884209DB34
:10187000FFE7BDF94E00BDF95410401AB0F52A7FBC
:1018800006DAFFE780208DF85F0043E00000A04209
:101890001698806802F018FB169840688021009125
:1018A00010F0FAF9169840685521019110F0F4F9FA
:1018B00001991698406810F0EFF98DF857001698C6
:1018C000806802F011FBB0EE000A8DED020A01F013
:1018D000A1FA1698806802F0F7FA00991698406805
:1018E00010F0DAF901991698406810F0D5F90199CD
:1018F0001698406810F0D0F98DF857001698806857
:1019000002F0F2FA9DED020A01F084FA00208DF84F
:101910005F00FFE79DF85F0018B080BD0000A042A7
:1019200080B588B0079000200690059007990420A4
:10193000087007987C3001F0A1FA079880ED1E0A24
:101940000798806802F0C0FA0798406892210291D7
:1019500010F0A2F902990798406810F09DF90798D5
:10196000406805A90391062210F07AF9079880686B
:1019700002F0BAFA9DF814109DF81500000200B2AA
:10198000084400EE100AB8EEC00A079890ED171A46
:1019900090ED1B2A20EE020A20EE010A80ED040AD7
:1019A0009DF816109DF81700000200B2084400EEE2
:1019B000100AB8EEC00A079890ED171A90ED1B2A8E
:1019C00020EE020A20EE010A80ED050A9DF81810AB
:1019D0009DF81900000200B2084400EE100AB8EEAB
:1019E000C00A079890ED171A90ED1B2A20EE020A04
:1019F00020EE010A80ED060A0798C06802F064FA3A
:101A000007984068802110F047F9039907984068CB
:101A1000082210F025F90798C06802F065FA9DF8D1
:101A200014000F2840F08280FFE7079890F86800C4
:101A3000002843D0FFE79DF816109DF8170000021C
:101A400000B2084400EE100AB8EEC00A079890ED04
:101A5000101A90ED1C2A20EE020A30EE410A80EDA9
:101A6000080A9DF818109DF81900000200B20844F9
:101A700000EE100AB8EEC00A079890ED111A90ED2A
:101A80001C2A20EE020A30EE410A80ED090A9DF878
:101A90001A109DF81B00000200B2084400EE100A64
:101AA000B8EEC00A079890ED121A90ED1C2A20EEAD
:101AB000020A30EE410A80ED070A36E09DF8161062
:101AC0009DF81700000200B2084400EE100AB8EEBC
:101AD000C00A079890ED1C1A20EE010A80ED080A52
:101AE0009DF818109DF81900000200B2084400EE9D
:101AF000100AB8EEC00A079890ED1C1A20EE010AF1
:101B000080ED090A9DF81A109DF81B00000200B232
:101B1000084400EE100AB8EEC00A079890ED1C1AAF
:101B200020EE010A80ED070AFFE7FFE707988068CB
:101B300002F0CAF907984068A221019110F0ACF8B0
:101B400001990798406810F0A7F80798406805A920
:101B5000022210F085F80798806802F0C5F99DF818
:101B600014009DF81510C00040EA5110ADF81200A5
:101B7000BDF91200B0F5806F07DBFFE7BDF812007A
:101B8000A0F50060ADF81200FFE7BDF9120000EE0D
:101B9000100AB8EEC00AB4EE001A20EE010AB3EE45
:101BA000071A30EE010A079880ED190A07990120FB
:101BB000087008B080BD000081B00090009943F625
:101BC000AC00C3F622300864009941F2B060C3F65D
:101BD000CE10486400998864009941F23F60C4F2D5
:101BE0001B108865009890ED161A9FED040A80EE90
:101BF000010A80ED170A01B0704700BFC3F51C4110
:101C000080B58AB0089000208DF81F000898C06841
:101C100002F05AF9089840688021039110F03CF8CE
:101C2000089840685521049110F036F88DF81F008F
:101C30000898C06802F058F9B0EE000A8DED050A68
:101C400001F0E8F80898C06802F03EF90399089896
:101C5000406810F021F804990898406810F01CF8CA
:101C60008DF81F000898C06802F03EF99DED050A46
:101C700001F0D0F80898C06802F026F9089840688A
:101C8000142110F009F808984068B62110F004F803
:101C90000898C06802F028F99FED550A01F0BAF8DB
:101CA0000898C06802F010F90399089840680FF08E
:101CB000F3FF0499089840680FF0EEFF8DF81F00BD
:101CC0000898C06802F010F99DED050A01F0A2F82D
:101CD0000898C06802F0F8F80399089840680FF077
:101CE000DBFF0499089840680FF0D6FF8DF81F00BD
:101CF0000898C06802F0F8F89DED050A01F08AF82E
:101D00009DF81F000F2804D0FFE7FF208DF8270063
:101D100069E000200690FFE7069805285FDCFFE7F2
:101D20000898C06802F0D0F808984068069901EB5E
:101D3000410240F21251C2F200010291895C0FF09F
:101D4000ABFF029908984068069A02EB42021144E0
:101D500049780FF0A1FF0898C06802F0C5F8B0EE0E
:101D6000000A8DED010A01F055F80898C06802F0EC
:101D7000ABF8029908984068069A02EB4202895C27
:101D800041F080010FF088FF0898406855210FF05E
:101D900083FF8DF81F000898C06802F0A5F89DED3C
:101DA000010A01F037F802999DF81F00069A02EB2C
:101DB00042021144497888420CD0FFE7069800EBB4
:101DC000400140F21250C2F20000084480788DF8C1
:101DD000270008E0FFE70698013006909CE7002006
:101DE0008DF82700FFE79DF827000AB080BD00BFEF
:101DF0000000A04280B588B0069000208DF8170042
:101E00008DF816000698C06802F05EF806984068E3
:101E1000802101910FF040FF069840685521029102
:101E20000FF03AFF8DF817000698C06802F05CF8D2
:101E3000B0EE000A8DED030A00F0ECFF0698C068D2
:101E400002F042F80199069840680FF025FF0299C8
:101E5000069840680FF020FF8DF817000698C068BC
:101E600002F042F89DED030A00F0D4FF0698C06826
:101E700002F02AF80698406814210FF00DFF06982A
:101E80004068B6210FF008FF0698C06802F02CF8F1
:101E90009FED4D0A8DED040A00F0BCFF0698C06866
:101EA00002F012F80199069840680FF0F5FE0299C9
:101EB000069840680FF0F0FE8DF817000698C0688D
:101EC00002F012F89DED030A00F0A4FF0698C06826
:101ED00001F0FAFF0199069840680FF0DDFE0299C3
:101EE000069840680FF0D8FE8DF817000698C06875
:101EF00001F0FAFF9DED030A00F08CFF0698C06820
:101F000001F0E2FF069840683C210FF0C5FE0698FC
:101F1000406801210FF0C0FE0698C06801F0E4FFA0
:101F20009DED040A00F076FFFFE70698C06801F017
:101F3000CBFF06984068BC210FF0AEFE06984068C3
:101F400055210FF0A9FE8DF817000698C06801F022
:101F5000CBFFB0EE000A00F05DFF9DF816000130E7
:101F60008DF81600FFE79DF817100020890700295B
:101F7000009008D4FFE79DF8161000200A29B8BF8A
:101F800001200090FFE70098C0070028CDD1FFE7AF
:101F90009DF816000A2804D1FFE740208DF81F00A5
:101FA0000DE09DF817004007002804D5FFE740200A
:101FB0008DF81F0003E000208DF81F00FFE79DF85B
:101FC0001F0008B080BD00BF0000A04280B588B0EF
:101FD0000790069105920493069807994860059822
:101FE0000799886004980799C860079800F04CF832
:101FF0000799002081F87400079A43F23331C3F641
:10200000EB21D166079A4AF25801C3F68B2111677A
:102010008DF80F000798FFF703FA18B1FFE780204B
:10202000029004E00798FFF7E7F80290FFE70298B4
:102030008DF80F000798FFF7DDFE18B1FFE740208D
:10204000019004E00798FFF7DBFD0190FFE701989E
:102050008DF80F00079890F87400012804D1FFE76D
:10206000079800F02DF803E00798FFF7A5FDFFE7BC
:102070009DF80F100120002918BF02200799087051
:102080009DF80F0008B080BD81B00090009900203D
:102090000861009948610099886100990862009977
:1020A00048620099C86100994866009A012182F847
:1020B0006810009988670099C86701B070470000F0
:1020C00080B596B01590002007900690ADF81600E8
:1020D00000F01EFF8DED040AFFE700F019FF9DEDF3
:1020E000041A30EE410AB2EE041AB4EE410AF1EEDF
:1020F00010FA15DDFFE7159943F6AC00C3F6223060
:102100000864159941F2B060C3F6CE104864159981
:102110008864159941F23F60C4F21B10886598E20B
:102120009FEDE20A00F048FE159900208865159998
:1021300008641599486415998864ADF80E00FFE7A6
:10214000BDF80E0040F21801C2F200010988884271
:1021500080F2CE81FFE71598806801F0B5FE1598F2
:102160004068922101910FF097FD01991598406800
:102170000FF092FD1598406806A9029106220FF013
:102180006FFD1598806801F0AFFE9DF818109DF85E
:102190001900000200B2084400EE100AB8EEC00AAE
:1021A000159890ED1B1A20EE010A80ED040A9DF8A7
:1021B0001A109DF81B00000200B2084400EE100A3D
:1021C000B8EEC00A159890ED1B1A20EE010A80EDBA
:1021D000050A9DF81C109DF81D00000200B208447D
:1021E00000EE100AB8EEC00A159890ED1B1A20EE0A
:1021F000010A80ED060A159890ED041A90ED052A63
:1022000090ED060A22EE022A21EE011A31EE021AA0
:1022100020EE000A30EE010A18F0EAFB8DED0E0AFE
:102220009DED0E1A159890ED160A30EE010A80ED1C
:10223000160A1598C06801F047FE1598406880217D
:102240000FF02AFD02991598406808220FF008FD4A
:102250001598C06801F048FE9DF818000F2852D16B
:10226000FFE79DF81A109DF81B00000200B2084419
:1022700000EE100AB8EEC00A159890ED1C1A20EE78
:10228000010A80ED080A9DF81C109DF81D0000024F
:1022900000B2084400EE100AB8EEC00A159890ED9E
:1022A0001C1A20EE010A80ED090A9DF81E109DF807
:1022B0001F00000200B2084400EE100AB8EEC00A87
:1022C000159890ED1C1A20EE010A80ED070A15986A
:1022D00090ED081A90ED100A30EE010A80ED100A18
:1022E000159890ED091A90ED110A30EE010A80ED73
:1022F000110A159890ED071A90ED120A30EE010AB6
:1023000080ED120AFFE7BDF80E00B8B9FFE70E989E
:102310000D900E980C901598006A12901598006A0E
:102320000F901598406A13901598406A1090159870
:10233000C06914901598C069119078E09DED0E0A5F
:102340009DED0D1AB4EE410AF1EE10FA03DBFFE742
:102350000E980D900DE09DED0E0A9DED0C1AB4EE59
:10236000410AF1EE10FA03DCFFE70E980C90FFE74C
:10237000FFE7159890ED080A9DED121AB4EE410A98
:10238000F1EE10FA04DBFFE71598006A12900FE0F7
:10239000159890ED080A9DED0F1AB4EE410AF1EE82
:1023A00010FA04DCFFE71598006A0F90FFE7FFE7DB
:1023B000159890ED090A9DED131AB4EE410AF1EE5D
:1023C00010FA04DBFFE71598406A13900FE01598A8
:1023D00090ED090A9DED101AB4EE410AF1EE10FAE3
:1023E00004DCFFE71598406A1090FFE7FFE71598B7
:1023F00090ED070A9DED141AB4EE410AF1EE10FAC1
:1024000004DBFFE71598C06914900FE0159890ED74
:10241000070A9DED111AB4EE410AF1EE10FA04DC40
:10242000FFE71598C0691190FFE7FFE7FFE79DED13
:102430000D0A9DED0C1A30EE410A8DED0B0A0020BD
:102440008DF80D00FFE79DF80D0002281ADCFFE76C
:102450009DF80D1012A800EB810090ED000A0FA866
:1024600000EB810090ED001A30EE410A08A800EB65
:10247000810080ED000AFFE79DF80D0001308DF826
:102480000D00E0E79DED0B0A9FED771AB4EE410ACF
:10249000F1EE10FA20DCFFE79DED080A9FED731ABC
:1024A000B4EE410AF1EE10FA16DC01E00AD7A33BC4
:1024B0009DED090A9FED6D1AB4EE410AF1EE10FA96
:1024C0000ADCFFE79DED0A0A9FED681AB4EE410AA7
:1024D000F1EE10FA01DDFFE70AE09FED650A00F07A
:1024E0006BFCFFE7BDF80E000130ADF80E0027E6EB
:1024F00040F21800C2F20000008800EE100AB8EEA8
:10250000401A159890ED160A80EE010A80ED160A21
:1025100000208DF80C00FFE79DF80C0002281BDC62
:10252000FFE740F21800C2F20000008800EE100A37
:10253000B8EE401A15989DF80C1000EB810090ED54
:10254000100A80EE010A80ED100AFFE79DF80C00EA
:1025500001308DF80C00DFE7BDF816000130ADF852
:102560001600FFE79DED0B0A01209FED3F1AB4EE28
:10257000410AF1EE10FA009065DCFFE7159890ED46
:10258000160A9FED3C1A30EE010AB0EEC00A012097
:10259000B6EE001AB4EE410AF1EE10FA009052DCE9
:1025A000FFE79DED080A01209FED301AB4EE410AC5
:1025B000F1EE10FA009046DCFFE79DED090A0120DC
:1025C0009FED2A1AB4EE410AF1EE10FA00903ADCBF
:1025D000FFE79DED0A0A01209FED241AB4EE410A9F
:1025E000F1EE10FA00902EDCFFE7159890ED100A3E
:1025F000B0EEC00A01209FED201AB4EE410AF1EEC0
:1026000010FA00901FDCFFE7159890ED110AB0EE6C
:10261000C00A01209FED181AB4EE410AF1EE10FA3B
:10262000009010DCFFE7159890ED120AB0EEC00A9A
:102630009FED111A0020B4EE410AF1EE10FAC8BF66
:1026400001200090FFE70098C00700287FF445AD07
:10265000FFE7159890ED161A9FED080A80EE010A23
:1026600080ED170A16B080BD3333333F9A99193E77
:102670006F12033ACDCC1CC10AD7233CC3F51C41D1
:1026800080B584B000F06CF900F00AF9039003996A
:102690000420087000200290FFE70298012843DC24
:1026A000FFE7029940F2B800C2F2000050F82100A2
:1026B000A8B3FFE740F21C00C2F200000068006E01
:1026C0008005002812D5FFE740F21C00C2F200008E
:1026D0000190006804F09AFA019801680A680321E1
:1026E000C2F8C410006804F06BFAFFE740F21C0067
:1026F000C2F20000006803F08FFE42F27861C2F27D
:1027000000010860029940F2B800C2F2000050F8DF
:10271000211040F22870C2F200008847FFE7FFE76F
:10272000029801300290B8E703990120087004B0C4
:1027300080BD000080B584B000F012F900F0B0F860
:10274000039003990420087000200290FFE702988C
:10275000012843DCFFE7029940F2C000C2F200000A
:1027600050F82100A8B3FFE740F21C00C2F20000BD
:102770000068006E8005002812D5FFE740F21C00BB
:10278000C2F200000190006804F040FA019801686C
:102790000A680321C2F8C410006804F011FAFFE7C8
:1027A00040F21C00C2F20000006803F035FE42F265
:1027B0007C61C2F200010860029940F2C000C2F2DE
:1027C000000050F8211040F22870C2F20000884743
:1027D000FFE7FFE7029801300290B8E70399012074
:1027E000087004B080BD000080B586B005900491EB
:1027F000ADF80E2000F054F8029042F2A460C2F24C
:1028000000000168013101600068009004F06CFC78
:1028100001460098B0FBF1F000EE100AB8EE400A55
:1028200042F2A860C2F2000080ED000A0599BDF8EE
:102830000E2040F2E860C2F20000FDF757FE0120D2
:102840000190FFE70198062828DCFFE70498019A29
:1028500040F28001C2F2000151F83210884218D1D2
:10286000FFE7019940F28000C2F2000000EBC100D6
:10287000406870B1FFE7019940F28000C2F20000A9
:1028800000EBC100416840F2E860C2F200008847F6
:1028900004E0FFE7019801300190D3E706B080BD66
:1028A00040F2A860C2F200007047000080B541F21B
:1028B000BC10C2F2000040F2012100F0C5FE41F25E
:1028C000E010C2F2000040F2022100F0BDFE41F231
:1028D0009810C2F2000040F2032100F0B5FE41F270
:1028E0000420C2F200004FF4017100F0ADFE80BD83
:1028F00080B582B00190FFE740F69C00C2F2000074
:10290000006820B9FFE7012016F076F9F4E7FFE749
:1029100040F2E840C2F20000007801280CD1FFE745
:10292000FFF7AEFE40F2E841C2F20001022008705B
:10293000012016F061F9FFE740F2E840C2F2000022
:10294000007802280BD1FFE7FFF7F4FE40F2E841E0
:10295000C2F200010120087016F04EF9FFE7D7E738
:1029600080B588B0FFF79CFF079001F0FBFA069056
:102970000FF02CFE05900EF001FF0490FEF71EF9FB
:1029800003900CF0D7F8029009F050FD01900698E2
:102990008078079908720698C0680799486101987D
:1029A000C06807998861019880690799C861019892
:1029B00090ED010AB1EE400A079880ED0A0A0298EC
:1029C00090ED070A9FED351A80EE010A079880ED19
:1029D0000C0A40F6F260C2F200000078079981F814
:1029E0002C00059890ED1F0A0020B2EE041AB4EEF8
:1029F000410AF1EE10FA00900EDDFFE7059890ED28
:102A00003F0AB2EE041A0020B4EE410AF1EE10FAC9
:102A1000C8BF01200090FFE7009800F0010007996F
:102A200081F82D000398407E079981F82E000798C1
:102A300090ED0E0A40F2D040C2F2000090ED001A74
:102A4000B4EE410AF1EE10FA17D0FFE741F20400AC
:102A5000CEF20000016842F26C60C2F20000016038
:102A6000006842F27061C2F200010968401A42F245
:102A70006861C2F200010860FFE740F2D041C2F293
:102A80000001C86808618868C8604868886008688C
:102A900048600798806B086008B080BD333365429A
:102AA000FFE7FEE784B08DF80F000291ADF8062035
:102AB0009DF80F000146009123281DD80099DFE8FA
:102AC00001F012131415161B1B1B1B1B1B1B1B1BBE
:102AD0001B1B1B1B1B1B1B1B1B1B1B1B1B1B1B1B46
:102AE0001B1B1718191A08E007E006E005E004E0D0
:102AF00003E002E001E000E0FFE7002004B07047DF
:102B00000020704780B582B042F2B460C2F200008B
:102B1000009041F64C61C2F200010022019212F0D5
:102B2000BDF8009841F24C61C2F2000112F09CF82D
:102B3000019802B080BD000080B584B0039002917E
:102B40000398029909880BF0C3FFFEF741FB039934
:102B500042F2B460C2F20000019012F085F80198D0
:102B600012F02CF8002004B080BD000083B0029069
:102B700001918DF8032000208DF802009DF90200DC
:102B800003B0704780B586B00490ADF80E100020F9
:102B90008DF80D0042F2B460C2F20000D0F8BC0221
:102BA00002900298D0F8140220B1FFE701208DF8BE
:102BB000170013E00499BDF80E2042F2B460C2F28F
:102BC0000000019012F06AF8019812F055F98DF8A2
:102BD0000D009DF80D008DF81700FFE79DF8170018
:102BE00006B080BD81B0ADF80200BDF80200A0F5CE
:102BF000806000B201B0704780B542F65420C2F246
:102C0000000002F047FF80BD80B542F6B420C2F25A
:102C1000000002F03FFF80BD80B542F6F410C2F222
:102C2000000002F037FF80BD80B542F61430C2F2DA
:102C3000000002F02FFF80BD84B00390039800686D
:102C400040F20741C4F20201884206D8FFE740F68D
:102C50000000C4F20200009005E040F62000C4F23B
:102C600002000090FFE7009802900398007808386F
:102C70004CF6CD41CCF6CC41A0FB011000090190EF
:102C8000029803994A6C22F0030210448864039965
:102C900040F68000C4F20200C864019800F01F01F1
:102CA000012088400399086504B0704782B0019004
:102CB000019800790090009940F6FC00C4F20200EF
:102CC00000EB810001994865019940F64010C4F27B
:102CD000020088650098013800F01F01012088403B
:102CE0000199C86502B0704784B0039002910192C7
:102CF00000930398C16C006D48600398406D28B143
:102D0000FFE70398816DC06D4860FFE70398016C91
:102D1000406C00F01F020120904048600098039929
:102D20000968486003988068102809D1FFE7019876
:102D3000039909688860029803990968C86008E0E7
:102D40000298039909688860019803990968C86026
:102D5000FFE704B07047000080B582B000F088F84B
:102D6000019040F2A070C2F20000007808BBFFE7BB
:102D700040F2A071C2F200010120087041F204008B
:102D8000CEF200000068009000980199096A88421C
:102D900005D2FFE70199C8690130C861FFE70098D3
:102DA0000199086240F2A071C2F20001002008708F
:102DB000FFE702B080BD000080B584B08DED030A4E
:102DC00000F056F8029041F20400CEF200000068D4
:102DD000019003980090FFE741F20400CEF200005A
:102DE00000680199401A00EE100AB8EE400A9DED05
:102DF000001A029890ED042AB8EE422A21EE021A37
:102E0000B4EE410AF1EE10FA01DAFFE7E4E704B0AC
:102E100080BD000080B584B08DED030A00F028F875
:102E2000029041F20400CEF2000000680190039885
:102E30000090FFE741F20400CEF200000068019923
:102E4000401A00EE100AB8EE400A9DED001A0298F2
:102E500090ED052AB8EE422A21EE021AB4EE410A9C
:102E6000F1EE10FA01DAFFE7E4E704B080BD0000FC
:102E700040F27070C2F200007047000080B584B06C
:102E80000390FFF7F5FF029041F20400CEF200003C
:102E900000680190019803990968401A00EE100A31
:102EA000B8EE400A029890ED041AB8EE411A80EE8E
:102EB000010A8DED000A0198039908609DED000A52
:102EC00004B080BD80B582B0FFF7D2FF019000F062
:102ED00089F80198016843684FF47A7201FB023166
:102EE00000EE101AB8EE401A008900EE100AB8EE93
:102EF000C00A9FED062A20EE020A30EE010A8DED8F
:102F0000000A9DED000A02B080BD00BF6F12833A37
:102F100080B582B0FFF7ACFF019000F063F8019834
:102F200090ED001A90ED010AB8EE411AB8EE400A91
:102F30009FED0B2A20EE020A30EE011A008900EE06
:102F4000100AB8EEC00A9FED072A20EE020A30EE02
:102F5000010A8DED000A9DED000A02B080BD00BFA0
:102F60006F12833ABD37863580B582B00190FFF786
:102F70007FFF00904EF6FC51CEF20001086840F051
:102F80008070086041F20401CEF200010020086068
:102F900041F20002CEF20002116841F0010111601D
:102FA000019944F24022C0F20F025143009A11618C
:102FB000009A116944F6D353C1F26203A1FB0331B5
:102FC00089095161009A11694DF68363C4F21B337C
:102FD000A1FB0331890C91610099C86100990862D5
:102FE00002B080BD10B58CB0FFF742FF0B9041F2EC
:102FF0000400CEF2000000680A90FFF7ADFE0B98C7
:10300000C1690A98002302934FF0FF3C1A46E1FB86
:103010000C020B99CA6288620B990A69886AC96AAC
:10302000FDF79DF9029B099108900B98D0F810E0EC
:10303000816AC06ADDF820C0099AACFB0EC402FBAD
:103040000E42B1EB0C0190410691079008980B9944
:103050000860069807990B9A01925269FDF77FF96B
:103060000199029B486006990798DDF82CC0DCF8AE
:103070000420DCF814C002FB0CF2891A60F1000095
:1030800004910590049805990B9A03929269FDF7B3
:1030900066F9039908810B9908684B684FF47A72B6
:1030A00000FB0230C8600CB010BD00008CB00B906B
:1030B0000A91099208938DED070ACDED060A9DED60
:1030C000070A099890ED002A90ED011A30EE000AE7
:1030D00030EE410A30EE420AB0EE083A20EE030A22
:1030E00031EE421A80EE010A8DED050A9DED070AC8
:1030F000089890ED002A90ED011A30EE000A30EEAB
:10310000410A30EE420A20EE030A31EE421A80EE06
:10311000010A8DED040A059840F6FC51C2F2000147
:103120000860049840F60061C2F2000108609DED5D
:10313000050AB8EE081AB4EE410AF1EE10FA07DA01
:10314000FFE700208DF80F008DF80E0002909BE045
:103150009DED050AB8EE001AB4EE410AF1EE10FA40
:103160000FDAFFE700208DF80F0001208DF80E0028
:103170009DED050AB0EE081A30EE010A8DED020A47
:1031800081E09DED050ABFEE001AB4EE410AF1EEB2
:1031900010FA0FDAFFE701208DF80F0002208DF8FA
:1031A0000E009DED050AB0EE001A30EE010A8DED1D
:1031B000020A67E09DED050AB5EE400AF1EE10FA4D
:1031C0000FDAFFE702208DF80F0003208DF80E00C4
:1031D0009DED050AB7EE001A30EE010A8DED020AE8
:1031E0004FE09DED050AB7EE001AB4EE410AF1EE8C
:1031F00010FA09DAFFE703208DF80F0004208DF89C
:103200000E00059802903BE09DED050AB0EE001A15
:10321000B4EE410AF1EE10FA0FDAFFE704208DF860
:103220000F0005208DF80E009DED050ABFEE001A77
:1032300030EE010A8DED020A21E09DED050AB0EEA7
:10324000081AB4EE410AF1EE10FA0FDAFFE7052092
:103250008DF80F0006208DF80E009DED050AB8EEE2
:10326000001A30EE010A8DED020A07E006208DF803
:103270000F008DF80E0000200290FFE7FFE7FFE748
:10328000FFE7FFE7FFE7FFE79DED040AB8EE081A46
:10329000B4EE410AF1EE10FA07DAFFE700208DF8EC
:1032A00007008DF8060000909BE09DED040AB8EE43
:1032B000001AB4EE410AF1EE10FA0FDAFFE700202F
:1032C0008DF8070001208DF806009DED040AB0EE90
:1032D000081A30EE010A8DED000A81E09DED040A26
:1032E000BFEE001AB4EE410AF1EE10FA0FDAFFE772
:1032F00001208DF8070002208DF806009DED040ADC
:10330000B0EE001A30EE010A8DED000A67E09DED87
:10331000040AB5EE400AF1EE10FA0FDAFFE70220D8
:103320008DF8070003208DF806009DED040AB7EE26
:10333000001A30EE010A8DED000A4FE09DED040AFF
:10334000B7EE001AB4EE410AF1EE10FA09DAFFE71F
:1033500003208DF8070004208DF8060004980090E3
:103360003BE09DED040AB0EE001AB4EE410AF1EE26
:1033700010FA0FDAFFE704208DF8070005208DF81A
:1033800006009DED040ABFEE001A30EE010A8DED35
:10339000000A21E09DED040AB0EE081AB4EE410ADD
:1033A000F1EE10FA0FDAFFE705208DF8070006208E
:1033B0008DF806009DED040AB8EE001A30EE010A01
:1033C0008DED000A07E006208DF807008DF8060055
:1033D00000200090FFE7FFE7FFE7FFE7FFE7FFE7D9
:1033E000FFE70A980B999DF80F20C2EBC20201EB90
:1033F000020C9DF807301CF8032000EB820292EDCE
:10340000000A9DED023AB7EE001A31EE435A20EE63
:10341000050A9DED002A31EE424A9DF806201CF86F
:1034200002C000EB8C0C9CED001A21EE051A21EE77
:10343000021A20EE040A30EE011A9DF80EC0CCEB01
:10344000CC0C6144CB5C00EB830393ED000A20EECF
:10345000030A20EE040A30EE011A895C00EB8100B9
:1034600090ED000A20EE030A20EE020A30EE010A77
:103470000CB070477047000081B0EFF3108072B657
:103480000090FFE7FEE7000080B542F67830C2F218
:10349000000002F0D1FF80BD80B542F6DC30C2F200
:1034A000000002F0C9FF80BD83B002904AF20040E4
:1034B000C4F2000000900298006846F60001C4F2D1
:1034C0000001884205D1FFE7009800F55470009094
:1034D000FFE70298006846F60041C4F20001884206
:1034E00005D1FFE7009800F5D4600090FFE7009851
:1034F0000299086402980068D0F8800020F4F8105F
:10350000029A1168526B40EA0240C1F880000098AC
:1035100070300299486402980068D0F8800020F06A
:103520007060029A1168926B40EA0260C1F88000F4
:103530000098B03002998864009800F5C470029930
:10354000C864009800F5187002990865009800F5A5
:103550001E700299486500980190FFE70198009954
:1035600001F55471884208D2FFE7019900200860F4
:10357000FFE7019804300190F0E703B070470000C6
:1035800088B007900691059204930698406848B960
:10359000FFE70698016882680069104340EA8140AD
:1035A000039009E0069801688268006910430843A7
:1035B00040F080400390FFE70698D0F820C0C16833
:1035C00042698369C06940EA0C60184310430843AC
:1035D00002900798406D049901EBC10100EBC10016
:1035E00001900398019908600198043001900298B5
:1035F0000199086001980430019000200090FFE7D5
:1036000000980699CA894BF2E461C0F60101895C11
:1036100088420DD2FFE7059800994058019908604B
:10362000019804300190FFE7009804300090E7E72C
:1036300008B0704781B0009040F26871C2F200019A
:103640000120087001B0704782B00190009100988D
:10365000019908600098B0F5006F05D3FFE7019964
:103660004FF08040486003E0019900204860FFE788
:10367000019900208860019A4FF40021D1600199DE
:10368000086101994861019988610199C8610199AE
:10369000086202B07047000080B58AB0099000202F
:1036A0000390049002210591012106914FF480615D
:1036B00007910890099803A902F038FD20B1FFE7AF
:1036C0000298FFF7B7FFFFE70998694600230B60F0
:1036D0000222114602F086FD20B1FFE70298FFF7B3
:1036E000A9FFFFE7099803F06BFA20B1FFE7029802
:1036F000FFF7A0FFFFE709980121002202F0C2FBBB
:1037000020B1FFE70298FFF795FFFFE709984FF414
:103710000021002202F0B6FB20B1FFE70298FFF77C
:1037200089FFFFE70AB080BD80B584B003900291A5
:10373000019203980299019A02F0AAFCB8B1FFE73E
:103740000398006E800500280CD5FFE7039803F06E
:103750005DFA039801680320C1F8C400039803F0E0
:103760002FFA03E00098FFF765FFFFE7FFE704B0DB
:1037700080BD00000000000080B588B08DED060A15
:10378000059003F0B1FC00EE100AB8EE400A05986F
:1037900090ED021A30EE410ABCEEC00A8DED040A2B
:1037A00003F0A2FC00EE100AB8EE400A059880ED86
:1037B000020A05980390006817F066FE41EC100BB2
:1037C0009FED331B53EC112B51EC100B17F070FCD9
:1037D00041EC100B9FED301B53EC112B51EC100BF7
:1037E0000291019017F08AF9024601980B4602995E
:1037F00043EC102B53EC102B17F034FA41EC100B68
:1038000051EC100B17F048F903994860059890EDBA
:10381000010AB5EE400AF1EE10FA30DDFFE7059837
:1038200090ED010AB7EE001AB4EE410AF1EE10FA7B
:1038300025DCFFE705989DED062A90ED010A90ED45
:10384000053AB7EE001A31EE401A21EE031A20EEC7
:10385000020A30EE010A80ED040A05990869486100
:103860009DED040AB8EE401A9FED0D0A80EE010AA4
:10387000059880ED030A05980069079002E0069814
:103880000790FFE79DED070A08B080BD00BF00BFAD
:10389000FCA9F1D24D62503F000000000000F03F53
:1038A00000007A440000000080B586B08DED050A66
:1038B000049005980499086004980390006817F034
:1038C000E3FD41EC100B9FED161B53EC112B51EC5B
:1038D000100B17F0EDFB41EC100B9FED131B53EC9D
:1038E000112B51EC100B0291019017F007F90246D1
:1038F00001980B46029943EC102B53EC102B17F058
:10390000B1F941EC100B51EC100B17F0C5F803990D
:10391000486004990020886006B080BD00BF00BFE9
:10392000FCA9F1D24D62503F000000000000F03FC2
:1039300080B586B00DF022FF0590FDF73FF90490A9
:10394000059880780146039104284DD80399DFE853
:1039500001F0033D301A030000200290FDF76AF9E0
:103960000298049948700598407820B1FFE701203B
:1039700000F018FB03E0002000F014FBFFE701203B
:103980000DF0B4FD31E00320FDF754F90499002057
:1039900048700598407820B1FFE7012000F002FB55
:1039A00003E0002000F0FEFAFFE701200DF09EFD8D
:1039B0001BE00220FDF73EF9049901204870032026
:1039C00000F0F0FA00200DF091FD0EE001200190D2
:1039D000FDF730F9019804994870022000F0E2FAEE
:1039E00000200DF083FD00E0FFE706B080BD000081
:1039F00080B590B00F900F9890ED1D0A90ED1E1AB3
:103A000030EE410A8DED0E0A0F99D1F88C00C1F805
:103A100090000E980F99C1F88C000F988C300121FE
:103A200002910AF079FF02990F9880ED210A0F9A0E
:103A3000D2F89400C2F898000F9A506FC2F8940020
:103A40000F9894300AF068FF0F9880ED220ADDF895
:103A50003CC0DCF81C00DCF828100CF134020CF13E
:103A60003C039DED0E0ADCED210AFFF71FFB0F98CA
:103A700080ED000ADDF83CC0DCF82000DCF82C10FA
:103A80000CF134020CF13C039DED0E0ADCED210A31
:103A9000FFF70CFB0F9880ED010ADDF83CC0DCF865
:103AA0002400DCF830100CF134020CF13C039DEDE5
:103AB0000E0ADCED210AFFF7F9FA0F9880ED020AF1
:103AC0000F980D90C06F17F0DFFC0A460D9942EC7D
:103AD000100B8DED0A0B48680969069117F0D4FCAC
:103AE00041EC100B9FED6C1B53EC112B51EC100BA8
:103AF00017F0DEFA02460D9803920A46039942EC4B
:103B0000101B8DED040B90ED230A90ED241A30EE7E
:103B1000010A10EE100A17F0B7FC9DED040B41EC02
:103B2000110B53EC112B51EC100B17F0C1FA02469C
:103B3000069807920A46079942EC101B8DED080B78
:103B400017F0A2FC9DED081B41EC100B51EC110B82
:103B500053EC102B17F0ACFA9DED0A0B41EC110B56
:103B600051EC110B53EC102B16F0C8FF41EC100B6D
:103B700051EC100B16F090FF0D99C8670F9890ED5F
:103B8000051A90ED1F0AB4EE410AF1EE10FA04DDB9
:103B9000FFE70F994869C86715E00F9890ED051A7F
:103BA00090ED1F0AB1EE411AB4EE410AF1EE10FA9F
:103BB00008DAFFE70F9890ED050AB1EE400A80EDB4
:103BC0001F0AFFE7FFE70F9890ED030A90ED221A16
:103BD00020EE010A5C30FFF7CFFD0F9880ED270A39
:103BE0000F989DED0E3A90ED000A90ED021A8DEDC2
:103BF000011A90ED041A90ED1F2A20EE030A30EE10
:103C0000020A8DED000A90ED210A80EE010A44308F
:103C1000FFF7B2FD9DED001AB0EE402A9DED010ABE
:103C200020EE020A30EE010A0F9880ED200A0F986C
:103C300090ED200A90ED271A30EE010A80ED200A5F
:103C40000F9890ED061A90ED200AB4EE410AF1EEBD
:103C500010FA05DDFFE70F998869C1F8800015E0CB
:103C60000F9890ED061A90ED200AB1EE411AB4EECD
:103C7000410AF1EE10FA08DAFFE70F9890ED060A14
:103C8000B1EE400A80ED200AFFE7FFE70F9890EDC4
:103C9000200A10B080BD00BF000000000000E03F1F
:103CA00081B0009000990020C8670099C1F89C007D
:103CB0000099C1F8800001B07047000080B58AB05B
:103CC000DDF834C0DDF830C0099008910792069302
:103CD0008DED050ACDED040A8DED031ACDED021A26
:103CE0008DED012A099940F23910C2F20000C86135
:103CF000099940F20810C2F200000862099940F2E6
:103D0000C800C2F2000048620898099988620798C2
:103D10000999C86206980999086309990C9A10686C
:103D200052688A63486309990D9A106852680A6458
:103D3000C863099941F26F20C3F683200861059892
:103D40000999C8600498099948610398099988619C
:103D50009DED020A09984430FFF7A6FD9DED010A8A
:103D600009985C30FFF7A0FD0AB080BD82B00190D9
:103D70008DED000A00980199886702B07047000035
:103D800082B001908DED000A00980199486702B059
:103D90007047000080B584B003900291039991EDC3
:103DA000010ABDEEC00A10EE100A4882029801789E
:103DB000407840EA012000B200EE100AB8EEC00AD6
:103DC000039880ED010A02988178C07840EA0120CA
:103DD00000B200EE100AB8EEC00A039880ED020AA5
:103DE00002980179407940EA012000B200EE100A01
:103DF000B8EEC00A039880ED030A0298807903990F
:103E00000874039890ED010AB0F9120001EE100A4F
:103E1000B8EEC11A30EE410ABDEEC00A8DED010ABE
:103E200001984EF68321CFF6FF71884205DCFFE74B
:103E300003994869013048610BE0019841F27D51D6
:103E4000884205DBFFE70399486901384861FFE7CD
:103E5000FFE7039890ED011A90ED050AB8EEC00A4D
:103E60009FED0E2A81EE023A9FED0D1A23EE013AE4
:103E700020EE010A30EE030A80ED070A039890ED68
:103E8000010A80EE020A20EE010A80ED060A03F024
:103E90002BF90399086204B080BD00BF0000004602
:103EA0000000B44380B582B0019003F01DF9019980
:103EB000C86001994868098903F0E8F80199087019
:103EC0000198007802B080BD80B582B00190019960
:103ED00048680989002203F0F1F80198FFF7E2FF32
:103EE0000199087002B080BD80B582B0019001993F
:103EF00048680989012203F0E1F80198FFF7D2FF31
:103F00000199087002B080BD80B584B047F290502E
:103F1000C1F6FF700068039047F29450C1F6FF703D
:103F20000068029047F29850C1F6FF700068019057
:103F30000199039808440390039888B1FFE7039818
:103F400040F2B041C2F2000100910231082208F0B3
:103F5000E5FC009902981231042208F0DFFCFFE72B
:103F600004B080BD40F6A400C2F20000704700001B
:103F700080B582B0FFF7F6FF019001990020C8706C
:103F800001994870019908700199887040F6CC41F8
:103F9000C2F200010020C4F27A50486000F01CF820
:103FA00002B080BD80B582B08DF80700FFF7DAFF60
:103FB00000900099087848709DF8070000990870F3
:103FC000009801784078884204D0FFE700990120EA
:103FD000C870FFE702B080BD80B584B0FFF7C2FFB4
:103FE00003900398143040F2C411C2F200016A46F3
:103FF000516040F2CC11C2F20001116040F20C217C
:10400000C2F2000140F2F012C2F2000240F2D413F8
:10401000C2F200039FED1A0ADFED1A0A9FED1A1A89
:10402000DFED1A1A9FED1A2A8DED022AFFF746FEE0
:104030009DED022A0398B43040F27C11C2F20001D7
:104040006A46516040F28411C2F20001116040F2F0
:10405000A811C2F2000140F28C12C2F2000240F636
:104060000463C2F200039FED0B0ADFED0B0AB2EE10
:104070000E1AF0EE421AFFF721FE04B080BD00BF19
:1040800000409C460000FA450050C34620BCBE4C90
:10409000A9271F43000000009A99193E0000000064
:1040A00080B58AB0FFF75EFF099008F0BFF908906D
:1040B0000998C078012814D1FFE709981430FFF758
:1040C000EFFD0998B430FFF7EBFD09994868C1F896
:1040D000880009998868C1F8280109990020C870EA
:1040E000FFE7099800F1B4010191006980F00040F8
:1040F00017F0CAF941EC100B51EC100B9FED380B87
:1041000053EC102B0393029216F0D2FF41EC100BEC
:1041100051EC100B9FED340B53EC102B05930492D4
:1041200016F0A0FD41EC100B51EC100B16F0B4FC96
:104130000146019800EE101AFFF722FE0998B430EC
:1041400006900898406880F0004017F09DF9029AA8
:10415000039B41EC100B51EC100B16F0A9FF049AD5
:10416000059B41EC100B51EC100B16F07BFD41EC64
:10417000100B51EC100B16F08FFC0146069800EE68
:10418000101AFFF7F3FD099800F114010791B430FC
:10419000FFF72EFC0798FFF7F3FD099814300899F4
:1041A00091ED040AB1EE400AFFF7E0FD09981430E2
:1041B000FFF71EFC40F6CC40C2F200000BF062F9A3
:1041C00040F6F840C2F200000AF0E6FF0999D1F883
:1041D000880048600999D1F8280188600AB080BD3C
:1041E0004AD8124DFB2109400000000000806640C3
:1041F00080B582B00190FFE740F69C00C2F200005B
:10420000006820B9FFE7012014F0F6FCF4E7FFE7AF
:10421000FFF746FF00F004F8012014F0EDFCF7E78B
:1042200080B582B0FFF79EFE0190019800780146AC
:104230000091032814D80099DFE801F002060A0E65
:104240000199002088700BE001990120887007E037
:1042500001990220887003E0019903208870FFE72C
:1042600002B080BD80B586B004900391002001901B
:10427000FFE7049890F85800012804D1FFE70220D6
:104280008DF817005AE00499012081F85800FFE7E3
:10429000FFE70498FCF7B8FB8DF80B009DF80B00C6
:1042A000D8BBFFE70498C06D40F0020020F48850AE
:1042B0000499C86504980068039909F0D5FDFFE7E3
:1042C0000498006809F0A4FCF0B1FFE70198013000
:1042D000019001984DF60261C0F20401884212D3A8
:1042E000FFE70498C06D40F0100020F00200049930
:1042F000C865FFE70499002081F85800FFE7012016
:104300008DF817001AE0DBE70498C06D40F001005B
:1043100020F002000499C86505E00499C86D40F0DA
:104320001000C865FFE7FFE70499002081F85800F6
:10433000FFE79DF80B008DF81700FFE79DF81700C9
:1043400006B080BD81B0009001B0704781B0009090
:1043500001B0704781B0009001B0704781B000900B
:1043600001B0704781B0009001B0704780B5C4B013
:104370002490239100208DF88B001F902398C06813
:104380000021C4F27F01884201D0FFE700E0FFE78F
:10439000FFE7249890F85800012805D1FFE7022094
:1043A0008DF8970000F059BC2499012081F858003D
:1043B000FFE7FFE72498006809F052FC002840F06E
:1043C0003884FFE72498006823990A68496809F04F
:1043D0005BFC2498006809F043FC1E902498006858
:1043E00009F002FC1D901E98002840F0B881FFE7FC
:1043F0001D98002840F0B381FFE723988068B0F152
:10440000004F0ED1FFE72498006823990968002225
:1044100009F066FC249800684FF0004109F016FD91
:104420000CE024980068239A1168926809F058FCFF
:1044300024980068002109F009FDFFE723984069EE
:1044400024990968C96801F01801890888402190F9
:104450002398006904281CD0FFE72498006823995A
:104460000A680969219B09F097FC24980068239A3F
:104470001169926909F0C2FC24980068239A1169B5
:10448000127F013AB2FA82F25209520609F0A2FCF6
:1044900064E124980068002109F096FB400348B9C4
:1044A000FFE724980068002109F08EFBC0F38460C8
:1044B0001C9018E024980068002109F085FB90FA10
:1044C000A0F04290429820B9FFE720208DF80F011C
:1044D00005E04298B0FA80F08DF80F01FFE79DF8F3
:1044E0000F011C90FFE71C981B9023980068400365
:1044F00030B9FFE723980068C0F384601A9015E094
:104500002398006890FAA0F04090409820B9FFE707
:1045100020208DF8070105E04098B0FA80F08DF872
:104520000701FFE79DF807011A90FFE71B981A990A
:10453000884207D1FFE7249800680022114609F05D
:1045400071FCFFE724980068012109F03DFB40035E
:1045500048B9FFE724980068012109F035FBC0F352
:104560008460199018E024980068012109F02CFB60
:1045700090FAA0F03E903E9820B9FFE720208DF8F9
:10458000FF0005E03E98B0FA80F08DF8FF00FFE7ED
:104590009DF8FF001990FFE719981890239800687C
:1045A000400330B9FFE723980068C0F38460179098
:1045B00015E02398006890FAA0F03C903C9820B950
:1045C000FFE720208DF8F70005E03C98B0FA80F076
:1045D0008DF8F700FFE79DF8F7001790FFE71898B0
:1045E0001799884207D1FFE724980068012100222B
:1045F00009F018FCFFE724980068022109F0E4FAAA
:10460000400348B9FFE724980068022109F0DCFA6A
:10461000C0F38460169018E024980068022109F025
:10462000D3FA90FAA0F03A903A9820B9FFE7202008
:104630008DF8EF0005E03A98B0FA80F08DF8EF00C1
:10464000FFE79DF8EF001690FFE716981590239866
:104650000068400330B9FFE723980068C0F3846026
:10466000149015E02398006890FAA0F038903898DC
:1046700020B9FFE720208DF8E70005E03898B0FA70
:1046800080F08DF8E700FFE79DF8E7001490FFE762
:1046900015981499884207D1FFE7249800680221F1
:1046A000002209F0BFFBFFE724980068032109F00E
:1046B0008BFA400348B9FFE724980068032109F00A
:1046C00083FAC0F38460139018E0249800680321F3
:1046D00009F07AFA90FAA0F03690369820B9FFE700
:1046E00020208DF8DF0005E03698B0FA80F08DF8D4
:1046F000DF00FFE79DF8DF001390FFE713981290AB
:1047000023980068400330B9FFE723980068C0F39E
:104710008460119015E02398006890FAA0F034901E
:10472000349820B9FFE720208DF8D70005E03498B1
:10473000B0FA80F08DF8D700FFE79DF8D700119010
:10474000FFE712981199884207D1FFE72498006883
:104750000321002209F066FBFFE7FFE7FFE724984B
:10476000006809F06DFA002840F04481FFE72498C2
:104770000068239A1168D26809F0CEFA2398C068BD
:104780000021C4F27F01884240F03381FFE7249882
:104790000068109023980068400330B9FFE7239821
:1047A0000068C0F384600F9015E02398006890FAC9
:1047B000A0F03290329820B9FFE720208DF8CF008A
:1047C00005E03298B0FA80F08DF8CF00FFE79DF851
:1047D000CF000F90FFE70F98013000F01F0009286D
:1047E0007DD8FFE723980068400330B9FFE723989E
:1047F0000068C0F384600E9015E02398006890FA7A
:10480000A0F03090309820B9FFE720208DF8C70045
:1048100005E03098B0FA80F08DF8C700FFE79DF80A
:10482000C7000E90FFE70E98013000F01F008006D1
:104830000D9023980068400330B9FFE72398006883
:10484000C0F384600C9015E02398006890FAA0F003
:104850002E902E9820B9FFE720208DF8BF0005E0AC
:104860002E98B0FA80F08DF8BF00FFE79DF8BF00EA
:104870000C90FFE70D980C99013101F01F02012106
:10488000914008430B9023980068400330B9FFE73C
:1048900023980068C0F384600A9015E023980068AC
:1048A00090FAA0F02C902C9820B9FFE720208DF8EA
:1048B000B70005E02C98B0FA80F08DF8B700FFE75C
:1048C0009DF8B7000A90FFE70B980A99013101F0B3
:1048D0001F0101EB410140EA0150099082E0239859
:1048E0000068400330B9FFE723980068C0F3846094
:1048F000089015E02398006890FAA0F02A902A9872
:1049000020B9FFE720208DF8AF0005E02A98B0FA23
:1049100080F08DF8AF00FFE79DF8AF000890FFE74B
:104920000898013000F01F00800607902398006867
:10493000400330B9FFE723980068C0F38460069015
:1049400015E02398006890FAA0F02890289820B9E4
:10495000FFE720208DF8A70005E02898B0FA80F046
:104960008DF8A700FFE79DF8A7000690FFE70798DE
:104970000699013101F01F02012191400843059081
:1049800023980068400330B9FFE723980068C0F31C
:104990008460049015E02398006890FAA0F02690B7
:1049A000269820B9FFE720208DF89F0005E0269883
:1049B000B0FA80F08DF89F00FFE79DF89F0004900B
:1049C000FFE705990498013000F01F0000EB40025A
:1049D0000020CFF6206000EB0250084340F000704A
:1049E0000990FFE710980999239A926809F078F9DD
:1049F000FFE7FFE72398408848F20801084200F0EB
:104A00001781FFE7249801680120B1F1A04F0390BE
:104A10000CD0FFE7249800684FF60071CAF6FF71CA
:104A20000844B0FA80F040090390FFE70398C107FB
:104A300040F20070C5F2000000291CBF40F20030B7
:104A4000C5F2000009F0A8F820902398006840F211
:104A50000001CCF22131884208D0FFE7239800689A
:104A60001021C9F2C00188425AD1FFE79DF88200A7
:104A70000006002854D4FFE724980068B0F1A04F46
:104A800009D0FFE72498006840F20061C5F20001F8
:104A9000884244D1FFE7249801680120B1F1A04F7A
:104AA00002900CD0FFE7249800684FF60071CAF618
:104AB000FF710844B0FA80F040090290FFE70298C5
:104AC000C10740F20070C5F2000000291CBF40F28F
:104AD0000030C5F20000209941F4000109F04EF9C0
:104AE00040F25C30C2F2000000684FEA901042F6DB
:104AF0006351C0F23E51A0FB01104FEA901000EB51
:104B000040014FF00C0000EB81001F90FFE71F9861
:104B100020B1FFE71F9801381F90F8E7FFE786E014
:104B2000239800680021CCF2527188423ED1FFE701
:104B30009DF88300C007C8BBFFE72498006840F2D7
:104B40000011C5F20001884209D1FFE724980068EE
:104B500040F20051C5F20001884226D0FFE72498B8
:104B600001680120B1F1A04F01900CD0FFE724981B
:104B700000684FF60071CAF6FF710844B0FA80F081
:104B800040090190FFE70198C10740F20070C5F2AB
:104B9000000000291CBF40F20030C5F2000020993F
:104BA00041F0807109F0EAF8FFE73FE023980068E0
:104BB0000021CCF68431884236D1FFE79DF882008F
:104BC0004006002830D4FFE72498006840F2001126
:104BD000C5F20001884226D0FFE724980168012031
:104BE000B1F1A04F00900CD0FFE7249800684FF679
:104BF0000071CAF6FF710844B0FA80F040090090D5
:104C0000FFE70098C10740F20070C5F200000029DC
:104C10001CBF40F20030C5F20000209941F4800131
:104C200009F0ACF8FFE700E0FFE7FFE7FFE7FFE789
:104C300008E02499C86D40F02000C86501208DF877
:104C40008B00FFE7FFE72499002081F85800FFE779
:104C50009DF88B008DF89700FFE79DF8970044B012
:104C600080BD000081B0009001B0704781B000901D
:104C700001B0704781B0009001B0704780B594B02A
:104C800013900020129013980068006811901398F8
:104C9000006840681090139801680120B1F1A04F9E
:104CA0000A900CD0FFE7139800684FF60071CAF61F
:104CB000FF710844B0FA80F040090A90FFE70A98B3
:104CC000C10740F20070C5F2000000291CBF40F28D
:104CD0000030C5F2000008F06FFF0B909DF8440013
:104CE0004FEA807000281AD5FFE79DF84000800742
:104CF000002814D5FFE71398C06DC006002806D41D
:104D0000FFE71399C86D40F40060C865FFE713988A
:104D1000FFF718FB1398016802200860FFE79DF871
:104D200044004007002806D5FFE7109800F0040073
:104D300004280ED0FFE79DF844000007002840F14A
:104D4000C080FFE79DF840000007002840F1B980CF
:104D5000FFE71398C06DC006002806D4FFE713993B
:104D6000C86D40F40070C865FFE71398006808F04C
:104D70007FFF002800F09D80FFE71398006840F255
:104D80000011C5F20001884204D1FFE74FF0A040B6
:104D9000099015E01398006840F20051C5F2000137
:104DA000884206D1FFE740F20040C5F200000890BB
:104DB00003E0139800680890FFE708980990FFE760
:104DC00009981399096888420BD0FFE70B9840B106
:104DD000FFE70B98052804D0FFE70B98092805D1B9
:104DE000FFE713980068C0680D9028E013980068EA
:104DF00040F20011C5F20001884204D1FFE74FF0F4
:104E0000A040079015E01398006840F20051C5F2E9
:104E10000001884206D1FFE740F20040C5F20000E1
:104E2000069003E0139800680690FFE70698079045
:104E3000FFE707980C900C98C0680D90FFE70D985D
:104E400000F40050B0F5005F32D0FFE7139800681F
:104E50000068000700282AD5FFE71398006808F0CB
:104E6000FFFEC0B9FFE713980168486820F00C0006
:104E700048601399C86D20F48070C8651398C06DA0
:104E8000C004002806D4FFE71399C86D40F0010064
:104E9000C865FFE70AE01399C86D40F01000C865C7
:104EA0001399086E40F001000866FFE7FFE7FFE78F
:104EB000FFE71398FFF7D6FE139801680C200860EF
:104EC000FFE79DF844008006002806D5FFE710980C
:104ED00000F0200020280ED0FFE79DF84400400697
:104EE000002840F1D680FFE79DF8400040060028EA
:104EF00040F1CF80FFE71398C06DC006002806D4AC
:104F0000FFE71399C86D40F40050C865FFE7139898
:104F1000006808F071FE0F901398006808F0A8FE72
:104F20000E901398006840F20011C5F2000188420B
:104F300004D1FFE74FF0A040059015E013980068FA
:104F400040F20051C5F20001884206D1FFE740F26D
:104F50000040C5F20000049003E01398006804903C
:104F6000FFE704980590FFE70598139909688842C0
:104F70000BD0FFE70B9840B1FFE70B98062804D051
:104F8000FFE70B98072805D1FFE713980068C06872
:104F90000D9028E01398006840F20011C5F200015E
:104FA000884204D1FFE74FF0A040039015E013982A
:104FB000006840F20051C5F20001884206D1FFE7C7
:104FC00040F20040C5F20000029003E01398006830
:104FD0000290FFE702980390FFE703980C900C986B
:104FE000C0680D90FFE70F9800284AD0FFE79DF8B2
:104FF0003700800700280AD5FFE70E9800283FD029
:10500000FFE79DF835008006002839D4FFE71398A4
:10501000006800684006002831D5FFE79DF836009B
:10502000800600282AD4FFE71398006808F0DCFD0A
:10503000C0B9FFE713980168486820F06000486035
:105040001399C86D20F48050C8651398C06DC005D1
:10505000002806D4FFE71399C86D40F00100C86529
:10506000FFE70AE01399C86D40F01000C865139976
:10507000086E40F001000866FFE7FFE7FFE7FFE783
:10508000FFE71398FFF762F9139801686020086042
:10509000FFE79DF844000006002813D5FFE79DF8C0
:1050A0004000000600280DD5FFE71399C86D40F4B5
:1050B0008030C865139800F0ADFA1398016880201D
:1050C0000860FFE79DF84500C00798B1FFE79DF82D
:1050D0004100C00770B1FFE71399C86D40F400307C
:1050E000C8651398FFF73AF9139801684FF4807078
:1050F0000860FFE79DF845008007002814D5FFE70A
:105100009DF84100800700280ED5FFE71399C86D70
:1051100040F48020C8651398FFF724F913980168BC
:105120004FF400700860FFE79DF84400C0060028B7
:105130005AD5FFE79DF84000C006002854D5FFE788
:105140001398C06B18B9FFE70120129035E00B9857
:1051500040B3FFE7139801680120B1F1A04F01901F
:105160000CD0FFE7139800684FF60071CAF6FF7184
:105170000844B0FA80F040090190FFE70198C107A8
:1051800040F20070C5F2000000291CBF40F2003060
:10519000C5F2000008F008FD18B1FFE701201290E9
:1051A000FFE709E013980068C068C00718B1FFE77F
:1051B00001201290FFE7FFE7FFE7129801280ED1C8
:1051C000FFE71399C86D40F48060C8651399086EB5
:1051D00040F0020008661398FFF74CFDFFE71398B4
:1051E000016810200860FFE79DF84500400700288F
:1051F00019D5FFE79DF841004007002813D5FFE7C8
:105200001399C86D40F48040C8651399086E40F04A
:1052100008000866139801684FF4806008601398CE
:10522000FFF798F8FFE714B080BD000080B58EB09E
:105230000C9000208DF82F0008900C9820B9FFE703
:1052400001208DF83700E1E10C98406940B1FFE79B
:105250000C9890F82400012801D1FFE7FFE7FFE751
:105260000C98C06D50B9FFE70C9800F0D7F90C9975
:10527000002008660C9981F85800FFE70C98006838
:1052800008F0CEFC28B1FFE70C98006808F05AFC43
:10529000FFE70C98006808F0DBFCF0B9FFE70C981A
:1052A000006808F069FC40F25C30C2F2000000685F
:1052B000800942F66351C0F23E51A0FB0110810902
:1052C000022000EB41000890FFE7089820B1FFE7BB
:1052D000089801380890F8E7FFE70C98006808F094
:1052E000B7FC70B9FFE70C99C86D40F01000C865B5
:1052F0000C99086E40F00100086601208DF82F001F
:10530000FFE70C98006808F0ABFC09900C98C06DA2
:10531000C006002800F16C81FFE70998002840F0E2
:105320006781FFE70C98C06D40F0020020F48070A8
:105330000C99C8650C98006808F082FC00287CD1A4
:10534000FFE70C9801680120B1F1A04F05900CD047
:10535000FFE70C9800684FF60071CAF6FF71084429
:10536000B0FA80F040090590FFE70598C10740F2C8
:105370000070C5F2000000291CBF40F20030C5F2E9
:10538000000040F20031C5F20001884210D1FFE771
:105390004FF0A04008F054FC039040F20010C5F21A
:1053A000000008F04DFC01460398084304901BE000
:1053B00040F20040C5F2000008F042FC019040F2CB
:1053C0000050C5F2000008F03BFC0146019808437C
:1053D000029040F20060C5F2000008F031FC014686
:1053E000029808430490FFE7049828BBFFE70C9855
:1053F00001680120B1F1A04F00900CD0FFE70C989C
:1054000000684FF60071CAF6FF710844B0FA80F0E8
:1054100040090090FFE70098C10740F20070C5F214
:10542000000000291CBF40F20030C5F200000C99BA
:10543000496808F095FCFFE7FFE70C994A7FC86BC5
:1054400040EA42308A68CB681843104391F8241030
:1054500040EA01400A900C9890F8240001280BD1F2
:10546000FFE70C98816A0020CFF6FE7000EB414107
:105470000A9808430A90FFE70C98C06A50B1FFE70A
:105480000C99C86A096B00F4787001430A980843C4
:105490000A90FFE70C980068C06844F20701CFF655
:1054A000F07108400A9908430C990968C8600C9883
:1054B0000068006920F040600C9A1168526B10433C
:1054C00008610C98006808F0CBFB07900C98006806
:1054D00008F08AFB06900798002868D1FFE7069835
:1054E000002864D1FFE70C99087F91F838108003F9
:1054F00040EA41000A900C980068C06844F202013A
:1055000088430A9908430C990968C8600C98006997
:10551000A0B1FFE70C980168086940F48030086189
:105520000C980068D0F8C00043F6FF7188430C9ACD
:10553000116812691043C1F8C00011E00C980168AD
:10554000086920F4803008610C980068D0F8C00029
:1055500043F6FF7188430C990968C1F8C000FFE762
:105560000C9890F84000012819D1FFE70C980068CA
:10557000006940F2FD7120EA01020C9B1968586C29
:10558000D3F848E0D3F84CC040EA0E0040EA0C00E3
:105590001B6D1843104340F00100086106E00C98B1
:1055A0000168086920F001000861FFE7FFE70C9837
:1055B000406901280CD1FFE70C980068006B20F0CF
:1055C0000F000C9A1168126A013A1043086306E052
:1055D0000C980168086B20F00F000863FFE70C9837
:1055E000C06D40F0010020F002000C99C86508E091
:1055F0000C99C86D40F01000C86501208DF82F008F
:10560000FFE79DF82F008DF83700FFE79DF8370082
:105610000EB080BD81B0009001B0704780B5A0B0E1
:105620001F9000201E901D901C901B901A9005A8A2
:105630005421FAF7DAFF1F98006840F20011C5F212
:10564000000188426ED1FFE74FF4004005904FF013
:105650000050169005A803F0DDF918B1FFE7FDF73B
:105660000BFFFFE7FFE741F24C00C4F202000168C4
:1056700041F400510160006800F400500490049867
:10568000FFE7FFE741F24C00C4F20200016841F07D
:1056900002010160006800F0020003900398FFE738
:1056A00004201A9003201B90002001901C9040F2CF
:1056B0000040C4F600001AA901F034FB019942F63B
:1056C000F410C2F2000002903022C4F20202026022
:1056D000242242608160C160802202614FF4007226
:1056E00042614FF4006282612022C261016200F0D7
:1056F0007DFA18B1FFE7FDF7BFFEFFE7FFE71F9850
:1057000042F6F411C2F2000141651F988862FFE77A
:10571000122000900521002201F0C2FD009801F046
:10572000B5FDFFE720B080BD80B58AB00890079135
:105730000692089801680120B1F1A04F03900CD0A7
:10574000FFE7089800684FF60071CAF6FF71084439
:10575000B0FA80F040090390FFE70398C10740F2D8
:105760000070C5F2000000291CBF40F20030C5F2F5
:10577000000008F021FA04900898006808F070FA18
:10578000002840F0CA80FFE7FFE7089890F858002B
:10579000012804D1FFE702208DF82700C6E0089910
:1057A000012081F85800FFE7FFE70898006840F201
:1057B0000061C5F2000188420CD0FFE7049848B1AF
:1057C000FFE70498052805D0FFE70498092840F072
:1057D0009980FFE70898FBF779F98DF817009DF895
:1057E0001700002840F08680FFE70898C06D40F45D
:1057F000807040F6016188430899C8650898006880
:1058000040F20011C5F20001884204D1FFE74FF0D9
:10581000A040029015E00898006840F20051C5F2DF
:105820000001884206D1FFE740F20040C5F20000C7
:10583000019003E0089800680190FFE7019802904A
:10584000FFE7029808990968884203D0FFE70498A7
:1058500030B9FFE70899C86D20F48010C865FFE7EC
:105860000898C06DC004002806D5FFE70899086EA7
:1058700020F00600086603E0089900200866FFE7AC
:105880000898416D40F6B100C0F60000C862089863
:10589000416D40F6B110C0F6000008630898416DF4
:1058A00040F68510C0F600004863089801681C2087
:1058B0000860FFE70899002081F85800FFE7089882
:1058C0000168486840F01000486008980168C8689E
:1058D00040F00100C86008980168406D4031079AA7
:1058E000069B00F02FFA8DF817000898006808F062
:1058F000E9F906E0FFE70899002081F85800FFE782
:10590000FFE709E001208DF81700FFE70899002064
:1059100081F85800FFE7FFE703E002208DF8170049
:10592000FFE79DF817008DF82700FFE79DF8270097
:105930000AB080BD82B0019000208DF8030001986C
:1059400090F82500022807D0FFE701990420C863DA
:1059500001208DF803002DE001980168086820F00F
:105960000E0008600198816C086820F4807008605F
:1059700001980168086820F0010008600198016C36
:10598000406C00F01F020120904048600198C16CFB
:10599000006D48600198406D58B1FFE70198416D76
:1059A000086820F4807008600198816DC06D4860BF
:1059B000FFE7FFE70199012081F82500FFE7019942
:1059C000002081F82400FFE79DF8030002B0704733
:1059D00080B582B0019000208DF80300019890F806
:1059E0002500022811D0FFE701990420C86301991E
:1059F000012081F82500FFE70199002081F82400AB
:105A0000FFE701208DF803003FE001980168086876
:105A100020F00E00086001980168086820F001007D
:105A200008600198816C086820F480700860019813
:105A3000016C406C00F01F0201209040486001980A
:105A4000C16C006D48600198406D58B1FFE7019846
:105A5000416D086820F4807008600198816DC06D08
:105A60004860FFE70199012081F82500FFE70199CF
:105A7000002081F82400FFE70198806B20B1FFE748
:105A80000198816B8847FFE7FFE79DF8030002B0AC
:105A900080BD000080B584B003900398006C00685E
:105AA0000290039800680068019002980399496C7D
:105AB00001F01F01C8404007002825D5FFE79DF8E9
:105AC0000400400700281FD5FFE70398006800681E
:105AD0008006002807D4FFE703980168086820F0D3
