:020000040800F2
:10000000508E0020C5020008E16F0008E56300087B
:10001000456D00088109000821A4000800000000C7
:10002000000000000000000000000000218900081E
:100030007512000800000000717D00084589000865
:10004000DF020008897A0008DF020008DF020008EA
:10005000DF020008DF020008DF020008DF020008FC
:10006000DF020008DF020008DF020008DF020008EC
:10007000DF020008BD100008DF020008DF020008F0
:10008000DF020008DF020008DF020008DF020008CC
:10009000DF02000889120008DF020008DF02000802
:1000A000DF020008DF020008DF020008DF020008AC
:1000B000DF020008DF020008DF020008DF0200089C
:1000C000DF020008DF020008DF020008DF0200088C
:1000D000DF020008DF02000811A40008DF020008A8
:1000E000DF020008DF020008DF020008DF0200086C
:1000F000DF020008DF020008DF020008DF0200085C
:10010000DF020008DF020008DF020008DF0200084B
:10011000DF020008DF020008DF020008DF0200083B
:10012000DF020008DF020008DF020008DF0200082B
:10013000DF020008DF020008DF020008DF0200081B
:10014000DF020008DF020008DF02000800000000F4
:10015000000000000000000000000000000000009F
:10016000000000000000000000000000DF020008A6
:10017000DF020008DF020008098A0008DF02000829
:10018000DF020008DF020008DF020008DF020008CB
:10019000DF0200080000000099120008DF020008DA
:1001A000A9120008DF020008DF020008DF020008D1
:1001B000DF020008DF020008DF020008DF0200089B
:1001C000DF020008DF020008DF020008DF0200088B
:1001D000DF020008DF02000800F002F800F062F819
:1001E0000AA090E8000C82448344AAF10107DA4592
:1001F00001D100F057F8AFF2090EBAE80F0013F082
:10020000010F18BFFB1A43F0010318471400010047
:10021000340001000A4410F8013B13F0030408BF46
:1002200010F8014B1D1108BF10F8015B641E05D0CA
:1002300010F8016B641E01F8016BF9D1002D15D087
:1002400010F8014B03F00C030C2BA1EB04040ABFC4
:1002500010F8013BA4EB8314A4EB032405F1010384
:1002600014F8016B5B1E01F8016BF9D5914238BFA0
:1002700010F8013BD1D3704700230024002500264D
:10028000103A28BF78C1FBD8520728BF30C148BFF9
:100290000B6070471FB50FF08AFC00F077F91FBDA7
:1002A00010B510BD00F0AAF91146FFF7F3FF0DF0ED
:1002B0003FF900F0C8F903B4FFF7F2FF03BC00F008
:1002C00093F900000948804709480047FEE7FEE728
:1002D000FEE7FEE7FEE7FEE7FEE7FEE7FEE7FEE7F6
:1002E00004480549054A064B70470000F589000897
:1002F000D9010008505E0020508E0020506E002072
:10030000506E002053EA020C00F069802DE9F04B9A
:100310004FF00006002B1FBFB3FA83F503FA05F474
:1003200024FA05F65E4012BF1643B2FA82F502FACD
:1003300005F4C5F120051EBF22FA05FC44EA0C04B1
:10034000203556EA044C4FEA144418BF641C4FF0A1
:1003500000084FF00009904271EB030C39D30029DB
:1003600019BFB1FA81F701FA07F6B0FA80F700FA7F
:1003700007F6C7F120071EBF20FA07FC46EA0C0665
:100380002037B6FBF4FCA7EB0507103F07F01F0B67
:10039000CBF120062CFA06F60CFA0BFB44BFB34651
:1003A0000026202FA4BF5E464FF0000B5BEA060C30
:1003B00008BF4FF0010B19EB0B0948EB0608ABFB2C
:1003C000027C06FB02CC0BFB03CCC01B71EB0C01C7
:1003D000C1E70B46024641464846BDE8F08B13B5DF
:1003E000084318BF4FF0FF300146AFF30080BDE86F
:1003F0001C407047032A40F2308010F0030C00F0DC
:10040000158011F8013BBCF1020F624498BF11F84E
:1004100001CB00F8013B38BF11F8013BA2F1040207
:1004200098BF00F801CB38BF00F8013B11F003037F
:1004300000F02580083AC0F0088051F8043B083AE3
:1004400051F804CBA0E80810F5E7121D5CBF51F885
:10045000043B40F8043BAFF30080D20724BF11F8FF
:10046000013B11F801CB48BF11F8012B24BF00F864
:10047000013B00F801CB48BF00F8012B704710B5D5
:10048000203AC0F00B80B1E81850A0E81850B1E84D
:100490001850A0E81850203ABFF4F5AF5FEA027C8C
:1004A00024BFB1E81850A0E8185044BF18C918C0BC
:1004B000BDE810405FEA827C24BF51F8043B40F85D
:1004C000043B08BF7047D20728BF31F8023B48BF42
:1004D00011F8012B28BF20F8023B48BF00F8012B80
:1004E000704702F0FF0343EA032242EA024200F0AF
:1004F00024B84FF000020429C0F0128010F0030C61
:1005000000F01B80CCF1040CBCF1020F18BF00F806
:10051000012BA8BF20F8022BA1EB0C0100F00DB8B5
:100520005FEAC17C24BF00F8012B00F8012B48BF13
:1005300000F8012B70474FF0000200B513469446B7
:100540009646203922BFA0E80C50A0E80C50B1F12B
:100550002001BFF4F7AF090728BFA0E80C5048BF3F
:100560000CC05DF804EB890028BF40F8042B08BFDD
:10057000704748BF20F8022B11F0804F18BF00F8D9
:10058000012B7047704770477047000070B5064CEC
:100590007C44064D7D4404E02046016808448047C1
:1005A000241DAC42F8D170BDACFC0000ACFC0000D6
:1005B00010B500F009F8006810BD10B5044600F051
:1005C00003F8046010BD000000487047400600209A
:1005D00010B5002000F040F8FFF762FEBDE81040C3
:1005E000012000F001B8000001491820ABBEFEE771
:1005F0002600020000487047400600207546FFF7BD
:10060000F9FFAE4605006946534620F007008546CF
:1006100018B020B5FFF764FEBDE820404FF000069B
:100620004FF000074FF000084FF0000BAC46ACE86D
:10063000C009ACE8C009ACE8C009ACE8C00921F0C9
:1006400007018D46704710B50446AFF30080204681
:10065000BDE81040FFF72FBE10B500F00BF8BDE865
:10066000104000F001B87047002801D0FFF7BCBF70
:100670007047000010B5002102A000F013F801201F
:1006800010BD0000534947414252543A2041626E26
:100690006F726D616C207465726D696E6174696FE3
:1006A0006E00000070B505460C460A2000E06D1C87
:1006B00000F011F835B128780028F8D102E0641C68
:1006C00000F009F814B120780028F8D1BDE8704096
:1006D0000A20AFF3008008B569468DF800000320BA
:1006E000ABBE08BD80B588B0079006910592049313
:1006F000079840F20001C2F20001096888423FD128
:10070000FFE741F63411C2F20001002001900870A9
:100710000599049A40F21070C2F20000FFF76AFED9
:1007200001980390FFE70398032828DCFFE7069869
:10073000039A40F21801C2F2000151F832108842C7
:1007400018D1FFE7039940F21800C2F2000000EB55
:10075000C100406870B1FFE7039940F21800C2F28F
:10076000000000EBC100416840F21070C2F20000CE
:10077000884747E0FFE7039801300390D3E741E063
:10078000079840F20401C2F200010968884238D19A
:10079000FFE70599049A40F21070C2F20000FFF7DB
:1007A00029FE00200290FFE70298002828DCFFE7DE
:1007B0000698029A40F21001C2F2000151F832107C
:1007C000884218D1FFE7029940F21000C2F20000FF
:1007D00000EBC100406870B1FFE7029940F21000E1
:1007E000C2F2000000EBC100416840F21070C2F29A
:1007F0000000884706E0FFE7029801300290D3E747
:10080000FFE7FFE708B080BD40F2A460C2F200003D
:100810007047000080B541F26460C2F2000040F20F
:10082000052100F019FE41F28860C2F2000040F29A
:10083000062100F011FE41F24060C2F20000982152
:1008400000F00AFE80BD000080B584B000F03AF8E8
:10085000FFF7DAFF039003990420087002F07CFF91
:10086000029000200190FFE7019802281BDCFFE7BF
:10087000019940F23800C2F2000050F8210068B13E
:10088000FFE7019940F23800C2F2000050F8211051
:1008900040F25070C2F200008847FFE7FFE701987E
:1008A00001300190E0E703990120087004B080BD99
:1008B00080B582B00190FFE7FFF7C6FF01200CF082
:1008C0006BFEF9E780B584B0FFF79EFF039000F060
:1008D000F9FF029007F05AFF0190019890F8EC019F
:1008E000039981F82400019890F8F601039981F8A2
:1008F00030000198B0F8F201039988850198D0F88A
:100900001C02039988620198B0F8F4010399C88425
:10091000019890F8F601039981F83000019890F859
:10092000F801039981F82F00019890F804020399C7
:1009300081F831000198D0F80002039948630198CA
:1009400090F82002C0F38002039991F8690000F04A
:10095000FE00104481F86900019890F8D2010399D3
:1009600081F83A000198B0F8D40130B1FFE701985E
:10097000B0F8D40103990887FFE704B080BD0000F8
:10098000FFE7FEE784B002900191ADF802200298E3
:1009900028B9FFE74FF6FF70ADF80E0021E0FFE742
:1009A0000198411E0191B8B1FFE70298411C0291E4
:1009B00000788DF80100BDF802109DF80100484054
:1009C000C2B24FF60050C0F6000030F8120080EAC4
:1009D0001120ADF80200E3E7BDF80200ADF80E000B
:1009E000FFE7BDF80E0004B07047000083B002902E
:1009F00001918DF80320FFE70198411E019198B104
:100A0000FFE79DF8030002994A1C029209784840CA
:100A10008DF802009DF802104FF60070C0F600003D
:100A2000405C8DF80300E7E79DF8030003B07047D2
:100A300080B586B0049003910020ADF80A000498B8
:100A400038B1FFE70398032803D3FFE7049818B9E8
:100A5000FFE70020059029E004980399023940F24D
:100A60000A02C2F200021288FFF78CFFADF80A00FA
:100A70009DF80A10049A0398104410F8022C0020E4
:100A8000914201900DD1FFE79DF80B00049A039964
:100A9000114411F8011C401AB0FA80F0400901908D
:100AA000FFE7019800F001000590FFE7059806B008
:100AB00080BD000080B584B00290019100208DF8C7
:100AC0000300029820B1FFE70198022803D8FFE74E
:100AD0000020039018E002980199013940F20C02BD
:100AE000C2F200021278FFF781FF8DF803009DF833
:100AF0000300029A0199114411F8011C401AB0FA3E
:100B000080F040090390FFE7039804B080BD000027
:100B100080B59CB08DED1B0ACDED1A0A00F0D2F91C
:100B2000199000201890FFE71898032811DCFFE7C0
:100B30001998189A00EBC210D0F8BC0045F6503155
:100B4000C2F2000141F82200FFE718980130189026
:100B5000EAE71B980EF090FF41EC100B51EC100BE4
:100B60009FED990B53EC102B049303920EF098FD1C
:100B700041EC100B8DED000B45F65030C2F2000039
:100B80000A9090ED000A90ED013A90ED022A90ED66
:100B9000031A30EE430A30EE420A30EE010A10EE3C
:100BA000100A0EF069FF9DED001B41EC100B51EC9B
:100BB000110B53EC102B0EF073FD41EC100B51ECAC
:100BC000100B9FED830B53EC102B10930F920EF034
:100BD00067FD41EC100B51EC100B0EF027FA41F2BF
:100BE0009871C2F20001159108601B980EF044FF45
:100BF000039A049B41EC100B51EC100B0EF050FDCE
:100C000002460A9805920A46059942EC101B8DEDA2
:100C1000060B90ED000A90ED013A90ED022A90ED5E
:100C2000031A30EE030A30EE420A30EE410A10EEAB
:100C3000100A0EF021FF9DED061B41EC100B51EC4C
:100C4000110B53EC102B0EF02BFD0F9A109B41EC67
:100C5000100B51EC100B0EF023FD41EC100B51EC7E
:100C6000100B0EF0E3F941F29071C2F20001139102
:100C700008601B980EF000FF41EC100B9FED561B17
:100C800053EC112B51EC100B0EF00AFD41EC100B44
:100C90008DED080B1A980EF0EFFE9DED081B41EC50
:100CA000100B51EC110B53EC102B0EF0A5FA024671
:100CB0000A980B920A460B9942EC101B8DED0C0B17
:100CC00090ED000A90ED013A90ED022A90ED031AA2
:100CD00030EE030A30EE020A30EE010A10EE100A7E
:100CE0000EF0CAFE9DED0C0B41EC110B53EC112BD9
:100CF00051EC100B0EF0D4FC0F9A109B41EC100B32
:100D000051EC100B0EF0CCFC41EC100B51EC100B25
:100D10000EF08CF941F2A071C2F20001086041F6B8
:100D20001070C2F20000149090ED000A09F086FFE6
:100D3000139914988DED120A91ED000A8DED110AA8
:100D400090ED000A09F070FF9DED112A1498159995
:100D5000B0EE401A9DED120A91ED003A21EE031A11
:100D600020EE020A30EE010A41F29C71C2F200014B
:100D700081ED000A90ED000A09F056FF13991498CE
:100D80008DED170A91ED000A8DED160A90ED000A1F
:100D900009F054FF15989DED162AB0EE401A9DED0E
:100DA000170A90ED003A21EE031A20EE020A30EE07
:100DB000410A41F29470C2F2000080ED000A1CB0BA
:100DC00080BD00BF00BF00BF00000080BE9FD63FB7
:100DD00000000000EECEBA3F000000000000D03F4F
:100DE00040F29470C2F200007047000080B582B0FB
:100DF000FFF7F6FF019001990020087001994870F3
:100E000002F0AAFC0199C86002B080BD80B582B032
:100E10000190FFE700F004F801200CF0BDFBF9E7BA
:100E200080B584B0FFF7DCFF039000F04BF8029030
:100E300007F0ACFC0190FFF7E7FC00900098406ED3
:100E400003994860009890F8680003990872019827
:100E500090F8D201042804D1FFE70399012008701B
:100E600003E0039900200870FFE7029890ED070A5D
:100E7000B5EE400AF1EE10FA14D1FFE7029890EDBA
:100E8000080AB5EE400AF1EE10FA0BD1FFE702981E
:100E900090ED090AB3EE041AB4EE410AF1EE10FA2D
:100EA00005DDFFE70099012081F82E0004E000999C
:100EB000002081F82E00FFE702F04EFC0399C86085
:100EC00004B080BD40F2AC70C2F200007047000078
:100ED00080B582B0FFF7F6FF0190019900200870FD
:100EE000019948708DF80300FFE79DF8030003287F
:100EF0000EDCFFE701989DF8031000EB8101002054
:100F00008863FFE79DF8030001308DF80300ECE7EC
:100F1000019900204860019988600199C860019991
:100F2000086101994861019988610199C861019935
:100F300008620199486200F013F802B080BD000019
:100F400080B582B08DF80700FFF7BCFF00900099D4
:100F5000087848709DF807000099087002B080BDBD
:100F600080B584B0FFF7AEFF039000200290FFE74A
:100F7000029803281CDCFFE70398029900EBC110DC
:100F800068309FED290AF2EE040ADFED211A9FED89
:100F9000272ADFED272ADFED203AB0EE611AB0EE06
:100FA000633A06F021FDFFE7029801300290DFE787
:100FB000039800F51A70B2EE000ADFED151ACDEDB8
:100FC000001ADFED142ADFED143ACDED013AF0EE10
:100FD000610AB0EE611AB0EE622AB0EE633A06F032
:100FE00003FDDDED001ADDED013A039800F53A70DE
:100FF0009FED0A0A9FED0A2ADFED0A2AF0EE610A48
:10100000B0EE611AB0EE633A06F0EEFC04B080BDBB
:101010000000000000007A44A9271F4366660640CE
:10102000000048430000F042000096420000FA43EE
:1010300000401C4680B584B08DED030ACDED020A58
:10104000FFF740FF019001990869486001994869DC
:10105000886003980199086102980199486104B079
:1010600080BD000080B582B00190FFE741F25C10C6
:10107000C2F2000005F07EFF41F28810C2F20000CB
:1010800005F078FF41F2F400C2F2000005F072FFB3
:1010900041F2C800C2F2000005F06CFF9FED050AA6
:1010A000DFED050AFFF734FD05F0D2FF01200CF05B
:1010B00073FADBE7E3A59B3D1D5A643E80B541F61C
:1010C000D020C2F2000001F02FF880BD84B0039060
:1010D0000398006840F20741C4F20201884206D832
:1010E000FFE740F60000C4F20200009005E040F681
:1010F0002000C4F202000090FFE7009802900398DD
:10110000007808384CF6CD41CCF6CC41A0FB01105C
:1011100000090190029803994A6C22F003021044DE
:101120008864039940F68000C4F20200C864019804
:1011300000F01F01012088400399086504B0704742
:1011400082B00190019800790090009940F6FC006F
:10115000C4F2020000EB810001994865019940F654
:101160004010C4F2020088650098013800F01F01A9
:10117000012088400199C86502B0704784B003908F
:101180000291019200930398C16C006D486003982E
:10119000406D28B1FFE70398816DC06D4860FFE79F
:1011A0000398016C406C00F01F02012090404860E1
:1011B000009803990968486003988068102809D14D
:1011C000FFE7019803990968886002980399096804
:1011D000C86008E00298039909688860019803993B
:1011E0000968C860FFE704B07047000040F6183097
:1011F000C2F200007047000080B582B00190FFF796
:10120000F5FF00904EF6FC51CEF20001086840F068
:101210008070086041F20401CEF2000100200860F5
:1012200041F20002CEF20002116841F001011160AA
:10123000019944F24022C0F20F025143009A116119
:10124000009A116944F6D353C1F26203A1FB033142
:1012500089095161009A11694DF68363C4F21B3309
:10126000A1FB0331890C91610099C8610099086262
:1012700002B080BD7047000081B0EFF3108072B6FD
:101280000090FFE7FEE7000080B541F63030C2F283
:10129000000001F0EDFB80BD80B541F69430C2F254
:1012A000000001F0E5FB80BD80B541F6F830C2F2E8
:1012B000000001F0DDFB80BD83B002904AF20040E7
:1012C000C4F2000000900298006846F60001C4F2E3
:1012D0000001884205D1FFE7009800F554700090A6
:1012E000FFE70298006846F60041C4F20001884218
:1012F00005D1FFE7009800F5D4600090FFE7009863
:101300000299086402980068D0F8800020F4F81070
:10131000029A1168526B40EA0240C1F880000098BE
:1013200070300299486402980068D0F8800020F07C
:101330007060029A1168926B40EA0260C1F8800006
:101340000098B03002998864009800F5C470029942
:10135000C864009800F5187002990865009800F5B7
:101360001E700299486500980190FFE70198009966
:1013700001F55471884208D2FFE701990020086006
:10138000FFE7019804300190F0E703B070470000D8
:1013900088B007900691059204930698406848B972
:1013A000FFE70698016882680069104340EA8140BF
:1013B000039009E0069801688268006910430843B9
:1013C00040F080400390FFE70698D0F820C0C16845
:1013D00042698369C06940EA0C60184310430843BE
:1013E00002900798406D049901EBC10100EBC10028
:1013F00001900398019908600198043001900298C7
:101400000199086001980430019000200090FFE7E6
:1014100000980699CA8940F2A801C0F60101895CCA
:1014200088420DD2FFE7059800994058019908605D
:10143000019804300190FFE7009804300090E7E73E
:1014400008B0704781B0009040F29071C2F2000184
:101450000120087001B0704782B00190009100989F
:10146000019908600098B0F5006F05D3FFE7019976
:101470004FF08040486003E0019900204860FFE79A
:10148000019900208860019A4FF40021D1600199F0
:10149000086101994861019988610199C8610199C0
:1014A000086202B07047000080B58AB00990002041
:1014B0000390049002210591012106914FF480616F
:1014C00007910890099803A901F058F920B1FFE7A6
:1014D0000298FFF7B7FFFFE70998694600230B6002
:1014E0000222114601F0A6F920B1FFE70298FFF7AA
:1014F000A9FFFFE7099801F0C9FE20B1FFE70298B4
:10150000FFF7A0FFFFE709980121002200F0E2FFAA
:1015100020B1FFE70298FFF795FFFFE709984FF426
:101520000021002200F0D6FF20B1FFE70298FFF76C
:1015300089FFFFE70AB080BD80B584B003900291B7
:10154000019203980299019A01F0CAF8B8B1FFE735
:101550000398006E800500280CD5FFE7039801F082
:10156000BBFE039801680320C1F8C400039801F092
:101570008DFE03E00098FFF765FFFFE7FFE704B08B
:1015800080BD00000000000080B588B08DED060A27
:10159000059002F0E1F800EE100AB8EE400A059856
:1015A00090ED021A30EE410ABCEEC00A8DED040A3D
:1015B00002F0D2F800EE100AB8EE400A059880ED6D
:1015C000020A0598039000680EF056FA41EC100BE1
:1015D0009FED331B53EC112B51EC100B0EF060F808
:1015E00041EC100B9FED301B53EC112B51EC100B09
:1015F000029101900DF04CFD024601980B460299B4
:1016000043EC102B53EC102B0DF0F6FD41EC100BBE
:1016100051EC100B0DF00AFD03994860059890ED10
:10162000010AB5EE400AF1EE10FA30DDFFE7059849
:1016300090ED010AB7EE001AB4EE410AF1EE10FA8D
:1016400025DCFFE705989DED062A90ED010A90ED57
:10165000053AB7EE001A31EE401A21EE031A20EED9
:10166000020A30EE010A80ED040A05990869486112
:101670009DED040AB8EE401A9FED0D0A80EE010AB6
:10168000059880ED030A05980069079002E0069826
:101690000790FFE79DED070A08B080BD00BF00BFBF
:1016A000FCA9F1D24D62503F000000000000F03F65
:1016B00000007A440000000080B586B08DED050A78
:1016C00004900598049908600498039000680EF04F
:1016D000D3F941EC100B9FED161B53EC112B51EC81
:1016E000100B0DF0DDFF41EC100B9FED131B53ECC5
:1016F000112B51EC100B029101900DF0C9FC024628
:1017000001980B46029943EC102B53EC102B0DF073
:1017100073FD41EC100B51EC100B0DF087FC03999D
:10172000486004990020886006B080BD00BF00BFFB
:10173000FCA9F1D24D62503F000000000000F03FD4
:1017400080B584B003900291039991ED010ABDEE3A
:10175000C00A10EE100A488202980178407840EAE8
:10176000012000B200EE100AB8EEC00A039880ED26
:10177000010A02988178C07840EA012000B200EEA8
:10178000100AB8EEC00A039880ED020A02980179A7
:10179000407940EA012000B200EE100AB8EEC00A1B
:1017A000039880ED030A02988079039908740398DE
:1017B00090ED010AB0F9120001EE100AB8EEC11A5C
:1017C00030EE410ABDEEC00A8DED010A01984EF6D9
:1017D0008321CFF6FF71884205DCFFE70399486952
:1017E000013048610BE0019841F27D51884205DBF0
:1017F000FFE70399486901384861FFE7FFE703986D
:1018000090ED011A90ED050AB8EEC00A9FED282A66
:1018100081EE023A9FED271A23EE013A20EE010AEB
:1018200030EE030A80ED070A039890ED010A80EE7E
:10183000020A20EE010A80ED060A039841F2F01137
:10184000C2F2000188422CD1FFE7039890ED060A0E
:101850009FED191AB4EE410AF1EE10FA0ADAFFE729
:10186000039890ED060A9FED131A30EE010A80ED01
:10187000060A15E0039890ED060A9FED101AB4EEE3
:10188000410AF1EE10FA0ADDFFE7039890ED060A2F
:101890009FED0B1A30EE010A80ED060AFFE7FFE725
:1018A000FFE701F059FF0399086204B080BD00BF53
:1018B000000000460000B443000034C3000034437D
:1018C0000000B4C340F65840C2F200007047000068
:1018D00080B582B0FFF7F6FF019001990020887073
:1018E0000199C860019908700199487041F2F0119E
:1018F000C2F200010020C4F27A50486000F000FA01
:1019000041F61C10C2F200009FED020AFFF7D4FE60
:1019100002B080BD0000FA4380B582B08DF80700A8
:10192000FFF7D0FF00900099087848709DF80700F5
:1019300000990870009801784078884204D0FFE749
:10194000009901208870FFE702B080BD80B58EB09D
:10195000FFF7B8FF0D90FEF757FF0C90FFF7B2FAB4
:101960000B900C9890ED110A00F0F8FA0C9890ED9D
:10197000120A00F0D9FA0C9890ED130A00F008FB57
:101980000C9890F83B0001460A91032814D80A9954
:10199000DFE801F002060A0E0020FFF7BDFF0CE0B1
:1019A0000120FFF7B9FF08E00220FFF7B5FF04E0D0
:1019B0000320FFF7B1FF00E09DE10D98807801283A
:1019C00061D1FFE70D98303006F002F80D98B03085
:1019D00005F0FEFF0D9800F5987005F0F9FF0D98E1
:1019E00000F5D87005F0F4FF0D9800F50C7005F0C7
:1019F000EFFF0D9800F52C7005F0EAFF0D9800F54B
:101A00004C7005F0E5FF0D9800F56C7005F0E0FFF7
:101A10000D98007848B9FFE70D994868C1F8800033
:101A20000D998868C1F80001FFE70D98007801283A
:101A300009D1FFE70D994868C1F880010D998868C0
:101A4000C1F80002FFE70D980078022809D1FFE7EE
:101A50000D994868C1F880020D998868C1F80003A3
:101A6000FFE70D980078032809D1FFE70D99486832
:101A7000C1F880030D998868C1F80004FFE70D994B
:101A800000208870FFE70D9800780146099103282F
:101A900000F20A810999DFE801F0023E8BC90D9935
:101AA00001F1B00091ED030A05F0E4FF0D9800F19B
:101AB000B001079190ED030AD0ED040A05F0A2F8F9
:101AC000079805F0CDFF0D9800F130010891B03076
:101AD00005F06AFD0D981830FFF756FD089805F0DF
:101AE000C9FF0D9901F1300091ED050A05F0B8FF2D
:101AF0000D98303005F058FD41F2F010C2F20000B0
:101B000005F04EFA0D99D1F8800048600D99D1F892
:101B100000018860C9E00D9890ED030A41F61C10A1
:101B2000C2F20000FFF730FD41F61061C2F2000181
:101B300081ED000A0D9800F5D87091ED000A05F0CE
:101B400099FF0D9800F5D871059190ED030AD0ED3D
:101B5000040A05F057F8059805F082FF0D9800F586
:101B60009871069100F5D87005F01EFD0D9818309B
:101B7000FFF70AFD069805F07DFF0D9901F59870B5
:101B800091ED050A05F06CFF0D9800F5987005F0D1
:101B90000BFD41F2F010C2F2000005F001FA0D99C0
:101BA000D1F8800148600D99D1F8000288607CE08E
:101BB0000D9901F52C7091ED030A05F05BFF0D986E
:101BC00000F52C71039190ED030AD0ED040A05F0A5
:101BD00019F8039805F044FF0D9800F50C71049175
:101BE00000F52C7005F0E0FC0D981830FFF7CCFCE8
:101BF000049805F03FFF0D9901F50C7091ED050A71
:101C000005F02EFF0D9800F50C7005F0CDFC41F2AB
:101C1000F010C2F2000005F0C3F90D99D1F880026E
:101C200048600D99D1F8000388603EE00D9901F5F8
:101C30006C7091ED030A05F01DFF0D9800F56C71B5
:101C4000019190ED030AD0ED040A04F0DBFF019846
:101C500005F006FF0D9800F54C71029100F56C70CF
:101C600005F0A2FC0D981830FFF78EFC029805F0E5
:101C700001FF0D9901F54C7091ED050A05F0F0FE9C
:101C80000D9800F54C7005F08FFC41F2F010C2F297
:101C9000000005F085F90D99D1F8800348600D9991
:101CA000D1F80004886000E0FFE70C9890F842004B
:101CB000012808D0FFE741F63410C2F20000007896
:101CC000152809DBFFE741F2F010C2F200009FED9A
:101CD0000B0A05F065F907E041F63411C2F2000184
:101CE000087801300870FFE741F2B410C2F200003A
:101CF00005F08AF8FFE70EB080BD00BF00000000CD
:101D000080B59CB0FFF7DEFD1B901B9830309FED37
:101D1000700A8DED010ADFED6F0ACDED020A9FED2D
:101D20006E1A8DED161ADFED6D1ACDED031A9FEDCB
:101D30006C2A8DED042ADFED6B2ACDED052A9FED8F
:101D40006A3A8DED063ADFED693ACDED1A3A05F0C3
:101D50004BFEDDED161ADDED1A3A1B98B030B2EEEF
:101D60000D0A8DED070AF3EE040ACDED080A9FED8A
:101D7000602A8DED092AF2EE022ACDED0A2A9FEDA6
:101D80005D3A8DED0B3AB0EE611A05F02DFE9DED3A
:101D9000010ADDED020ADDED031A9DED042ADDEDF9
:101DA000052A9DED063A9DED161ADDED1A3A1B98AF
:101DB00000F5987005F018FE9DED070ADDED080AA4
:101DC0009DED092ADDED0A2A9DED0B3ADDED161A8F
:101DD000DDED1A3A1B9800F5D870B0EE611A05F0E7
:101DE00003FEDDED161A1B9800F50C709FED420AFC
:101DF0008DED0C0ADFED410ACDED0D0A9FED401A85
:101E00008DED0E1A9FED3F2A8DED0F2ADFED3E2A54
:101E1000CDED102A9FED3D3A8DED113AF7EE003AE7
:101E2000CDED123A05F0E0FDDDED161ADDED1A3AC2
:101E30001B9800F52C709FED360A8DED130ADFED2F
:101E4000350ACDED140A9FED341A8DED151A9FED6C
:101E5000332A8DED172AF1EE082ACDED182A9FEDD1
:101E6000303A8DED193A05F0BFFD9DED0C0ADDED20
:101E70000D0A9DED0E1A9DED0F2ADDED102A9DED48
:101E8000113ADDED123ADDED161A1B9800F54C7093
:101E900005F0AAFD9DED130ADDED140A9DED151A5E
:101EA000DDED161A9DED172ADDED182A9DED193A84
:101EB000DDED1A3A1B9800F56C7005F095FD1B9846
:101EC00018309FED180AFFF7F7FB1CB080BD00BF6C
:101ED00000606A460000FA450000000000504348D8
:101EE00000803B460050C3460050C347A9271F430C
:101EF0000AD7A33D0000FA43E7A7F5454758C24675
:101F0000FE7D2F4100409C450060EA46D4280342F4
:101F10000D8EC94195F4E83FA9DDAB3E6F12833ABF
:101F2000FFFF79430000484380B582B08DED010A80
:101F3000FFF7C8FC00909DED010A9FED061A20EE08
:101F4000010A9FED051A80EE010A009880ED040A4F
:101F500002B080BDDA0F49400000344380B582B042
:101F60008DED010AFFF7AEFC00909DED010A9FED9B
:101F7000061A20EE010A9FED051A80EE010A00986C
:101F800080ED030A02B080BDDA0F494000003443FF
:101F900080B582B08DED010AFFF794FC00900198A6
:101FA0000099486102B080BD80B582B00190FFE722
:101FB00041F2F010C2F2000004F0DCFFFFF7C6FCB3
:101FC00001200BF0E9FAF3E782B0019000208DF8D0
:101FD0000300019890F82500022807D0FFE7019937
:101FE0000420C86301208DF803002DE001980168EA
:101FF000086820F00E0008600198816C086820F4E1
:102000008070086001980168086820F0010008608D
:102010000198016C406C00F01F0201209040486064
:102020000198C16C006D48600198406D58B1FFE7A0
:102030000198416D086820F4807008600198816DF6
:10204000C06D4860FFE7FFE70199012081F8250096
:10205000FFE70199002081F82400FFE79DF80300C5
:1020600002B0704780B582B0019000208DF8030067
:10207000019890F82500022811D0FFE7019904206B
:10208000C8630199012081F82500FFE7019900202C
:1020900081F82400FFE701208DF803003FE001985C
:1020A0000168086820F00E0008600198016808685F
:1020B00020F0010008600198816C086820F48070AD
:1020C00008600198016C406C00F01F0201209040F4
:1020D00048600198C16C006D48600198406D58B12E
:1020E000FFE70198416D086820F48070086001984E
:1020F000816DC06D4860FFE70199012081F82500DE
:10210000FFE70199002081F82400FFE70198806B28
:1021100020B1FFE70198816B8847FFE7FFE79DF853
:10212000030002B080BD000080B584B00390039826
:10213000006C0068029003980068006801900298A3
:102140000399496C01F01F01C8404007002825D5BC
:10215000FFE79DF80400400700281FD5FFE703981C
:10216000006800688006002807D4FFE7039801682C
:10217000086820F004000860FFE70398016C406CD9
:1021800000F01F020420904048600398006B20B1CB
:10219000FFE70398016B8847FFE76EE00298039919
:1021A000496C01F01F01C840800700282FD5FFE7C8
:1021B0009DF804008007002829D5FFE703980068F0
:1021C0000068800600280BD4FFE7039801680868C0
:1021D00020F00A0008600399012081F82500FFE73C
:1021E0000398016C406C00F01F0202209040486090
:1021F000FFE70399002081F82400FFE70398C06AF5
:1022000020B1FFE70398C16A8847FFE734E00298EE
:102210000399496C01F01F01C8400007002829D527
:10222000FFE79DF804000007002823D5FFE7039887
:102230000168086820F00E0008600398026C406C8A
:1022400000F01F01012000FA01F151600399C863F9
:10225000039981F82500FFE70399002081F8240005
:10226000FFE70398406B20B1FFE70398416B884775
:10227000FFE700E0FFE7FFE7FFE704B080BD0000F5
:1022800080B584B00290029820B9FFE701208DF854
:102290000F009CE00298006840F20741C4F202017E
:1022A000884218D8FFE7029908684FF6F872CBF613
:1022B000FD7210444CF6CD42CCF6CC42A0FB02029B
:1022C0006FF0030000EA9200486402990020C4F213
:1022D0000200086418E0029908684FF6F832CBF65D
:1022E000FD7210444CF6CD42CCF6CC42A0FB02026B
:1022F0006FF0030000EA92004864029940F2004047
:10230000C4F202000864FFE70299022081F8250068
:102310000298006800680190019847F6F0718843C0
:10232000019002998868D1F80CC00B694A6940EAAB
:102330000C00184310438A691043CA691043096AA4
:1023400001430198084301900198029909680860C7
:102350000298FEF7BBFE02988068B0F5804F04D16A
:10236000FFE7029900204860FFE702990879896C2D
:1023700008600298C16C006D48600298406888B19E
:10238000FFE70298406804280CD8FFE70298FEF7A0
:10239000D7FE0298416D002008600298816DC06DE3
:1023A000486007E002990020486502998865029913
:1023B000C865FFE702990020C863029A012182F8EC
:1023C0002510029981F824008DF80F00FFE79DF891
:1023D0000F0004B080BD000080B586B0049003916A
:1023E0000292019300208DF80300FFE7049890F813
:1023F0002400012804D1FFE702208DF8170065E0D2
:102400000499012081F82400FFE7FFE7049890F881
:10241000250001284BD1FFE70499022081F825000F
:1024200004990020C86304980168086820F001003E
:10243000086004980399029A019BFEF79FFE049896
:10244000006B38B1FFE704980168086840F00E009F
:1024500008600CE004980168086820F00400086037
:1024600004980168086840F00A000860FFE70498D3
:10247000806C0068C003002807D5FFE70498816CD2
:10248000086840F480700860FFE70498406D38B138
:10249000FFE70498416D086840F480700860FFE72A
:1024A00004980168086840F00100086009E0FFE74F
:1024B0000499002081F82400FFE702208DF8030032
:1024C000FFE79DF803008DF81700FFE79DF8170060
:1024D00006B080BD86B0049003910292049890F8F3
:1024E0005C008DF80700BDF80C0010F4C07F01D02F
:1024F000FFE7FFE79DF80700012806D0FFE79DF8FA
:102500000700022840F0DE80FFE704980068806D35
:1025100000909DF80C00400730B1FFE79DF80000E7
:10252000C007002847D0FFE79DF80C0010F0380FD7
:1025300006D0FFE79DF80000800700283BD5FFE7A5
:10254000BDF80C0010F4E07F06D0FFE79DF8000016
:10255000400700282FD5FFE79DF80D0010F01E0F53
:1025600006D0FFE79DF800000007002823D5FFE70D
:102570009DF80D0010F0E00F06D0FFE79DF8000079
:10258000C006002817D5FFE79DF80E00800730B180
:10259000FFE79DF80000800600280CD5FFE79DF8B6
:1025A0000E0010F0FC0F0DD0FFE79DF80000400674
:1025B000002807D4FFE704980168C86D40F00100C7
:1025C000C865FFE79DF80C00400730B1FFE79DF8B4
:1025D0000000C007002847D1FFE79DF80C0010F06D
:1025E000380F06D0FFE79DF80000800700283BD495
:1025F000FFE7BDF80C0010F4E07F06D0FFE79DF880
:102600000000400700282FD4FFE79DF80D0010F0D0
:102610001E0F06D0FFE79DF800000007002823D416
:10262000FFE79DF80D0010F0E00F06D0FFE79DF8E2
:102630000000C006002817D4FFE79DF80E008007B1
:1026400030B1FFE79DF80000800600280CD4FFE7BA
:102650009DF80E0010F0FC0F0DD0FFE79DF8000074
:102660004006002807D5FFE704980168C86D40F0D0
:102670000200C865FFE79DF80C000006002809D598
:10268000FFE7029A04980168D1F8DC001043C1F812
:10269000DC00FFE79DF80D00C00748B1FFE7029A94
:1026A00004980168D1F8E0001043C1F8E000FFE7AA
:1026B000039A04980168486D1043486500208DF81E
:1026C000170008E00499086E40F002000866012037
:1026D0008DF81700FFE79DF8170006B0704700005F
:1026E00080B586B00490039102920398406808B9BF
:1026F000FFE700E0FFE7049890F85C0002282FD184
:10270000FFE704980068D0F8C4008002002809D5CB
:10271000FFE70499086E40F40070086601208DF808
:10272000170026E004980068D0F8C400C0F3014008
:10273000019004980399029A019BFEF729FE0199E2
:10274000012000FA01F1049A1268C2F8CC10019934
:10275000884004998865FFE700208DF8170008E09D
:102760000499086E40F00800086601208DF81700F3
:10277000FFE79DF8170006B080BD000087B0059008
:102780000491059890F85C008DF803009DF8030013
:10279000012805D0FFE79DF8030002283CD1FFE7A0
:1027A00004980068B8B9FFE704998868CB680A699B
:1027B0004969800740EAC36040EA02400843039049
:1027C0000598006C0499496800EB8100019003981A
:1027D000019908601CE00498C168006940EA4170F2
:1027E000039004988168406940EA817002900598DE
:1027F000406C0499496800EBC1000190039801996D
:102800000860019804300190029801990860FFE780
:1028100000208DF81B0008E00599086E40F00200CA
:10282000086601208DF81B00FFE79DF81B0007B02C
:102830007047000085B0DDF814C00390029101924A
:102840000093039890F85C00012819D1FFE70398E2
:102850000068D0F8800020F03F0002990901019A39
:1028600041EA8201009A41EA4201059A1143084374
:1028700003990968C1F8800000208DF8130008E072
:102880000399086E40F00400086601208DF81300DB
:10289000FFE79DF8130005B07047000081B000907D
:1028A00001B0704782B00190009102B07047000003
:1028B0008AB00890079106920593089890F85C00FA
:1028C0008DF803009DF80300022840F0C080FFE768
:1028D0000798402821D1FFE708980068D0F89000B9
:1028E000000748B9FFE70899086E40F48070086651
:1028F00001208DF82700B3E008980068D0F8900018
:10290000C0F3012001900898806C019901EBC1018E
:1029100000EBC1000490FFE720E008980068D0F8C1
:102920009800000748B9FFE70899086E40F48070E6
:10293000086601208DF8270092E008980068D0F81A
:102940009800C0F3012001900898C06C019901EB38
:10295000C10100EBC1000490FFE7FFE704980068A5
:1029600000F08040069948600698406838B9FFE753
:1029700004980068C0F38A400699086006E004984D
:10298000006820F0604006990860FFE7049800683E
:1029900000F00050069988600498006800F000403C
:1029A00006990861049804300490049800880699F8
:1029B000C8610498006800F470200699C860049803
:1029C000006800F48010069948610498006800F4DB
:1029D00000100699886104980068C0F306600699A3
:1029E000086204980068C00F069948620498043091
:1029F00004900498039000200290FFE70298069943
:102A0000CA8940F2A801C0F60101895C88420AD255
:102A1000FFE70398029A805C05998854FFE70298C3
:102A200001300290EAE70798402806D1FFE70198B5
:102A300008990968C1F8940005E0019808990968A7
:102A4000C1F89C00FFE700208DF8270008E00899F6
:102A5000086E40F00800086601208DF82700FFE7A7
:102A60009DF827000AB0704781B0009001B0704710
:102A700080B588B0079007980068006D00F4E050BA
:102A8000069007980068416D0698084006900798E0
:102A90000068006D00F00700059007980068416D20
:102AA00005980840059007980068006D00F0380010
:102AB000049007980068416D0498084004900798B6
:102AC0000068006D00F47100039007980068416D84
:102AD00003980840039007980068006D00F4602098
:102AE000029007980068416D02980840029007988C
:102AF0000068006D4006002810D5FFE707980068C1
:102B0000406D4006002808D5FFE70798016840207F
:102B100008650798FFF7A8FFFFE7FFE70798006839
:102B2000006DC00500281ED5FFE707980068406DBE
:102B3000C005002816D5FFE707980068D0F8D80030
:102B4000009007980068D0F8E010009808400090C6
:102B5000079801684FF4807008650798009900F0A5
:102B600031FCFFE7FFE7069848B1FFE706980799B1
:102B7000096808650798069900F030FCFFE705989A
:102B800048B1FFE70598079909680865079805990E
:102B900000F044FBFFE7049848B1FFE70498079969
:102BA000096808650798049900F06AFBFFE7079831
:102BB0000068006D8005002811D5FFE707980068C0
:102BC000406D8005002809D5FFE7079801684FF49C
:102BD00000700865079800F007FCFFE7FFE707981B
:102BE0000068006D000600281DD5FFE70798006803
:102BF000406D0006002815D5FFE707980068D0F85B
:102C0000D400019007980068D0F8DC1001980840C3
:102C1000019007980168802008650798019900F0E5
:102C2000D7FBFFE7FFE707980068006D80040028E6
:102C300011D5FFE707980068406D8004002809D58A
:102C4000FFE7079801684FF400500865079800F007
:102C5000B5FBFFE7FFE707980068006D0004002858
:102C600011D5FFE707980068406D0004002809D5DA
:102C7000FFE7079801684FF400400865079800F0E7
:102C800099FBFFE7FFE707980068006D4004002804
:102C900013D5FFE707980068406D400400280BD566
:102CA000FFE7079801684FF4804008650799086EB0
:102CB00040F080000866FFE7FFE7029848B1FFE7B1
:102CC000029807990968086507980299FFF7EAFDD5
:102CD000FFE7039850B1FFE7039807990968086573
:102CE000039A0799086E10430866FFE70798006E7D
:102CF00020B1FFE70798FFF7D1FDFFE708B080BDDF
:102D000080B584B00290029820B9FFE701208DF8C9
:102D10000F0057E10298006846F20041C4F200013A
:102D2000884201D1FFE7FFE702988068B0F5407F55
:102D300001D1FFE7FFE7029890F85C0040B9FFE798
:102D40000299002081F85D00029800F03FF9FFE74A
:102D500002980168886920F01000886100F0FCFC8E
:102D60000190FFE70298006880690007002815D5E8
:102D7000FFE700F0F1FC0199401A0B280DD3FFE7A3
:102D80000299086E40F0010008660299032081F85C
:102D90005C0001208DF80F0014E1E3E70298016860
:102DA000886940F00100886100F0D6FC0190FFE7DF
:102DB000029800688069C007A8B9FFE700F0CCFC62
:102DC0000199401A0B280DD3FFE70299086E40F0D5
:102DD000010008660299032081F85C0001208DF84B
:102DE0000F00EFE0E4E702980168886940F0020014
:102DF00088610298006846F20041C4F200018842EE
:102E000008D1FFE70298406846F20051C4F2000181
:102E10000860FFE70298007C012807D1FFE70298CD
:102E20000168886920F04000886106E00298016826
:102E3000886940F040008861FFE70298407C0128E3
:102E400007D1FFE702980168886940F480408861F3
:102E500006E002980168886920F480408861FFE7F5
:102E60000298807C012807D1FFE7029801688869F1
:102E700020F48050886106E002980168886940F477
:102E800080508861FFE702980068806920F44070F4
:102E9000029A1168926810438861029801688869F3
:102EA00020F0A400886102980168086920F01000F1
:102EB00008610298C068012807D1FFE702980168FD
:102EC000886940F0040088612BE00298C06830B344
:102ED000FFE70298C068022819D0FFE7029801684E
:102EE000886940F08000886102980168086940F0B4
:102EF000100008610298C068032807D1FFE7029814
:102F00000168886940F020008861FFE706E00298C8
:102F10000168886940F020008861FFE700E0FFE772
:102F2000FFE7029A116853699069D2F81CE0A0F19A
:102F3000010C6FF0FF0000EB0E2040EA4C60126ABB
:102F4000013A10430022CFF6FF7202EB0342104316
:102F5000C86102988068B0F5407F1CD1FFE7029AF3
:102F60001168536A906AD2F82CE001386FF0FF0CB8
:102F70000CEB0E2C40EA0C00D2F830C06FF00F02C0
:102F800002EB0C1210430022CFF6FF7202EB034259
:102F90001043C860FFE702980168C26BD1F8C00017
:102FA0001043C1F8C0000298FEF786F9029900208C
:102FB000886502990866029A012182F85C108DF8F2
:102FC0000F00FFE79DF80F0004B080BD80B5A8B0EA
:102FD00027900020269025902490239022900DA8E1
:102FE0005421FDF7A8FA2798006846F20041C4F280
:102FF0000001884254D1FFE74FF480500D904FF00C
:1030000000701B900DA800F0EFFD18B1FFE7FEF770
:1030100033F9FFE741F28800C2F200000168013194
:1030200001600068012810D1FFE7FFE741F2580076
:10303000C4F20200016841F000710160006800F014
:1030400000700C900C98FFE7FFE7FFE741F24C009F
:10305000C4F20200016841F002010160006800F062
:1030600002000B900B98FFE74FF440702290022073
:10307000239000200590249025900920269040F26E
:103080000040C4F6000022A900F0B2F9059A15200C
:103090000690052100F03CFC069800F02FFCBAE0F9
:1030A0002798006846F60001C4F20001884254D116
:1030B000FFE74FF480500D904FF000701B900DA86B
:1030C00000F092FD18B1FFE7FEF7D6F8FFE741F2F6
:1030D0008800C2F200000168013101600068012827
:1030E00010D1FFE7FFE741F25800C4F20200016887
:1030F00041F000710160006800F000700A900A98C9
:10310000FFE7FFE7FFE741F24C00C4F2020001686D
:1031100041F002010160006800F002000990099886
:10312000FFE74FF4405022900220239000200390AC
:10313000249025900920269040F20040C4F600001B
:1031400022A900F055F9039A56200490052100F0B9
:10315000DFFB049800F0D2FB5CE02798006846F69D
:103160000041C4F20001884253D1FFE74FF4805080
:103170000D904FF000701B900DA800F035FD18B1B8
:10318000FFE7FEF779F8FFE741F28800C2F200009E
:103190000168013101600068012810D1FFE7FFE7F5
:1031A00041F25800C4F20200016841F00071016070
:1031B000006800F0007008900898FFE7FFE7FFE75D
:1031C00041F24C00C4F20200016841F002010160CA
:1031D000006800F0020007900798FFE7182022908F
:1031E0000220239000200190249025900B2026900F
:1031F00040F20040C4F6000022A900F0F9F8019A5C
:1032000058200290052100F083FB029800F076FB25
:10321000FFE7FFE7FFE728B080BD000080B586B07C
:10322000059004919DF81000C00738B3FFE705989A
:1032300040F62C42C2F20002019240F66433C2F220
:10324000000302934021FFF733FB019B029A05988C
:103250001968DB89FDF746FA0199029A0598096811
:1032600003F072FD059801210022FFF733F920B128
:10327000FFE70398FEF7E6F8FFE7FFE706B080BD3B
:1032800082B00190009102B07047000082B00090BF
:10329000009890F85C00012810D1FFE70099022007
:1032A00081F85C0000980168886920F0010088615D
:1032B0000099002008668DF8070008E00099086E64
:1032C00040F00400086601208DF80700FFE79DF834
:1032D000070002B07047000083B00190002000900A
:1032E000019890F85C00022857D1FFE70198016827
:1032F000886940F001008861FFE7019800688069F3
:10330000C007A8B9FFE700980B280DD3FFE7019984
:10331000086E40F0010008660199032081F85C0006
:1033200001208DF80B0041E0009801300090E4E7A7
:103330000020009001980168886920F010008861E1
:10334000FFE70198006880690007002815D5FFE7AE
:1033500000980B280DD3FFE70199086E40F001009B
:1033600008660199032081F85C0001208DF80B00AC
:103370001CE0009801300090E3E70198016888693B
:1033800040F002008861019900208865019A0121BE
:1033900082F85C108DF80B0008E00199086E40F08F
:1033A0000800086601208DF80B00FFE79DF80B0070
:1033B00003B0704781B0009001B0704781B00090B9
:1033C00001B0704782B00190009102B070470000D8
:1033D00082B00190009102B07047000082B001906D
:1033E000009102B07047000081B0009001B07047BA
:1033F0008BB00A90099100200890FFE709980068B7
:103400000899C840002800F0A581FFE709980068E6
:10341000089A01219140084007900798002800F081
:103420009581FFE70998406800F00300012807D064
:10343000FFE70998406800F0030002282FD1FFE75A
:103440000A988068069008984100032000FA01F16C
:103450000698884306900998C0680899490000FAC0
:1034600001F106980843069006980A9988600A9820
:10347000406806900899012000FA01F106988843F7
:10348000069009984068C0F30010089900FA01F10D
:1034900006980843069006980A994860FFE709983D
:1034A000406800F00300032818D0FFE70A98C068BE
:1034B000069008984100032000FA01F1069888431D
:1034C0000690099880680899490000FA01F1069869
:1034D0000843069006980A99C860FFE70998406873
:1034E00000F00300022826D1FFE70A9808996FF040
:1034F000030202EA51010844006A0690089800F0AD
:10350000070081000F2000FA01F106988843069019
:1035100009980069089901F00701890000FA01F192
:1035200006980843069006980A99089B02EA5302F7
:1035300011440862FFE70A98006806900898410065
:10354000032000FA01F10698884306900998406824
:1035500000F003000899490000FA01F106980843B9
:10356000069006980A9908600998807980070028D3
:1035700000F0EB80FFE7FFE741F26000C4F20200D9
:10358000016841F001010160006800F00100059050
:103590000598FFE7089820F003000821C4F2010114
:1035A00040580690089800F0030081000F2000FAB0
:1035B00001F10698884306900A98B0F1904F03D124
:1035C000FFE70020049042E00A9840F20041C4F670
:1035D0000001884203D1FFE70120039034E00A98FC
:1035E00040F60001C4F60001884203D1FFE7022043
:1035F000029026E00A9840F60041C4F60001884295
:1036000003D1FFE70320019018E00A9841F200017E
:10361000C4F60001884203D1FFE7042000900AE0CD
:103620000A9941F20042C4F600020620914208BF06
:1036300005200090FFE700980190FFE701980290B5
:10364000FFE702980390FFE703980490FFE70498D0
:10365000089901F00301890000FA01F10698084376
:1036600006900698089921F003010822C4F201028D
:10367000885040F20840C4F20100006806900799A3
:1036800006988843069009988079C006002805D5D9
:10369000FFE70799069808430690FFE7069840F26F
:1036A0000841C4F20101086040F20C40C4F201007C
:1036B00000680690079906988843069009988079D3
:1036C0008006002805D5FFE707990698084306906D
:1036D000FFE7069840F20C41C4F20101086040F295
:1036E0000440C4F2010000680690079906988843D8
:1036F0000690099880798007002805D5FFE707998B
:10370000069808430690FFE7069840F20441C4F289
:103710000101086040F20040C4F201000068069018
:10372000079906988843069009988079C00728B1C0
:10373000FFE70799069808430690FFE7069840F2CE
:103740000041C4F201010860FFE7FFE7089801307B
:10375000089053E60BB0704745F62830C2F20000DF
:103760000068704740F23460C2F20000026845F61B
:103770002831C2F200010868104408607047000058
:1037800080B582B000208DF80700032000F0D8F843
:103790000F2000F00DF820B1FFE701208DF80700A1
:1037A00002E000F06FF8FFE79DF8070002B080BD6F
:1037B00080B58CB00B90002005900490FFE741F29B
:1037C0006000C4F20200016841F4801101600068E9
:1037D00000F4801001900198FFE706A803A900F00B
:1037E00029FE00F06BFE059005984DF68361C4F24A
:1037F0001B31A0FB01014FF0FF3000EB9140049022
:1038000041F6B840C2F2000045F20001C4F20101E5
:10381000016040F2E731C16004994160002101611B
:10382000816001F0D9FB8DF80B009DF80B0028BBDF
:10383000FFE741F6B840C2F2000001F059FC8DF8F4
:103840000B009DF80B00C0B9FFE74E2000F056F8C2
:103850000B980F280CD8FFE70B994E20002200F0A0
:1038600057F80B9840F23861C2F20001086003E09B
:1038700001208DF80B00FFE7FFE7FFE79DF80B0045
:103880000CB080BD80B584B0FFE741F26000C4F2A7
:103890000200016841F001010160006800F00100D0
:1038A00003900398FFE7FFE741F25800C4F20200DB
:1038B000016841F080510160006800F08050029082
:1038C0000298FFE76FF001000F210022019200F043
:1038D0001FF8019A01200090052100F019F80098C6
:1038E00000F00CF8202001F093FA01F059FA019849
:1038F00001F080FA00F006F904B080BD80B582B016
:103900008DF807009DF9070008F0BAFE02B080BDEF
:1039100080B586B08DF817000491039208F0C8FEB8
:1039200002909DF91700019002980499039A03F000
:1039300059FB0146019808F0C3FE06B080BD0000A7
:1039400080B582B00190019808F0DCFE02B080BD25
:1039500085B00390039800285ED1FFE747F200008E
:10396000C4F20000006800F4C060B0F5806F49D177
:10397000FFE747F28001C4F20001086820F480707C
:10398000086047F20002C4F200021168012060F3EF
:103990004A21116040F28001C2F20001096832221E
:1039A00051434DF68362C4F21B32A1FB022100EBAE
:1039B00091400290FFE747F21400C4F20000016852
:1039C000002049050029019006D5FFE7029800284C
:1039D00018BF01200190FFE70198C00720B1FFE761
:1039E000029801380290E6E747F21400C4F20000A2
:1039F00000684005002804D5FFE703208DF8130078
:103A00007CE008E047F28001C4F20001086820F47D
:103A100080700860FFE76DE00398B0F5007F5ED12D
:103A2000FFE747F20000C4F20000006800F4C06045
:103A3000B0F5806F49D1FFE747F28001C4F2000181
:103A4000086840F48070086047F20002C4F2000287
:103A50001168012060F34A21116040F28001C2F236
:103A600000010968322251434DF68362C4F21B32D1
:103A7000A1FB022100EB91400290FFE747F2140006
:103A8000C4F200000168002049050029009006D515
:103A9000FFE70298002818BF01200090FFE7009878
:103AA000C00720B1FFE7029801380290E6E747F22D
:103AB0001400C4F2000000684005002804D5FFE7A8
:103AC00003208DF8130019E008E047F28001C4F2EA
:103AD0000001086840F480700860FFE709E047F2E1
:103AE0000001C4F200010868022262F34A20086063
:103AF000FFE7FFE700208DF81300FFE79DF81300B4
:103B000005B0704747F20801C4F20001086840F4AC
:103B1000804008607047000080B540F21440C4F255
:103B200001000068C00300280AD5FFE700F05AF83A
:103B300040F21441C4F201014FF480300860FFE705
:103B400040F23440C4F2010000680007002809D5A3
:103B5000FFE700F03FF840F23441C4F201010820D1
:103B60000860FFE740F23440C4F201000068C0067C
:103B7000002809D5FFE700F02FF840F23441C4F2E5
:103B8000010110200860FFE740F23440C4F2010058
:103B900000688006002809D5FFE700F01FF840F212
:103BA0003441C4F2010120200860FFE740F23440B4
:103BB000C4F2010000684006002809D5FFE700F0C4
:103BC0000FF840F23441C4F2010140200860FFE7E1
:103BD00080BD000070470000704700007047000083
:103BE000704700007047000080B586B00590002047
:103BF0008DF80B008DF80A000598807800070028E2
:103C000040F1B580FFE700208DF8090041F258002F
:103C1000C4F202000068C000002813D4FFE7FFE7E9
:103C200041F25800C4F20200016841F08051016085
:103C3000006800F0805001900198FFE701208DF8A6
:103C40000900FFE747F20001C4F20001086840F4F0
:103C500080700860FFF780FD0390FFE747F20000E7
:103C6000C4F200000068C00500280CD4FFE7FFF78D
:103C700073FD0399401A032804D3FFE703208DF84E
:103C80000B0000E0EAE79DF80B0000285BD1FFE79E
:103C900041F29000C4F20200006800F44070049009
:103CA0000498C8B1FFE704980599096D884213D0BC
:103CB000FFE741F29001C4F20201086820F440706D
:103CC0000490086840F480300860086820F4803070
:103CD000086004980860FFE79DF81000C007E0B195
:103CE000FFE7FFF739FD0390FFE741F29000C4F2D0
:103CF00002000068800700280ED4FFE7FFF72CFDC4
:103D00000399401A41F28931884204D3FFE7032026
:103D10008DF80B0000E0E8E7FFE79DF80B0060B9C5
:103D2000FFE741F29001C4F20201086820F44070FC
:103D3000059A126D1043086004E09DF80B008DF8A1
:103D40000A00FFE704E09DF80B008DF80A00FFE78A
:103D50009DF80900012809D1FFE741F25801C4F29A
:103D60000201086820F080500860FFE7FFE705982F
:103D70000078C00760B1FFE741F28801C4F2020198
:103D8000086820F00300059A526810430860FFE7B6
:103D900005980078800700280CD5FFE741F28801DC
:103DA000C4F20201086820F00C00059A92681043E2
:103DB0000860FFE705980078400700280CD5FFE76A
:103DC00041F28801C4F20201086820F03000059A2F
:103DD000D26810430860FFE70598007800070028C4
:103DE0000CD5FFE741F28801C4F20201086820F017
:103DF000C000059A126910430860FFE70598007833
:103E0000C00600280CD5FFE741F28801C4F2020188
:103E1000086820F44070059A526910430860FFE773
:103E200005980078800600280CD5FFE741F288014C
:103E3000C4F20201086820F44060059A92691043B8
:103E40000860FFE705980078400600280CD5FFE7DA
:103E500041F28801C4F20201086820F44050059A3A
:103E6000D26910430860FFE7059800780006002833
:103E70000CD5FFE741F28801C4F20201086820F482
:103E80004040059A126A10430860FFE705984078A1
:103E9000C00760B1FFE741F28801C4F2020108687F
:103EA00020F44030059A526A10430860FFE70598F5
:103EB0008078800700280CD5FFE741F29C01C4F20E
:103EC0000201086820F00300059A926A1043086016
:103ED000FFE705984078800700280CD5FFE741F2FE
:103EE0008801C4F20201086820F44020059AD26AD1
:103EF00010430860FFE705984078400700281BD56D
:103F0000FFE741F28801C4F20201086820F4401082
:103F1000059A126B104308600598006BB0F5801F7E
:103F200009D1FFE741F20C01C4F20201086840F434
:103F300080100860FFE7FFE7059840780007002839
:103F40001BD5FFE741F28801C4F20201086820F4A2
:103F50004000059A526B104308600598406BB0F51D
:103F6000800F09D1FFE741F20C01C4F20201086899
:103F700040F480100860FFE7FFE705984078C0062E
:103F800000281BD5FFE741F28801C4F2020108684E
:103F900020F04070059A926B104308600598806B82
:103FA000B0F1807F09D1FFE741F20C01C4F20201B8
:103FB000086840F480100860FFE7FFE70598407844
:103FC000800600281BD5FFE741F28801C4F20201F8
:103FD000086820F04060059AD26B1043086005988D
:103FE000C06BB0F1006F09D1FFE741F20C01C4F2E0
:103FF0000201086840F480100860FFE7FFE70598B9
:104000004078400600281BD5FFE741F28801C4F242
:104010000201086820F04060059A126C10430860A5
:104020000598006CB0F1006F09D1FFE741F20C0177
:10403000C4F20201086840F480100860FFE7FFE75F
:1040400005984078000600281BD5FFE741F288015B
:10405000C4F20201086820F04050059A526C1043E7
:1040600008600598406CB0F1805F09D1FFE741F22C
:104070000C01C4F20201086840F480300860FFE7D8
:10408000FFE705988078C007D8B1FFE741F28801C3
:10409000C4F20201086820F04040059A926C104377
:1040A00008600598806CB0F1804F09D1FFE741F2BC
:1040B0000C01C4F20201086840F480300860FFE798
:1040C000FFE705988078400700281BD5FFE741F2FD
:1040D0009C01C4F20201086820F44010059AD26CD9
:1040E000104308600598C06CB0F5001F09D1FFE7C8
:1040F00041F20C01C4F20201086840F4801008602B
:10410000FFE7FFE79DF80A0006B080BD80B586B0E6
:104110000490039100200090049820B9FFE701204B
:104120008DF8170081E1039842F20001C4F2020108
:10413000096801F00F01884216D9FFE742F200003A
:10414000C4F20200016821F00F01039A11430160DB
:10415000006800F00F000399884204D0FFE70120B7
:104160008DF8170061E1FFE704980078C007002888
:1041700000F0A380FFE704984068032839D1FFE7E7
:1041800041F20000C4F2020000688001002804D45B
:10419000FFE701208DF8170047E104F019FA0190BC
:1041A00001984BF20141C0F2C441884220D3FFE79D
:1041B00041F20800C4F20200006810F0F00F0AD0CB
:1041C000FFE7049800788007002810D5FFE70498DF
:1041D000806860B9FFE741F20801C4F20201086893
:1041E000082262F30710086080200090FFE7FFE7D5
:1041F00038E00498406802280ED1FFE741F2000041
:10420000C4F2020000688003002804D4FFE7012004
:104210008DF8170009E10DE041F20000C4F2020040
:1042200000684005002804D4FFE701208DF817003E
:10423000FBE0FFE700F056F9019001984BF20141D5
:10424000C0F2C44188420CD3FFE741F20801C4F236
:1042500002010868082262F30710086080200090BD
:10426000FFE7FFE741F20801C4F20201086820F00D
:104270000300049A526810430860FFF76DFA029039
:10428000FFE741F20800C4F20200006800F00C00F1
:1042900004994968B0EB810F0ED0FFE7FFF75CFA95
:1042A0000299401A41F28931884204D3FFE7032082
:1042B0008DF81700B9E0E4E7FFE70498007880077D
:1042C00000282CD5FFE7049800784007002809D57E
:1042D000FFE741F20801C4F20201086840F4E0601F
:1042E0000860FFE704980078000700280BD5FFE777
:1042F00041F20801C4F20201086840F4E06020F4D1
:1043000060500860FFE741F20801C4F2020108684A
:1043100020F0F000049A9268104308600DE00098C5
:10432000802809D1FFE741F20801C4F202010868C0
:1043300020F0F0000860FFE7FFE7039842F2000179
:10434000C4F20201096801F00F01884228D2FFE798
:1043500042F20001C4F20201086820F00F00039A43
:1043600010430860FFF7F8F90290FFE742F20000FF
:10437000C4F20200006800F00F00039988420ED0DA
:10438000FFE7FFF7E9F90299401A41F289318842C3
:1043900004D3FFE703208DF8170046E0E6E7FFE7C8
:1043A00004980078400700280CD5FFE741F2080187
:1043B000C4F20201086820F4E060049AD268104355
:1043C0000860FFE704980078000700280DD5FFE794
:1043D00041F20801C4F20201086820F46050049A16
:1043E000126940EAC2000860FFE700F07BF841F282
:1043F0000801C4F202010968C9B20A094FF6E8418E
:10440000C0F60001895C01F01F01C84040F2800144
:10441000C2F20001086040F23860C2F20000006899
:10442000FFF7C6F98DF81700FFE79DF8170006B0F3
:1044300080BD000082B00190009101990F200860BA
:1044400041F20800C4F20200016801F00301019A80
:104450005160016801F0F001019A9160016801F476
:10446000E061019AD160006800F46050C0080199D1
:10447000086142F20000C4F20200006800F00F0080
:104480000099086002B0704740F28000C2F200005C
:104490000068704780B5FFF7F7FF41F20801C4F2EA
:1044A00002010968C1F302224FF6F841C0F600018B
:1044B000895C01F01F01C84080BD000080B5FFF796
:1044C000E3FF41F20801C4F202010968C1F3C2220C
:1044D0004FF6F841C0F60001895C01F01F01C840A9
:1044E00080BD000086B041F20800C4F202000068FE
:1044F00000F00C00042806D1FFE742F20040C0F2B1
:10450000F400019069E041F20800C4F20200006882
:1045100000F00C00082806D1FFE741F60030C0F299
:10452000B700019058E041F20800C4F202000068B0
:1045300000F00C000C284BD1FFE741F20C00C4F254
:104540000200016801F0030104910068C1B201207A
:1045500000EB1110029004980090022815D0FFE79C
:104560000098032812D1FFE7029941F60030C0F20B
:10457000B700B0FBF1F041F20C01C4F2020109688E
:10458000C1F306214843059011E0FFE7029942F28A
:104590000040C0F2F400B0FBF1F041F20C01C4F2B3
:1045A00002010968C1F3062148430590FFE741F283
:1045B0000C00C4F20200006800F0C061022000EBB1
:1045C0001160039005980399B0FBF1F0019002E0AF
:1045D00000200190FFE7FFE7FFE7019806B0704772
:1045E000B0B588B00690069820B9FFE701208DF895
:1045F0001F00D0E306980078C007002800F09B80D9
:10460000FFE741F20800C4F20200006800F00C006D
:10461000049041F20C00C4F20200006800F00300B4
:10462000039004980C2804D1FFE70398032804D0D2
:10463000FFE70498082812D1FFE741F20000C4F216
:10464000020000688003002808D5FFE7069840684C
:1046500020B9FFE701208DF81F009CE36AE0FFE727
:1046600006984068B0F5803F09D1FFE741F20001AC
:10467000C4F20201086840F48030086020E0069827
:104680004068B0F5A02F0DD1FFE741F20001C4F260
:104690000201086840F480200860086840F4803017
:1046A00008600CE041F20001C4F20201086820F445
:1046B00080300860086820F480200860FFE7FFE78A
:1046C000FFE706984068D0B1FFE7FFF745F805908F
:1046D000FFE741F20000C4F20200006880030028F6
:1046E0000CD4FFE7FFF738F80599401A652804D382
:1046F000FFE703208DF81F004DE3EAE719E0FFF71D
:104700002BF80590FFE741F20000C4F202000068B8
:10471000800300280CD5FFE7FFF71EF80599401A23
:10472000652804D3FFE703208DF81F0033E3EAE791
:10473000FFE7FFE7FFE7069800788007002840F1D1
:104740009F80FFE741F20800C4F20200006800F019
:104750000C00049041F20C00C4F20200006800F06A
:104760000300039004980C2804D1FFE70398022863
:1047700004D0FFE7049804282CD1FFE741F20000A1
:10478000C4F2020000684005002808D5FFE706983B
:10479000C06820B9FFE701208DF81F00FBE241F25D
:1047A0000401C4F20201086820F0FE40069A126972
:1047B00040EA0260086040F23860C2F2000000681F
:1047C000FEF7F6FF20B1FFE701208DF81F00E2E2BF
:1047D000FFE754E00698C06870B3FFE741F20001BC
:1047E000C4F20201086840F480700860FEF7B4FF6C
:1047F0000590FFE741F20000C4F2020000684005A6
:1048000000280CD4FFE7FEF7A7FF0599401A0328FC
:1048100004D3FFE703208DF81F00BCE2EAE741F272
:104820000401C4F20201086820F0FE40069A1269F1
:1048300040EA0260086021E041F20001C4F2020196
:10484000086820F480700860FEF786FF0590FFE797
:1048500041F20000C4F202000068400500280CD5B7
:10486000FFE7FEF779FF0599401A032804D3FFE715
:1048700003208DF81F008EE2EAE7FFE7FFE7FFE77E
:10488000069800780007002849D5FFE70698406998
:1048900010B3FFE741F29401C4F20201086840F04E
:1048A00001000860FEF758FF0590FFE741F2940011
:1048B000C4F202000068800700280CD4FFE7FEF76E
:1048C0004BFF0599401A032804D3FFE703208DF816
:1048D0001F0060E2EAE721E041F29401C4F2020124
:1048E000086820F001000860FEF736FF0590FFE73A
:1048F00041F29400C4F202000068800700280CD541
:10490000FFE7FEF729FF0599401A032804D3FFE7C4
:1049100003208DF81F003EE2EAE7FFE7FFE7069875
:1049200000784007002840F1C680FFE700208DF89E
:104930000B0041F25800C4F202000068C0000028D9
:1049400013D4FFE7FFE741F25800C4F20200016808
:1049500041F080510160006800F0805001900198A2
:10496000FFE701208DF80B00FFE747F20000C4F2DB
:1049700000000068C005002822D4FFE747F20001CC
:10498000C4F20001086840F480700860FEF7E4FE9D
:104990000590FFE747F20000C4F200000068C00580
:1049A00000280CD4FFE7FEF7D7FE0599401A03282C
:1049B00004D3FFE703208DF81F00ECE1EAE7FFE7EF
:1049C000FFE706988068012809D1FFE741F29001CE
:1049D000C4F20201086840F0010008601FE0069878
:1049E000806805280DD1FFE741F29001C4F2020171
:1049F000086840F004000860086840F001000860A2
:104A00000CE041F29001C4F20201086820F00100BC
:104A10000860086820F004000860FFE7FFE7FFE790
:104A200006988068E0B1FFE7FEF796FE0590FFE785
:104A300041F29000C4F202000068800700280ED402
:104A4000FFE7FEF789FE0599401A41F28931884255
:104A500004D3FFE703208DF81F009CE1E8E71BE08B
:104A6000FEF77AFE0590FFE741F29000C4F20200E3
:104A70000068800700280ED5FFE7FEF76DFE059958
:104A8000401A41F28931884204D3FFE703208DF8B0
:104A90001F0080E1E8E7FFE79DF80B00012809D13E
:104AA000FFE741F25801C4F20201086820F080508B
:104AB0000860FFE7FFE7069800788006002849D5E0
:104AC000FFE70698806910B3FFE741F29801C4F24E
:104AD0000201086840F001000860FEF73DFE059005
:104AE000FFE741F29800C4F2020000688007002846
:104AF0000CD4FFE7FEF730FE0599401A032804D3D3
:104B0000FFE703208DF81F0045E1EAE721E041F2CD
:104B10009801C4F20201086820F001000860FEF765
:104B20001BFE0590FFE741F29800C4F20200006806
:104B3000800700280CD5FFE7FEF70EFE0599401A06
:104B4000032804D3FFE703208DF81F0023E1EAE7E1
:104B5000FFE7FFE70698C069002800F01881FFE72B
:104B600041F20800C4F20200006800F00C000C28BA
:104B700000F0B480FFE70698C06902287CD1FFE707
:104B800041F20001C4F20201086820F08070086060
:104B9000FEF7E2FD0590FFE741F20000C4F20200DB
:104BA0000068800100280CD5FFE7FEF7D5FD0599C8
:104BB000401A032804D3FFE703208DF81F00EAE022
:104BC000EAE741F20C01C4F20201086848F20C0263
:104BD000C0F29F121040DDF818C0DCF82020DCF88D
:104BE0002450DCF828E0DCF82C306FF00F0404EBE4
:104BF0000514224342EA0E22DCF8304040F2000E57
:104C0000CFF6E07E0EEA045EAEF5001E42EA0E022A
:104C1000DCF834E04FF07E4C0CEA0E6C0CF17E4C6C
:104C200042EA0C0242EAC3621043086041F2000209
:104C3000C4F20202106840F080701060086840F012
:104C400080700860FEF788FD0590FFE741F20000E4
:104C5000C4F202000068800100280CD4FFE7FEF7D0
:104C60007BFD0599401A032804D3FFE703208DF844
:104C70001F0090E0EAE730E041F20001C4F20201D7
:104C8000086820F08070086041F20C01C4F2020153
:104C9000086820F00300086008684FF6FF72CFF63E
:104CA000EE6210400860FEF757FD0590FFE741F205
:104CB0000000C4F202000068800100280CD5FFE764
:104CC000FEF74AFD0599401A032804D3FFE70320A5
:104CD0008DF81F005FE0EAE7FFE757E00698C0693C
:104CE000012804D1FFE701208DF81F0053E041F2B5
:104CF0000C00C4F2020000680390039800F0030067
:104D00000699096A88423BD1FFE7039800F0F0005A
:104D100006994A6A6FF00F0101EB021188422FD108
:104D2000FFE7039800F4FE400699896AB0EB012F73
:104D300026D1FFE7039800F078400699C96AB0EBE6
:104D4000C16F1DD1FFE7039800F4C00006990A6BFC
:104D50000021CFF6E07101EA0251A1F5001188426D
:104D60000ED1FFE7039800F0C06006994A6B4FF040
:104D70007E4101EA026101F17E41884204D0FFE7F1
:104D800001208DF81F0006E0FFE7FFE7FFE70020A6
:104D90008DF81F00FFE79DF81F0008B0B0BD0000B0
:104DA00080B582B03021C4F20101086840F00100F2
:104DB0000860FEF7D1FC0090FFE73020C4F201004C
:104DC0000068000700280CD4FFE7FEF7C5FC009937
:104DD000401A0B2804D3FFE703208DF8070004E0F6
:104DE000EBE700208DF80700FFE79DF8070002B011
:104DF00080BD000081B000903021C4F2010108683C
:104E000020F00200009A1043086001B070470000D3
:104E100081B000903021C4F20101086820F0300018
:104E2000009A1043086001B07047000081B0009004
:104E300001B0704781B0009001B0704781B0009020
:104E400001B0704781B0009001B0704781B0009010
:104E500001B0704781B0009001B0704785B00390F9
:104E60000291FFE7039890F83C00012804D1FFE786
:104E700002208DF81300A7E00399012081F83C007F
:104E8000FFE7FFE70399022081F83D0003980068DF
:104E9000406801900398006880680090039800685B
:104EA00042F60041C4F20101884212D0FFE70398A4
:104EB000006843F20041C4F20101884209D0FFE7D3
:104EC0000398006845F20001C4F2010188420AD14A
:104ED000FFE7019820F47000019002984168019862
:104EE00008430190FFE701984FF68F71CFF6FF510D
:104EF00008400190029801680198084301900198C8
:104F00000399096848600398006842F60041C4F2BA
:104F1000010188423CD0FFE703980068B0F1804F60
:104F200036D0FFE70398006840F20041C4F2000168
:104F300088422DD0FFE70398006840F60001C4F2D4
:104F40000001884224D0FFE70398006840F6004142
:104F5000C4F2000188421BD0FFE70398006843F2C7
:104F60000041C4F20101884212D0FFE703980068B3
:104F700044F20001C4F20101884209D0FFE703981E
:104F8000006845F20001C4F2010188420ED1FFE73A
:104F9000009820F0800000900298816800980843F3
:104FA00000900098039909688860FFE70399012041
:104FB00081F83D00FFE70399002081F83C00FFE7FE
:104FC00000208DF81300FFE79DF8130005B070472F
:104FD00081B0009001B0704780B582B00090009819
:104FE00020B9FFE701208DF8070045E0009890F810
:104FF0003D0040B9FFE70099002081F83C0000988F
:1050000000F03EF8FFE70099022081F83D0000998A
:1050100051F8040B03F000FD0099012081F84800CD
:10502000FFE70099012081F83E00009981F83F00D8
:10503000009981F84000009981F84100009981F8B9
:105040004200009981F84300FFE7FFE70099012043
:1050500081F84400009981F84500009981F84600E4
:10506000009981F84700FFE70099012081F83D0091
:1050700000208DF80700FFE79DF8070002B080BD13
:1050800083B002900298006840F20041C4F200012F
:10509000884210D1FFE7FFE741F25800C4F2020056
:1050A000016841F002010160006800F00200019017
:1050B0000198FFE719E00298006844F20001C4F289
:1050C0000101884210D1FFE7FFE741F26000C4F21E
:1050D0000200016841F480310160006800F4803012
:1050E00000900098FFE7FFE7FFE703B0704700007C
:1050F00083B00190019890F83D00012804D0FFE7AB
:1051000001208DF80B0072E00199022081F83D002A
:1051100001980168C86840F00100C8600198006803
:1051200042F60041C4F2010188423CD0FFE70198F9
:105130000068B0F1804F36D0FFE70198006840F278
:105140000041C4F2000188422DD0FFE701980068B9
:1051500040F60001C4F20001884224D0FFE7019824
:10516000006840F60041C4F2000188421BD0FFE70E
:105170000198006843F20041C4F20101884212D054
:10518000FFE70198006844F20001C4F2010188427F
:1051900009D0FFE70198006845F20001C4F201015F
:1051A000884219D1FFE70198006880680721C0F2A2
:1051B000010108400090009806280CD0FFE70098F5
:1051C000B0F5803F07D0FFE701980168086840F01C
:1051D00001000860FFE706E001980168086840F0F8
:1051E00001000860FFE700208DF80B00FFE79DF845
:1051F0000B0003B07047000080B586B004900391A7
:1052000000208DF80B00FFE7049890F83C0001287F
:1052100004D1FFE702208DF81700E0E00499012097
:1052200081F83C00FFE7FFE70499022081F83D0088
:10523000049800688068019001984FF68871CFF655
:10524000CE7108400190019820F47F4001900198B0
:10525000049909688860039800680090002800F0AD
:10526000A480FFE70098102800F09F80FFE70098D7
:10527000202800F09A80FFE70098302800F0958001
:10528000FFE70098402800F08380FFE7009850284F
:1052900064D0FFE7009860286DD0FFE70098702881
:1052A00038D0FFE70098B0F5805F32D0FFE7009874
:1052B000B0F5005F43D0FFE70098B0F5801F74D0D1
:1052C000FFE70098B0F1101F6FD0FFE70098202192
:1052D000C0F21001884268D0FFE700983021C0F288
:1052E0001001884261D0FFE700984021C0F2100110
:1052F00088425AD0FFE700985021C0F2100188423E
:1053000053D0FFE700987021C0F2100188424CD0C2
:1053100052E055E004980068039B5A689968DB687E
:1053200003F062FC0498006880680190019840F0E6
:1053300077000190019804990968886040E004981A
:105340000068039B5A689968DB6803F04DFC049879
:105350000168886840F48040886031E00498006803
:10536000039A5168D26803F071FC049800685021D8
:1053700003F054FC24E004980068039A5168D26852
:1053800003F08CFC04980068602103F047FC17E0F0
:1053900004980068039A5168D26803F057FC049897
:1053A0000068402103F03AFC0AE004980068039981
:1053B000096803F033FC03E001208DF80B00FFE7E0
:1053C0000499012081F83D00FFE70499002081F84D
:1053D0003C00FFE79DF80B008DF81700FFE79DF8F4
:1053E000170006B080BD000081B0009001B070478A
:1053F00080B582B0019001980068006900F0020158
:105400000020B0EB510F28D0FFE701980068C0687A
:1054100000F002010020B0EB510F1DD0FFE7019812
:1054200001686FF002000861019901200877019876
:1054300000688069800720B1FFE70198FFF7D4FF7B
:1054400006E0019800F0A6F9019800F0A7F9FFE73F
:10545000019900200877FFE7FFE7019800680069DD
:1054600000F004010020B0EB910F29D0FFE7019874
:105470000068C06800F004010020B0EB910F1ED05E
:10548000FFE7019801686FF00400086101990220AC
:10549000087701980068806910F4407F04D0FFE726
:1054A0000198FFF7A1FF06E0019800F073F9019859
:1054B00000F074F9FFE7019900200877FFE7FFE7A4
:1054C00001980068006900F008010020B0EBD10FDE
:1054D00028D0FFE701980068C06800F008010020AC
:1054E000B0EBD10F1DD0FFE7019801686FF0080005
:1054F000086101990420087701980068C069800755
:1055000020B1FFE70198FFF76FFF06E0019800F078
:1055100041F9019800F042F9FFE70199002008776E
:10552000FFE7FFE701980068006900F01001002024
:10553000B0EB111F29D0FFE701980068C06800F0A8
:1055400010010020B0EB111F1ED0FFE70198016889
:105550006FF0100008610199082008770198006831
:10556000C06910F4407F04D0FFE70198FFF73CFFCB
:1055700006E0019800F00EF9019800F00FF9FFE73E
:10558000019900200877FFE7FFE7019800680069AC
:10559000C00780B1FFE701980068C068C00748B144
:1055A000FFE7019801686FF001000861019800F0C1
:1055B000F9F8FFE7FFE7019800680069C1B2002031
:1055C000B0EBD11F13D0FFE701980068C068C1B2EB
:1055D0000020B0EBD11F09D0FFE7019801686FF000
:1055E000800008610198FFF725FCFFE7FFE70198BD
:1055F0000068006900F480710020B0EB112F13D017
:10560000FFE701980068C068C1B20020B0EBD11F6D
:1056100009D0FFE7019801686FF480700861019874
:10562000FFF704FCFFE7FFE701980068006900F05E
:1056300040010020B0EB911F14D0FFE701980068F3
:10564000C06800F040010020B0EB911F09D0FFE7D7
:10565000019801686FF040000861019800F0B4F80B
:10566000FFE7FFE701980068006900F020010020D3
:10567000B0EB511F14D0FFE701980068C06800F03C
:1056800020010020B0EB511F09D0FFE7019801680D
:105690006FF0200008610198FFF7D0FBFFE7FFE7FC
:1056A00001980068006900F480110020B0EB115FE0
:1056B00014D0FFE701980068C06800F48011002052
:1056C000B0EB115F09D0FFE7019801686FF480101B
:1056D00008610198FFF7BAFBFFE7FFE70198006850
:1056E000006900F400110020B0EB515F14D0FFE717
:1056F00001980068C06800F400110020B0EB515F11
:1057000009D0FFE7019801686FF400100861019863
:10571000FFF798FBFFE7FFE701980068006900F4D6
:1057200080010020B0EB915F14D0FFE70198006882
:10573000C06800F480010020B0EB915F09D0FFE762
:10574000019801686FF4800008610198FFF782FBFF
:10575000FFE7FFE701980068006900F400010020FE
:10576000B0EBD15F14D0FFE701980068C06800F487
:1057700000010020B0EBD15F09D0FFE7019801687C
:105780006FF4000008610198FFF722FCFFE7FFE7D4
:1057900002B080BD81B0009001B0704781B0009030
:1057A00001B0704780B582B001900198006845F261
:1057B0000001C4F20101884203D1FFE7FDF7D2FFE7
:1057C000FFE702B080BD000081B0009001B07047DB
:1057D00083B00190FFE7019890F88000012804D180
:1057E000FFE702208DF80B002CE00199012081F8E1
:1057F0008000FFE7FFE701992420C1F884000198A9
:1058000000680068009001980168086820F00100B5
:105810000860009820F00050009001990020486630
:10582000009801990968086001992020C1F8840056
:10583000FFE70199002081F88000FFE700208DF844
:105840000B00FFE79DF80B0003B0704780B586B0F2
:1058500004900391ADF80A200498D0F8880020281D
:1058600052D1FFE7039820B1FFE7BDF80A0020B945
:10587000FFE701208DF817004AE0FFE7049890F851
:105880008000012804D1FFE702208DF817003FE0D7
:105890000499012081F88000FFE7FFE704990120C7
:1058A000C86604980399BDF80A2003F0D3FF8DF869
:1058B00009009DF8090010BBFFE70498C06E01289D
:1058C00018D1FFE70498016810200862FFE7FFE79E
:1058D0000498006850E8000F40F010000190FFE7C6
:1058E00001990498026842E800100028F0D1FFE70F
:1058F000FFE703E001208DF80900FFE7FFE79DF8CF
:1059000009008DF8170003E002208DF81700FFE76B
:105910009DF8170006B080BD80B582B00190ADF84B
:105920000210019841F65051C2F2000188422ED176
:10593000FFE70020ADF80000FFE7BDF80000BDF86C
:105940000210884222DAFFE7BDF8001041F24C4015
:10595000C2F20000405C40F2B801C0F601010988C3
:1059600088420CD1FFE7BDF8001041F24C40C2F272
:1059700000000844BDF8021002F078FEFFE7FFE7E0
:10598000BDF800000130ADF80000D6E7FFE702B037
:1059900080BD000081B0009001B0704780B584B038
:1059A00002900191FFE7029890F88000012804D14D
:1059B000FFE702208DF80F0032E00299012081F804
:1059C0008000FFE7FFE702992420C1F884000298D5
:1059D00000680068009002980168086820F00100E3
:1059E000086002980068806820F0606001990843B0
:1059F000029909688860029803F07AF90098029980
:105A00000968086002992020C1F88400FFE7029924
:105A1000002081F88000FFE700208DF80F00FFE7ED
:105A20009DF80F0004B080BD80B584B00290019154
:105A3000FFE7029890F88000012804D1FFE70220D8
:105A40008DF80F0032E00299012081F88000FFE715
:105A5000FFE702992420C1F88400029800680068DA
:105A6000009002980168086820F001000860029820
:105A70000068806820F06040019908430299096835
:105A80008860029803F034F9009802990968086068
:105A900002992020C1F88400FFE70299002081F8D4
:105AA0008000FFE700208DF80F00FFE79DF80F0052
:105AB00004B080BD81B0009001B0704781B000900B
:105AC00001B0704780B582B001900198D0F88C0089
:105AD000C00788B1FFE7019801680120086241F61C
